{
  "contractName": "Authority",
  "abi": [
    {
      "inputs": [],
      "payable": false,
      "stateMutability": "nonpayable",
      "type": "constructor"
    },
    {
      "constant": false,
      "inputs": [
        {
          "name": "newOwner",
          "type": "address"
        }
      ],
      "name": "changeOwner",
      "outputs": [],
      "payable": false,
      "stateMutability": "nonpayable",
      "type": "function"
    },
    {
      "constant": true,
      "inputs": [],
      "name": "getOwner",
      "outputs": [
        {
          "name": "",
          "type": "address"
        }
      ],
      "payable": false,
      "stateMutability": "view",
      "type": "function"
    },
    {
      "constant": false,
      "inputs": [
        {
          "name": "newNext",
          "type": "address"
        }
      ],
      "name": "setNewAuthority",
      "outputs": [],
      "payable": false,
      "stateMutability": "nonpayable",
      "type": "function"
    },
    {
      "constant": true,
      "inputs": [],
      "name": "getNextAuthority",
      "outputs": [
        {
          "name": "",
          "type": "address"
        }
      ],
      "payable": false,
      "stateMutability": "view",
      "type": "function"
    },
    {
      "constant": false,
      "inputs": [
        {
          "name": "addr",
          "type": "address"
        }
      ],
      "name": "grantContractAuth",
      "outputs": [],
      "payable": false,
      "stateMutability": "nonpayable",
      "type": "function"
    },
    {
      "constant": false,
      "inputs": [
        {
          "name": "addr",
          "type": "address"
        }
      ],
      "name": "revokeContractAuth",
      "outputs": [],
      "payable": false,
      "stateMutability": "nonpayable",
      "type": "function"
    },
    {
      "constant": false,
      "inputs": [],
      "name": "setPayer",
      "outputs": [],
      "payable": false,
      "stateMutability": "nonpayable",
      "type": "function"
    },
    {
      "constant": true,
      "inputs": [
        {
          "name": "contractAddr",
          "type": "address"
        }
      ],
      "name": "getPayer",
      "outputs": [
        {
          "name": "",
          "type": "uint256"
        }
      ],
      "payable": false,
      "stateMutability": "view",
      "type": "function"
    },
    {
      "constant": false,
      "inputs": [
        {
          "name": "price",
          "type": "uint256"
        },
        {
          "name": "gaslimit",
          "type": "uint64"
        }
      ],
      "name": "setGas",
      "outputs": [],
      "payable": false,
      "stateMutability": "nonpayable",
      "type": "function"
    },
    {
      "constant": true,
      "inputs": [
        {
          "name": "contractAddr",
          "type": "address"
        }
      ],
      "name": "getGas",
      "outputs": [
        {
          "name": "",
          "type": "uint256"
        },
        {
          "name": "",
          "type": "uint64"
        }
      ],
      "payable": false,
      "stateMutability": "view",
      "type": "function"
    },
    {
      "constant": true,
      "inputs": [
        {
          "name": "contractAddr",
          "type": "address"
        }
      ],
      "name": "getContractInfo",
      "outputs": [
        {
          "name": "",
          "type": "uint256"
        },
        {
          "name": "",
          "type": "uint256"
        },
        {
          "name": "",
          "type": "uint256"
        },
        {
          "name": "",
          "type": "uint64"
        }
      ],
      "payable": false,
      "stateMutability": "view",
      "type": "function"
    },
    {
      "constant": false,
      "inputs": [
        {
          "name": "addr",
          "type": "address"
        }
      ],
      "name": "grant",
      "outputs": [],
      "payable": false,
      "stateMutability": "nonpayable",
      "type": "function"
    },
    {
      "constant": false,
      "inputs": [
        {
          "name": "addr",
          "type": "address"
        }
      ],
      "name": "revoke",
      "outputs": [],
      "payable": false,
      "stateMutability": "nonpayable",
      "type": "function"
    },
    {
      "constant": true,
      "inputs": [
        {
          "name": "addr",
          "type": "address"
        }
      ],
      "name": "getAuth",
      "outputs": [
        {
          "name": "",
          "type": "uint256"
        }
      ],
      "payable": false,
      "stateMutability": "view",
      "type": "function"
    }
  ],
  "bytecode": "0x608060405234801561001057600080fd5b5060018054600160a060020a031990811633178255600280549091169055600055610596806100406000396000f3006080604052600436106100cf5763ffffffff7c010000000000000000000000000000000000000000000000000000000060003504166336dd6b3d81146100d45780636379f9af146101175780636510e2961461013a5780636db05a771461015f5780636e4e3e2d1461017457806370284d19146101a757806374a8f103146101c8578063893d20e8146101e957806389c076911461021a5780639d0eba611461022f578063a6f9dae114610250578063a8a73eef14610271578063c4e0800d14610292578063cd481e51146102b3575b600080fd5b3480156100e057600080fd5b506100f5600160a060020a0360043516610304565b6040805192835267ffffffffffffffff90911660208301528051918290030190f35b34801561012357600080fd5b50610138600160a060020a0360043516610338565b005b34801561014657600080fd5b5061013860043567ffffffffffffffff60243516610366565b34801561016b57600080fd5b506101386103b2565b34801561018057600080fd5b50610195600160a060020a03600435166103c6565b60408051918252519081900360200190f35b3480156101b357600080fd5b50610138600160a060020a03600435166103e1565b3480156101d457600080fd5b50610138600160a060020a03600435166103fe565b3480156101f557600080fd5b506101fe610434565b60408051600160a060020a039092168252519081900360200190f35b34801561022657600080fd5b506101fe610443565b34801561023b57600080fd5b50610138600160a060020a0360043516610452565b34801561025c57600080fd5b50610138600160a060020a0360043516610495565b34801561027d57600080fd5b50610195600160a060020a03600435166104d8565b34801561029e57600080fd5b50610138600160a060020a03600435166104f3565b3480156102bf57600080fd5b506102d4600160a060020a0360043516610524565b6040805194855260208501939093528383019190915267ffffffffffffffff166060830152519081900360800190f35b600160a060020a03811660009081526005602090815260408083205460069092529091205467ffffffffffffffff16915091565b600154600160a060020a0316331461034c57fe5b600160a060020a0316600090815260036020526040812055565b60013360009081526004602090815260408083209390935560058152828220949094556006909352909120805467ffffffffffffffff191667ffffffffffffffff909216919091179055565b600133600090815260046020526040902055565b600160a060020a031660009081526007602052604090205490565b600160a060020a0316600090815260076020526040902060019055565b3360009081526003602052604090205460011461041a57600080fd5b600160a060020a0316600090815260076020526040812055565b600154600160a060020a031690565b600254600160a060020a031690565b600154600160a060020a0316331461046657fe5b6002805473ffffffffffffffffffffffffffffffffffffffff1916600160a060020a0392909216919091179055565b600154600160a060020a031633146104a957fe5b6001805473ffffffffffffffffffffffffffffffffffffffff1916600160a060020a0392909216919091179055565b600160a060020a031660009081526004602052604090205490565b600154600160a060020a0316331461050757fe5b600160a060020a0316600090815260036020526040902060019055565b600160a060020a031660009081526003602090815260408083205460048352818420546005845282852054600690945291909320549293909267ffffffffffffffff16905600a165627a7a72305820247d9c6ecbe800ee06982d3c2fa8756c8681808bcc9426bd74a4a5984ef4d0d50029",
  "source": "pragma solidity ^0.4.20;\n\ncontract Authority {\n    enum Payer {\n        NOTSET,     // 未设置\n        SELF        // 合约账户支付\n    }\n    enum Permission {\n        NOTSET,     // 未设置\n        PERMIT,     // 允许\n        FORBID      // 禁止\n    }\n\n    //////////// 注：本合约的数据结构顺序改变会影响 go 代码  //////////////\n\n    uint    version;    // 版本号\n    address owner;      // 合约拥有者\n    address next;       // 链式结构，指向新合约地址\n    mapping(address => uint256) addr2opauth;    // 合约地址 -- 操作权限\n    mapping(address => uint256) addr2payer;     // 合约地址 -- 合约执行是否由合约账户支付\n    mapping(address => uint256) addr2gasprice;  // 合约地址 -- 合约执行的gasprice\n    mapping(address => uint64)  addr2gaslimit;  // 合约地址 -- 合约执行的gaslimit\n    mapping(address => uint256) addr2auth;      // 账户地址 -- 权限\n\n    constructor() public {\n        owner = msg.sender;\n        next = address(0);\n        version = 0x01;\n        // next = 0x2ce224cad729c63c5cdf9ce8f2e8b5b8f81ec7b4;\n    }\n\n    /**\n     * @dev 更新合约拥有者\n     * @param newOwner  新的拥有者地址\n     */\n    function changeOwner(address newOwner) public {\n        assert(msg.sender == owner);\n        owner = newOwner;\n    }\n\n    /**\n     * @dev 获取合约拥有者\n     */\n    function getOwner() public view returns(address) {\n        return owner;\n    }\n\n    /**\n     * @dev 设置新的权限控制合约地址\n     * @param newNext  新的权限合约地址\n     */\n    function setNewAuthority(address newNext) public {\n        assert(msg.sender == owner);\n        next = newNext;\n    }\n\n    /**\n     * @dev 获取新的权限控制合约地址\n     */\n    function getNextAuthority() public view returns(address) {\n        return next;\n    }\n\n    /**\n     * @dev 授予合约授权账户权限\n     * @param addr 合约地址\n     */\n    function grantContractAuth(address addr) public {\n        assert(msg.sender == owner);\n\n        addr2opauth[addr] = uint(Permission.PERMIT);\n    }\n\n    /**\n     * @dev 收回合约授权账户权限\n     * @param addr 合约地址\n     */\n    function revokeContractAuth(address addr) public {\n        assert(msg.sender == owner);\n\n        addr2opauth[addr] = uint(Permission.FORBID);\n        delete addr2opauth[addr];\n    }\n\n    /**\n     * @dev 设置合约执行gas支付者\n     */\n    function setPayer() public {\n        addr2payer[msg.sender] = uint256(Payer.SELF);\n    }\n\n    /**\n     * @dev 获取合约执行gas支付者\n     * @param contractAddr  合约账户地址\n     */\n    function getPayer(address contractAddr) public view returns(uint256){\n        return addr2payer[contractAddr];\n    }\n\n    /**\n     * @dev 设置合约执行gas支付者\n     * @param price  合约执行的gasprice\n     * @param gaslimit  合约执行的gaslimit\n     */\n    function setGas(uint256 price, uint64 gaslimit) public {\n        addr2payer[msg.sender] = uint(Payer.SELF);\n        addr2gasprice[msg.sender] = price;\n        addr2gaslimit[msg.sender] = gaslimit;\n    }\n\n    /**\n     * @dev 获取合约执行的gasprice gaslimit\n     * @param contractAddr  合约账户地址\n     */\n    function getGas(address contractAddr) public view returns(uint256, uint64){\n        return (addr2gasprice[contractAddr], addr2gaslimit[contractAddr]); \n    }\n\n    /**\n     * @dev 获取合约执行支付者，gasprice gaslimit\n     * @param contractAddr  合约账户地址\n     */\n    function getContractInfo(address contractAddr) public view returns(uint256, uint256, uint256, uint64){\n        return (addr2opauth[contractAddr], addr2payer[contractAddr], addr2gasprice[contractAddr], addr2gaslimit[contractAddr]);\n    }\n\n    /**\n     * @dev 授予权限\n     * @param addr 账户地址\n     */\n    function grant(address addr) public {\n        // require(uint(Permission.PERMIT) == addr2opauth[msg.sender]);\n        addr2auth[addr] = uint(Permission.PERMIT);\n    }\n\n    /**\n     * @dev 收回权限\n     * @param addr 账户地址\n     */\n    function revoke(address addr) public {\n        require(uint(Permission.PERMIT) == addr2opauth[msg.sender]);\n        addr2auth[addr] = uint(Permission.FORBID);\n        delete addr2auth[addr];\n    }\n\n    /**\n     * @dev 获取某账户访问合约权限\n     * @param addr          账户地址\n     */\n    function getAuth(address addr) public view returns(uint256) {\n        return addr2auth[addr];\n    }\n}",
  "sourcePath": "/Users/hpf/Workspace/binary/tokenCurrency/contracts/Authority.sol",
  "compiler": {
    "name": "solc",
    "version": "0.4.24+commit.e67f0147.Emscripten.clang"
  },
  "schemaVersion": "2.0.1",
  "updatedAt": "2018-12-27T10:16:34.517Z"
}