{
  "contractName": "CurrencyToken",
  "abi": [
    {
      "constant": true,
      "inputs": [],
      "name": "name",
      "outputs": [
        {
          "name": "",
          "type": "string"
        }
      ],
      "payable": false,
      "stateMutability": "view",
      "type": "function"
    },
    {
      "constant": false,
      "inputs": [],
      "name": "_setPayer",
      "outputs": [],
      "payable": false,
      "stateMutability": "nonpayable",
      "type": "function"
    },
    {
      "constant": true,
      "inputs": [],
      "name": "authorityAddress",
      "outputs": [
        {
          "name": "",
          "type": "address"
        }
      ],
      "payable": false,
      "stateMutability": "view",
      "type": "function"
    },
    {
      "constant": false,
      "inputs": [
        {
          "name": "name",
          "type": "string"
        },
        {
          "name": "addr",
          "type": "address"
        }
      ],
      "name": "_setContract",
      "outputs": [],
      "payable": false,
      "stateMutability": "nonpayable",
      "type": "function"
    },
    {
      "constant": false,
      "inputs": [
        {
          "name": "addr",
          "type": "address"
        }
      ],
      "name": "_grant",
      "outputs": [],
      "payable": false,
      "stateMutability": "nonpayable",
      "type": "function"
    },
    {
      "constant": true,
      "inputs": [
        {
          "name": "",
          "type": "address"
        }
      ],
      "name": "games",
      "outputs": [
        {
          "name": "",
          "type": "bool"
        }
      ],
      "payable": false,
      "stateMutability": "view",
      "type": "function"
    },
    {
      "constant": true,
      "inputs": [],
      "name": "pledgeAddr",
      "outputs": [
        {
          "name": "",
          "type": "address"
        }
      ],
      "payable": false,
      "stateMutability": "view",
      "type": "function"
    },
    {
      "constant": true,
      "inputs": [],
      "name": "owner",
      "outputs": [
        {
          "name": "",
          "type": "address"
        }
      ],
      "payable": false,
      "stateMutability": "view",
      "type": "function"
    },
    {
      "constant": false,
      "inputs": [
        {
          "name": "price",
          "type": "uint256"
        },
        {
          "name": "gaslimit",
          "type": "uint64"
        }
      ],
      "name": "_setGas",
      "outputs": [],
      "payable": false,
      "stateMutability": "nonpayable",
      "type": "function"
    },
    {
      "constant": false,
      "inputs": [
        {
          "name": "addr",
          "type": "address"
        }
      ],
      "name": "_setauthority",
      "outputs": [],
      "payable": false,
      "stateMutability": "nonpayable",
      "type": "function"
    },
    {
      "constant": false,
      "inputs": [
        {
          "name": "name",
          "type": "string"
        }
      ],
      "name": "_getContract",
      "outputs": [
        {
          "name": "",
          "type": "address"
        }
      ],
      "payable": false,
      "stateMutability": "nonpayable",
      "type": "function"
    },
    {
      "constant": false,
      "inputs": [
        {
          "name": "addr",
          "type": "address"
        }
      ],
      "name": "_revoke",
      "outputs": [],
      "payable": false,
      "stateMutability": "nonpayable",
      "type": "function"
    },
    {
      "constant": true,
      "inputs": [],
      "name": "freezeAddr",
      "outputs": [
        {
          "name": "",
          "type": "address"
        }
      ],
      "payable": false,
      "stateMutability": "view",
      "type": "function"
    },
    {
      "constant": true,
      "inputs": [],
      "name": "tableMgrAddr",
      "outputs": [
        {
          "name": "",
          "type": "address"
        }
      ],
      "payable": false,
      "stateMutability": "view",
      "type": "function"
    },
    {
      "inputs": [
        {
          "name": "_val",
          "type": "uint256"
        }
      ],
      "payable": true,
      "stateMutability": "payable",
      "type": "constructor"
    },
    {
      "payable": true,
      "stateMutability": "payable",
      "type": "fallback"
    },
    {
      "anonymous": false,
      "inputs": [
        {
          "indexed": false,
          "name": "code",
          "type": "uint256"
        }
      ],
      "name": "ResultCode",
      "type": "event"
    },
    {
      "anonymous": false,
      "inputs": [
        {
          "indexed": true,
          "name": "from",
          "type": "address"
        },
        {
          "indexed": true,
          "name": "to",
          "type": "address"
        },
        {
          "indexed": false,
          "name": "value",
          "type": "uint256"
        }
      ],
      "name": "Transfer",
      "type": "event"
    },
    {
      "constant": false,
      "inputs": [
        {
          "name": "addr",
          "type": "address"
        }
      ],
      "name": "setauthority",
      "outputs": [],
      "payable": false,
      "stateMutability": "nonpayable",
      "type": "function"
    },
    {
      "constant": false,
      "inputs": [
        {
          "name": "to",
          "type": "address"
        },
        {
          "name": "value",
          "type": "uint256"
        },
        {
          "name": "data",
          "type": "bytes"
        }
      ],
      "name": "transData",
      "outputs": [],
      "payable": false,
      "stateMutability": "nonpayable",
      "type": "function"
    },
    {
      "constant": false,
      "inputs": [
        {
          "name": "to",
          "type": "address"
        },
        {
          "name": "value",
          "type": "uint256"
        }
      ],
      "name": "transfer",
      "outputs": [],
      "payable": false,
      "stateMutability": "nonpayable",
      "type": "function"
    },
    {
      "constant": false,
      "inputs": [
        {
          "name": "to",
          "type": "address"
        },
        {
          "name": "value",
          "type": "uint256"
        },
        {
          "name": "data",
          "type": "bytes"
        }
      ],
      "name": "transfer",
      "outputs": [],
      "payable": false,
      "stateMutability": "nonpayable",
      "type": "function"
    },
    {
      "constant": true,
      "inputs": [
        {
          "name": "_owner",
          "type": "address"
        }
      ],
      "name": "balanceOf",
      "outputs": [
        {
          "name": "balance",
          "type": "uint256"
        }
      ],
      "payable": false,
      "stateMutability": "view",
      "type": "function"
    },
    {
      "constant": true,
      "inputs": [],
      "name": "totalSupply",
      "outputs": [
        {
          "name": "_supply",
          "type": "uint256"
        }
      ],
      "payable": false,
      "stateMutability": "view",
      "type": "function"
    },
    {
      "constant": true,
      "inputs": [],
      "name": "getPleage",
      "outputs": [
        {
          "name": "",
          "type": "address"
        }
      ],
      "payable": false,
      "stateMutability": "view",
      "type": "function"
    },
    {
      "constant": true,
      "inputs": [],
      "name": "getFreezer",
      "outputs": [
        {
          "name": "",
          "type": "address"
        }
      ],
      "payable": false,
      "stateMutability": "view",
      "type": "function"
    },
    {
      "constant": false,
      "inputs": [
        {
          "name": "_pleageAddr",
          "type": "address"
        }
      ],
      "name": "setPledge",
      "outputs": [],
      "payable": false,
      "stateMutability": "nonpayable",
      "type": "function"
    },
    {
      "constant": false,
      "inputs": [
        {
          "name": "_freezeAddr",
          "type": "address"
        }
      ],
      "name": "setFreezer",
      "outputs": [],
      "payable": false,
      "stateMutability": "nonpayable",
      "type": "function"
    },
    {
      "constant": false,
      "inputs": [
        {
          "name": "_price",
          "type": "uint256"
        },
        {
          "name": "_contact",
          "type": "string"
        },
        {
          "name": "_pay",
          "type": "string"
        },
        {
          "name": "_enable",
          "type": "bool"
        }
      ],
      "name": "setconfig",
      "outputs": [],
      "payable": false,
      "stateMutability": "nonpayable",
      "type": "function"
    },
    {
      "constant": true,
      "inputs": [],
      "name": "getconfig",
      "outputs": [
        {
          "name": "_json",
          "type": "string"
        }
      ],
      "payable": false,
      "stateMutability": "view",
      "type": "function"
    },
    {
      "constant": false,
      "inputs": [
        {
          "name": "_payer",
          "type": "int256"
        },
        {
          "name": "_account",
          "type": "string"
        },
        {
          "name": "_price",
          "type": "uint256"
        },
        {
          "name": "_amount",
          "type": "uint256"
        }
      ],
      "name": "prechange",
      "outputs": [
        {
          "name": "err",
          "type": "string"
        }
      ],
      "payable": false,
      "stateMutability": "nonpayable",
      "type": "function"
    },
    {
      "constant": true,
      "inputs": [
        {
          "name": "user",
          "type": "address"
        }
      ],
      "name": "getchange",
      "outputs": [
        {
          "name": "_json",
          "type": "string"
        }
      ],
      "payable": false,
      "stateMutability": "view",
      "type": "function"
    },
    {
      "constant": true,
      "inputs": [
        {
          "name": "_txid",
          "type": "uint256"
        }
      ],
      "name": "getchangebyid",
      "outputs": [
        {
          "name": "_json",
          "type": "string"
        }
      ],
      "payable": false,
      "stateMutability": "view",
      "type": "function"
    },
    {
      "constant": true,
      "inputs": [
        {
          "name": "page",
          "type": "uint256"
        },
        {
          "name": "pagesize",
          "type": "uint256"
        }
      ],
      "name": "listchange",
      "outputs": [
        {
          "name": "_json",
          "type": "string"
        }
      ],
      "payable": false,
      "stateMutability": "view",
      "type": "function"
    },
    {
      "constant": false,
      "inputs": [
        {
          "name": "_status",
          "type": "int256"
        }
      ],
      "name": "setchange",
      "outputs": [],
      "payable": false,
      "stateMutability": "nonpayable",
      "type": "function"
    },
    {
      "constant": false,
      "inputs": [
        {
          "name": "_txid",
          "type": "uint256"
        },
        {
          "name": "_status",
          "type": "int256"
        }
      ],
      "name": "subchange",
      "outputs": [],
      "payable": false,
      "stateMutability": "nonpayable",
      "type": "function"
    },
    {
      "constant": false,
      "inputs": [
        {
          "name": "_index",
          "type": "uint256"
        }
      ],
      "name": "balanceOfnum",
      "outputs": [
        {
          "name": "_json",
          "type": "string"
        }
      ],
      "payable": false,
      "stateMutability": "nonpayable",
      "type": "function"
    },
    {
      "constant": false,
      "inputs": [
        {
          "name": "_agentAddr",
          "type": "address"
        },
        {
          "name": "_amount",
          "type": "uint256"
        },
        {
          "name": "_contact",
          "type": "string"
        },
        {
          "name": "_token2MoneyRate",
          "type": "string"
        }
      ],
      "name": "submitExchangeToFiatMoney",
      "outputs": [
        {
          "name": "",
          "type": "string"
        }
      ],
      "payable": false,
      "stateMutability": "nonpayable",
      "type": "function"
    },
    {
      "constant": false,
      "inputs": [
        {
          "name": "roomMgr",
          "type": "address"
        }
      ],
      "name": "setRoomMgr",
      "outputs": [],
      "payable": false,
      "stateMutability": "nonpayable",
      "type": "function"
    },
    {
      "constant": false,
      "inputs": [
        {
          "name": "from",
          "type": "address"
        },
        {
          "name": "to",
          "type": "address"
        },
        {
          "name": "value",
          "type": "uint256"
        }
      ],
      "name": "transferToken",
      "outputs": [
        {
          "name": "",
          "type": "bool"
        }
      ],
      "payable": false,
      "stateMutability": "nonpayable",
      "type": "function"
    },
    {
      "constant": false,
      "inputs": [
        {
          "name": "tableMgr",
          "type": "address"
        }
      ],
      "name": "setTableMgr",
      "outputs": [],
      "payable": false,
      "stateMutability": "nonpayable",
      "type": "function"
    },
    {
      "constant": false,
      "inputs": [
        {
          "name": "tableid",
          "type": "uint256"
        }
      ],
      "name": "joinTexasTable",
      "outputs": [
        {
          "name": "ret",
          "type": "string"
        }
      ],
      "payable": false,
      "stateMutability": "nonpayable",
      "type": "function"
    },
    {
      "constant": false,
      "inputs": [
        {
          "name": "tableid",
          "type": "uint256"
        },
        {
          "name": "value",
          "type": "uint256"
        }
      ],
      "name": "joinTable",
      "outputs": [
        {
          "name": "ret",
          "type": "string"
        }
      ],
      "payable": false,
      "stateMutability": "nonpayable",
      "type": "function"
    },
    {
      "constant": false,
      "inputs": [
        {
          "name": "tableid",
          "type": "uint256"
        },
        {
          "name": "from",
          "type": "address"
        },
        {
          "name": "to",
          "type": "address"
        },
        {
          "name": "value",
          "type": "uint256"
        }
      ],
      "name": "transferForTM",
      "outputs": [
        {
          "name": "ret",
          "type": "string"
        }
      ],
      "payable": false,
      "stateMutability": "nonpayable",
      "type": "function"
    }
  ],
  "bytecode": "0x60806040526040516020806200506b833981016040818152915160008054600160a060020a0319908116731000000000000000000000000000000000000003178255600280548216731000000000000000000000000000000000000001179055600a805460018101825592526000805160206200504b8339815191529091018054821690556005805490911633179055828201909252600d8082527f43757272656e6379546f6b656e000000000000000000000000000000000000006020909201918252620000d191600991620004f0565b50600381905560408051808201909152600d81527f43757272656e6379546f6b656e0000000000000000000000000000000000000060208201526200012090306401000000006200014d810204565b336000818152600460205260409020829055620001469064010000000062000241810204565b50620005c1565b60008054604080517fa815ff15000000000000000000000000000000000000000000000000000000008152600160a060020a0385811660248301526004820192835286516044830152865193169363a815ff1593879387939092839260649092019160208701918190849084905b83811015620001d5578181015183820152602001620001bb565b50505050905090810190601f168015620002035780820380516001836020036101000a031916815260200191505b509350505050600060405180830381600087803b1580156200022457600080fd5b505af115801562000239573d6000803e3d6000fd5b505050505050565b600160a060020a03808216600090815260046020908152604080832054600b90925282205460155491939092911690831180156200027d575081155b15620002f957600a80546001810182556000805160206200504b833981519152018054600160a060020a031916600160a060020a0387811691821790925591546000928352600b60205260409092206000199092019091556006541615620002f357620002f38464010000000062000404810204565b620003fe565b82158015620003085750600082115b15620003fe57600a805460001981019081106200032157fe5b600091825260209091200154600a8054600160a060020a0390921691849081106200034857fe5b9060005260206000200160006101000a815481600160a060020a030219169083600160a060020a0316021790555081600b6000600a858154811015156200038b57fe5b6000918252602080832090910154600160a060020a03168352820192909252604001902055600a80546000190190620003c5908262000575565b50600160a060020a038085166000908152600b60205260408120556006541615620002f357620002f38464010000000062000488810204565b50505050565b600154604080517f70284d19000000000000000000000000000000000000000000000000000000008152600160a060020a038481166004830152915191909216916370284d1991602480830192600092919082900301818387803b1580156200046c57600080fd5b505af115801562000481573d6000803e3d6000fd5b5050505050565b600154604080517f74a8f103000000000000000000000000000000000000000000000000000000008152600160a060020a038481166004830152915191909216916374a8f10391602480830192600092919082900301818387803b1580156200046c57600080fd5b828054600181600116156101000203166002900490600052602060002090601f016020900481019282601f106200053357805160ff191683800117855562000563565b8280016001018555821562000563579182015b828111156200056357825182559160200191906001019062000546565b5062000571929150620005a1565b5090565b8154818355818111156200059c576000838152602090206200059c918101908301620005a1565b505050565b620005be91905b80821115620005715760008155600101620005a8565b90565b614a7a80620005d16000396000f3006080604052600436106101d45763ffffffff60e060020a60003504166306fdde0381146102415780630b6f6bc1146102cb5780631638a068146102fc57806318160ddd146103195780631ff7efc0146103405780632c341fe71461035b5780632d967bf61461037c57806333358d0714610394578063371be5891461043457806339031bd4146104495780633c695d4e1461045e578063422810ea146104735780634ce401ac146104dc57806351337408146105405780635d8aa11c146105555780636024069e14610576578063677272d71461058e578063701f8809146105bb57806370a0823114610662578063764a2c661461068357806379131a191461069e5780637adbd552146106d35780637e119b9c146106e85780637e8839a11461070957806386c3a4f91461072a5780638da5cb5b1461074b57806397b25f4b146107605780639d638aca146107855780639e834d40146107a65780639f09ec0f146107c7578063a9059cbb146107df578063b37e48e314610803578063b8924f4f1461085c578063be45fd621461087d578063c34f4ac8146108e6578063d07568ec1461094d578063d24088cf14610965578063ee0d591514610986578063f0a497f01461099b578063f5537ede146109b0575b60003415156101e25761023e565b6101f434610bb863ffffffff6109da16565b905080151561020257600080fd5b33600090815260046020526040902054610222908263ffffffff6109f616565b3360008181526004602052604090209190915561023e90610a0e565b50005b34801561024d57600080fd5b50610256610bc0565b6040805160208082528351818301528351919283929083019185019080838360005b83811015610290578181015183820152602001610278565b50505050905090810190601f1680156102bd5780820380516001836020036101000a031916815260200191505b509250505060405180910390f35b3480156102d757600080fd5b506102e0610c4e565b60408051600160a060020a039092168252519081900360200190f35b34801561030857600080fd5b50610317600435602435610c5e565b005b34801561032557600080fd5b5061032e61105c565b60408051918252519081900360200190f35b34801561034c57600080fd5b50610256600435602435611062565b34801561036757600080fd5b50610317600160a060020a03600435166112aa565b34801561038857600080fd5b50610256600435611376565b3480156103a057600080fd5b5060408051602060046024803582810135601f810185900485028601850190965285855261031795833595369560449491939091019190819084018382808284375050604080516020601f89358b018035918201839004830284018301909452808352979a999881019791965091820194509250829150840183828082843750949750505050913515159250611544915050565b34801561044057600080fd5b50610256611599565b34801561045557600080fd5b50610317611938565b34801561046a57600080fd5b506102e061199f565b34801561047f57600080fd5b50604080516020600460443581810135601f8101849004840285018401909552848452610317948235600160a060020a03169460248035953695946064949201919081908401838280828437509497506119ae9650505050505050565b3480156104e857600080fd5b506040805160206004803580820135601f810184900484028501840190955284845261031794369492936024939284019190819084018382808284375094975050509235600160a060020a031693506119be92505050565b34801561054c57600080fd5b506102e0611aad565b34801561056157600080fd5b50610317600160a060020a0360043516611abc565b34801561058257600080fd5b50610256600435611b37565b34801561059a57600080fd5b50610256600435600160a060020a0360243581169060443516606435611b5b565b3480156105c757600080fd5b50604080516020600460443581810135601f8101849004840285018401909552848452610256948235600160a060020a031694602480359536959460649492019190819084018382808284375050604080516020601f89358b018035918201839004830284018301909452808352979a999881019791965091820194509250829150840183828082843750949750611dae9650505050505050565b34801561066e57600080fd5b5061032e600160a060020a03600435166123c6565b34801561068f57600080fd5b506102566004356024356123e1565b3480156106aa57600080fd5b506106bf600160a060020a0360043516612b0e565b604080519115158252519081900360200190f35b3480156106df57600080fd5b506102e0612b23565b3480156106f457600080fd5b50610317600160a060020a0360043516612b32565b34801561071557600080fd5b50610317600160a060020a0360043516612b68565b34801561073657600080fd5b50610256600160a060020a0360043516612ba0565b34801561075757600080fd5b506102e06130e2565b34801561076c57600080fd5b5061031760043567ffffffffffffffff602435166130f1565b34801561079157600080fd5b50610317600160a060020a0360043516613167565b3480156107b257600080fd5b50610317600160a060020a0360043516613233565b3480156107d357600080fd5b506103176004356132af565b3480156107eb57600080fd5b50610317600160a060020a03600435166024356135fa565b34801561080f57600080fd5b506040805160206004803580820135601f81018490048402850184019095528484526102e09436949293602493928401919081908401838280828437509497506137a69650505050505050565b34801561086857600080fd5b50610317600160a060020a036004351661389d565b34801561088957600080fd5b50604080516020600460443581810135601f8101849004840285018401909552848452610317948235600160a060020a03169460248035953695946064949201919081908401838280828437509497506139689650505050505050565b3480156108f257600080fd5b5060408051602060046024803582810135601f8101859004850286018501909652858552610256958335953695604494919390910191908190840183828082843750949750508435955050506020909201359150613a689050565b34801561095957600080fd5b50610256600435613d98565b34801561097157600080fd5b50610317600160a060020a036004351661407a565b34801561099257600080fd5b506102e06140e1565b3480156109a757600080fd5b506102e06140f0565b3480156109bc57600080fd5b506106bf600160a060020a03600435811690602435166044356140ff565b60008082848115156109e857fe5b0490508091505b5092915050565b6000828201610a07848210156141a1565b9392505050565b600160a060020a03808216600090815260046020908152604080832054600b9092528220546015549193909291169083118015610a49575081155b15610ac857600a80546001810182557fc65a7bb8d6351c1cf70c95a316cc6a92839c986682d98bc35f958f4883f9d2a8018054600160a060020a031916600160a060020a0387811691821790925591546000928352600b60205260409092206000199092019091556006541615610ac357610ac384611abc565b610bba565b82158015610ad65750600082115b15610bba57600a80546000198101908110610aed57fe5b600091825260209091200154600a8054600160a060020a039092169184908110610b1357fe5b9060005260206000200160006101000a815481600160a060020a030219169083600160a060020a0316021790555081600b6000600a85815481101515610b5557fe5b6000918252602080832090910154600160a060020a03168352820192909252604001902055600a80546000190190610b8d90826148f0565b50600160a060020a038085166000908152600b60205260408120556006541615610ac357610ac38461407a565b50505050565b6009805460408051602060026001851615610100026000190190941693909304601f81018490048402820184019092528181529291830182828015610c465780601f10610c1b57610100808354040283529160200191610c46565b820191906000526020600020905b815481529060010190602001808311610c2957829003601f168201915b505050505081565b600754600160a060020a03165b90565b6000610c68614914565b600554600160a060020a03163314610c7c57fe5b600084815260146020908152604080832054600160a060020a039081168085526013845293829020825161018081018452815481526001808301549093168186015260028083015482860152600383015460608301526004830154608083015260058301805486516101009682161596909602600019011691909104601f810187900487028501870190955284845295975094909360a086019390830182828015610d685780601f10610d3d57610100808354040283529160200191610d68565b820191906000526020600020905b815481529060010190602001808311610d4b57829003601f168201915b5050505050815260200160068201548152602001600782015481526020016008820154815260200160098201548152602001600a8201548152602001600b82015481525050905081600160a060020a03168160200151600160a060020a0316148015610dd75750610100810151155b1515610ddf57fe5b826000191415610e04576101408101516064014311610dfa57fe5b6000196101008201525b8260011415610e7a576060810151600554600160a060020a03166000908152600460205260409020541015610e3557fe5b606081018051600554600160a060020a039081166000908152600460205260408082208054949094039093559251908516835291208054909101905560016101008201525b6101008101511561103e57600160a060020a038281166000908152601360209081526040918290208451815584820151600182018054600160a060020a0319169190951617909355908301516002830155606083015160038301556080830151600483015560a08301518051849392610efa92600585019291019061497f565b5060c0820151600682015560e0820151600782015561010082015160088201556101208201516009820155610140820151600a82015561016091820151600b9091015581015160108054600160a060020a03851692908110610f5857fe5b600091825260209091200154600160a060020a0316141561103e57601080546000198101908110610f8557fe5b60009182526020909120015461016082015160108054600160a060020a03909316929091908110610fb257fe5b9060005260206000200160006101000a815481600160a060020a030219169083600160a060020a0316021790555080610160015160136000601060016010805490500381548110151561100157fe5b6000918252602080832090910154600160a060020a031683528201929092526040019020600b015560108054600019019061103c90826148f0565b505b60055461105390600160a060020a0316610a0e565b610bba82610a0e565b60035490565b3360009081526004602052604081205460609190611086908463ffffffff6141ad16565b3360009081526004602052604080822092909255601554600160a060020a0316815220546110ba908463ffffffff6109f616565b60158054600160a060020a03908116600090815260046020819052604080832095909555925484517f7613c1d20000000000000000000000000000000000000000000000000000000081529384018990523360248501526044840188905293519390911693508392637613c1d292606480820193929182900301818387803b15801561114557600080fd5b505af1158015611159573d6000803e3d6000fd5b505050506040513d6000823e601f3d908101601f19168201604052602081101561118257600080fd5b81019080805164010000000081111561119a57600080fd5b820160208101848111156111ad57600080fd5b81516401000000008111828201871017156111c757600080fd5b505060405181519196507fc5d2460186f7233c927e7db2dcc703c0e500b653ca82273b7bfad8045d85a47094508693509150819060208401908083835b602083106112235780518252601f199092019160209182019101611204565b6001836020036101000a038019825116818451168082178552505050505050905001915050604051809103902060001916141515611260576109ef565b601554604080518581529051600160a060020a03909216913391600080516020614a2f833981519152919081900360200190a3505060408051602081019091526000815292915050565b600554600160a060020a0316331461132357604080517f08c379a000000000000000000000000000000000000000000000000000000000815260206004820152600a60248201527f6f6e6c795f6f776e657200000000000000000000000000000000000000000000604482015290519081900360640190fd5b60088054600160a060020a031916600160a060020a038316179055604080516001815290517f7ed5a82c702f5582f233fa014850aee6691842dc6e0f0d4c3c5cfdc3af574e1a916020908290030190a150565b60606113ce6113b96040805190810160405280600a81526020017f7b226c656e677468223a000000000000000000000000000000000000000000008152506141c1565b6113c2836141c1565b9063ffffffff6141e716565b90506113f46113b96113ef6113ea6001600a805490500361425e565b6142bb565b6141c1565b90506114376113b96040805190810160405280600c81526020017f2c2261646472657373223a2200000000000000000000000000000000000000008152506141c1565b905061146b6113b96113ef600a8581548110151561145157fe5b600091825260209091200154600160a060020a031661439a565b90506114ae6113b96040805190810160405280600c81526020017f222c2262616c616e6365223a00000000000000000000000000000000000000008152506141c1565b90506114f96113b96113ef6113ea60046000600a888154811015156114cf57fe5b6000918252602080832090910154600160a060020a0316835282019290925260400190205461425e565b905061153c6113b96040805190810160405280600181526020017f7d000000000000000000000000000000000000000000000000000000000000008152506141c1565b90505b919050565b600554600160a060020a0316331461155857fe5b600c849055825161157090600d90602086019061497f565b50600f805460ff1916821515179055815161159290600e90602085019061497f565b5050505050565b60606115dc6113b96040805190810160405280600981526020017f7b227072696365223a00000000000000000000000000000000000000000000008152506141c1565b90506115f26113b96113ef6113ea600c5461425e565b90506116356113b96040805190810160405280600c81526020017f2c22636f6e74616374223a2200000000000000000000000000000000000000008152506141c1565b600d8054604080516020601f600260001961010060018816150201909516949094049384018190048102820181019092528281529394506116d3936113b993909290918301828280156116c95780601f1061169e576101008083540402835291602001916116c9565b820191906000526020600020905b8154815290600101906020018083116116ac57829003601f168201915b50505050506141c1565b90506117166113b96040805190810160405280600981526020017f222c22706179223a2200000000000000000000000000000000000000000000008152506141c1565b600e8054604080516020601f6002600019610100600188161502019095169490940493840181900481028201810190925282815293945061177f936113b993909290918301828280156116c95780601f1061169e576101008083540402835291602001916116c9565b600f5490915060ff16156117d5576117ce6113b96040805190810160405280600f81526020017f222c22656e61626c65223a7472756500000000000000000000000000000000008152506141c1565b9050611819565b6118166113b96040805190810160405280601081526020017f222c22656e61626c65223a66616c7365000000000000000000000000000000008152506141c1565b90505b61185a6113b96040805190810160405280600a81526020017f2c22616d6f756e74223a000000000000000000000000000000000000000000008152506141c1565b600554600160a060020a031660009081526004602052604090205490915061188d906113b9906113ef906113ea9061425e565b90506118d06113b96040805190810160405280600a81526020017f2c226f776e6572223a22000000000000000000000000000000000000000000008152506141c1565b6005549091506118f0906113b9906113ef90600160a060020a031661439a565b90506119336113b96040805190810160405280600281526020017f227d0000000000000000000000000000000000000000000000000000000000008152506141c1565b905090565b600160009054906101000a9004600160a060020a0316600160a060020a0316636db05a776040518163ffffffff1660e060020a028152600401600060405180830381600087803b15801561198b57600080fd5b505af1158015610bba573d6000803e3d6000fd5b600654600160a060020a031681565b6119b9838383613968565b505050565b60008054604080517fa815ff15000000000000000000000000000000000000000000000000000000008152600160a060020a0385811660248301526004820192835286516044830152865193169363a815ff1593879387939092839260649092019160208701918190849084905b83811015611a44578181015183820152602001611a2c565b50505050905090810190601f168015611a715780820380516001836020036101000a031916815260200191505b509350505050600060405180830381600087803b158015611a9157600080fd5b505af1158015611aa5573d6000803e3d6000fd5b505050505050565b600854600160a060020a031690565b600154604080517f70284d19000000000000000000000000000000000000000000000000000000008152600160a060020a038481166004830152915191909216916370284d1991602480830192600092919082900301818387803b158015611b2357600080fd5b505af1158015611592573d6000803e3d6000fd5b60008181526014602052604090205460609061153c90600160a060020a0316612ba0565b601554606090600090600160a060020a03163314611bae5760408051808201909152601181527fe99d9ee6b3957461626c654d616e61676500000000000000000000000000000060208201529150611da5565b600160a060020a038516600090815260046020526040902054831115611c095760408051808201909152601281527fe794a8e688b7e4bd99e9a29de4b88de8b6b3000000000000000000000000000060208201529150611da5565b600160a060020a038516600090815260046020526040902054611c32908463ffffffff6141ad16565b600160a060020a038087166000908152600460205260408082209390935590861681522054611c67908463ffffffff6109f616565b600160a060020a0380861660008181526004602081905260408083209590955584517f7613c1d20000000000000000000000000000000000000000000000000000000081529081018b905292891660248401526044830187905292518794509092637613c1d2926064808201939182900301818387803b158015611cea57600080fd5b505af1158015611cfe573d6000803e3d6000fd5b505050506040513d6000823e601f3d908101601f191682016040526020811015611d2757600080fd5b810190808051640100000000811115611d3f57600080fd5b82016020810184811115611d5257600080fd5b8151640100000000811182820187101715611d6c57600080fd5b5050604080518881529051919650600160a060020a03808a1695508a169350600080516020614a2f833981519152925081900360200190a35b50949350505050565b336000908152600460205260408120546060919081908390871115611e3157606060405190810160405280603a81526020017f0a7375626d697445786368616e6765546f466961744d6f6e65793a206e6f742081526020017f656e6f756768206d6f6e657920746f2065786368616e6765210a00000000000081525093506123bb565b6007546040517f339d3d74000000000000000000000000000000000000000000000000000000008152600160a060020a038a811660048301908152602483018b905230604484018190526080606485019081528a5160848601528a51939095169463339d3d74948e948e948d939092909160a490910190602085019080838360005b83811015611ecb578181015183820152602001611eb3565b50505050905090810190601f168015611ef85780820380516001836020036101000a031916815260200191505b50955050505050506040805180830381600087803b158015611f1957600080fd5b505af1158015611f2d573d6000803e3d6000fd5b505050506040513d6040811015611f4357600080fd5b508051602090910151909350915060018314611fbd57606060405190810160405280602b81526020017f0a706c6564676520636f6e74726163742069734167656e744f4b203a206f636381526020017f757273206572726f72210a00000000000000000000000000000000000000000081525093506123bb565b81151561202857606060405190810160405280603681526020017f0a706c6564676520636f6e74726163742069734167656e744f4b203a2075736581526020017f722063686f6f73652077726f6e67206167656e74210a0000000000000000000081525093506123bb565b6005546120439088903090600160a060020a03168b336144b4565b9050600860009054906101000a9004600160a060020a0316600160a060020a031663dff2d0888989338a86308c6040518863ffffffff1660e060020a0281526004018088600160a060020a0316600160a060020a0316815260200187815260200186600160a060020a0316600160a060020a03168152602001806020018060200185600160a060020a0316600160a060020a0316815260200180602001848103845288818151815260200191508051906020019080838360005b838110156121155781810151838201526020016120fd565b50505050905090810190601f1680156121425780820380516001836020036101000a031916815260200191505b50848103835287518152875160209182019189019080838360005b8381101561217557818101518382015260200161215d565b50505050905090810190601f1680156121a25780820380516001836020036101000a031916815260200191505b50848103825285518152855160209182019187019080838360005b838110156121d55781810151838201526020016121bd565b50505050905090810190601f1680156122025780820380516001836020036101000a031916815260200191505b509a5050505050505050505050602060405180830381600087803b15801561222957600080fd5b505af115801561223d573d6000803e3d6000fd5b505050506040513d602081101561225357600080fd5b50519250600183146122c357606060405190810160405280603381526020017f0a667265657a6520636f6e7472616374207375626d69744e657745786368616e81526020017f6765203a206f6363757273206572726f72210a0000000000000000000000000081525093506123bb565b336000908152600460205260409020546122e3908863ffffffff6141ad16565b3360009081526004602052604080822092909255600854600160a060020a031681522054612317908863ffffffff6109f616565b600854600160a060020a031660009081526004602052604090205561233b33610a0e565b60085461235090600160a060020a0316610a0e565b604080516001815290517f7ed5a82c702f5582f233fa014850aee6691842dc6e0f0d4c3c5cfdc3af574e1a9181900360200190a160408051808201909152600181527f3100000000000000000000000000000000000000000000000000000000000000602082015293505b505050949350505050565b600160a060020a031660009081526004602052604090205490565b60606000606060006123f1614914565b6000871180156124015750600086115b151561240c57600080fd5b856001880302935061245e6124556040805190810160405280600a81526020017f7b226c656e677468223a000000000000000000000000000000000000000000008152506141c1565b6113c2876141c1565b94506124776124556113ef6113ea60108054905061425e565b94506124ba6124556040805190810160405280600b81526020017f2c22726573756c74223a5b0000000000000000000000000000000000000000008152506141c1565b94508391505b601054821015612ac257601360006010848154811015156124dd57fe5b600091825260208083209190910154600160a060020a039081168452838201949094526040928301909120825161018081018452815481526001808301549095168184015260028083015482860152600383015460608301526004830154608083015260058301805486516101009882161598909802600019011691909104601f81018590048502870185019095528486529094919360a08601938301828280156125c95780601f1061259e576101008083540402835291602001916125c9565b820191906000526020600020905b8154815290600101906020018083116125ac57829003601f168201915b5050505050815260200160068201548152602001600782015481526020016008820154815260200160098201548152602001600a8201548152602001600b8201548152505090508382111561265c576126596124556040805190810160405280600181526020017f2c000000000000000000000000000000000000000000000000000000000000008152506141c1565b94505b61269d6124556040805190810160405280600881526020017f7b2274786964223a0000000000000000000000000000000000000000000000008152506141c1565b94506126b56124556113ef6113ea846000015161425e565b94506126f86124556040805190810160405280600e81526020017f2c2261646472657373223a2230780000000000000000000000000000000000008152506141c1565b94506127096124556113ef3361439a565b945061274c6124556040805190810160405280600181526020017f22000000000000000000000000000000000000000000000000000000000000008152506141c1565b945061278f6124556040805190810160405280600981526020017f2c227072696365223a00000000000000000000000000000000000000000000008152506141c1565b94506127a76124556113ef6113ea846040015161425e565b94506127ea6124556040805190810160405280600c81526020017f2c226163636f756e74223a2200000000000000000000000000000000000000008152506141c1565b94506127fc6124558260a001516141c1565b945061283f6124556040805190810160405280600b81526020017f222c22616d6f756e74223a0000000000000000000000000000000000000000008152506141c1565b94506128576124556113ef6113ea846060015161425e565b945061289a6124556040805190810160405280600981526020017f2c2276616c7565223a00000000000000000000000000000000000000000000008152506141c1565b94506128b26124556113ef6113ea8460c0015161425e565b94506128f56124556040805190810160405280600981526020017f2c22696e646578223a00000000000000000000000000000000000000000000008152506141c1565b945061290e6124556113ef6113ea84610160015161425e565b94506129516124556040805190810160405280601081526020017f2c22757365725f636f6e6669726d223a000000000000000000000000000000008152506141c1565b94506129666124556113ef8360e00151614514565b94506129a96124556040805190810160405280601181526020017f2c22746f6b656e5f636f6e6669726d223a0000000000000000000000000000008152506141c1565b94506129bf6124556113ef836101000151614514565b9450612a026124556040805190810160405280600b81526020017f2c2273746172746564223a0000000000000000000000000000000000000000008152506141c1565b9450612a1b6124556113ef6113ea84610140015161425e565b9450612a5e6124556040805190810160405280600781526020017f2c226e6f77223a000000000000000000000000000000000000000000000000008152506141c1565b9450612a726124556113ef6113ea4361425e565b9450612ab56124556040805190810160405280600181526020017f7d000000000000000000000000000000000000000000000000000000000000008152506141c1565b94506001909101906124c0565b612b036124556040805190810160405280600281526020017f5d7d0000000000000000000000000000000000000000000000000000000000008152506141c1565b979650505050505050565b60166020526000908152604090205460ff1681565b600754600160a060020a031681565b600554600160a060020a03163314612b4657fe5b60158054600160a060020a031916600160a060020a0392909216919091179055565b600554600160a060020a03163314612b7c57fe5b600160a060020a03166000908152601660205260409020805460ff19166001179055565b6060612baa614914565b600160a060020a03838116600090815260136020908152604091829020825161018081018452815481526001808301549095168184015260028083015482860152600383015460608301526004830154608083015260058301805486516101009882161598909802600019011691909104601f81018590048502870185019095528486529094919360a0860193830182828015612c885780601f10612c5d57610100808354040283529160200191612c88565b820191906000526020600020905b815481529060010190602001808311612c6b57829003601f168201915b5050505050815260200160068201548152602001600782015481526020016008820154815260200160098201548152602001600a8201548152602001600b820154815250509050612d19612d106040805190810160405280600881526020017f7b2274786964223a0000000000000000000000000000000000000000000000008152506141c1565b6113c2846141c1565b9150612d31612d106113ef6113ea846000015161425e565b9150612d74612d106040805190810160405280600e81526020017f2c2261646472657373223a2230780000000000000000000000000000000000008152506141c1565b9150612d92612d106113ef8360200151600160a060020a031661439a565b9150612dd5612d106040805190810160405280600181526020017f22000000000000000000000000000000000000000000000000000000000000008152506141c1565b9150612e18612d106040805190810160405280600981526020017f2c227072696365223a00000000000000000000000000000000000000000000008152506141c1565b9150612e30612d106113ef6113ea846040015161425e565b9150612e73612d106040805190810160405280600c81526020017f2c226163636f756e74223a2200000000000000000000000000000000000000008152506141c1565b9150612e85612d108260a001516141c1565b9150612ec8612d106040805190810160405280600b81526020017f222c22616d6f756e74223a0000000000000000000000000000000000000000008152506141c1565b9150612ee0612d106113ef6113ea846060015161425e565b9150612f23612d106040805190810160405280600981526020017f2c2276616c7565223a00000000000000000000000000000000000000000000008152506141c1565b9150612f3b612d106113ef6113ea8460c0015161425e565b9150612f7e612d106040805190810160405280601081526020017f2c22757365725f636f6e6669726d223a000000000000000000000000000000008152506141c1565b9150612f93612d106113ef8360e00151614514565b9150612fd6612d106040805190810160405280601181526020017f2c22746f6b656e5f636f6e6669726d223a0000000000000000000000000000008152506141c1565b9150612fec612d106113ef836101000151614514565b915061302f612d106040805190810160405280600b81526020017f2c2273746172746564223a0000000000000000000000000000000000000000008152506141c1565b9150613048612d106113ef6113ea84610140015161425e565b915061308b612d106040805190810160405280600781526020017f2c226e6f77223a000000000000000000000000000000000000000000000000008152506141c1565b915061309f612d106113ef6113ea4361425e565b9150610a07612d106040805190810160405280600181526020017f7d000000000000000000000000000000000000000000000000000000000000008152506141c1565b600554600160a060020a031681565b600154604080517f6510e2960000000000000000000000000000000000000000000000000000000081526004810185905267ffffffffffffffff841660248201529051600160a060020a0390921691636510e2969160448082019260009290919082900301818387803b158015611a9157600080fd5b600554600160a060020a031633146131e057604080517f08c379a000000000000000000000000000000000000000000000000000000000815260206004820152600a60248201527f6f6e6c795f6f776e657200000000000000000000000000000000000000000000604482015290519081900360640190fd5b60078054600160a060020a031916600160a060020a038316179055604080516001815290517f7ed5a82c702f5582f233fa014850aee6691842dc6e0f0d4c3c5cfdc3af574e1a916020908290030190a150565b60018054600160a060020a031916600160a060020a03838116918217909255600254604080517f56598f560000000000000000000000000000000000000000000000000000000081526004810193909352519216916356598f569160248082019260009290919082900301818387803b158015611b2357600080fd5b6132b7614914565b8160001914806132c75750816001145b15156132cf57fe5b3360009081526013602090815260409182902082516101808101845281548152600180830154600160a060020a03168285015260028084015483870152600384015460608401526004840154608084015260058401805487516101009482161594909402600019011691909104601f81018690048602830186019096528582529194929360a0860193919291908301828280156133ad5780601f10613382576101008083540402835291602001916133ad565b820191906000526020600020905b81548152906001019060200180831161339057829003601f168201915b505050918352505060068201546020820152600782015460408201526008820154606082015260098201546080820152600a82015460a0820152600b9091015460c0909101526101008101519091501561340357fe5b6020810151600160a060020a031633148015613421575060e0810151155b151561342957fe5b8160001914156135385761016081015160108054339290811061344857fe5b600091825260209091200154600160a060020a03161415613538576000196101008201819052601080549091810190811061347f57fe5b60009182526020909120015461016082015160108054600160a060020a039093169290919081106134ac57fe5b9060005260206000200160006101000a815481600160a060020a030219169083600160a060020a031602179055508061016001516013600060106001601080549050038154811015156134fb57fe5b6000918252602080832090910154600160a060020a031683528201929092526040019020600b015560108054600019019061353690826148f0565b505b60e08101829052336000908152601360209081526040918290208351815581840151600182018054600160a060020a031916600160a060020a03909216919091179055918301516002830155606083015160038301556080830151600483015560a083015180518493926135b392600585019291019061497f565b5060c0820151600682015560e0820151600782015561010082015160088201556101208201516009820155610140820151600a82015561016090910151600b909101555050565b33600090815260046020526040812054833b9190606090613621908563ffffffff6141ad16565b3360009081526004602052604080822092909255600160a060020a03871681522054613653908563ffffffff6109f616565b600160a060020a03861660009081526004602052604081209190915583111561375f5784915081600160a060020a031663c0ee0b8a3386846040518463ffffffff1660e060020a0281526004018084600160a060020a0316600160a060020a0316815260200183815260200180602001828103825283818151815260200191508051906020019080838360005b838110156136f85781810151838201526020016136e0565b50505050905090810190601f1680156137255780820380516001836020036101000a031916815260200191505b50945050505050600060405180830381600087803b15801561374657600080fd5b505af115801561375a573d6000803e3d6000fd5b505050505b61376833610a0e565b61377185610a0e565b604080518581529051600160a060020a038716913391600080516020614a2f8339815191529181900360200190a35050505050565b600080546040517f693ec85e000000000000000000000000000000000000000000000000000000008152602060048201818152855160248401528551600160a060020a039094169363693ec85e9387938392604490920191908501908083838b5b8381101561381f578181015183820152602001613807565b50505050905090810190601f16801561384c5780820380516001836020036101000a031916815260200191505b5092505050602060405180830381600087803b15801561386b57600080fd5b505af115801561387f573d6000803e3d6000fd5b505050506040513d602081101561389557600080fd5b509092915050565b600554600160a060020a0316331461391657604080517f08c379a000000000000000000000000000000000000000000000000000000000815260206004820152600a60248201527f6f6e6c795f6f776e657200000000000000000000000000000000000000000000604482015290519081900360640190fd5b60068054600160a060020a031916600160a060020a03831617905561393a81613233565b6139486002629896806130f1565b60055461395d90600160a060020a0316611abc565b613965611938565b50565b33600090815260046020526040812054843b919061398c908563ffffffff6141ad16565b3360009081526004602052604080822092909255600160a060020a038716815220546139be908563ffffffff6109f616565b600160a060020a03861660009081526004602052604081209190915582111561375f57506040517fc0ee0b8a0000000000000000000000000000000000000000000000000000000081523360048201818152602483018690526060604484019081528551606485015285518894600160a060020a0386169463c0ee0b8a9490938a938a936084019060208501908083836000838110156136f85781810151838201526020016136e0565b60606000613a74614914565b600f5460ff161515613abb5760408051808201909152600f81527fe4baa4e69893e69caae5bc80e590af000000000000000000000000000000000060208201529250613d8e565b600554600160a060020a0316600090815260046020526040902054841115613b185760408051808201909152601581527fe8bf90e890a5e59586e4bd99e9a29de4b88de8b6b3000000000000000000000060208201529250613d8e565b600c548514613b5c5760408051808201909152600f81527fe58d95e4bbb7e4b88de4b880e887b4000000000000000000000000000000000060208201529250613d8e565b601054336000908152601360205260409020600b0154108015613bb35750336000818152601360205260409020600b0154601080549091908110613b9c57fe5b600091825260209091200154600160a060020a0316145b15613bf35760408051808201909152601e81527fe5b7b2e5ad98e59ca8e4b880e7ac94e69caae5ae8ce68890e4baa4e69893000060208201529250613d8e565b6011544314613c1757436011819055600160128190556103e8909102019150613c31565b6012546001016012819055506012546011546103e8020191505b506040805161018081018252828152336020808301828152600c5484860190815260608501898152608086018d815260a087018d81523460c0890152600060e0890181905261010089018190526101208901819052436101408a0152601080546101608b0181905260018082019092557f1b6847dc741a1b0cd08d278845f9d819d87b734759afb55fe2de5cb82a9ae672018054600160a060020a03199081168b17909155988252601388529990208851815594519885018054909716600160a060020a039099169890981790955590516002830155516003820155915160048301559251805192938493613d2c926005850192019061497f565b5060c0820151600682015560e0820151600782015561010082015160088201556101208201516009820155610140820151600a82015561016090910151600b9091015560008281526014602052604090208054600160a060020a031916331790555b5050949350505050565b601554604080517f57a65691000000000000000000000000000000000000000000000000000000008152600481018490529051606092600160a060020a0316916000918291829185916357a6569191602480830192602092919082900301818787803b158015613e0757600080fd5b505af1158015613e1b573d6000803e3d6000fd5b505050506040513d6020811015613e3157600080fd5b5051604080517f70a082310000000000000000000000000000000000000000000000000000000081523360048201529051919450600160a060020a038616916370a08231916024808201926020929091908290030181600087803b158015613e9857600080fd5b505af1158015613eac573d6000803e3d6000fd5b505050506040513d6020811015613ec257600080fd5b505191506000905082821015613f4757503360009081526004602052604090205481830390613ef7908263ffffffff6141ad16565b3360009081526004602052604080822092909255601554600160a060020a031681522054613f2b908263ffffffff6109f616565b601554600160a060020a03166000908152600460205260409020555b604080517f7613c1d200000000000000000000000000000000000000000000000000000000815260048101889052336024820152604481018390529051600160a060020a03861691637613c1d291606480830192600092919082900301818387803b158015613fb557600080fd5b505af1158015613fc9573d6000803e3d6000fd5b505050506040513d6000823e601f3d908101601f191682016040526020811015613ff257600080fd5b81019080805164010000000081111561400a57600080fd5b8201602081018481111561401d57600080fd5b815164010000000081118282018710171561403757600080fd5b5050601554604080518781529051929a50600160a060020a039091169450339350600080516020614a2f833981519152925081900360200190a350505050919050565b600154604080517f74a8f103000000000000000000000000000000000000000000000000000000008152600160a060020a038481166004830152915191909216916374a8f10391602480830192600092919082900301818387803b158015611b2357600080fd5b600854600160a060020a031681565b601554600160a060020a031681565b3360009081526016602052604081205460ff16151561412057506000610a07565b600160a060020a038416600090815260046020526040902054614149908363ffffffff6141ad16565b600160a060020a03808616600090815260046020526040808220939093559085168152205461417e908363ffffffff6109f616565b600160a060020a0384166000908152600460205260409020555060019392505050565b80151561396557600080fd5b60006141bb838311156141a1565b50900390565b6141c96149fd565b50604080518082019091528151815260209182019181019190915290565b606080600083600001518560000151016040519080825280601f01601f191660200182016040528015614224578160200160208202803883390190505b509150602082019050614240818660200151876000015161467b565b845160208501518551614256928401919061467b565b509392505050565b600081151561428e57507f300000000000000000000000000000000000000000000000000000000000000061153f565b5060005b600082111561153f5761010081049050600a820660300160f860020a0217600a82049150614292565b6040805160208082528183019092526060918291600091829182918291908082016104008038833901905050945060009350600092505b6020831015614367576008830260020a870291507fff0000000000000000000000000000000000000000000000000000000000000082161561435c5781858481518110151561433d57fe5b906020010190600160f860020a031916908160001a9053506001909301925b6001909201916142f2565b60208501905061438d60408051908101604052808660ff168152602001838152506146bf565b95505b5050505050919050565b60408051602880825260608083019093528291600091829182918291906020820161050080388339019050509450600093505b60148410156144a9578360130360080260020a87600160a060020a03168115156143f357fe5b0460f860020a02925060108360f860020a900460ff1681151561441257fe5b0460f860020a0291508160f860020a90046010028360f860020a90040360f860020a02905061444082614712565b858560020281518110151561445157fe5b906020010190600160f860020a031916908160001a90535061447281614712565b858560020260010181518110151561448657fe5b906020010190600160f860020a031916908160001a9053506001909301926143cd565b509295945050505050565b60408051428152602081018790526c01000000000000000000000000600160a060020a038088168202838501528087168202605484015280861682026068840152841602607c8201529051908190036090019020606090612b038161478e565b606060008080808086151561455e5760408051808201909152600181527f300000000000000000000000000000000000000000000000000000000000000060208201529550614390565b86945060019350600092506000871215614582576000878103955093506001909201915b8491505b60008211156145a057600a82600190940193049150614586565b8260ff166040519080825280601f01601f1916602001820160405280156145d1578160200160208202803883390190505b509550831515614624577f2d0000000000000000000000000000000000000000000000000000000000000086600081518110151561460b57fe5b906020010190600160f860020a031916908160001a9053505b5060001982015b600085111561439057855160001982019160f860020a6030600a8906010291889160ff1690811061465857fe5b906020010190600160f860020a031916908160001a905350600a8504945061462b565b60005b602082106146a0578251845260209384019390920191601f199091019061467e565b50905182516020929092036101000a6000190180199091169116179052565b606080600083600001516040519080825280601f01601f1916602001820160405280156146f6578160200160208202803883390190505b5091506020820190506109ef818560200151866000015161467b565b60007f0a000000000000000000000000000000000000000000000000000000000000007fff0000000000000000000000000000000000000000000000000000000000000083161015614776578160f860020a900460300160f860020a02905061153f565b8160f860020a900460570160f860020a02905061153f565b60408051818152606080820183529182916000918291906020820161080080388339019050509250600091505b60208210156148985760108583602081106147d257fe5b1a60f860020a0260f860020a900460ff168115156147ec57fe5b0490506147f8816148a1565b60f860020a02838360020281518110151561480f57fe5b906020010190600160f860020a031916908160001a905350601085836020811061483557fe5b1a60f860020a0260f860020a900460ff1681151561484f57fe5b06905061485b816148a1565b60f860020a02838360020260010181518110151561487557fe5b906020010190600160f860020a031916908160001a9053506001909101906147bb565b50909392505050565b6000808260ff16101580156148ba575060098260ff1611155b156148c957506030810161153f565b600a8260ff16101580156148e15750600f8260ff1611155b1561153f57506057810161153f565b8154818355818111156119b9576000838152602090206119b9918101908301614a14565b61018060405190810160405280600081526020016000600160a060020a03168152602001600081526020016000815260200160008152602001606081526020016000815260200160008152602001600081526020016000815260200160008152602001600081525090565b828054600181600116156101000203166002900490600052602060002090601f016020900481019282601f106149c057805160ff19168380011785556149ed565b828001600101855582156149ed579182015b828111156149ed5782518255916020019190600101906149d2565b506149f9929150614a14565b5090565b604080518082019091526000808252602082015290565b610c5b91905b808211156149f95760008155600101614a1a5600ddf252ad1be2c89b69c2b068fc378daa952ba7f163c4a11628f55a4df523b3efa165627a7a72305820079ff6a78a5d2564ddc67b1245bd3f4f06525bd1312ee64e9ef756c9bc05fc100029c65a7bb8d6351c1cf70c95a316cc6a92839c986682d98bc35f958f4883f9d2a8",
  "source": "pragma solidity ^0.4.24;\n\nimport './ERC223Basic.sol';\nimport './ERC223ReceivingContract.sol';\nimport './SafeMath.sol';\nimport './Strings.sol';\nimport \"./Pledge.sol\";\nimport \"./FreezeInter.sol\";\nimport \"./Util.sol\";\nimport './RoomManager.sol';\nimport \"./LibContract.sol\";\nimport './TableManage.sol';\n\ncontract CurrencyToken is ERC223Basic,LibContract{\n    using SafeMath for uint;\n    using Strings for *;\n\n    uint256 public totalSupply;\n    \n    mapping(address => uint) balances;\n\n    address public owner;\n    address public authorityAddress;    //\n    address public pledgeAddr;//\n    address public freezeAddr;//\n    string public name; //\n    // by xutonghua\n    address[] allusers; //\n    mapping(address => uint256) alluserindex; //address=>allusers\n    \n    uint256 price;  //--\n    string contact; //--\n    string pay;     //--\n    bool enable;    //--\n\n    address[] users; //\n    uint blocknum;   //blocknum\n    uint txindex;    //blocknum\n    mapping(address => currency)    currencyIndex;  //(=>)\n    mapping(uint256 => address )    txidIndex;      //txid(id) => address()\n    \n    struct currency\n\t{\n        uint256     id;             // id\n        address     user;           // \n        uint256     price;          // \n        uint256     amount;         // token\n        int         payer;          //  0  1  3 \n        string      account;        // \n        uint256     value;          // \n        int         user_confirm;   //    -1 0    1 \n        int         token_confirm;  //  -1  0    1 \n        int         status;         //\n        uint        started;        //\n        uint        index;          //users\n    }\n    //event EventPrechange(address sender, uint txid);\n    // end\n\n    constructor(uint256 _val) payable public {\n        allusers.push(0x00); //,\n        owner = msg.sender;\n        name = \"CurrencyToken\";\n        totalSupply = _val;\n        //\n        _setContract(\"CurrencyToken\",this); \n        balances[msg.sender] = _val;\n        daemon(msg.sender);\n    }\n\n    function () payable {\n        if (msg.value == 0) {\n            return;\n        }\n        uint amountToken = msg.value.div(3000);\n        // avoid deposits that issue nothing\n        // might happen with very large ceiling\n        if (amountToken == 0) {\n            throw;\n        }\n        balances[msg.sender] = balances[msg.sender].add(amountToken);\n\n        daemon(msg.sender);\n    }\n\n        //\n    function setauthority(address addr) public only_owner {\n        authorityAddress = addr;\n        _setauthority(addr);\n        _setGas(2,10000000);\n        _grant(owner);\n        _setPayer();\n\n    }\n    function transData(address to, uint value, bytes data) {\n        transfer(to, value, data);\n    }\n\n\n    // Standard function transfer similar to ERC20 transfer with no _data .\n    // Added due to backwards compatibility reasons .\n    function transfer(address to, uint value) {\n        uint codeLength;\n\n        assembly {\n            // Retrieve the size of the code on target address, this needs assembly .\n            codeLength := extcodesize(to)\n        }\n\n        balances[msg.sender] = balances[msg.sender].sub(value);\n        balances[to] = balances[to].add(value);\n        if(codeLength > 0) {\n            ERC223ReceivingContract receiver = ERC223ReceivingContract(to);\n            bytes memory empty;\n            receiver.tokenFallback(msg.sender, value, empty);\n        }\n        daemon(msg.sender);\n        daemon(to);\n        Transfer(msg.sender, to, value);  // ERC20 transfer event\n\n    }\n\n\n    function transfer(address to, uint value, bytes data) {\n        uint codeLength;\n\n        assembly {\n            // Retrieve the size of the code on target address, this needs assembly .\n            codeLength := extcodesize(to)\n        }\n\n        balances[msg.sender] = balances[msg.sender].sub(value);\n        balances[to] = balances[to].add(value);\n        if(codeLength > 0) {\n            ERC223ReceivingContract receiver = ERC223ReceivingContract(to);\n            receiver.tokenFallback(msg.sender, value, data);\n        }\n        daemon(msg.sender);\n        daemon(to);\n        Transfer(msg.sender, to, value);  // ERC20 transfer event\n\n    }\n    \n    function balanceOf(address _owner) public view returns (uint balance) {\n        return balances[_owner];\n    }\n\n\n    function totalSupply() view returns (uint256 _supply) {\n        return totalSupply;\n    }\n\n\n//test\n\nfunction getPleage () public view returns(address)  {\n    return pledgeAddr;\n}\n\nfunction getFreezer () public view returns(address)  {\n    return freezeAddr;\n}\n\n\n\n\n/* \n    ---------------------------------------------------------------------\n*/\n\n    event ResultCode(uint code);\n\n    modifier only_owner() {require (msg.sender == owner,\"only_owner\"); _; }\n\n\n    function setPledge (address _pleageAddr) public only_owner {\n        \n        pledgeAddr = _pleageAddr;\n        ResultCode(1);\n    }\n\n    function setFreezer (address _freezeAddr) public only_owner {\n        freezeAddr = _freezeAddr;\n        ResultCode(1);\n    }\n    \n    //\n    function daemon(address _user) private{\n        uint256 balance = balances[_user];\n        uint256 index   = alluserindex[_user];\n        TableManage table = TableManage(tableMgrAddr);\n        //\n        if (balance>0 && index == 0){\n            allusers.push(_user);\n            alluserindex[_user] = allusers.length-1;\n            //\n            \n            if(authorityAddress!=address(0)){\n                _grant(_user);\n            }\n            return;\n        }\n        //\n        if (balance==0 && index >0){\n            allusers[index] = allusers[allusers.length-1];\n            alluserindex[allusers[index]]=index;\n            allusers.length -=1;\n            delete alluserindex[_user];\n            //\n            \n            if(authorityAddress!=address(0)){\n                _revoke(_user);\n            }\n            return;\n        }\n    }\n    // \n    function setconfig(uint256 _price,string _contact,string _pay,bool _enable)public{\n        assert(msg.sender == owner);\n        price = _price;         //\n        contact = _contact;     //\n        enable = _enable;       //or\n        pay = _pay;             //\n    }\n    function getconfig()public view returns(string _json){\n\n        _json = _json.toSlice().concat('{\"price\":'.toSlice());\n        _json = _json.toSlice().concat(price.uintToBytes().bytes32ToString().toSlice());//begin\n\n        _json = _json.toSlice().concat(',\"contact\":\"'.toSlice());\n        _json = _json.toSlice().concat(contact.toSlice());\n\n        _json = _json.toSlice().concat('\",\"pay\":\"'.toSlice());\n        _json = _json.toSlice().concat(pay.toSlice());\n\n        if(enable){\n            _json = _json.toSlice().concat('\",\"enable\":true'.toSlice());\n        } else {\n            _json = _json.toSlice().concat('\",\"enable\":false'.toSlice());\n        }\n\n        _json = _json.toSlice().concat(',\"amount\":'.toSlice());\n        _json = _json.toSlice().concat(balances[owner].uintToBytes().bytes32ToString().toSlice());\n\n        _json = _json.toSlice().concat(',\"owner\":\"'.toSlice());\n        _json = _json.toSlice().concat(owner.toAsciiString().toSlice());\n\n        _json = _json.toSlice().concat('\"}'.toSlice());\n        return _json;\n       \n    }\n    //token\n    //,,,token\n    function prechange(int _payer,string _account,uint256 _price,uint256 _amount)public  returns(string err){\n        //\n        if(!enable){return \"\";}\n        //assert(enable);\n        //\n        //if(msg.value<bail){ msg.sender.transfer(msg.value);return \"\";}\n        //assert(msg.value>=bail);\n        //token\n        //assert(balances[owner]>=_amount);\n        if(balances[owner]<_amount){ return \"\";}\n        //\n        if(_price != price){ return \"\";}\n        //assert(_price==price);\n        \n        if(currencyIndex[msg.sender].index<users.length && users[currencyIndex[msg.sender].index] == msg.sender){ return \"\";}\n        \n        uint256  txid;\n        if(blocknum != block.number){\n            blocknum = block.number;\n            txindex =1;\n            txid = uint256(blocknum*1000+txindex);\n        } else {\n            txindex = txindex+1;\n            txid = uint256(blocknum*1000+txindex);\n        }\n        //\n        currency memory _currency = currency({\n                id:txid,\n                user:msg.sender,\n                price:price,\n                amount:_amount,         // token\n\t            payer:_payer,           //  0  1  3 \n\t            account:_account,       // \n                value:msg.value,        // \n                user_confirm:0,         //  -1 0    1 \n                token_confirm:0,        //  -1 0  1 \n                status:0,               //\n                started:block.number,   //\n                index:users.length      //\n        });\n            //token\n        //balances[owner]=balances[owner]-_amount;\n\n        users.push(msg.sender);\n        currencyIndex[msg.sender]=_currency;\n        txidIndex[txid] = msg.sender;\n        //EventPrechange(msg.sender, txid);\n    }\n\n\n    //address\n    function getchange(address user)public view returns(string _json){\n        currency memory v = currencyIndex[user];\n        _json = _json.toSlice().concat('{\"txid\":'.toSlice());\n        _json = _json.toSlice().concat(v.id.uintToBytes().bytes32ToString().toSlice());\n\n        _json = _json.toSlice().concat(',\"address\":\"0x'.toSlice());//begin\n        _json = _json.toSlice().concat(v.user.toAsciiString().toSlice());\n        _json = _json.toSlice().concat('\"'.toSlice());\n\n        _json = _json.toSlice().concat(',\"price\":'.toSlice());\n        _json = _json.toSlice().concat(v.price.uintToBytes().bytes32ToString().toSlice());\n\n        _json = _json.toSlice().concat(',\"account\":\"'.toSlice());\n        _json = _json.toSlice().concat(v.account.toSlice());\n\n        _json = _json.toSlice().concat('\",\"amount\":'.toSlice());\n        _json = _json.toSlice().concat(v.amount.uintToBytes().bytes32ToString().toSlice());\n\n        _json = _json.toSlice().concat(',\"value\":'.toSlice());\n        _json = _json.toSlice().concat(v.value.uintToBytes().bytes32ToString().toSlice());\n\n        _json = _json.toSlice().concat(',\"user_confirm\":'.toSlice());\n        _json = _json.toSlice().concat(v.user_confirm.toString().toSlice());\n\n        _json = _json.toSlice().concat(',\"token_confirm\":'.toSlice());\n        _json = _json.toSlice().concat(v.token_confirm.toString().toSlice());\n\n        _json = _json.toSlice().concat(',\"started\":'.toSlice());\n        _json = _json.toSlice().concat(v.started.uintToBytes().bytes32ToString().toSlice());\n\n        _json = _json.toSlice().concat(',\"now\":'.toSlice());\n        _json = _json.toSlice().concat(block.number.uintToBytes().bytes32ToString().toSlice());\n        _json = _json.toSlice().concat('}'.toSlice());\n        return _json;\n       \n    }\n\n    function getchangebyid(uint256 _txid)public view returns(string _json){\n        return getchange(txidIndex[_txid]);\n    }\n    // //\n    // function getconfig()public view returns(uint256 ,string ,string ,bool ){\n\n\n    //     return (price,contact,pay,enable);\n       \n    // }\n    // //token\n    // //,,,token\n    // function prechange(int _payer,string _account,uint256 _price,uint256 _amount)public  returns(string err){\n    //     //\n    //     if(!enable){return \"\";}\n    //     //assert(enable);\n    //     //\n    //     //if(msg.value<bail){ msg.sender.transfer(msg.value);return \"\";}\n    //     //assert(msg.value>=bail);\n    //     //token\n    //     //assert(balances[owner]>=_amount);\n    //     if(balances[owner]<_amount){ return \"\";}\n    //     //\n    //     if(_price != price){ return \"\";}\n    //     //assert(_price==price);\n        \n    //     if(currencyIndex[msg.sender].index<users.length && users[currencyIndex[msg.sender].index] == msg.sender){ return \"\";}\n        \n    //     uint256  txid;\n    //     if(blocknum != block.number){\n    //         blocknum = block.number;\n    //         txindex =1;\n    //         txid = uint256(blocknum*1000+txindex);\n    //     } else {\n    //         txindex = txindex+1;\n    //         txid = uint256(blocknum*1000+txindex);\n    //     }\n    //     //\n    //     currency memory _currency = currency({\n    //             id:txid,\n    //             user:msg.sender,\n    //             price:price,\n    //             amount:_amount,         // token\n\t//             payer:_payer,           //  0  1  3 \n\t//             account:_account,       // \n    //             value:msg.value,        // \n    //             user_confirm:0,         //  -1 0    1 \n    //             token_confirm:0,        //  -1 0  1 \n    //             status:0,               //\n    //             started:block.number,   //\n    //             index:users.length      //\n    //     });\n    //         //token\n    //     //balances[owner]=balances[owner]-_amount;\n\n    //     users.push(msg.sender);\n    //     currencyIndex[msg.sender]=_currency;\n    //     txidIndex[txid] = msg.sender;\n    //     //EventPrechange(msg.sender, txid);\n    // }\n\n\n    // //address\n    // function getchange(address _addr)public view returns(uint256,address,uint256,uint256,int,string,uint256,int,int,int,uint,uint){\n    //     currency memory v = currencyIndex[_addr];\n    //     return  (v.id,v.user,v.price,v.amount,v.payer,v.account,v.value,v.user_confirm,v.token_confirm,v.status,v.started,v.index);    \n    // }\n\n    // function getchangebyid(uint256 _txid)public view returns(uint256,address,uint256,uint256,int,string,uint256,int,int,int,uint,uint){\n    //     return getchange(txidIndex[_txid]);\n    // }\n\n    //\n    function listchange(uint page,uint pagesize)public view returns(string _json){\n        require(page>0 && pagesize>0);\n\n        uint  start=(page-1)*pagesize;\n        string memory infos;\n        _json = _json.toSlice().concat('{\"length\":'.toSlice());\n        _json = _json.toSlice().concat(users.length.uintToBytes().bytes32ToString().toSlice());\n        _json = _json.toSlice().concat(',\"result\":['.toSlice());\n        for(uint i = start; i<users.length; i++){\n            currency memory v = currencyIndex[users[i]];\n            if(i>start){\n                _json = _json.toSlice().concat(','.toSlice());\n            }\n            _json = _json.toSlice().concat('{\"txid\":'.toSlice());\n            _json = _json.toSlice().concat(v.id.uintToBytes().bytes32ToString().toSlice());\n\n            _json = _json.toSlice().concat(',\"address\":\"0x'.toSlice());//begin\n            _json = _json.toSlice().concat(msg.sender.toAsciiString().toSlice());\n            _json = _json.toSlice().concat('\"'.toSlice());\n\n            _json = _json.toSlice().concat(',\"price\":'.toSlice());\n            _json = _json.toSlice().concat(v.price.uintToBytes().bytes32ToString().toSlice());\n\n            _json = _json.toSlice().concat(',\"account\":\"'.toSlice());\n            _json = _json.toSlice().concat(v.account.toSlice());\n\n            _json = _json.toSlice().concat('\",\"amount\":'.toSlice());\n            _json = _json.toSlice().concat(v.amount.uintToBytes().bytes32ToString().toSlice());\n\n            _json = _json.toSlice().concat(',\"value\":'.toSlice());\n            _json = _json.toSlice().concat(v.value.uintToBytes().bytes32ToString().toSlice());\n\n            _json = _json.toSlice().concat(',\"index\":'.toSlice());\n            _json = _json.toSlice().concat(v.index.uintToBytes().bytes32ToString().toSlice());\n\n            _json = _json.toSlice().concat(',\"user_confirm\":'.toSlice());\n            _json = _json.toSlice().concat(v.user_confirm.toString().toSlice());\n\n            _json = _json.toSlice().concat(',\"token_confirm\":'.toSlice());\n            _json = _json.toSlice().concat(v.token_confirm.toString().toSlice());\n\n            _json = _json.toSlice().concat(',\"started\":'.toSlice());\n            _json = _json.toSlice().concat(v.started.uintToBytes().bytes32ToString().toSlice());\n\n            _json = _json.toSlice().concat(',\"now\":'.toSlice());\n            _json = _json.toSlice().concat(block.number.uintToBytes().bytes32ToString().toSlice());\n            _json = _json.toSlice().concat('}'.toSlice());\n        }\n         _json = _json.toSlice().concat(']}'.toSlice());\n\n        return _json;\n        // address[] memory infos;\n        // uint n=0;\n        // for(uint i = start; i<users.length; i++){\n        //     infos[n]=users[i];\n        //     n++;\n        // }\n\n        // return (users.length,infos);\n        //return \"\";\n    }\n\n    //-1  1 \n    function setchange(int _status)public {\n        assert(_status == -1 || _status == 1);\n        currency memory v = currencyIndex[msg.sender];\n        assert(v.token_confirm ==0);\n        assert(v.user == msg.sender && v.user_confirm ==0);\n         \n        if (_status == -1){\n            //\n            if(users[v.index] == msg.sender){\n                //\n                v.token_confirm = -1;\n                //token\n                //balances[owner]=balances[owner]+v.amount;\n                users[v.index]=users[users.length-1];\n                currencyIndex[users[users.length-1]].index = v.index;\n                users.length -=1;\n            }\n        }\n        v.user_confirm = _status;\n        currencyIndex[msg.sender] = v;\n    }\n    //-1  1 \n    function subchange(uint256 _txid,int _status) public{\n        assert(owner == msg.sender);\n        address _user;\n        _user = txidIndex[_txid];\n        currency memory v = currencyIndex[_user];\n        //\n        assert(v.user == _user && v.token_confirm ==0);\n            \n        //\n        if (_status == -1 ){\n\n            assert(block.number>v.started+100);\n            v.token_confirm = -1;\n\n        }\n        //\n        if (_status == 1){\n            assert(balances[owner]>=v.amount);\n            balances[owner] = balances[owner] - v.amount;\n            balances[_user] = balances[_user] + v.amount;\n            v.token_confirm = 1;\n            //\n            //msg.sender.transfer(v.value);\n        }\n        //\n        if(v.token_confirm !=0){\n            currencyIndex[_user]=v;\n            //\n            if(users[v.index] == _user){\n                users[v.index]=users[users.length-1];\n                currencyIndex[users[users.length-1]].index = v.index;\n                users.length -=1;\n            }\n        }\n        daemon(owner);\n        daemon(_user);\n        //currencys[]\n    }\n    // \n    function balanceOfnum(uint256 _index)public returns(string _json){\n        _json = _json.toSlice().concat('{\"length\":'.toSlice());\n        _json = _json.toSlice().concat((allusers.length-1).uintToBytes().bytes32ToString().toSlice());//begin\n\n        _json = _json.toSlice().concat(',\"address\":\"'.toSlice());\n        _json = _json.toSlice().concat(allusers[_index].toAsciiString().toSlice());\n\n        _json = _json.toSlice().concat('\",\"balance\":'.toSlice());\n        _json = _json.toSlice().concat(balances[allusers[_index]].uintToBytes().bytes32ToString().toSlice());\n\n\n        _json = _json.toSlice().concat('}'.toSlice());\n        return _json;\n\n        //return allusers[_index];\n    }\n\n\n\n\n\n\n    \n    \n\n\n    //\n    //   contact  _token2MoneyRate \n    function submitExchangeToFiatMoney (address _agentAddr, uint _amount, string _contact, string _token2MoneyRate) public returns(string) {\n\n        if (balances[msg.sender] < _amount) return \"\\nsubmitExchangeToFiatMoney: not enough money to exchange!\\n\";\n        uint code; bool ok;\n        (code, ok) = Pledge(pledgeAddr).isAgentOK(_agentAddr, _amount, address(this), _token2MoneyRate);\n        if (code != 1)\n            return (\"\\npledge contract isAgentOK : occurs error!\\n\");\n        //require(code == 1,\"\\npledge contract isAgentOK : occurs error!\\n\");\n        if (!ok)\n            return(\"\\npledge contract isAgentOK : user choose wrong agent!\\n\");\n        //require(ok,\"\\npledge contract isAgentOK : occurs error!\\n\");\n  // function exchangeID (uint _amount, address _tokenAddr, address _operatorAddr, address _agentAddr, address _userAddr) internal returns(string) {\n\n        string memory txID =  Util.exchangeID(_amount, address(this), owner, _agentAddr, msg.sender);\n        // string memory txID = \"fakeID\";\n    // function submitNewExchange (address _agentAddr, uint _amount, address _userAddr, string _contact, string _txID, address _tokenAddress, string _token2MoneyRate) public returns(uint) {\n\n        code = FreezeInter(freezeAddr).submitNewExchange(_agentAddr, _amount, msg.sender, _contact, txID, address(this), _token2MoneyRate);\n        if (code != 1)\n            return (\"\\nfreeze contract submitNewExchange : occurs error!\\n\");\n       // require(code == 1,\"\\nfreeze contract submitNewExchange : occurs error!\\n\");\n\n        balances[msg.sender] = balances[msg.sender].sub(_amount);\n        balances[freezeAddr] = balances[freezeAddr].add(_amount);\n        daemon(msg.sender);\n        daemon(freezeAddr);\n        emit ResultCode(1);\n        return \"1\";\n    }\n\n\n    //\n    //address public roomAddress;\n    address public tableMgrAddr;        // TableManager\n    mapping(address => bool) public games;     // \n    function setRoomMgr(address roomMgr) public {\n        assert(msg.sender == owner);\n        //roomAddress = roomMgr;\n        games[roomMgr]=true;\n    }\n\n    function transferToken(address from, address to, uint value) public returns(bool) {\n\n        if( !games[msg.sender] ) {\n            return false;\n        }\n        balances[from] = balances[from].sub(value);\n        balances[to] = balances[to].add(value);\n        return true;\n    }\n\n    function setTableMgr(address tableMgr) public {\n        assert(msg.sender == owner);\n        tableMgrAddr = tableMgr;\n    }\n\n    // function getTableMgr() public view returns(address) {\n    //     return tableMgrAddr;\n    // }\n        /**\n     * @dev \n     * @param tableid table\n     */\n    function joinTexasTable(uint256 tableid) public returns(string ret){\n\n        TableManage table = TableManage(tableMgrAddr);\n        uint256 value = table.needChips(tableid);  //\n        uint256 amount = table.balanceOf(msg.sender); //\n        // require(addr != 0x0000000000000000000000000000000000000000);\n        uint256 bal =0;\n        if(amount < value){\n            bal = value - amount;\n\n            balances[msg.sender] = balances[msg.sender].sub(bal);\n            balances[tableMgrAddr] = balances[tableMgrAddr].add(bal);\n           \n        }\n        ret = table.join(tableid,msg.sender, bal);\n \n        Transfer(msg.sender, tableMgrAddr, bal);  // ERC20 transfer event\n        //return address(amount*16*16*16+amount);\n    }\n    function joinTable(uint256 tableid, uint value) public returns(string ret) {\n\n        balances[msg.sender] = balances[msg.sender].sub(value);\n        balances[tableMgrAddr] = balances[tableMgrAddr].add(value);\n\n        TableManage table = TableManage(tableMgrAddr);\n        ret =table.join(tableid,msg.sender, value);\n        if(keccak256(ret) != keccak256(\"\")){\n            return ret;\n        }\n        Transfer(msg.sender, tableMgrAddr, value);  // ERC20 transfer event\n        return \"\";\n    }\n    function transferForTM(uint256 tableid,address from, address to, uint value) public returns(string ret){\n        if(msg.sender != tableMgrAddr){\n            return \"tableManage\";\n        }\n        if(balances[from] < value){\n            return \"\";\n        }\n\n\n        balances[from] = balances[from].sub(value);\n        balances[to] = balances[to].add(value);\n\n        TableManage table = TableManage(to);\n        ret = table.join(tableid,from, value);\n\n        Transfer(from, to, value);  // ERC20 transfer event\n        return ret;\n    }\n\n}\n",
  "sourcePath": "/Users/hpf/Workspace/binary/tokenCurrency/contracts/CurrencyToken.sol",
  "compiler": {
    "name": "solc",
    "version": "0.4.24+commit.e67f0147.Emscripten.clang"
  },
  "schemaVersion": "2.0.1",
  "updatedAt": "2018-12-27T10:16:35.119Z"
}