{
  "contractName": "Inter",
  "abi": [
    {
      "constant": true,
      "inputs": [
        {
          "name": "",
          "type": "address"
        }
      ],
      "name": "games",
      "outputs": [
        {
          "name": "",
          "type": "bool"
        }
      ],
      "payable": false,
      "stateMutability": "view",
      "type": "function"
    },
    {
      "constant": true,
      "inputs": [
        {
          "name": "name",
          "type": "string"
        }
      ],
      "name": "_getContract",
      "outputs": [
        {
          "name": "",
          "type": "address"
        }
      ],
      "payable": false,
      "stateMutability": "view",
      "type": "function"
    },
    {
      "inputs": [],
      "payable": false,
      "stateMutability": "nonpayable",
      "type": "constructor"
    },
    {
      "anonymous": false,
      "inputs": [
        {
          "indexed": false,
          "name": "addr",
          "type": "address"
        },
        {
          "indexed": false,
          "name": "nodeid",
          "type": "string"
        },
        {
          "indexed": false,
          "name": "amount",
          "type": "uint256"
        }
      ],
      "name": "Register",
      "type": "event"
    },
    {
      "anonymous": false,
      "inputs": [
        {
          "indexed": false,
          "name": "addr",
          "type": "address"
        },
        {
          "indexed": false,
          "name": "nodeid",
          "type": "string"
        },
        {
          "indexed": false,
          "name": "amount",
          "type": "uint256"
        }
      ],
      "name": "ModifyNodeId",
      "type": "event"
    },
    {
      "anonymous": false,
      "inputs": [
        {
          "indexed": false,
          "name": "addr",
          "type": "address"
        },
        {
          "indexed": false,
          "name": "locktime",
          "type": "uint256"
        }
      ],
      "name": "ApplyForLock",
      "type": "event"
    },
    {
      "anonymous": false,
      "inputs": [
        {
          "indexed": false,
          "name": "addr",
          "type": "address"
        },
        {
          "indexed": false,
          "name": "locktime",
          "type": "uint256"
        }
      ],
      "name": "ApplyForUnLock",
      "type": "event"
    },
    {
      "anonymous": false,
      "inputs": [
        {
          "indexed": false,
          "name": "addr",
          "type": "address"
        },
        {
          "indexed": false,
          "name": "nodeid",
          "type": "string"
        },
        {
          "indexed": false,
          "name": "amount",
          "type": "uint256"
        }
      ],
      "name": "UnRegister",
      "type": "event"
    },
    {
      "anonymous": false,
      "inputs": [
        {
          "indexed": false,
          "name": "tableManage",
          "type": "address"
        },
        {
          "indexed": false,
          "name": "tableid",
          "type": "uint256"
        },
        {
          "indexed": false,
          "name": "playerAddr",
          "type": "address"
        },
        {
          "indexed": false,
          "name": "number",
          "type": "uint256"
        }
      ],
      "name": "SelectInter",
      "type": "event"
    },
    {
      "anonymous": false,
      "inputs": [
        {
          "indexed": false,
          "name": "roomAddr",
          "type": "address"
        },
        {
          "indexed": false,
          "name": "tableId",
          "type": "uint256"
        },
        {
          "indexed": false,
          "name": "number",
          "type": "uint256"
        }
      ],
      "name": "ApplyForInter",
      "type": "event"
    },
    {
      "anonymous": false,
      "inputs": [
        {
          "indexed": false,
          "name": "roomAddr",
          "type": "address"
        },
        {
          "indexed": false,
          "name": "tableId",
          "type": "uint256"
        },
        {
          "indexed": false,
          "name": "interAddr",
          "type": "address"
        }
      ],
      "name": "RportFailInter",
      "type": "event"
    },
    {
      "anonymous": false,
      "inputs": [
        {
          "indexed": false,
          "name": "roomAddr",
          "type": "address"
        },
        {
          "indexed": false,
          "name": "tableId",
          "type": "uint256"
        },
        {
          "indexed": false,
          "name": "interAddr",
          "type": "address"
        }
      ],
      "name": "RecordFailInter",
      "type": "event"
    },
    {
      "anonymous": false,
      "inputs": [
        {
          "indexed": false,
          "name": "roomAddr",
          "type": "address"
        },
        {
          "indexed": false,
          "name": "tableId",
          "type": "uint256"
        },
        {
          "indexed": false,
          "name": "number",
          "type": "uint256"
        }
      ],
      "name": "ReApplyForInter",
      "type": "event"
    },
    {
      "constant": false,
      "inputs": [
        {
          "name": "tableMgr",
          "type": "address"
        }
      ],
      "name": "setTableMgr",
      "outputs": [],
      "payable": false,
      "stateMutability": "nonpayable",
      "type": "function"
    },
    {
      "constant": false,
      "inputs": [
        {
          "name": "roomMgr",
          "type": "address"
        }
      ],
      "name": "setRoomMgrAddr",
      "outputs": [],
      "payable": false,
      "stateMutability": "nonpayable",
      "type": "function"
    },
    {
      "constant": false,
      "inputs": [
        {
          "name": "nodeid",
          "type": "string"
        }
      ],
      "name": "register",
      "outputs": [
        {
          "name": "",
          "type": "bool"
        }
      ],
      "payable": true,
      "stateMutability": "payable",
      "type": "function"
    },
    {
      "constant": false,
      "inputs": [
        {
          "name": "nodeid",
          "type": "string"
        }
      ],
      "name": "modifyNodeid",
      "outputs": [],
      "payable": false,
      "stateMutability": "nonpayable",
      "type": "function"
    },
    {
      "constant": true,
      "inputs": [
        {
          "name": "interAddr",
          "type": "address"
        }
      ],
      "name": "getInterInfo",
      "outputs": [
        {
          "name": "",
          "type": "address"
        },
        {
          "name": "",
          "type": "string"
        },
        {
          "name": "",
          "type": "uint256"
        },
        {
          "name": "",
          "type": "uint256"
        },
        {
          "name": "",
          "type": "uint256"
        },
        {
          "name": "",
          "type": "uint256"
        }
      ],
      "payable": false,
      "stateMutability": "view",
      "type": "function"
    },
    {
      "constant": false,
      "inputs": [],
      "name": "applyForLock",
      "outputs": [
        {
          "name": "",
          "type": "bool"
        }
      ],
      "payable": false,
      "stateMutability": "nonpayable",
      "type": "function"
    },
    {
      "constant": false,
      "inputs": [],
      "name": "applyForUnLock",
      "outputs": [
        {
          "name": "",
          "type": "bool"
        }
      ],
      "payable": false,
      "stateMutability": "nonpayable",
      "type": "function"
    },
    {
      "constant": false,
      "inputs": [],
      "name": "unRegister",
      "outputs": [
        {
          "name": "",
          "type": "bool"
        }
      ],
      "payable": false,
      "stateMutability": "nonpayable",
      "type": "function"
    },
    {
      "constant": false,
      "inputs": [
        {
          "name": "info",
          "type": "bytes"
        }
      ],
      "name": "runInfo",
      "outputs": [],
      "payable": false,
      "stateMutability": "nonpayable",
      "type": "function"
    },
    {
      "constant": false,
      "inputs": [
        {
          "name": "table",
          "type": "address"
        },
        {
          "name": "interAddr",
          "type": "address"
        },
        {
          "name": "totHand",
          "type": "uint256"
        },
        {
          "name": "succHand",
          "type": "uint256"
        }
      ],
      "name": "runInfo2",
      "outputs": [],
      "payable": false,
      "stateMutability": "nonpayable",
      "type": "function"
    },
    {
      "constant": true,
      "inputs": [],
      "name": "numberOfInter",
      "outputs": [
        {
          "name": "",
          "type": "uint256"
        }
      ],
      "payable": false,
      "stateMutability": "view",
      "type": "function"
    },
    {
      "constant": true,
      "inputs": [],
      "name": "numberOfUnlockInter",
      "outputs": [
        {
          "name": "",
          "type": "uint256"
        }
      ],
      "payable": false,
      "stateMutability": "view",
      "type": "function"
    },
    {
      "constant": false,
      "inputs": [
        {
          "name": "tableId",
          "type": "uint256"
        },
        {
          "name": "playerAddr",
          "type": "address"
        },
        {
          "name": "number",
          "type": "uint256"
        }
      ],
      "name": "select",
      "outputs": [
        {
          "name": "ret",
          "type": "string"
        }
      ],
      "payable": false,
      "stateMutability": "nonpayable",
      "type": "function"
    },
    {
      "constant": false,
      "inputs": [
        {
          "name": "tableId",
          "type": "uint256"
        }
      ],
      "name": "reSelect",
      "outputs": [
        {
          "name": "",
          "type": "string"
        }
      ],
      "payable": false,
      "stateMutability": "nonpayable",
      "type": "function"
    },
    {
      "constant": false,
      "inputs": [
        {
          "name": "tableId",
          "type": "uint256"
        },
        {
          "name": "playerAddr",
          "type": "address"
        },
        {
          "name": "interAddr",
          "type": "address"
        }
      ],
      "name": "failInter",
      "outputs": [
        {
          "name": "",
          "type": "string"
        }
      ],
      "payable": false,
      "stateMutability": "nonpayable",
      "type": "function"
    },
    {
      "constant": false,
      "inputs": [
        {
          "name": "roomAddr",
          "type": "address"
        },
        {
          "name": "tableId",
          "type": "uint256"
        },
        {
          "name": "number",
          "type": "uint256"
        }
      ],
      "name": "applyForInters",
      "outputs": [],
      "payable": false,
      "stateMutability": "nonpayable",
      "type": "function"
    },
    {
      "constant": false,
      "inputs": [
        {
          "name": "tableId",
          "type": "uint256"
        }
      ],
      "name": "reApplyForInters",
      "outputs": [],
      "payable": false,
      "stateMutability": "nonpayable",
      "type": "function"
    },
    {
      "constant": false,
      "inputs": [
        {
          "name": "roomAddr",
          "type": "address"
        },
        {
          "name": "tableId",
          "type": "uint256"
        },
        {
          "name": "interAddr",
          "type": "address"
        }
      ],
      "name": "reportFailInter",
      "outputs": [],
      "payable": false,
      "stateMutability": "nonpayable",
      "type": "function"
    },
    {
      "constant": false,
      "inputs": [
        {
          "name": "tableid",
          "type": "uint256"
        }
      ],
      "name": "release",
      "outputs": [],
      "payable": false,
      "stateMutability": "nonpayable",
      "type": "function"
    },
    {
      "constant": true,
      "inputs": [
        {
          "name": "roomAddr",
          "type": "address"
        },
        {
          "name": "tableId",
          "type": "uint256"
        }
      ],
      "name": "getRoomTableInters",
      "outputs": [
        {
          "name": "",
          "type": "address[]"
        }
      ],
      "payable": false,
      "stateMutability": "view",
      "type": "function"
    },
    {
      "constant": true,
      "inputs": [
        {
          "name": "tableManage",
          "type": "address"
        },
        {
          "name": "tableid",
          "type": "uint256"
        }
      ],
      "name": "getTableInters",
      "outputs": [
        {
          "name": "",
          "type": "address[]"
        }
      ],
      "payable": false,
      "stateMutability": "view",
      "type": "function"
    },
    {
      "constant": false,
      "inputs": [
        {
          "name": "addr",
          "type": "address"
        }
      ],
      "name": "blacklisted",
      "outputs": [],
      "payable": false,
      "stateMutability": "nonpayable",
      "type": "function"
    }
  ],
  "bytecode": "0x60806040523480156200001157600080fd5b5060008054600160a060020a031990811673100000000000000000000000000000000000000317909155600280548216731000000000000000000000000000000000000001179055600380549091163317905560408051808201909152600c81527f496e7465724d616e6167657200000000000000000000000000000000000000006020820152620000ad9030640100000000620000b3810204565b620001a7565b60008054604080517fa815ff15000000000000000000000000000000000000000000000000000000008152600160a060020a0385811660248301526004820192835286516044830152865193169363a815ff1593879387939092839260649092019160208701918190849084905b838110156200013b57818101518382015260200162000121565b50505050905090810190601f168015620001695780820380516001836020036101000a031916815260200191505b509350505050600060405180830381600087803b1580156200018a57600080fd5b505af11580156200019f573d6000803e3d6000fd5b505050505050565b612f8f80620001b76000396000f3006080604052600436106101245763ffffffff60e060020a600035041663068172f981146101295780630e59b705146101505780630ec5469b146101c457806317c29f241461029257806318847c4d1461033157806326d7b3b41461038c5780632a56bbf3146103b557806337bdc99b146103e2578063384f2089146103fa57806350f19ffd14610453578063639a102d1461047a57806379131a19146104a55780637e119b9c146104c6578063869c8aa9146104e75780638f86c5fa146104c65780639b46179514610150578063b37e48e3146104fc578063bccc973614610571578063dbac26e914610589578063dcb7f89c146105aa578063e63b09f4146105c2578063ea651128146105e9578063f2c298be146105fe578063f93adc891461064a575b600080fd5b34801561013557600080fd5b5061013e61065f565b60408051918252519081900360200190f35b34801561015c57600080fd5b50610174600160a060020a03600435166024356106b3565b60408051602080825283518183015283519192839290830191858101910280838360005b838110156101b0578181015183820152602001610198565b505050509050019250505060405180910390f35b3480156101d057600080fd5b506101e5600160a060020a0360043516610732565b6040518087600160a060020a0316600160a060020a0316815260200180602001868152602001858152602001848152602001838152602001828103825287818151815260200191508051906020019080838360005b8381101561025257818101518382015260200161023a565b50505050905090810190601f16801561027f5780820380516001836020036101000a031916815260200191505b5097505050505050505060405180910390f35b34801561029e57600080fd5b506102bc600435600160a060020a0360243581169060443516610786565b6040805160208082528351818301528351919283929083019185019080838360005b838110156102f65781810151838201526020016102de565b50505050905090810190601f1680156103235780820380516001836020036101000a031916815260200191505b509250505060405180910390f35b34801561033d57600080fd5b506040805160206004803580820135601f810184900484028501840190955284845261038a943694929360249392840191908190840183828082843750949750610d4e9650505050505050565b005b34801561039857600080fd5b506103a1610d51565b604080519115158252519081900360200190f35b3480156103c157600080fd5b5061038a600160a060020a0360043581169060243516604435606435610d57565b3480156103ee57600080fd5b5061038a600435610dde565b34801561040657600080fd5b506040805160206004803580820135601f810184900484028501840190955284845261038a943694929360249392840191908190840183828082843750949750610e019650505050505050565b34801561045f57600080fd5b5061038a600160a060020a0360043516602435604435610f1c565b34801561048657600080fd5b5061038a600160a060020a0360043581169060243590604435166112df565b3480156104b157600080fd5b506103a1600160a060020a0360043516611918565b3480156104d257600080fd5b5061038a600160a060020a036004351661192d565b3480156104f357600080fd5b506103a1611965565b34801561050857600080fd5b506040805160206004803580820135601f8101849004840285018401909552848452610555943694929360249392840191908190840183828082843750949750611a0b9650505050505050565b60408051600160a060020a039092168252519081900360200190f35b34801561057d57600080fd5b5061038a600435611b02565b34801561059557600080fd5b5061038a600160a060020a0360043516610d4e565b3480156105b657600080fd5b506102bc600435611fb1565b3480156105ce57600080fd5b506102bc600435600160a060020a03602435166044356124e1565b3480156105f557600080fd5b5061013e6127a1565b6040805160206004803580820135601f81018490048402850184019095528484526103a19436949293602493928401919081908401838280828437509497506127b29650505050505050565b34801561065657600080fd5b506103a161298b565b60008060008061066f6004612a2a565b925060009150600090505b828110156106ac5761069360048263ffffffff612a3116565b60a0015115156106a4576001909101905b60010161067a565b5092915050565b600160a060020a038216600090815260076020908152604080832084845282529182902080548351818402810184019094528084526060939283018282801561072557602002820191906000526020600020905b8154600160a060020a03168152600190910190602001808311610707575b5050505050905092915050565b60006060600080600080610744612dc4565b61075560048963ffffffff612b5116565b8051602082015160408301516060840151608085015160a090950151939d929c50909a509850919650945092505050565b6060338160008181808061079a878c6106b3565b955086600160a060020a031663e11a84cd8c6040518263ffffffff1660e060020a02815260040180828152602001915050600060405180830381600087803b1580156107e557600080fd5b505af11580156107f9573d6000803e3d6000fd5b505050506040513d6000823e601f3d908101601f19168201604090815281101561082257600080fd5b81516020830180519193928301929164010000000081111561084357600080fd5b8201602081018481111561085657600080fd5b815185602082028301116401000000008211171561087357600080fd5b50949950975060009650869550859450505050505b600160a060020a0387166000908152600a602090815260408083208e845290915290205483101561091c57600160a060020a0387166000908152600a602090815260408083208e845290915290208054849081106108e257fe5b6000918252602090912060039091020154600160a060020a038a8116911614156109115750600190508161091c565b600190920191610888565b8115156109d357600160a060020a038781166000908152600a602090815260408083208f8452825280832081516060810183528e8616815282518581528085018452818501908152928101859052815460018082018085559387529585902082516003909202018054600160a060020a03191691909716178655915180519195929492936109af93850192910190612e04565b50604091909101516002909101805460ff191660ff90921691909117905550600090505b60009150600092505b600160a060020a0387166000908152600a602090815260408083208e84529091529020805482908110610a0b57fe5b906000526020600020906003020160010180549050831015610aa757600160a060020a0387166000908152600a602090815260408083208e84529091529020805482908110610a5657fe5b906000526020600020906003020160010183815481101515610a7457fe5b600091825260209091200154600160a060020a038b811691161415610a9c5760019150610aa7565b6001909201916109dc565b8115610ae85760408051808201909152601081527f616c7265616479207265706f727465640000000000000000000000000000000060208201529750610d40565b600160a060020a0387166000908152600a602090815260408083208e84529091529020805482908110610b1757fe5b600091825260208083206001600390930201820180549283018155835291829020018054600160a060020a03808e16600160a060020a031990921691909117909155604080518a831681529283018e9052908b1682820152517f567aa6bee88a8b83962a2ae80ff95c2f9070b5856db8160416ad38e0bb1c69aa9181900360600190a1600160a060020a0387166000908152600a602090815260408083208e84529091529020805482908110610bc957fe5b906000526020600020906003020160010180549050851415610d2e57600160a060020a0387166000908152600a602090815260408083208e84529091529020805482908110610c1457fe5b600091825260209091206002600390920201015460ff16600114610c9557600160a060020a03808a166000818152600b6020908152604091829020805460010190558151938b16845283018e905282810191909152517ffc4df3fa28156a26b3735407ca32eacbb323a419aabb81e2fde26dadef4d98e49181900360600190a15b600160a060020a0387166000908152600a602090815260408083208e8452909152902080546001919083908110610cc857fe5b906000526020600020906003020160020160006101000a81548160ff021916908360ff1602179055506040805190810160405280600781526020017f73756363657373000000000000000000000000000000000000000000000000008152509750610d40565b60408051602081019091526000815297505b505050505050509392505050565b50565b60015b90565b610d5f612dc4565b610d7060048563ffffffff612be816565b1515610d7b57610dd7565b610d8c60048563ffffffff612b5116565b6060810151909150610da4908463ffffffff612c0516565b60608201526080810151610dbe908363ffffffff612c0516565b6080820152610dd56004858363ffffffff612c1d16565b505b5050505050565b3360009081526007602090815260408083208484529091528120610d4e91612e69565b6000610e0b612dc4565b339150610e1f60048363ffffffff612be816565b1515610e2a57610f17565b610e3b60048363ffffffff612b5116565b602081018490529050610e566004838363ffffffff612c1d16565b507fd03ff86abb590279d5adc4e4f26ba53134501c05534a0afcff53f62e3e48c169828483604001516040518084600160a060020a0316600160a060020a0316815260200180602001838152602001828103825284818151815260200191508051906020019080838360005b83811015610eda578181015183820152602001610ec2565b50505050905090810190601f168015610f075780820380516001836020036101000a031916815260200191505b5094505050505060405180910390a15b505050565b60006060600080600080606060008060003399508c600160a060020a031663a88baa638d6040518263ffffffff1660e060020a02815260040180828152602001915050600060405180830381600087803b158015610f7957600080fd5b505af1158015610f8d573d6000803e3d6000fd5b505050506040513d6000823e601f3d908101601f191682016040526020811015610fb657600080fd5b810190808051640100000000811115610fce57600080fd5b82016020810184811115610fe157600080fd5b8151856020820283011164010000000082111715610ffe57600080fd5b50909c5060009b508b9a50505050505b885188101561105c57888881518110151561102557fe5b90602001906020020151600160a060020a03168a600160a060020a03161415611051576001965061105c565b60019097019661100e565b60018715151461106b57600080fd5b600160a060020a038d1660009081526007602090815260408083208f84529091529020541561109957600080fd5b60008b116110a657600080fd5b6110ae6127a1565b95506110b861065f565b9450848b11156110c757600080fd5b856040519080825280602002602001820160405280156110f1578160200160208202803883390190505b509350600097505b8588101561112d576000848981518110151561111157fe5b60ff9092166020928302909101909101526001909701966110f9565b50899150335b60008b111561123c5761114581612d0b565b9050858181151561115257fe5b0691505b838281518110151561116457fe5b9060200190602002015160ff1660011480611192575061118b60048363ffffffff612a3116565b60a0015115155b156111ad5785826001018115156111a557fe5b069150611156565b8351600019909b019a6001908590849081106111c557fe5b60ff9092166020928302909101820152600160a060020a038e1660009081526007825260408082208f83529092522061120560048463ffffffff612d6916565b8154600181018355600092835260209092209091018054600160a060020a031916600160a060020a03909216919091179055611133565b82600960008f600160a060020a0316600160a060020a0316815260200190815260200160002060008e8152602001908152602001600020819055507fd79b6dd442f7ec1871dcd0b7e34517963d935ef3abcc160f4fc0c1c02407f9968d8d856040518084600160a060020a0316600160a060020a03168152602001838152602001828152602001935050505060405180910390a150505050505050505050505050565b600160a060020a038316600090815260066020526040812054339190606090819083908190819060ff1615156113145761190c565b89600160a060020a031663e11a84cd8a6040518263ffffffff1660e060020a02815260040180828152602001915050600060405180830381600087803b15801561135d57600080fd5b505af1158015611371573d6000803e3d6000fd5b505050506040513d6000823e601f3d908101601f19168201604090815281101561139a57600080fd5b8151602083018051919392830192916401000000008111156113bb57600080fd5b820160208101848111156113ce57600080fd5b81518560208202830111640100000000821117156113eb57600080fd5b5050929190505050955095506114018a8a6106b3565b935060009150600092505b8583101561145957848381518110151561142257fe5b90602001906020020151600160a060020a031687600160a060020a0316141561144e5760019150611459565b60019092019161140c565b60018215151461146857600080fd5b60009150600092505b83518310156114bf57838381518110151561148857fe5b90602001906020020151600160a060020a031688600160a060020a031614156114b457600191506114bf565b600190920191611471565b6001821515146114ce57600080fd5b5060009150819050805b600160a060020a038a166000908152600a602090815260408083208c845290915290205483101561156c57600160a060020a038a166000908152600a602090815260408083208c8452909152902080548490811061153257fe5b6000918252602090912060039091020154600160a060020a03898116911614156115615750600190508161156c565b6001909201916114d8565b81151561162357600160a060020a038a81166000908152600a602090815260408083208d8452825280832081516060810183528d8616815282518581528085018452818501908152928101859052815460018082018085559387529585902082516003909202018054600160a060020a03191691909716178655915180519195929492936115ff93850192910190612e04565b50604091909101516002909101805460ff191660ff90921691909117905550600090505b60009150600092505b600160a060020a038a166000908152600a602090815260408083208c8452909152902080548290811061165b57fe5b9060005260206000209060030201600101805490508310156116f757600160a060020a038a166000908152600a602090815260408083208c845290915290208054829081106116a657fe5b9060005260206000209060030201600101838154811015156116c457fe5b600091825260209091200154600160a060020a03888116911614156116ec57600191506116f7565b60019092019161162c565b811561170257600080fd5b600160a060020a038a166000908152600a602090815260408083208c8452909152902080548290811061173157fe5b600091825260208083206001600390930201820180549283018155835291829020018054600160a060020a03808b16600160a060020a031990921691909117909155604080518d831681529283018c9052908a1682820152517f567aa6bee88a8b83962a2ae80ff95c2f9070b5856db8160416ad38e0bb1c69aa9181900360600190a1600160a060020a038a166000908152600a602090815260408083208c845290915290208054829081106117e357fe5b90600052602060002090600302016001018054905086141561190c57600160a060020a038a166000908152600a602090815260408083208c8452909152902080548290811061182e57fe5b600091825260209091206002600390920201015460ff166001146118af57600160a060020a038089166000818152600b6020908152604091829020805460010190558151938e16845283018c905282810191909152517ffc4df3fa28156a26b3735407ca32eacbb323a419aabb81e2fde26dadef4d98e49181900360600190a15b600160a060020a038a166000908152600a602090815260408083208c84529091529020805460019190839081106118e257fe5b906000526020600020906003020160020160006101000a81548160ff021916908360ff1602179055505b50505050505050505050565b60066020526000908152604090205460ff1681565b600354600160a060020a0316331461194157fe5b600160a060020a03166000908152600660205260409020805460ff19166001179055565b600080611970612dc4565b33915061198460048363ffffffff612be816565b15156119935760009250611a06565b6119a460048363ffffffff612b5116565b600060a082015260408051600160a060020a038516815242602082015281519293507f826f972c86e16d02c222d0ca12f04e0198995e11ad864ead587116be4e8b3cab929081900390910190a1611a036004838363ffffffff612c1d16565b92505b505090565b600080546040517f693ec85e000000000000000000000000000000000000000000000000000000008152602060048201818152855160248401528551600160a060020a039094169363693ec85e9387938392604490920191908501908083838b5b83811015611a84578181015183820152602001611a6c565b50505050905090810190601f168015611ab15780820380516001836020036101000a031916815260200191505b5092505050602060405180830381600087803b158015611ad057600080fd5b505af1158015611ae4573d6000803e3d6000fd5b505050506040513d6020811015611afa57600080fd5b509092915050565b336000818152600660205260408120548190606090829081908190819081908190819060ff161515611b3357611fa3565b611b3b6127a1565b995089604051908082528060200260200182016040528015611b67578160200160208202803883390190505b509750600098505b89891015611ba3576000888a815181101515611b8757fe5b60ff909216602092830290910190910152600190980197611b6f565b600160a060020a038b1660009081526007602090815260408083208f845290915290205498505b6000891115611d1157600160a060020a038b1660009081526007602090815260408083208f8452909152902080546000198b01908110611c0657fe5b9060005260206000200160009054906101000a9004600160a060020a03169650600860008c600160a060020a0316600160a060020a0316815260200190815260200160002060008d81526020019081526020016000208790806001815401808255809150509060018203906000526020600020016000909192909190916101000a815481600160a060020a030219169083600160a060020a0316021790555050600760008c600160a060020a0316600160a060020a0316815260200190815260200160002060008d815260200190815260200160002060018a03815481101515611cec57fe5b60009182526020909120018054600160a060020a031916905560001990980197611bca565b600160a060020a038b1660009081526007602090815260408083208f84529091528120611d3e9082612e87565b50600098505b600160a060020a038b1660009081526008602090815260408083208f8452909152902054891015611e0657600160a060020a038b1660009081526008602090815260408083208f8452909152902080548a908110611d9e57fe5b600091825260209091200154600160a060020a03169650611dc660048863ffffffff612be816565b15611dfb57600188611ddf60048a63ffffffff612d9816565b81518110611de957fe5b60ff9092166020928302909101909101525b600190980197611d44565b50600160a060020a038a1660009081526009602090815260408083208e845290915281205495509350335b85851015611f5957611e4281612d0b565b90508981811515611e4f57fe5b069350839250600091505b8784815181101515611e6857fe5b9060200190602002015160ff1660011480611e965750611e8f60048563ffffffff612a3116565b60a0015115155b15611ec2578984600101811515611ea957fe5b06935082841415611ebd5760019150611ec2565b611e5a565b8115611ecd57611f59565b875160019586019590899086908110611ee257fe5b60ff9092166020928302909101820152600160a060020a038c1660009081526007825260408082208f835290925220611f2260048663ffffffff612d6916565b8154600181018355600092835260209092209091018054600160a060020a031916600160a060020a03909216919091179055611e31565b60408051600160a060020a038d168152602081018e905280820187905290517f694b2c9204930ea5872edb45a2a5817041fa50dad5eab51302adc8dee75844f19181900360600190a15b505050505050505050505050565b6060336000808381808080808080611fc76127a1565b995089604051908082528060200260200182016040528015611ff3578160200160208202803883390190505b509750600760008c600160a060020a0316600160a060020a0316815260200190815260200160002060008e81526020019081526020016000208054905098505b600089111561218d57600760008c600160a060020a0316600160a060020a0316815260200190815260200160002060008e815260200190815260200160002060018a0381548110151561208257fe5b9060005260206000200160009054906101000a9004600160a060020a03169650600860008c600160a060020a0316600160a060020a0316815260200190815260200160002060008e81526020019081526020016000208790806001815401808255809150509060018203906000526020600020016000909192909190916101000a815481600160a060020a030219169083600160a060020a0316021790555050600760008c600160a060020a0316600160a060020a0316815260200190815260200160002060008e815260200190815260200160002060018a0381548110151561216857fe5b60009182526020909120018054600160a060020a031916905560001990980197612033565b6000600760008d600160a060020a0316600160a060020a0316815260200190815260200160002060008f8152602001908152602001600020816121d09190612e87565b50600098505b600860008c600160a060020a0316600160a060020a0316815260200190815260200160002060008e8152602001908152602001600020805490508910156122c257600860008c600160a060020a0316600160a060020a0316815260200190815260200160002060008e81526020019081526020016000208981548110151561225a57fe5b600091825260209091200154600160a060020a0316965061228260048863ffffffff612be816565b156122b75760018861229b60048a63ffffffff612d9816565b815181106122a557fe5b60ff9092166020928302909101909101525b6001909801976121d6565b50600160a060020a038a1660009081526009602090815260408083208f845290915281205495509350335b85851015612435576122fe81612d0b565b9050898181151561230b57fe5b069350839250600091505b878481518110151561232457fe5b9060200190602002015160ff1660011480612352575061234b60048563ffffffff612a3116565b60a0015115155b1561237e57898460010181151561236557fe5b06935082841415612379576001915061237e565b612316565b811561238957612435565b87516001958601959089908690811061239e57fe5b9060200190602002019060ff16908160ff1681525050600760008c600160a060020a0316600160a060020a0316815260200190815260200160002060008e81526020019081526020016000206123fe856004612d6990919063ffffffff16565b8154600181018355600092835260209092209091018054600160a060020a031916600160a060020a039092169190911790556122ed565b60408051600160a060020a038d168152602081018f905280820187905290517f694b2c9204930ea5872edb45a2a5817041fa50dad5eab51302adc8dee75844f19181900360600190a181156124bf5760408051808201909152601181527f696e746572206e6f7420656e6f7567746800000000000000000000000000000060208201529b506124d1565b6040805160208101909152600081529b505b5050505050505050505050919050565b3360008181526007602090815260408083208784529091528120546060929190819084908290819081901561254b5760408051808201909152601f81527f74686973207461626c652068617320616c6c6f636174656420696e746572730060208201529750610d40565b88151561258d5760408051808201909152601381527f6e756d62657220636f6e74206265207a65726f0000000000000000000000000060208201529750610d40565b6125956127a1565b955061259f61065f565b9450848911156125e45760408051808201909152601081527f696e746572206e6f7420656e6f7567680000000000000000000000000000000060208201529750610d40565b8560405190808252806020026020018201604052801561260e578160200160208202803883390190505b5093508892503390505b60008911156127215761262a81612d0b565b9050858181151561263757fe5b0691505b838281518110151561264957fe5b9060200190602002015160ff1660011480612677575061267060048363ffffffff612a3116565b60a0015115155b1561269257858260010181151561268a57fe5b06915061263b565b8351600019909901986001908590849081106126aa57fe5b60ff9092166020928302909101820152600160a060020a03881660009081526007825260408082208e8352909252206126ea60048463ffffffff612d6916565b8154600181018355600092835260209092209091018054600160a060020a031916600160a060020a03909216919091179055612618565b600160a060020a03871660008181526009602090815260408083208f8452825291829020869055815192835282018d9052818101859052517fd79b6dd442f7ec1871dcd0b7e34517963d935ef3abcc160f4fc0c1c02407f9969181900360600190a150506040805160208101909152600081529998505050505050505050565b60006127ad6004612a2a565b905090565b60008060006127bf612dc4565b34925060008310156127d057600080fd5b3391506127e460048363ffffffff612be816565b151561285f57606483101561285a57604080517f08c379a000000000000000000000000000000000000000000000000000000000815260206004820152601f60248201527f496e73756666696369656e7420616d6f756e74206f66206d6f72746761676500604482015290519081900360640190fd5b612879565b61287060048363ffffffff612b5116565b60400151830192505b506040805160c081018252600160a060020a0383168152602081018690529081018390526000606082018190526080820181905260a08201526128c46004838363ffffffff612c1d16565b507fd741a63ddb805bd1ed3216c3a05c67b4e900126b903e69169fe3940657d280c78286856040518084600160a060020a0316600160a060020a0316815260200180602001838152602001828103825284818151815260200191508051906020019080838360005b8381101561294457818101518382015260200161292c565b50505050905090810190601f1680156129715780820380516001836020036101000a031916815260200191505b5094505050505060405180910390a1506001949350505050565b600080612996612dc4565b3391506129aa60048363ffffffff612be816565b15156129b95760009250611a06565b6129ca60048363ffffffff612b5116565b4260a0820181905260408051600160a060020a0386168152602081019290925280519293507fe1c3ff0e9a687305cf36c13338309e9596879c420751676594272895f2d0887092918290030190a1611a036004838363ffffffff612c1d16565b6001015490565b612a39612dc4565b600183018054849160009185908110612a4e57fe5b600091825260208083209190910154600160a060020a039081168452838201949094526040928301909120825160c0810184526001808301805490961682526002928301805486516101009382161593909302600019011693909304601f810185900485028201850190955284815290949385840193919291830182828015612b185780601f10612aed57610100808354040283529160200191612b18565b820191906000526020600020905b815481529060010190602001808311612afb57829003601f168201915b50505050508152602001600282015481526020016003820154815260200160048201548152602001600582015481525050905092915050565b612b59612dc4565b600160a060020a0382811660009081526020858152604091829020825160c0810184526001808301805490961682526002928301805486516101009382161593909302600019011693909304601f810185900485028201850190955284815290949385840193919291830182828015612b185780601f10612aed57610100808354040283529160200191612b18565b600160a060020a0316600090815260209190915260408120541190565b6000828201612c1684821015612db8565b9392505050565b600160a060020a0382811660009081526020858152604082208451600182018054600160a060020a03191691909516178455848201518051939491938693612c6c926002870192910190612eab565b5060408201516002820155606082015160038201556080820151600482015560a090910151600590910155805460001015612caa5760019150612d03565b8460010180546001019081612cbf9190612e87565b808255600186018054869260001901908110612cd757fe5b600091825260208220018054600160a060020a031916600160a060020a03939093169290921790915591505b509392505050565b600060024442846040518084815260200183815260200182815260200193505050506020604051808303816000865af1158015612d4c573d6000803e3d6000fd5b5050506040513d6020811015612d6157600080fd5b505192915050565b60008260010182815481101515612d7c57fe5b600091825260209091200154600160a060020a03169392505050565b600160a060020a0316600090815260209190915260409020546000190190565b801515610d4e57600080fd5b60c0604051908101604052806000600160a060020a0316815260200160608152602001600081526020016000815260200160008152602001600081525090565b828054828255906000526020600020908101928215612e59579160200282015b82811115612e595782518254600160a060020a031916600160a060020a03909116178255602090920191600190910190612e24565b50612e65929150612f25565b5090565b5080546000825590600052602060002090810190610d4e9190612f49565b815481835581811115610f1757600083815260209020610f17918101908301612f49565b828054600181600116156101000203166002900490600052602060002090601f016020900481019282601f10612eec57805160ff1916838001178555612f19565b82800160010185558215612f19579182015b82811115612f19578251825591602001919060010190612efe565b50612e65929150612f49565b610d5491905b80821115612e65578054600160a060020a0319168155600101612f2b565b610d5491905b80821115612e655760008155600101612f4f5600a165627a7a72305820396799e58346d4c370cfb3f9199b2ac280a3f612b67d5a1ac1cca2153677ba050029",
  "source": "pragma solidity ^0.4.20;\n\nimport './SafeMath.sol';\nimport './InterMaps.sol';\nimport './RoomBasic.sol';\nimport './LibContract.sol';\n\n\ncontract Inter is LibContract{\n    using InterMaps for InterMaps.MapAddr2Inter;\n    using SafeMath for uint;\n\n    address owner;\n\n    uint constant MARGIN_THRESHOLD_INTER  = 100;    // Inter\n\n    event Register(address addr, string nodeid, uint amount);\n    event ModifyNodeId(address addr, string nodeid, uint amount);\n    event ApplyForLock(address addr, uint locktime);\n    event ApplyForUnLock(address addr, uint locktime);\n    event UnRegister(address addr, string nodeid, uint amount);\n    event SelectInter(address tableManage,uint256 tableid, address playerAddr, uint number);\n    event ApplyForInter(address roomAddr, uint tableId, uint number);\n    event RportFailInter(address roomAddr, uint tableId, address interAddr);\n    event RecordFailInter(address roomAddr, uint tableId, address interAddr);\n    event ReApplyForInter(address roomAddr, uint tableId, uint number);\n\n    struct ExceptionInfo {\n        address     addr;       // Inter1,table; 2,table\n        address[]   players;    // \n        uint8       status;     // Inter1\n    }\n\n    InterMaps.MapAddr2Inter addr2Inters;\n    mapping(address=>bool) public games;//\n    //address public roomMgrAddr;            // RoomManager\n    //address public tableMgrAddr;    // TableManager\n   // mapping(address => mapping(uint256 => address[]))   table2inters;   // table -- inter\n\n    mapping(address => mapping(uint => address[]))  room2tbInAddr;      // room -- (tableId -- Inter) \n    mapping(address => mapping(uint => address[]))  room2tbInAddr_I;    // room -- (tableId -- Inter) \n    mapping(address => mapping(uint => uint))       room2tbNrNum;       // room -- tableInter\n\n    mapping (address => mapping(uint => ExceptionInfo[]))  room2tbExcNr;   // room -- (table -- Inter)\n                                                        // ( mapping (uint => mapping(address => address[]))\n    mapping(address => uint) nrAddr2failCout;   //  -- Inter\n    mapping(address => uint) nrAddr2SuccCout;   //  -- Inter\n\n    constructor() public {\n        owner = msg.sender;\n        _setContract(\"InterManager\",this); //\n    }\n\n    function setTableMgr(address tableMgr) public {\n        assert(msg.sender == owner);\n        games[tableMgr]=true;\n        //tableMgrAddr = tableMgr;\n    }\n\n    //function getTableMgr() public view returns(address) {\n    //    return tableMgrAddr;\n    //}\n\n    function setRoomMgrAddr(address roomMgr) public {\n        assert(msg.sender == owner);\n        games[roomMgr] = true;\n        //roomMgrAddr = roomMgr;\n    }\n\n    // function getRoomMgrAddr() public view returns(address) {\n    //     return roomMgrAddr;\n    // }\n\n    /**\n     * @dev \n     * @param seed \n     * @return \n     */\n    function rand(uint seed) internal view returns(uint) {\n        return uint(sha256(block.difficulty, now, seed));\n    }\n\n    /**\n     * @dev inter\n     * @param nodeid internode id\n     */\n    function register(string nodeid) public payable returns (bool) {\n        uint amount = msg.value;    // \n        require(amount >= 0);\n\n        address addr = msg.sender;\n        if(!addr2Inters.contains(addr)) {\n            require(amount >= MARGIN_THRESHOLD_INTER, \"Insufficient amount of mortgage\");\n        }\n        else {\n            amount += addr2Inters.get(addr).pawnAmount;\n        }\n\n        InterMaps.InterInfo memory interinfo = InterMaps.InterInfo(addr, nodeid, amount, 0, 0, 0);\n        addr2Inters.insert(addr, interinfo);\n\n        emit Register(addr, nodeid, amount);\n        return true;\n    }\n\n    /**\n     * @dev internodeid\n     * @param nodeid internode id\n     */\n    function modifyNodeid(string nodeid) public {\n        address addr = msg.sender;\n\n        if(!addr2Inters.contains(addr)) {\n            return;\n        }\n\n        InterMaps.InterInfo memory info = addr2Inters.get(addr);\n        info.nodeid = nodeid;\n\n        addr2Inters.insert(addr, info);\n\n        emit ModifyNodeId(addr, nodeid, info.pawnAmount);\n    }\n\n    /**\n     * @dev Inter\n     */\n    function getInterInfo(address interAddr) public view returns(address, string, uint, uint, uint, uint) {\n        InterMaps.InterInfo memory inter = addr2Inters.get(interAddr);\n        return (inter.addr, inter.nodeid, inter.pawnAmount, inter.totHand, inter.succHand, inter.locktime);\n    }\n\n    /**\n     * @dev InterInter\n     * @return \n     */\n    function applyForLock() public returns (bool) {\n        address addr = msg.sender;\n\n        if(!addr2Inters.contains(addr)) {\n            return false;\n        }\n\n        InterMaps.InterInfo memory interInfo = addr2Inters.get(addr);\n        interInfo.locktime = now;\n\n        emit ApplyForLock(addr, interInfo.locktime);\n\n        return addr2Inters.insert(addr, interInfo);\n    }\n\n    /**\n     * @dev Inter\n     * @return \n     */\n    function applyForUnLock() public returns (bool) {\n        address addr = msg.sender;\n\n        if(!addr2Inters.contains(addr)) {\n            return false;\n        }\n\n        InterMaps.InterInfo memory interInfo = addr2Inters.get(addr);\n        interInfo.locktime = 0;\n\n        emit ApplyForUnLock(addr, now);\n\n        return addr2Inters.insert(addr, interInfo);\n    }\n\n    /**\n     * @dev Inter\n     * @return \n     */\n    function unRegister() public returns (bool) {\n\n        return true;\n    }\n\n    /**\n     * @dev Inter\n     */\n    function runInfo(bytes info) public {\n\n    }\n\n    /**\n     * @dev Inter\n     * @param table table\n     * @param interAddr inter\n     * @param totHand \n     * @param succHand \n     */\n    function runInfo2(address table, address interAddr, uint totHand, uint succHand) public {\n        if(!addr2Inters.contains(interAddr)) {\n            return;\n        }\n\n        InterMaps.InterInfo memory interInfo = addr2Inters.get(interAddr);\n        interInfo.totHand = interInfo.totHand.add(totHand);\n        interInfo.succHand = interInfo.succHand.add(succHand);\n\n        addr2Inters.insert(interAddr, interInfo);\n    }\n\n    /**\n     * @dev inter\n     */\n    function numberOfInter() public view returns (uint) {\n        return addr2Inters.size();\n    }\n\n    /**\n     * @dev inter\n     */\n    function numberOfUnlockInter() public view returns (uint) {\n        uint total = addr2Inters.size();\n\n        uint number = 0;\n        for(uint i = 0; i < total; i++) {\n            if(0 == addr2Inters.getValueByIndex(i).locktime) {\n                number++;\n            }\n        }\n\n        return number;\n    }\n\n    // /**\n    //  * @dev inter\n    //  * @param tableid tableid\n    //  * @param number inter\n    //  */\n    // function select(uint256 tableid, address playerAddr, uint number) public returns(string ret) {\n    //     //assert(msg.sender == tableMgrAddr);\n\n    //     if(table2inters[msg.sender][tableid].length != 0){\n    //         return  \"this table has allocated inters\";\n    //     }\n\n    //     if(number <= 0){\n    //         return \"the number parameter must be greater than 0\";\n    //     }\n    //     uint interNum = numberOfUnlockInter();\n        \n    //     if(number > interNum){\n    //         return \"the number parameter is greater than the number of unlock inter\";\n    //     }\n\n    //     uint i;\n\n    //     uint8[] memory selected = new uint8[](interNum);\n    //     // for(i = 0; i < interNum; i++) {\n    //     //     selected[i] = 0;\n    //     // }\n\n    //     uint selectedNum = number;\n\n    //     uint index;\n    //     uint seed = uint(msg.sender);\n    //     while(number > 0) {\n    //         seed = rand(seed);\n    //         index = seed % interNum;\n    //         while(1 == selected[index] || 0 != addr2Inters.getValueByIndex(index).locktime) {\n    //             index = (index + 1) % interNum;\n    //         }\n            \n    //         number--;\n    //         selected[index] = 1;\n    //         table2inters[msg.sender][tableid].push(addr2Inters.getKeyByIndex(index));\n    //     }\n\n    //     emit SelectInter(msg.sender,tableid, playerAddr, selectedNum);\n    //     return \"\";\n    // }\n\n    //inter\n    function select(uint256 tableId, address playerAddr, uint number) public returns(string ret) {\n        address roomAddr = msg.sender;\n        if(0 != room2tbInAddr[roomAddr][tableId].length){\n            return  \"this table has allocated inters\";\n        }\n        if(number == 0){\n            return \"number cont be zero\";\n        }\n\n        uint interNum = numberOfInter();\n        uint interUnlockNum = numberOfUnlockInter();\n        if(number >interUnlockNum){\n            return \"inter not enough\";\n        }\n\n        uint8[] memory selected = new uint8[](interNum);\n\n        uint selectedNum = number;\n        uint index;\n        uint seed = uint(msg.sender);\n\n        while(number > 0) {\n            seed = rand(seed);\n            index = seed % interNum;\n            while(1 == selected[index] || 0 != addr2Inters.getValueByIndex(index).locktime) {\n                index = (index + 1) % interNum;\n            }\n            \n            number--;\n            selected[index] = 1;\n            room2tbInAddr[roomAddr][tableId].push(addr2Inters.getKeyByIndex(index));\n        }\n\n        room2tbNrNum[roomAddr][tableId] = selectedNum;\n\n        emit ApplyForInter(roomAddr, tableId, selectedNum);\n        return \"\";\n    }\n\n    function reSelect(uint tableId) public returns(string){\n        address roomAddr= msg.sender;\n        uint interNum = numberOfInter();\n        uint i;\n\n        uint8[] memory selected = new uint8[](interNum);\n        // for(i = 0; i < interNum; i++) {\n        //     selected[i] = 0;\n        // }\n\n        address tmpAddr;\n        for(i = room2tbInAddr[roomAddr][tableId].length; i > 0; i--) {\n            tmpAddr = room2tbInAddr[roomAddr][tableId][i - 1];\n            room2tbInAddr_I[roomAddr][tableId].push(tmpAddr);\n            delete room2tbInAddr[roomAddr][tableId][i - 1];\n        }\n\n        room2tbInAddr[roomAddr][tableId].length = 0;\n\n        for(i = 0; i < room2tbInAddr_I[roomAddr][tableId].length; i++) {\n            tmpAddr = room2tbInAddr_I[roomAddr][tableId][i];\n            if(addr2Inters.contains(tmpAddr)) {\n                selected[addr2Inters.getIndexByKey(tmpAddr)] = 1;\n            }\n        }\n\n        uint number = room2tbNrNum[roomAddr][tableId];\n        uint selectedNum = 0;\n\n        uint index;\n        uint guard;\n        bool finish;\n        uint seed = uint(msg.sender);\n        while(selectedNum < number) {\n            seed = rand(seed);\n            index = seed % interNum;\n            guard = index;\n            finish = false;\n            while(1 == selected[index] || 0 != addr2Inters.getValueByIndex(index).locktime) {\n                index = (index + 1) % interNum;\n                if(index == guard) {\n                    finish = true;\n                    break;\n                }\n            }\n\n            if(finish) {\n                break;\n            }\n            \n            selectedNum++;\n            selected[index] = 1;\n            room2tbInAddr[roomAddr][tableId].push(addr2Inters.getKeyByIndex(index));\n        }\n\n        emit ReApplyForInter(roomAddr, tableId, selectedNum);\n        if(finish) {\n            return \"inter not enougth\";\n        }\n        return \"\";\n    }\n    /**\n     * @dev Inter\n     * @param tableId   tableID\n     * @param playerAddr  \n     * @param interAddr Inter\n     */\n    function failInter(uint tableId, address playerAddr,address interAddr) public returns(string) {\n        address roomAddr = msg.sender;\n        address[] memory inters = getRoomTableInters(roomAddr, tableId);\n        var (playingNum, playingPlayers) = RoomBasic(roomAddr).getTablePlayingPlayers(tableId);\n        uint i;\n        bool flg;\n\n        \n\n        // \n        flg = false;\n        uint index  = 0;\n        for(i = 0; i < room2tbExcNr[roomAddr][tableId].length; i++) {\n            if(interAddr == room2tbExcNr[roomAddr][tableId][i].addr) {\n                flg = true;\n                index = i;\n                break;\n            }\n        }\n\n        if(!flg) {\n            room2tbExcNr[roomAddr][tableId].push(ExceptionInfo(interAddr, new address[](0), 0));\n            index = 0;\n        }\n\n        // inter\n        flg = false;\n        for(i = 0; i < room2tbExcNr[roomAddr][tableId][index].players.length; i++) {\n            if (playerAddr == room2tbExcNr[roomAddr][tableId][index].players[i]) {\n                flg = true;\n                break;\n            }\n        }\n        if(flg){\n            return \"already reported\";\n        }\n\n        // tabletabletabletable\n        room2tbExcNr[roomAddr][tableId][index].players.push(playerAddr);\n\n        emit RportFailInter(roomAddr, tableId, interAddr);\n\n        if(playingNum == room2tbExcNr[roomAddr][tableId][index].players.length) {\n            // \n            if(1 != room2tbExcNr[roomAddr][tableId][index].status) {\n                nrAddr2failCout[interAddr]++;\n                emit RecordFailInter(roomAddr, tableId, interAddr);\n            }\n            room2tbExcNr[roomAddr][tableId][index].status = 1;\n            return \"success\";\n        }\n        return \"\";\n    }\n\n    /**\n     * @dev tableInter\n     * @param roomAddr  \n     * @param tableId   TableID\n     * @param number    Inter\n     */\n    function applyForInters(address roomAddr, uint tableId, uint number) public {\n        address playerAddr = msg.sender;\n        address[] memory talbePlayers= RoomBasic(roomAddr).getTablePlayers(tableId);\n\n        uint i;\n        bool flg = false;\n        for(i = 0; i < talbePlayers.length; i++) {\n            if(playerAddr == talbePlayers[i]) {\n                flg = true;\n                break;\n            }\n        }\n        require(true == flg);\n        \n        require(0 == room2tbInAddr[roomAddr][tableId].length);\n        require(number > 0);\n        uint interNum = numberOfInter();\n        uint interUnlockNum = numberOfUnlockInter();\n        require(number <= interUnlockNum);\n\n        uint8[] memory selected = new uint8[](interNum);\n        for(i = 0; i < interNum; i++) {\n            selected[i] = 0;\n        }\n\n        uint selectedNum = number;\n\n        uint index;\n        uint seed = uint(msg.sender);\n        while(number > 0) {\n            seed = rand(seed);\n            index = seed % interNum;\n            while(1 == selected[index] || 0 != addr2Inters.getValueByIndex(index).locktime) {\n                index = (index + 1) % interNum;\n            }\n            \n            number--;\n            selected[index] = 1;\n            room2tbInAddr[roomAddr][tableId].push(addr2Inters.getKeyByIndex(index));\n        }\n\n        room2tbNrNum[roomAddr][tableId] = selectedNum;\n\n        emit ApplyForInter(roomAddr, tableId, selectedNum);\n    }\n\n    /**\n     * @dev tableInter\n     * @param tableId   TableID\n     */\n    function reApplyForInters(uint tableId) public {\n        address roomAddr = msg.sender;\n\n        if(!games[msg.sender]) {\n            return;\n        }\n\n        uint interNum = numberOfInter();\n        uint i;\n\n        uint8[] memory selected = new uint8[](interNum);\n        for(i = 0; i < interNum; i++) {\n            selected[i] = 0;\n        }\n\n        address tmpAddr;\n        for(i = room2tbInAddr[roomAddr][tableId].length; i > 0; i--) {\n            tmpAddr = room2tbInAddr[roomAddr][tableId][i - 1];\n            room2tbInAddr_I[roomAddr][tableId].push(tmpAddr);\n            delete room2tbInAddr[roomAddr][tableId][i - 1];\n        }\n\n        room2tbInAddr[roomAddr][tableId].length = 0;\n\n        for(i = 0; i < room2tbInAddr_I[roomAddr][tableId].length; i++) {\n            tmpAddr = room2tbInAddr_I[roomAddr][tableId][i];\n            if(addr2Inters.contains(tmpAddr)) {\n                selected[addr2Inters.getIndexByKey(tmpAddr)] = 1;\n            }\n        }\n\n        uint number = room2tbNrNum[roomAddr][tableId];\n        uint selectedNum = 0;\n\n        uint index;\n        uint guard;\n        bool finish;\n        uint seed = uint(msg.sender);\n        while(selectedNum < number) {\n            seed = rand(seed);\n            index = seed % interNum;\n            guard = index;\n            finish = false;\n            while(1 == selected[index] || 0 != addr2Inters.getValueByIndex(index).locktime) {\n                index = (index + 1) % interNum;\n                if(index == guard) {\n                    finish = true;\n                    break;\n                }\n            }\n\n            if(finish) {\n                break;\n            }\n            \n            selectedNum++;\n            selected[index] = 1;\n            room2tbInAddr[roomAddr][tableId].push(addr2Inters.getKeyByIndex(index));\n        }\n\n        emit ReApplyForInter(roomAddr, tableId, selectedNum);\n    }\n\n    /**\n     * @dev Inter\n     * @param roomAddr  room\n     * @param tableId   tableID\n     * @param interAddr Inter\n     */\n    function reportFailInter(address roomAddr, uint tableId, address interAddr) public {\n        //  PLAYING Inter,\n\n        address playerAddr = msg.sender;\n\n        if(!games[roomAddr]) {\n            return;\n        }\n\n        // address[] memory playingPlayers = RoomBasic(roomAddr).getTablePlayingPlayers(tableId);\n        var (playingNum, playingPlayers) = RoomBasic(roomAddr).getTablePlayingPlayers(tableId);\n        address[] memory inters = getRoomTableInters(roomAddr, tableId);\n\n        uint i;\n        bool flg;\n\n        // \n        // uint playingNum = playingPlayers.length;\n        flg = false;\n        for(i = 0; i < playingNum; i++) {\n            if(playerAddr == playingPlayers[i]) {\n                flg = true;\n                break;\n            }\n        }\n        require(true == flg);\n\n        // tableInter\n        flg = false;\n        for(i = 0; i < inters.length; i++) {\n            if(interAddr == inters[i]) {\n                flg = true;\n                break;\n            }\n        }\n        require(true == flg);\n\n        // \n        flg = false;\n        uint index  = 0;\n        for(i = 0; i < room2tbExcNr[roomAddr][tableId].length; i++) {\n            if(interAddr == room2tbExcNr[roomAddr][tableId][i].addr) {\n                flg = true;\n                index = i;\n                break;\n            }\n        }\n\n        if(!flg) {\n            room2tbExcNr[roomAddr][tableId].push(ExceptionInfo(interAddr, new address[](0), 0));\n            index = 0;\n        }\n\n        // inter\n        flg = false;\n        for(i = 0; i < room2tbExcNr[roomAddr][tableId][index].players.length; i++) {\n            if (playerAddr == room2tbExcNr[roomAddr][tableId][index].players[i]) {\n                flg = true;\n                break;\n            }\n        }\n        require(false == flg);\n\n        // tabletabletabletable\n        room2tbExcNr[roomAddr][tableId][index].players.push(playerAddr);\n\n        emit RportFailInter(roomAddr, tableId, interAddr);\n\n        if(playingNum == room2tbExcNr[roomAddr][tableId][index].players.length) {\n            // \n            if(1 != room2tbExcNr[roomAddr][tableId][index].status) {\n                nrAddr2failCout[interAddr]++;\n                emit RecordFailInter(roomAddr, tableId, interAddr);\n            }\n            room2tbExcNr[roomAddr][tableId][index].status = 1;\n        }\n    }\n\n    /**\n     * @dev tableinter\n     * @param tableid tableid\n     */\n    function release(uint256 tableid) public {\n        //assert(msg.sender == tableMgrAddr);\n        delete room2tbInAddr[msg.sender][tableid];\n    }\n\n    /**\n     * @dev inter\n     * @param roomAddr  \n     * @param tableId   TableID\n     */\n    function getRoomTableInters(address roomAddr, uint tableId) public view returns(address[]) {\n        return room2tbInAddr[roomAddr][tableId];\n    }\n\n    /**\n     * @dev inter\n     * @param tableManage tableManage\n     * @param tableid tableid\n     */\n    function getTableInters(address tableManage,uint256 tableid) public view returns(address[]) {\n        return room2tbInAddr[tableManage][tableid];\n    }\n\n    /**\n     * @dev inter\n     * @param addr inter\n     */\n    function blacklisted(address addr) public {\n\n    }\n    \n}",
  "sourcePath": "/Users/hpf/Workspace/binary/kaleido/contracts/systemContract/contracts/Inter.sol",
  "compiler": {
    "name": "solc",
    "version": "0.4.24+commit.e67f0147.Emscripten.clang"
  },
  "schemaVersion": "2.0.1",
  "updatedAt": "2018-12-27T10:15:52.338Z"
}