{
  "contractName": "Notary",
  "abi": [
    {
      "constant": true,
      "inputs": [
        {
          "name": "name",
          "type": "string"
        }
      ],
      "name": "_getContract",
      "outputs": [
        {
          "name": "",
          "type": "address"
        }
      ],
      "payable": false,
      "stateMutability": "view",
      "type": "function"
    },
    {
      "inputs": [],
      "payable": false,
      "stateMutability": "nonpayable",
      "type": "constructor"
    },
    {
      "payable": true,
      "stateMutability": "payable",
      "type": "fallback"
    },
    {
      "anonymous": false,
      "inputs": [
        {
          "indexed": false,
          "name": "addr",
          "type": "address"
        },
        {
          "indexed": false,
          "name": "nodeid",
          "type": "string"
        },
        {
          "indexed": false,
          "name": "amount",
          "type": "uint256"
        }
      ],
      "name": "Register",
      "type": "event"
    },
    {
      "anonymous": false,
      "inputs": [
        {
          "indexed": false,
          "name": "addr",
          "type": "address"
        },
        {
          "indexed": false,
          "name": "locktime",
          "type": "uint256"
        }
      ],
      "name": "ApplyForLock",
      "type": "event"
    },
    {
      "anonymous": false,
      "inputs": [
        {
          "indexed": false,
          "name": "addr",
          "type": "address"
        },
        {
          "indexed": false,
          "name": "nodeid",
          "type": "string"
        },
        {
          "indexed": false,
          "name": "amount",
          "type": "uint256"
        }
      ],
      "name": "UnRegister",
      "type": "event"
    },
    {
      "anonymous": false,
      "inputs": [
        {
          "indexed": false,
          "name": "tableManage",
          "type": "address"
        },
        {
          "indexed": false,
          "name": "tableid",
          "type": "uint256"
        },
        {
          "indexed": false,
          "name": "player",
          "type": "address"
        },
        {
          "indexed": false,
          "name": "number",
          "type": "uint256"
        }
      ],
      "name": "ApplyNotory",
      "type": "event"
    },
    {
      "anonymous": false,
      "inputs": [
        {
          "indexed": false,
          "name": "roomAddr",
          "type": "address"
        },
        {
          "indexed": false,
          "name": "tableId",
          "type": "uint256"
        },
        {
          "indexed": false,
          "name": "number",
          "type": "uint256"
        }
      ],
      "name": "ApplyForNotory",
      "type": "event"
    },
    {
      "anonymous": false,
      "inputs": [
        {
          "indexed": false,
          "name": "tableManage",
          "type": "address"
        },
        {
          "indexed": false,
          "name": "tableid",
          "type": "uint256"
        },
        {
          "indexed": false,
          "name": "retCode",
          "type": "uint8"
        },
        {
          "indexed": false,
          "name": "number",
          "type": "uint256"
        }
      ],
      "name": "ReNotory",
      "type": "event"
    },
    {
      "anonymous": false,
      "inputs": [
        {
          "indexed": false,
          "name": "roomAddr",
          "type": "address"
        },
        {
          "indexed": false,
          "name": "tableId",
          "type": "uint256"
        }
      ],
      "name": "ResetNotarize",
      "type": "event"
    },
    {
      "constant": false,
      "inputs": [
        {
          "name": "tableMgr",
          "type": "address"
        }
      ],
      "name": "setTableMgr",
      "outputs": [],
      "payable": false,
      "stateMutability": "nonpayable",
      "type": "function"
    },
    {
      "constant": false,
      "inputs": [
        {
          "name": "roomMgr",
          "type": "address"
        }
      ],
      "name": "setRoomMgrAddr",
      "outputs": [],
      "payable": false,
      "stateMutability": "nonpayable",
      "type": "function"
    },
    {
      "constant": true,
      "inputs": [],
      "name": "numberOfNotary",
      "outputs": [
        {
          "name": "",
          "type": "uint256"
        }
      ],
      "payable": false,
      "stateMutability": "view",
      "type": "function"
    },
    {
      "constant": true,
      "inputs": [],
      "name": "numberOfUnlockNotary",
      "outputs": [
        {
          "name": "",
          "type": "uint256"
        }
      ],
      "payable": false,
      "stateMutability": "view",
      "type": "function"
    },
    {
      "constant": false,
      "inputs": [
        {
          "name": "nodeid",
          "type": "string"
        }
      ],
      "name": "register",
      "outputs": [
        {
          "name": "",
          "type": "bool"
        }
      ],
      "payable": true,
      "stateMutability": "payable",
      "type": "function"
    },
    {
      "constant": false,
      "inputs": [
        {
          "name": "tableId",
          "type": "uint256"
        },
        {
          "name": "playerAddr",
          "type": "address"
        },
        {
          "name": "number",
          "type": "uint256"
        }
      ],
      "name": "applyNotorys",
      "outputs": [
        {
          "name": "",
          "type": "string"
        }
      ],
      "payable": false,
      "stateMutability": "nonpayable",
      "type": "function"
    },
    {
      "constant": false,
      "inputs": [
        {
          "name": "roomAddr",
          "type": "address"
        },
        {
          "name": "tableId",
          "type": "uint256"
        },
        {
          "name": "number",
          "type": "uint256"
        }
      ],
      "name": "reApplyForNotorys",
      "outputs": [
        {
          "name": "",
          "type": "bool"
        }
      ],
      "payable": false,
      "stateMutability": "nonpayable",
      "type": "function"
    },
    {
      "constant": false,
      "inputs": [
        {
          "name": "roomAddr",
          "type": "address"
        },
        {
          "name": "tableId",
          "type": "uint256"
        },
        {
          "name": "nrAddr",
          "type": "address"
        }
      ],
      "name": "reportFailNorary",
      "outputs": [],
      "payable": false,
      "stateMutability": "nonpayable",
      "type": "function"
    },
    {
      "constant": false,
      "inputs": [
        {
          "name": "tableid",
          "type": "uint256"
        }
      ],
      "name": "reNotarize",
      "outputs": [
        {
          "name": "",
          "type": "bool"
        }
      ],
      "payable": false,
      "stateMutability": "nonpayable",
      "type": "function"
    },
    {
      "constant": false,
      "inputs": [
        {
          "name": "tableid",
          "type": "uint256"
        }
      ],
      "name": "finishNotarize",
      "outputs": [],
      "payable": false,
      "stateMutability": "nonpayable",
      "type": "function"
    },
    {
      "constant": false,
      "inputs": [
        {
          "name": "roomAddr",
          "type": "address"
        },
        {
          "name": "tableId",
          "type": "uint256"
        }
      ],
      "name": "resetNotarize",
      "outputs": [],
      "payable": false,
      "stateMutability": "nonpayable",
      "type": "function"
    },
    {
      "constant": true,
      "inputs": [
        {
          "name": "tbManage",
          "type": "address"
        },
        {
          "name": "tableid",
          "type": "uint256"
        }
      ],
      "name": "getNotaryList",
      "outputs": [
        {
          "name": "",
          "type": "address[]"
        }
      ],
      "payable": false,
      "stateMutability": "view",
      "type": "function"
    },
    {
      "constant": true,
      "inputs": [
        {
          "name": "roomAddr",
          "type": "address"
        },
        {
          "name": "tableId",
          "type": "uint256"
        }
      ],
      "name": "getRoomTableNotarys",
      "outputs": [
        {
          "name": "",
          "type": "address[]"
        }
      ],
      "payable": false,
      "stateMutability": "view",
      "type": "function"
    },
    {
      "constant": true,
      "inputs": [
        {
          "name": "notaryAddr",
          "type": "address"
        }
      ],
      "name": "getNotaryInfo",
      "outputs": [
        {
          "name": "",
          "type": "address"
        },
        {
          "name": "",
          "type": "string"
        },
        {
          "name": "",
          "type": "uint256"
        },
        {
          "name": "",
          "type": "uint256"
        }
      ],
      "payable": false,
      "stateMutability": "view",
      "type": "function"
    }
  ],
  "bytecode": "0x608060405234801561001057600080fd5b5060008054600160a060020a031990811673100000000000000000000000000000000000000317909155600280548216731000000000000000000000000000000000000001179055600380549091163317905560408051808201909152600d81527f4e6f746172794d616e616765720000000000000000000000000000000000000060208201526100aa90306401000000006100af810204565b61019e565b60008054604080517fa815ff15000000000000000000000000000000000000000000000000000000008152600160a060020a0385811660248301526004820192835286516044830152865193169363a815ff1593879387939092839260649092019160208701918190849084905b8381101561013557818101518382015260200161011d565b50505050905090810190601f1680156101625780820380516001836020036101000a031916815260200191505b509350505050600060405180830381600087803b15801561018257600080fd5b505af1158015610196573d6000803e3d6000fd5b505050505050565b61166e806101ad6000396000f3006080604052600436106100da5763ffffffff7c0100000000000000000000000000000000000000000000000000000000600035041663358d918c81146100dc57806343ca78a2146101505780634703855614610210578063589610811461023c5780635b2be44f146100dc57806376bfde6f146102605780637e119b9c146102875780638428ba20146102a85780638f86c5fa14610287578063b31f014614610344578063b37e48e31461036b578063ba406757146103e0578063c2402cfb146103f8578063f2c298be14610423578063f51a94191461046f575b005b3480156100e857600080fd5b50610100600160a060020a0360043516602435610484565b60408051602080825283518183015283519192839290830191858101910280838360005b8381101561013c578181015183820152602001610124565b505050509050019250505060405180910390f35b34801561015c57600080fd5b50610171600160a060020a0360043516610503565b6040518085600160a060020a0316600160a060020a0316815260200180602001848152602001838152602001828103825285818151815260200191508051906020019080838360005b838110156101d25781810151838201526020016101ba565b50505050905090810190601f1680156101ff5780820380516001836020036101000a031916815260200191505b509550505050505060405180910390f35b34801561021c57600080fd5b50610228600435610545565b604080519115158252519081900360200190f35b34801561024857600080fd5b506100da600160a060020a0360043516602435610574565b34801561026c57600080fd5b506102756106c5565b60408051918252519081900360200190f35b34801561029357600080fd5b506100da600160a060020a0360043516610719565b3480156102b457600080fd5b506102cf600435600160a060020a0360243516604435610751565b6040805160208082528351818301528351919283929083019185019080838360005b838110156103095781810151838201526020016102f1565b50505050905090810190601f1680156103365780820380516001836020036101000a031916815260200191505b509250505060405180910390f35b34801561035057600080fd5b50610228600160a060020a0360043516602435604435610bdb565b34801561037757600080fd5b506040805160206004803580820135601f81018490048402850184019095528484526103c4943694929360249392840191908190840183828082843750949750610f979650505050505050565b60408051600160a060020a039092168252519081900360200190f35b3480156103ec57600080fd5b506100da60043561108e565b34801561040457600080fd5b506100da600160a060020a0360043581169060243590604435166106c0565b6040805160206004803580820135601f810184900484028501840190955284845261022894369492936024939284019190819084018382808284375094975061109b9650505050505050565b34801561047b57600080fd5b50610275611258565b600160a060020a0382166000908152600a602090815260408083208484528252918290208054835181840281018401909452808452606093928301828280156104f657602002820191906000526020600020905b8154600160a060020a031681526001909101906020018083116104d8575b5050505050905092915050565b60006060600080610512611554565b61052360048763ffffffff61126a16565b8051602082015160408301516060909301519199909850919650945092505050565b336000818152600a60209081526040808320858452909152812054909161056d908483610bdb565b9392505050565b600033600160a060020a0384161461058b57600080fd5b3360009081526006602052604090205460ff1615156105a9576106c0565b50600160a060020a0382166000818152600b602090815260408083208584528252808320839055928252600a8152828220848352905220545b600081111561064d57600160a060020a0383166000908152600a6020908152604080832085845290915290208054600019830190811061061e57fe5b6000918252602090912001805473ffffffffffffffffffffffffffffffffffffffff19169055600019016105e2565b600160a060020a0383166000908152600a60209081526040808320858452909152812061067a9082611586565b5060408051600160a060020a03851681526020810184905281517f53b2dd7d6a015233eac9a9fd2e45ebfc2e1be21d3b50c0a0e7ec2526766f7aea929181900390910190a15b505050565b6000806000806106d56004611351565b925060009150600090505b82811015610712576106f960048263ffffffff61135816565b60600151151561070a576001909101905b6001016106e0565b5092915050565b600354600160a060020a0316331461072d57fe5b600160a060020a03166000908152600660205260409020805460ff19166001179055565b336000818152600660205260408120546060929190819081908590829081908190819060ff1615156107b85760408051808201909152601781527fe99d9ee6b395e79a847461626c65696420706c6179657200000000000000000060208201529950610bcb565b600a60008a600160a060020a0316600160a060020a0316815260200190815260200160002060008e81526020019081526020016000208054905060001415156108365760408051808201909152601281527fe5b7b2e794b3e8afb7e585ace8af81e88085000000000000000000000000000060208201529950610bcb565b8a15156108785760408051808201909152601681527fe794b3e8afb7e695b0e9878fe4b88de883bde4b8ba300000000000000000000060208201529950610bcb565b610880611258565b955061088a6106c5565b8b11156108cc5760408051808201909152601881527fe6b2a1e69c89e8b6b3e5a49fe79a84e585ace8af81e88085000000000000000060208201529950610bcb565b856040519080825280602002602001820160405280156108f6578160200160208202803883390190505b509450600097505b85881015610932576000858981518110151561091657fe5b60ff9092166020928302909101909101526001909701966108fe565b8a93503391505b60008b1115610ad05760024442846040518084815260200183815260200182815260200193505050506020604051808303816000865af1158015610981573d6000803e3d6000fd5b5050506040513d602081101561099657600080fd5b5051915085828115156109a557fe5b0692505b84838151811015156109b757fe5b9060200190602002015160ff16600114806109e557506109de60048463ffffffff61135816565b6060015115155b15610a005785836001018115156109f857fe5b0692506109a9565b610a1160048463ffffffff61141416565b8551600019909c019b909150600190869085908110610a2c57fe5b9060200190602002019060ff16908160ff1681525050600a60008a600160a060020a0316600160a060020a0316815260200190815260200160002060008e8152602001908152602001600020610a8c84600461141490919063ffffffff16565b815460018101835560009283526020909220909101805473ffffffffffffffffffffffffffffffffffffffff1916600160a060020a03909216919091179055610939565b83600b60008b600160a060020a0316600160a060020a0316815260200190815260200160002060008f81526020019081526020016000208190555043600c60008b600160a060020a0316600160a060020a0316815260200190815260200160002060008f8152602001908152602001600020819055507f2ff0bc477761ca51fbec04870099dc5b3527190457520c8b02661d4a728fd3dc338e8e876040518085600160a060020a0316600160a060020a0316815260200184815260200183600160a060020a0316600160a060020a0316815260200182815260200194505050505060405180910390a160408051602081019091526000815299505b5050505050505050509392505050565b600160a060020a0383166000908152600c60209081526040808320858452909152812054819081908190819060609082908190819081901515610c1d57600080fd5b600160a060020a038d166000908152600c602090815260408083208f8452909152902054607843919091031015610c5357600080fd5b3360008181526006602052604090205490995060ff161515610c785760009950610bcb565b600160a060020a038d166000908152600a602090815260408083208f845290915290205415610ca657600080fd5b60008b11610cb357600080fd5b610cbb611258565b9550610cc56106c5565b8b1115610cd157600080fd5b85604051908082528060200260200182016040528015610cfb578160200160208202803883390190505b509450600097505b85881015610d375760008589815181101515610d1b57fe5b60ff909216602092830290910190910152600190970196610d03565b8a93503391505b60008b1115610eb55760024442846040518084815260200183815260200182815260200193505050506020604051808303816000865af1158015610d86573d6000803e3d6000fd5b5050506040513d6020811015610d9b57600080fd5b505191508582811515610daa57fe5b0692505b8483815181101515610dbc57fe5b9060200190602002015160ff1660011480610dea5750610de360048463ffffffff61135816565b6060015115155b15610e05578583600101811515610dfd57fe5b069250610dae565b610e1660048463ffffffff61141416565b8551600019909c019b909150600190869085908110610e3157fe5b60ff9092166020928302909101820152600160a060020a038e166000908152600a825260408082208f835290925220610e7160048563ffffffff61141416565b815460018101835560009283526020909220909101805473ffffffffffffffffffffffffffffffffffffffff1916600160a060020a03909216919091179055610d3e565b83600b60008f600160a060020a0316600160a060020a0316815260200190815260200160002060008e81526020019081526020016000208190555043600c60008f600160a060020a0316600160a060020a0316815260200190815260200160002060008e8152602001908152602001600020819055507fe271f51b133b9e2af759db46c3a1e2765820429817836211dc4b798a4082e67b8d8d866040518084600160a060020a0316600160a060020a03168152602001838152602001828152602001935050505060405180910390a15060019c9b505050505050505050505050565b600080546040517f693ec85e000000000000000000000000000000000000000000000000000000008152602060048201818152855160248401528551600160a060020a039094169363693ec85e9387938392604490920191908501908083838b5b83811015611010578181015183820152602001610ff8565b50505050905090810190601f16801561103d5780820380516001836020036101000a031916815260200191505b5092505050602060405180830381600087803b15801561105c57600080fd5b505af1158015611070573d6000803e3d6000fd5b505050506040513d602081101561108657600080fd5b509092915050565b6110983382610574565b50565b60008060006110a8611554565b3492503391506110bf60048363ffffffff61144316565b151561113a57606483101561113557604080517f08c379a000000000000000000000000000000000000000000000000000000000815260206004820152601f60248201527f496e73756666696369656e7420616d6f756e74206f66206d6f72746761676500604482015290519081900360640190fd5b611154565b61114b60048363ffffffff61126a16565b60400151830192505b5060408051608081018252600160a060020a038316815260208101869052908101839052600060608201526111916004838363ffffffff61146016565b507fd741a63ddb805bd1ed3216c3a05c67b4e900126b903e69169fe3940657d280c78286856040518084600160a060020a0316600160a060020a0316815260200180602001838152602001828103825284818151815260200191508051906020019080838360005b838110156112115781810151838201526020016111f9565b50505050905090810190601f16801561123e5780820380516001836020036101000a031916815260200191505b5094505050505060405180910390a1506001949350505050565b60006112646004611351565b90505b90565b611272611554565b600160a060020a038281166000908152602085815260409182902082516080810184526001808301805490961682526002928301805486516101009382161593909302600019011693909304601f81018590048502820185019095528481529094938584019391929183018282801561132c5780601f106113015761010080835404028352916020019161132c565b820191906000526020600020905b81548152906001019060200180831161130f57829003601f168201915b5050505050815260200160028201548152602001600382015481525050905092915050565b6001015490565b611360611554565b60018301805484916000918590811061137557fe5b600091825260208083209190910154600160a060020a03908116845283820194909452604092830190912082516080810184526001808301805490961682526002928301805486516101009382161593909302600019011693909304601f81018590048502820185019095528481529094938584019391929183018282801561132c5780601f106113015761010080835404028352916020019161132c565b6000826001018281548110151561142757fe5b600091825260209091200154600160a060020a03169392505050565b600160a060020a0316600090815260209190915260408120541190565b600160a060020a038281166000908152602085815260408220845160018201805473ffffffffffffffffffffffffffffffffffffffff1916919095161784558482015180519394919386936114bc9260028701929101906115aa565b50604082015160028201556060909101516003909101558054600010156114e6576001915061154c565b84600101805460010190816114fb9190611586565b80825560018601805486926000190190811061151357fe5b60009182526020822001805473ffffffffffffffffffffffffffffffffffffffff1916600160a060020a03939093169290921790915591505b509392505050565b6080604051908101604052806000600160a060020a031681526020016060815260200160008152602001600081525090565b8154818355818111156106c0576000838152602090206106c0918101908301611628565b828054600181600116156101000203166002900490600052602060002090601f016020900481019282601f106115eb57805160ff1916838001178555611618565b82800160010185558215611618579182015b828111156116185782518255916020019190600101906115fd565b50611624929150611628565b5090565b61126791905b80821115611624576000815560010161162e5600a165627a7a72305820d12d438d037c3c70595cfcdd13906e03f71bb5962f91621451b23946b16f88eb0029",
  "source": "pragma solidity ^0.4.20;\n\nimport './NotaryMaps.sol';\nimport './RoomBasic.sol';\nimport './LibContract.sol';\n\ncontract Notary is LibContract{\n    using NotaryMaps for NotaryMaps.MapAddr2Notary;\n\n    address owner;\n    uint constant MARGIN_THRESHOLD_NOTARY  = 100;    // Inter至少抵押数量\n\n    event Register(address addr, string nodeid, uint amount);\n    event ApplyForLock(address addr, uint locktime);\n    event UnRegister(address addr, string nodeid, uint amount);\n    event ApplyNotory(address tableManage,uint256 tableid, address player, uint number);\n    event ApplyForNotory(address roomAddr, uint tableId, uint number);\n    event ReNotory(address tableManage,uint256 tableid, uint8 retCode, uint number);  // 重新公证\n    event ResetNotarize(address roomAddr, uint tableId);\n\n    enum NreStatus {\n        SUCCESS,                // 成功\n        APP_NUM_LESS_THAN_0,    // 申请公证个数小于等于０\n        NR_INSUFFICIENT         // 可用公证者个数不够\n    }\n\n    struct NotaryStatus {\n        uint8 status;   // 0:ok;1:失效\n        address addr;   // 公证者地址\n    }\n\n    NotaryMaps.MapAddr2Notary addr2notarys;\n\n    //address public roomMgrAddr;            // RoomManager合约地址\n    //address public tableMgrAddr;    // TableManager合约地址\n    mapping(address => bool) games;\n    \n    mapping(address => mapping(uint256 => address[]))   table2notarys;       // table地址 -- tableid=>选择的notary地址\n    mapping(address => mapping(uint256 => uint))        table2nrnumber;     // table地址 -- tableid=>选择的notary数量\n    mapping(address => mapping(uint256 => NotaryStatus[]))   table2nrs;     // table地址 -- tableid=>选择的notary的状态\n\n    mapping(address => mapping(uint => address[]))  room2tbNrAddr;      // room地址 -- (tableId -- 公证者地址) 正在使用\n    //mapping(address => mapping(uint => address[]))  room2tbNrAddr_I;    // room地址 -- (tableId -- 公证者地址) 已异常\n    mapping(address => mapping(uint => uint))       room2tbNrNum;       // room地址 -- table选择的notary数量\n    mapping (address => mapping(uint => uint))      room2tbappTime;     // room地址 -- (table号码--申请公证时间)\n\n    mapping(address => uint) nrAddr2failCout;   // 公证者地址 -- 公证异常次数\n    mapping(address => uint) nrAddr2SuccCout;   // 公证者地址 -- 公证者成功次数\n\n    constructor() public {\n        owner = msg.sender;\n        _setContract(\"NotaryManager\",this); //注册合约到模块\n    }\n\n    function() public payable {\n    }\n\n    function setTableMgr(address tableMgr) public {\n        assert(msg.sender == owner);\n        //tableMgrAddr = tableMgr;\n        games[tableMgr]=true;\n    }\n\n    // function getTableMgr() public view returns(address) {\n    //     return tableMgrAddr;\n    // }\n\n    function setRoomMgrAddr(address roomMgr) public {\n        assert(msg.sender == owner);\n        //roomMgrAddr = roomMgr;\n        games[roomMgr]=true;\n    }\n\n    // function getRoomMgrAddr() public view returns(address) {\n    //     return roomMgrAddr;\n    // }\n\n     /**\n     * @dev 获取已注册notary的数量\n     */\n    function numberOfNotary() public view returns (uint) {\n        return addr2notarys.size();\n    }\n\n    /**\n     * @dev 获取未锁定notary的数量\n     */\n    function numberOfUnlockNotary() public view returns (uint) {\n        uint total = addr2notarys.size();\n\n        uint number = 0;\n        for(uint i = 0; i < total; i++) {\n            if(0 == addr2notarys.getValueByIndex(i).locktime) {\n                number++;\n            }\n        }\n\n        return number;\n    }\n\n    /**\n     * @dev 注册notary\n     * @param nodeid notary的node id\n     */\n    function register(string nodeid) public payable returns (bool) {\n        uint amount = msg.value;    // 获取抵押金额\n\n        address addr = msg.sender;\n        if(!addr2notarys.contains(addr)) {\n            require(amount >= MARGIN_THRESHOLD_NOTARY, \"Insufficient amount of mortgage\");\n        }\n        else {\n            amount += addr2notarys.getValueByKey(addr).pawnAmount;\n        }\n\n        NotaryMaps.NotaryInfo memory notaryinfo = NotaryMaps.NotaryInfo(addr, nodeid, amount, 0);\n        addr2notarys.insert(addr, notaryinfo);\n\n        emit Register(addr, nodeid, amount);\n        return true;\n    }\n\n    /**\n     * @dev 给table申请公证者\n     */\n    function applyNotorys(uint tableId, address playerAddr,uint number) public returns(string) {\n        address roomAddr = msg.sender;\n        if(!games[msg.sender]) {\n            return \"非法的tableid player\";\n        }\n\n        uint i;\n        bool flg;\n        \n        if(room2tbNrAddr[roomAddr][tableId].length != 0){\n            return \"已申请公证者\";\n        }\n        if(number == 0){\n            return \"申请数量不能为0\";\n        }\n\n        uint notaryNum = numberOfNotary(); \n        if(number > numberOfUnlockNotary()){\n            return \"没有足够的公证者\";\n        }\n\n        uint8[] memory selected = new uint8[](notaryNum);\n        for(i = 0; i < notaryNum; i++) {\n            selected[i] = 0;\n        }\n\n        uint selectedNum = number;\n\n        uint index;\n        uint seed = uint(msg.sender);\n        while(number > 0) {\n            seed = uint(sha256(block.difficulty, now, seed));\n            index = seed % notaryNum;\n            while(1 == selected[index] || 0 != addr2notarys.getValueByIndex(index).locktime) {\n                index = (index + 1) % notaryNum;\n            }\n            \n            address tmpAddr = addr2notarys.getKeyByIndex(index);\n            number--;\n            selected[index] = 1;\n            room2tbNrAddr[roomAddr][tableId].push(addr2notarys.getKeyByIndex(index));\n        }\n\n        room2tbNrNum[roomAddr][tableId] = selectedNum;\n\n        room2tbappTime[roomAddr][tableId] = block.number;\n        emit ApplyNotory(msg.sender,tableId, playerAddr, selectedNum);\n        return \"\";\n    }\n\n \n\n    /**\n     * @dev 给table申请公证者\n     * @param roomAddr  游戏房间地址\n     * @param tableId   Table的ID\n     * @param number    分配notary的个数\n     */\n    function reApplyForNotorys(address roomAddr, uint tableId, uint number) public returns(bool){\n        require(room2tbappTime[roomAddr][tableId] != 0);\n        require(block.number - room2tbappTime[roomAddr][tableId] >= 120);\n\n        //RoomBasic(roomAddr).resetNotoryInfo(tableId);\n\n        address playerAddr = msg.sender;\n\n        if(!games[msg.sender]) {\n            return false;\n        }\n\n        uint i;\n        bool flg;\n        \n        require(room2tbNrAddr[roomAddr][tableId].length == 0);\n        require(number > 0);\n        uint notaryNum = numberOfNotary();\n        require(number <= numberOfUnlockNotary());\n\n        uint8[] memory selected = new uint8[](notaryNum);\n        for(i = 0; i < notaryNum; i++) {\n            selected[i] = 0;\n        }\n\n        uint selectedNum = number;\n\n        uint index;\n        uint seed = uint(msg.sender);\n        while(number > 0) {\n            seed = uint(sha256(block.difficulty, now, seed));\n            index = seed % notaryNum;\n            while(1 == selected[index] || 0 != addr2notarys.getValueByIndex(index).locktime) {\n                index = (index + 1) % notaryNum;\n            }\n            \n            address tmpAddr = addr2notarys.getKeyByIndex(index);\n            number--;\n            selected[index] = 1;\n            room2tbNrAddr[roomAddr][tableId].push(addr2notarys.getKeyByIndex(index));\n        }\n\n        room2tbNrNum[roomAddr][tableId] = selectedNum;\n\n        room2tbappTime[roomAddr][tableId] = block.number;\n        emit ApplyForNotory(roomAddr, tableId, selectedNum);\n        return true;\n    }\n\n\n\n    /**\n     * @dev 汇报公证者异常\n     * @param roomAddr  游戏房间地址\n     * @param tableId   Table的ID\n     * @param nrAddr    公证者地址\n     */\n    function reportFailNorary(address roomAddr, uint tableId, address nrAddr) public {\n        //\n        \n        // nrAddr2failCout[nrAddr]++;\n        // for(uint i = 0; i < room2tbNrs[roomAddr][tableId].length; i++) {\n        //     if(nrAddr == room2tbNrAddr_I[roomAddr][tableId][i].addr) {\n        //         room2tbNrs[roomAddr][tableId][i].status = 1;  // 设置为失效\n        //         break;\n        //     }\n        // }\n    }\n    //table重新申请公证\n    function reNotarize(uint256 tableid) public returns(bool){\n        var number = room2tbNrAddr[msg.sender][tableid].length;\n        return reApplyForNotorys(msg.sender,tableid,number);\n    }\n\n    function finishNotarize(uint256 tableid) public {\n        resetNotarize(msg.sender,tableid);\n    }\n\n    function resetNotarize(address roomAddr, uint tableId) public {\n        require(msg.sender == roomAddr);\n\n        if(!games[msg.sender]) {\n            return;\n        }\n        \n        uint i;\n\n        delete room2tbNrNum[roomAddr][tableId];\n        room2tbNrNum[roomAddr][tableId] = 0;\n\n        // for(i = 0; i < room2tbNrs[roomAddr][tableId].length; i++) {\n        //     delete room2tbNrs[roomAddr][tableId][i].status;\n        //     delete room2tbNrs[roomAddr][tableId][i].addr;\n        //     delete room2tbNrs[roomAddr][tableId][i];\n        // }\n        // room2tbNrs[roomAddr][tableId].length = 0;\n\n        for(i = room2tbNrAddr[roomAddr][tableId].length; i > 0; i--) {\n            delete room2tbNrAddr[roomAddr][tableId][i - 1];\n        }\n        room2tbNrAddr[roomAddr][tableId].length = 0;\n\n        emit ResetNotarize(roomAddr, tableId);\n    }\n\n    /**\n     * @dev 返回table公证者列表\n     */\n    function getNotaryList(address tbManage,uint256 tableid) public view returns(address[]) {\n        return room2tbNrAddr[tbManage][tableid];\n    }\n\n    /**\n     * @dev 返回table公证者列表\n     */\n    function getRoomTableNotarys(address roomAddr, uint tableId) public view returns(address[]) {\n        return room2tbNrAddr[roomAddr][tableId];\n    }\n\n    /**\n     * @dev 获取公证者信息\n     */\n    function getNotaryInfo(address notaryAddr) public view returns(address, string, uint, uint) {\n        NotaryMaps.NotaryInfo memory notary = addr2notarys.getValueByKey(notaryAddr);\n        return (notary.addr, notary.nodeid, notary.pawnAmount, notary.locktime);\n    }\n\n}",
  "sourcePath": "/Users/hpf/Workspace/binary/kaleido/contracts/systemContract/contracts/Notary.sol",
  "compiler": {
    "name": "solc",
    "version": "0.4.24+commit.e67f0147.Emscripten.clang"
  },
  "schemaVersion": "2.0.1",
  "updatedAt": "2018-12-27T10:15:52.264Z"
}