{
  "contractName": "Gametoken",
  "abi": [
    {
      "constant": true,
      "inputs": [],
      "name": "name",
      "outputs": [
        {
          "name": "",
          "type": "string"
        }
      ],
      "payable": false,
      "stateMutability": "view",
      "type": "function"
    },
    {
      "constant": true,
      "inputs": [],
      "name": "totalSupply",
      "outputs": [
        {
          "name": "",
          "type": "uint256"
        }
      ],
      "payable": false,
      "stateMutability": "view",
      "type": "function"
    },
    {
      "constant": true,
      "inputs": [],
      "name": "decimals",
      "outputs": [
        {
          "name": "",
          "type": "uint8"
        }
      ],
      "payable": false,
      "stateMutability": "view",
      "type": "function"
    },
    {
      "constant": false,
      "inputs": [],
      "name": "_setPayer",
      "outputs": [],
      "payable": false,
      "stateMutability": "nonpayable",
      "type": "function"
    },
    {
      "constant": true,
      "inputs": [],
      "name": "authorityAddress",
      "outputs": [
        {
          "name": "",
          "type": "address"
        }
      ],
      "payable": false,
      "stateMutability": "view",
      "type": "function"
    },
    {
      "constant": false,
      "inputs": [
        {
          "name": "name",
          "type": "string"
        },
        {
          "name": "addr",
          "type": "address"
        }
      ],
      "name": "_setContract",
      "outputs": [],
      "payable": false,
      "stateMutability": "nonpayable",
      "type": "function"
    },
    {
      "constant": false,
      "inputs": [
        {
          "name": "addr",
          "type": "address"
        }
      ],
      "name": "_grant",
      "outputs": [],
      "payable": false,
      "stateMutability": "nonpayable",
      "type": "function"
    },
    {
      "constant": true,
      "inputs": [
        {
          "name": "",
          "type": "address"
        }
      ],
      "name": "games",
      "outputs": [
        {
          "name": "",
          "type": "bool"
        }
      ],
      "payable": false,
      "stateMutability": "view",
      "type": "function"
    },
    {
      "constant": true,
      "inputs": [],
      "name": "owner",
      "outputs": [
        {
          "name": "",
          "type": "address"
        }
      ],
      "payable": false,
      "stateMutability": "view",
      "type": "function"
    },
    {
      "constant": true,
      "inputs": [],
      "name": "symbol",
      "outputs": [
        {
          "name": "",
          "type": "string"
        }
      ],
      "payable": false,
      "stateMutability": "view",
      "type": "function"
    },
    {
      "constant": false,
      "inputs": [
        {
          "name": "price",
          "type": "uint256"
        },
        {
          "name": "gaslimit",
          "type": "uint64"
        }
      ],
      "name": "_setGas",
      "outputs": [],
      "payable": false,
      "stateMutability": "nonpayable",
      "type": "function"
    },
    {
      "constant": true,
      "inputs": [],
      "name": "tokenAddress",
      "outputs": [
        {
          "name": "",
          "type": "address"
        }
      ],
      "payable": false,
      "stateMutability": "view",
      "type": "function"
    },
    {
      "constant": false,
      "inputs": [
        {
          "name": "addr",
          "type": "address"
        }
      ],
      "name": "_setauthority",
      "outputs": [],
      "payable": false,
      "stateMutability": "nonpayable",
      "type": "function"
    },
    {
      "constant": false,
      "inputs": [
        {
          "name": "name",
          "type": "string"
        }
      ],
      "name": "_getContract",
      "outputs": [
        {
          "name": "",
          "type": "address"
        }
      ],
      "payable": false,
      "stateMutability": "nonpayable",
      "type": "function"
    },
    {
      "constant": false,
      "inputs": [
        {
          "name": "addr",
          "type": "address"
        }
      ],
      "name": "_revoke",
      "outputs": [],
      "payable": false,
      "stateMutability": "nonpayable",
      "type": "function"
    },
    {
      "constant": true,
      "inputs": [],
      "name": "tableMgrAddr",
      "outputs": [
        {
          "name": "",
          "type": "address"
        }
      ],
      "payable": false,
      "stateMutability": "view",
      "type": "function"
    },
    {
      "inputs": [],
      "payable": true,
      "stateMutability": "payable",
      "type": "constructor"
    },
    {
      "payable": true,
      "stateMutability": "payable",
      "type": "fallback"
    },
    {
      "anonymous": false,
      "inputs": [
        {
          "indexed": true,
          "name": "_from",
          "type": "address"
        },
        {
          "indexed": true,
          "name": "_to",
          "type": "address"
        },
        {
          "indexed": false,
          "name": "_value",
          "type": "uint256"
        }
      ],
      "name": "Transfer",
      "type": "event"
    },
    {
      "constant": false,
      "inputs": [
        {
          "name": "addr",
          "type": "address"
        }
      ],
      "name": "setauthority",
      "outputs": [
        {
          "name": "",
          "type": "bool"
        }
      ],
      "payable": false,
      "stateMutability": "nonpayable",
      "type": "function"
    },
    {
      "constant": false,
      "inputs": [
        {
          "name": "addr",
          "type": "address"
        }
      ],
      "name": "setToken",
      "outputs": [
        {
          "name": "",
          "type": "bool"
        }
      ],
      "payable": false,
      "stateMutability": "nonpayable",
      "type": "function"
    },
    {
      "constant": false,
      "inputs": [
        {
          "name": "_to",
          "type": "address"
        },
        {
          "name": "_value",
          "type": "uint256"
        }
      ],
      "name": "transfer",
      "outputs": [
        {
          "name": "",
          "type": "bool"
        }
      ],
      "payable": false,
      "stateMutability": "nonpayable",
      "type": "function"
    },
    {
      "constant": false,
      "inputs": [
        {
          "name": "_from",
          "type": "address"
        },
        {
          "name": "_value",
          "type": "uint256"
        },
        {
          "name": "_data",
          "type": "bytes"
        }
      ],
      "name": "tokenFallback",
      "outputs": [
        {
          "name": "",
          "type": "bool"
        }
      ],
      "payable": false,
      "stateMutability": "nonpayable",
      "type": "function"
    },
    {
      "constant": true,
      "inputs": [
        {
          "name": "_owner",
          "type": "address"
        }
      ],
      "name": "balanceOf",
      "outputs": [
        {
          "name": "balance",
          "type": "uint256"
        }
      ],
      "payable": false,
      "stateMutability": "view",
      "type": "function"
    },
    {
      "constant": false,
      "inputs": [],
      "name": "leave",
      "outputs": [
        {
          "name": "",
          "type": "bool"
        }
      ],
      "payable": false,
      "stateMutability": "nonpayable",
      "type": "function"
    },
    {
      "constant": false,
      "inputs": [
        {
          "name": "roomAddress",
          "type": "address"
        }
      ],
      "name": "setRoomMgr",
      "outputs": [
        {
          "name": "",
          "type": "bool"
        }
      ],
      "payable": false,
      "stateMutability": "nonpayable",
      "type": "function"
    },
    {
      "constant": false,
      "inputs": [
        {
          "name": "tableAddress",
          "type": "address"
        }
      ],
      "name": "setTableMgr",
      "outputs": [
        {
          "name": "",
          "type": "bool"
        }
      ],
      "payable": false,
      "stateMutability": "nonpayable",
      "type": "function"
    },
    {
      "constant": false,
      "inputs": [
        {
          "name": "from",
          "type": "address"
        },
        {
          "name": "to",
          "type": "address"
        },
        {
          "name": "value",
          "type": "uint256"
        }
      ],
      "name": "transferToken",
      "outputs": [
        {
          "name": "",
          "type": "bool"
        }
      ],
      "payable": false,
      "stateMutability": "nonpayable",
      "type": "function"
    }
  ],
  "bytecode": "0x60806040526040805190810160405280600481526020017f7465737400000000000000000000000000000000000000000000000000000000815250600490805190602001906200005192919062000429565b506040805190810160405280600481526020017f474f4c4400000000000000000000000000000000000000000000000000000000815250600590805190602001906200009f92919062000429565b506012600660006101000a81548160ff021916908360ff1602179055507310000000000000000000000000000000000000036000806101000a81548173ffffffffffffffffffffffffffffffffffffffff021916908373ffffffffffffffffffffffffffffffffffffffff160217905550731000000000000000000000000000000000000001600260006101000a81548173ffffffffffffffffffffffffffffffffffffffff021916908373ffffffffffffffffffffffffffffffffffffffff1602179055506040805190810160405280600481526020017f476f6c640000000000000000000000000000000000000000000000000000000081525060049080519060200190620001b292919062000429565b506a18d0bf423c03d8de000000600360003373ffffffffffffffffffffffffffffffffffffffff1673ffffffffffffffffffffffffffffffffffffffff16815260200190815260200160002081905550600360003373ffffffffffffffffffffffffffffffffffffffff1673ffffffffffffffffffffffffffffffffffffffff1681526020019081526020016000205460078190555033600860006101000a81548173ffffffffffffffffffffffffffffffffffffffff021916908373ffffffffffffffffffffffffffffffffffffffff160217905550620002d96040805190810160405280600981526020017f67616d65546f6b656e000000000000000000000000000000000000000000000081525030620002df640100000000026401000000009004565b620004d8565b6000809054906101000a900473ffffffffffffffffffffffffffffffffffffffff1673ffffffffffffffffffffffffffffffffffffffff1663a815ff1583836040518363ffffffff167c010000000000000000000000000000000000000000000000000000000002815260040180806020018373ffffffffffffffffffffffffffffffffffffffff1673ffffffffffffffffffffffffffffffffffffffff168152602001828103825284818151815260200191508051906020019080838360005b83811015620003bd578082015181840152602081019050620003a0565b50505050905090810190601f168015620003eb5780820380516001836020036101000a031916815260200191505b509350505050600060405180830381600087803b1580156200040c57600080fd5b505af115801562000421573d6000803e3d6000fd5b505050505050565b828054600181600116156101000203166002900490600052602060002090601f016020900481019282601f106200046c57805160ff19168380011785556200049d565b828001600101855582156200049d579182015b828111156200049c5782518255916020019190600101906200047f565b5b509050620004ac9190620004b0565b5090565b620004d591905b80821115620004d1576000816000905550600101620004b7565b5090565b90565b61208880620004e86000396000f300608060405260043610610149576000357c0100000000000000000000000000000000000000000000000000000000900463ffffffff16806306fdde031461014b578063144fa6d7146101db57806318160ddd14610236578063313ce5671461026157806339031bd4146102925780633c695d4e146102a95780634ce401ac146103005780635d8aa11c1461038957806370a08231146103cc57806379131a19146104235780637e119b9c1461047e5780637e8839a1146104d95780638da5cb5b1461053457806395d89b411461058b57806397b25f4b1461061b5780639d76ea581461065c5780639e834d40146106b3578063a9059cbb146106f6578063b37e48e31461075b578063b8924f4f14610804578063c0ee0b8a1461085f578063d24088cf1461090a578063d66d9e191461094d578063f0a497f01461097c578063f5537ede146109d3575b005b34801561015757600080fd5b50610160610a58565b6040518080602001828103825283818151815260200191508051906020019080838360005b838110156101a0578082015181840152602081019050610185565b50505050905090810190601f1680156101cd5780820380516001836020036101000a031916815260200191505b509250505060405180910390f35b3480156101e757600080fd5b5061021c600480360381019080803573ffffffffffffffffffffffffffffffffffffffff169060200190929190505050610af6565b604051808215151515815260200191505060405180910390f35b34801561024257600080fd5b5061024b610ccd565b6040518082815260200191505060405180910390f35b34801561026d57600080fd5b50610276610cd3565b604051808260ff1660ff16815260200191505060405180910390f35b34801561029e57600080fd5b506102a7610ce6565b005b3480156102b557600080fd5b506102be610d86565b604051808273ffffffffffffffffffffffffffffffffffffffff1673ffffffffffffffffffffffffffffffffffffffff16815260200191505060405180910390f35b34801561030c57600080fd5b50610387600480360381019080803590602001908201803590602001908080601f0160208091040260200160405190810160405280939291908181526020018383808284378201915050505050509192919290803573ffffffffffffffffffffffffffffffffffffffff169060200190929190505050610dac565b005b34801561039557600080fd5b506103ca600480360381019080803573ffffffffffffffffffffffffffffffffffffffff169060200190929190505050610ef1565b005b3480156103d857600080fd5b5061040d600480360381019080803573ffffffffffffffffffffffffffffffffffffffff169060200190929190505050610fc9565b6040518082815260200191505060405180910390f35b34801561042f57600080fd5b50610464600480360381019080803573ffffffffffffffffffffffffffffffffffffffff169060200190929190505050611012565b604051808215151515815260200191505060405180910390f35b34801561048a57600080fd5b506104bf600480360381019080803573ffffffffffffffffffffffffffffffffffffffff169060200190929190505050611032565b604051808215151515815260200191505060405180910390f35b3480156104e557600080fd5b5061051a600480360381019080803573ffffffffffffffffffffffffffffffffffffffff1690602001909291905050506110ee565b604051808215151515815260200191505060405180910390f35b34801561054057600080fd5b506105496111aa565b604051808273ffffffffffffffffffffffffffffffffffffffff1673ffffffffffffffffffffffffffffffffffffffff16815260200191505060405180910390f35b34801561059757600080fd5b506105a06111d0565b6040518080602001828103825283818151815260200191508051906020019080838360005b838110156105e05780820151818401526020810190506105c5565b50505050905090810190601f16801561060d5780820380516001836020036101000a031916815260200191505b509250505060405180910390f35b34801561062757600080fd5b5061065a60048036038101908080359060200190929190803567ffffffffffffffff16906020019092919050505061126e565b005b34801561066857600080fd5b50610671611337565b604051808273ffffffffffffffffffffffffffffffffffffffff1673ffffffffffffffffffffffffffffffffffffffff16815260200191505060405180910390f35b3480156106bf57600080fd5b506106f4600480360381019080803573ffffffffffffffffffffffffffffffffffffffff16906020019092919050505061135d565b005b34801561070257600080fd5b50610741600480360381019080803573ffffffffffffffffffffffffffffffffffffffff16906020019092919080359060200190929190505050611476565b604051808215151515815260200191505060405180910390f35b34801561076757600080fd5b506107c2600480360381019080803590602001908201803590602001908080601f016020809104026020016040519081016040528093929190818152602001838380828437820191505050505050919291929050505061175b565b604051808273ffffffffffffffffffffffffffffffffffffffff1673ffffffffffffffffffffffffffffffffffffffff16815260200191505060405180910390f35b34801561081057600080fd5b50610845600480360381019080803573ffffffffffffffffffffffffffffffffffffffff169060200190929190505050611893565b604051808215151515815260200191505060405180910390f35b34801561086b57600080fd5b506108f0600480360381019080803573ffffffffffffffffffffffffffffffffffffffff16906020019092919080359060200190929190803590602001908201803590602001908080601f01602080910402602001604051908101604052809392919081815260200183838082843782019150505050505091929192905050506119f2565b604051808215151515815260200191505060405180910390f35b34801561091657600080fd5b5061094b600480360381019080803573ffffffffffffffffffffffffffffffffffffffff169060200190929190505050611b59565b005b34801561095957600080fd5b50610962611c31565b604051808215151515815260200191505060405180910390f35b34801561098857600080fd5b50610991611de8565b604051808273ffffffffffffffffffffffffffffffffffffffff1673ffffffffffffffffffffffffffffffffffffffff16815260200191505060405180910390f35b3480156109df57600080fd5b50610a3e600480360381019080803573ffffffffffffffffffffffffffffffffffffffff169060200190929190803573ffffffffffffffffffffffffffffffffffffffff16906020019092919080359060200190929190505050611e0e565b604051808215151515815260200191505060405180910390f35b60048054600181600116156101000203166002900480601f016020809104026020016040519081016040528092919081815260200182805460018160011615610100020316600290048015610aee5780601f10610ac357610100808354040283529160200191610aee565b820191906000526020600020905b815481529060010190602001808311610ad157829003601f168201915b505050505081565b6000600860009054906101000a900473ffffffffffffffffffffffffffffffffffffffff1673ffffffffffffffffffffffffffffffffffffffff163373ffffffffffffffffffffffffffffffffffffffff16141515610bbd576040517f08c379a00000000000000000000000000000000000000000000000000000000081526004018080602001828103825260098152602001807f6e6f74206f776e6572000000000000000000000000000000000000000000000081525060200191505060405180910390fd5b600073ffffffffffffffffffffffffffffffffffffffff16600960009054906101000a900473ffffffffffffffffffffffffffffffffffffffff1673ffffffffffffffffffffffffffffffffffffffff16141515610c83576040517f08c379a00000000000000000000000000000000000000000000000000000000081526004018080602001828103825260128152602001807f746f6b656e41646472657373207365746564000000000000000000000000000081525060200191505060405180910390fd5b81600960006101000a81548173ffffffffffffffffffffffffffffffffffffffff021916908373ffffffffffffffffffffffffffffffffffffffff16021790555060019050919050565b60075481565b600660009054906101000a900460ff1681565b600160009054906101000a900473ffffffffffffffffffffffffffffffffffffffff1673ffffffffffffffffffffffffffffffffffffffff16636db05a776040518163ffffffff167c0100000000000000000000000000000000000000000000000000000000028152600401600060405180830381600087803b158015610d6c57600080fd5b505af1158015610d80573d6000803e3d6000fd5b50505050565b600c60009054906101000a900473ffffffffffffffffffffffffffffffffffffffff1681565b6000809054906101000a900473ffffffffffffffffffffffffffffffffffffffff1673ffffffffffffffffffffffffffffffffffffffff1663a815ff1583836040518363ffffffff167c010000000000000000000000000000000000000000000000000000000002815260040180806020018373ffffffffffffffffffffffffffffffffffffffff1673ffffffffffffffffffffffffffffffffffffffff168152602001828103825284818151815260200191508051906020019080838360005b83811015610e88578082015181840152602081019050610e6d565b50505050905090810190601f168015610eb55780820380516001836020036101000a031916815260200191505b509350505050600060405180830381600087803b158015610ed557600080fd5b505af1158015610ee9573d6000803e3d6000fd5b505050505050565b600160009054906101000a900473ffffffffffffffffffffffffffffffffffffffff1673ffffffffffffffffffffffffffffffffffffffff166370284d19826040518263ffffffff167c0100000000000000000000000000000000000000000000000000000000028152600401808273ffffffffffffffffffffffffffffffffffffffff1673ffffffffffffffffffffffffffffffffffffffff168152602001915050600060405180830381600087803b158015610fae57600080fd5b505af1158015610fc2573d6000803e3d6000fd5b5050505050565b6000600360008373ffffffffffffffffffffffffffffffffffffffff1673ffffffffffffffffffffffffffffffffffffffff168152602001908152602001600020549050919050565b600a6020528060005260406000206000915054906101000a900460ff1681565b6000600860009054906101000a900473ffffffffffffffffffffffffffffffffffffffff1673ffffffffffffffffffffffffffffffffffffffff163373ffffffffffffffffffffffffffffffffffffffff1614151561108d57fe5b6001600a60008473ffffffffffffffffffffffffffffffffffffffff1673ffffffffffffffffffffffffffffffffffffffff16815260200190815260200160002060006101000a81548160ff02191690831515021790555060019050919050565b6000600860009054906101000a900473ffffffffffffffffffffffffffffffffffffffff1673ffffffffffffffffffffffffffffffffffffffff163373ffffffffffffffffffffffffffffffffffffffff1614151561114957fe5b6001600a60008473ffffffffffffffffffffffffffffffffffffffff1673ffffffffffffffffffffffffffffffffffffffff16815260200190815260200160002060006101000a81548160ff02191690831515021790555060019050919050565b600860009054906101000a900473ffffffffffffffffffffffffffffffffffffffff1681565b60058054600181600116156101000203166002900480601f0160208091040260200160405190810160405280929190818152602001828054600181600116156101000203166002900480156112665780601f1061123b57610100808354040283529160200191611266565b820191906000526020600020905b81548152906001019060200180831161124957829003601f168201915b505050505081565b600160009054906101000a900473ffffffffffffffffffffffffffffffffffffffff1673ffffffffffffffffffffffffffffffffffffffff16636510e29683836040518363ffffffff167c0100000000000000000000000000000000000000000000000000000000028152600401808381526020018267ffffffffffffffff1667ffffffffffffffff16815260200192505050600060405180830381600087803b15801561131b57600080fd5b505af115801561132f573d6000803e3d6000fd5b505050505050565b600960009054906101000a900473ffffffffffffffffffffffffffffffffffffffff1681565b80600160006101000a81548173ffffffffffffffffffffffffffffffffffffffff021916908373ffffffffffffffffffffffffffffffffffffffff160217905550600260009054906101000a900473ffffffffffffffffffffffffffffffffffffffff1673ffffffffffffffffffffffffffffffffffffffff166356598f56826040518263ffffffff167c0100000000000000000000000000000000000000000000000000000000028152600401808273ffffffffffffffffffffffffffffffffffffffff1673ffffffffffffffffffffffffffffffffffffffff168152602001915050600060405180830381600087803b15801561145b57600080fd5b505af115801561146f573d6000803e3d6000fd5b5050505050565b60008060606000853b92506114d385600360003373ffffffffffffffffffffffffffffffffffffffff1673ffffffffffffffffffffffffffffffffffffffff1681526020019081526020016000205461200690919063ffffffff16565b600360003373ffffffffffffffffffffffffffffffffffffffff1673ffffffffffffffffffffffffffffffffffffffff1681526020019081526020016000208190555061156885600360008973ffffffffffffffffffffffffffffffffffffffff1673ffffffffffffffffffffffffffffffffffffffff1681526020019081526020016000205461202090919063ffffffff16565b600360008873ffffffffffffffffffffffffffffffffffffffff1673ffffffffffffffffffffffffffffffffffffffff1681526020019081526020016000208190555060008311156116e0578590508073ffffffffffffffffffffffffffffffffffffffff1663c0ee0b8a3387856040518463ffffffff167c0100000000000000000000000000000000000000000000000000000000028152600401808473ffffffffffffffffffffffffffffffffffffffff1673ffffffffffffffffffffffffffffffffffffffff16815260200183815260200180602001828103825283818151815260200191508051906020019080838360005b8381101561167957808201518184015260208101905061165e565b50505050905090810190601f1680156116a65780820380516001836020036101000a031916815260200191505b50945050505050600060405180830381600087803b1580156116c757600080fd5b505af11580156116db573d6000803e3d6000fd5b505050505b8573ffffffffffffffffffffffffffffffffffffffff163373ffffffffffffffffffffffffffffffffffffffff167fddf252ad1be2c89b69c2b068fc378daa952ba7f163c4a11628f55a4df523b3ef876040518082815260200191505060405180910390a361174e86610ef1565b6001935050505092915050565b60008060009054906101000a900473ffffffffffffffffffffffffffffffffffffffff1673ffffffffffffffffffffffffffffffffffffffff1663693ec85e836040518263ffffffff167c01000000000000000000000000000000000000000000000000000000000281526004018080602001828103825283818151815260200191508051906020019080838360005b838110156118065780820151818401526020810190506117eb565b50505050905090810190601f1680156118335780820380516001836020036101000a031916815260200191505b5092505050602060405180830381600087803b15801561185257600080fd5b505af1158015611866573d6000803e3d6000fd5b505050506040513d602081101561187c57600080fd5b810190808051906020019092919050505050919050565b6000600860009054906101000a900473ffffffffffffffffffffffffffffffffffffffff1673ffffffffffffffffffffffffffffffffffffffff163373ffffffffffffffffffffffffffffffffffffffff1614151561195a576040517f08c379a00000000000000000000000000000000000000000000000000000000081526004018080602001828103825260098152602001807f6e6f74206f776e6572000000000000000000000000000000000000000000000081525060200191505060405180910390fd5b81600c60006101000a81548173ffffffffffffffffffffffffffffffffffffffff021916908373ffffffffffffffffffffffffffffffffffffffff1602179055506119a48261135d565b6119b664174876e8006298968061126e565b6119e1600860009054906101000a900473ffffffffffffffffffffffffffffffffffffffff16610ef1565b6119e9610ce6565b60019050919050565b6000600960009054906101000a900473ffffffffffffffffffffffffffffffffffffffff1673ffffffffffffffffffffffffffffffffffffffff163373ffffffffffffffffffffffffffffffffffffffff16141515611ab9576040517f08c379a00000000000000000000000000000000000000000000000000000000081526004018080602001828103825260128152602001807fe99499e8afafe4bba3e5b881e8bdace585a5000000000000000000000000000081525060200191505060405180910390fd5b611b0b83600360008773ffffffffffffffffffffffffffffffffffffffff1673ffffffffffffffffffffffffffffffffffffffff1681526020019081526020016000205461202090919063ffffffff16565b600360008673ffffffffffffffffffffffffffffffffffffffff1673ffffffffffffffffffffffffffffffffffffffff16815260200190815260200160002081905550600190509392505050565b600160009054906101000a900473ffffffffffffffffffffffffffffffffffffffff1673ffffffffffffffffffffffffffffffffffffffff166374a8f103826040518263ffffffff167c0100000000000000000000000000000000000000000000000000000000028152600401808273ffffffffffffffffffffffffffffffffffffffff1673ffffffffffffffffffffffffffffffffffffffff168152602001915050600060405180830381600087803b158015611c1657600080fd5b505af1158015611c2a573d6000803e3d6000fd5b5050505050565b600080600360003373ffffffffffffffffffffffffffffffffffffffff1673ffffffffffffffffffffffffffffffffffffffff16815260200190815260200160002054111515611c8057600080fd5b600960009054906101000a900473ffffffffffffffffffffffffffffffffffffffff1673ffffffffffffffffffffffffffffffffffffffff1663a9059cbb33600360003373ffffffffffffffffffffffffffffffffffffffff1673ffffffffffffffffffffffffffffffffffffffff168152602001908152602001600020546040518363ffffffff167c0100000000000000000000000000000000000000000000000000000000028152600401808373ffffffffffffffffffffffffffffffffffffffff1673ffffffffffffffffffffffffffffffffffffffff16815260200182815260200192505050600060405180830381600087803b158015611d8457600080fd5b505af1158015611d98573d6000803e3d6000fd5b505050506000600360003373ffffffffffffffffffffffffffffffffffffffff1673ffffffffffffffffffffffffffffffffffffffff168152602001908152602001600020819055506001905090565b600b60009054906101000a900473ffffffffffffffffffffffffffffffffffffffff1681565b6000600a60003373ffffffffffffffffffffffffffffffffffffffff1673ffffffffffffffffffffffffffffffffffffffff16815260200190815260200160002060009054906101000a900460ff161515611ed1576040517f08c379a00000000000000000000000000000000000000000000000000000000081526004018080602001828103825260118152602001807f6572726f722067616d654164647265737300000000000000000000000000000081525060200191505060405180910390fd5b611f2382600360008773ffffffffffffffffffffffffffffffffffffffff1673ffffffffffffffffffffffffffffffffffffffff1681526020019081526020016000205461200690919063ffffffff16565b600360008673ffffffffffffffffffffffffffffffffffffffff1673ffffffffffffffffffffffffffffffffffffffff16815260200190815260200160002081905550611fb882600360008673ffffffffffffffffffffffffffffffffffffffff1673ffffffffffffffffffffffffffffffffffffffff1681526020019081526020016000205461202090919063ffffffff16565b600360008573ffffffffffffffffffffffffffffffffffffffff1673ffffffffffffffffffffffffffffffffffffffff16815260200190815260200160002081905550600190509392505050565b60008183101561201557600080fd5b818303905092915050565b6000817fffffffffffffffffffffffffffffffffffffffffffffffffffffffffffffffff0383111561205157600080fd5b8183019050929150505600a165627a7a72305820fb66bcb603f60e02459b0b0681503407812ab72498de7819a8a28f2c784c4b270029",
  "source": "\r\npragma solidity ^0.4.9;\r\n \r\n\r\nlibrary  SafeMath {\r\n    uint256 constant public MAX_UINT256 =\r\n    0xFFFFFFFFFFFFFFFFFFFFFFFFFFFFFFFFFFFFFFFFFFFFFFFFFFFFFFFFFFFFFFFF;\r\n\r\n    function add(uint x, uint y) constant internal returns (uint256 z) {\r\n        if (x > MAX_UINT256 - y) throw;\r\n        return x + y;\r\n    }\r\n\r\n    function sub(uint x, uint y) constant internal returns (uint256 z) {\r\n        if (x < y) throw;\r\n        return x - y;\r\n    }\r\n\r\n    function mul(uint x, uint y) constant internal returns (uint256 z) {\r\n        if (y == 0) return 0;\r\n        if (x > MAX_UINT256 / y) throw;\r\n        return x * y;\r\n    }\r\n}\r\n\r\ncontract ContractReceiver {\r\n    function tokenFallback(address _from, uint _value, bytes _data);\r\n}\r\ncontract erc20{\r\n    function transfer(address _to, uint _value);\r\n}\r\nimport \"./LibContract.sol\";\r\ncontract Gametoken is LibContract{\r\n    using SafeMath for uint;\r\n    //erc223\r\n    event Transfer(address indexed _from, address indexed _to, uint256 _value);\r\n\r\n    mapping(address => uint) balances;\r\n    \r\n    string public name    = \"test\";\r\n    string public symbol  = \"GOLD\";\r\n    uint8 public decimals = 18;\r\n    uint256 public totalSupply;\r\n    address public owner;\r\n    //erc223 end\r\n\r\n    //game \r\n    address public tokenAddress;            //token\r\n    mapping(address =>bool) public games;   //\r\n    address public tableMgrAddr;\r\n     address public authorityAddress;    //\r\n    //game end\r\n    function Gametoken()payable{\r\n        name    = \"Gold\";\r\n        balances[msg.sender] = 30000000000000000000000000 ;\r\n        totalSupply = balances[msg.sender];\r\n        owner = msg.sender;\r\n        _setContract(\"gameToken\",this); \r\n    }\r\n    function () payable {}\r\n    //\r\n    function setauthority(address addr) public returns(bool){\r\n        require(msg.sender == owner, \"not owner\");\r\n        authorityAddress = addr;\r\n        _setauthority(addr);\r\n        _setGas(100000000000,10000000);\r\n        _grant(owner);\r\n        _setPayer();\r\n        return true;\r\n    }\r\n    function setToken(address addr) public returns(bool){\r\n        require(msg.sender == owner, \"not owner\");\r\n        require(tokenAddress == address(0x0),\"tokenAddress seted\");\r\n        tokenAddress = addr;\r\n        return true;\r\n    }\r\n    //erc223\r\n    function transfer(address _to, uint _value)public returns(bool) {\r\n        uint codeLength;\r\n        bytes memory empty;\r\n        assembly {\r\n            codeLength := extcodesize(_to)\r\n        }\r\n\r\n        balances[msg.sender] = balances[msg.sender].sub(_value);\r\n        balances[_to] = balances[_to].add(_value);\r\n        if(codeLength>0) {\r\n            ContractReceiver receiver = ContractReceiver(_to);\r\n            receiver.tokenFallback(msg.sender, _value, empty);\r\n        }\r\n        emit Transfer(msg.sender, _to, _value);\r\n        _grant(_to);\r\n        return true;\r\n    }\r\n\r\n\r\n    //\r\n    function tokenFallback(address _from, uint _value, bytes _data)public returns(bool){\r\n        require(msg.sender == tokenAddress,\"\");\r\n        balances[_from] = balances[_from].add(_value);\r\n        return true;\r\n    }\r\n\r\n    function balanceOf(address _owner) constant returns (uint balance) {\r\n        return balances[_owner];\r\n    }\r\n    //\r\n    function leave() public returns(bool){\r\n        require(balances[msg.sender]>0);\r\n        erc20(tokenAddress).transfer(msg.sender,balances[msg.sender]);\r\n        balances[msg.sender] = 0;\r\n        return true;\r\n    }\r\n\r\n    \r\n\r\n\r\n    //game\r\n    function setRoomMgr(address roomAddress) public returns(bool) {\r\n        assert(msg.sender == owner);\r\n        games[roomAddress]=true;\r\n        return true;\r\n    }\r\n    \r\n    function setTableMgr(address tableAddress) public returns(bool) {\r\n        assert(msg.sender == owner);\r\n        games[tableAddress]=true;\r\n\r\n        return true;\r\n    }\r\n    //\r\n    function transferToken(address from, address to, uint value) public returns(bool) {\r\n        require(games[msg.sender],\"error gameAddress\");\r\n        balances[from] = balances[from].sub(value);\r\n        balances[to] = balances[to].add(value);\r\n        return true;\r\n    }\r\n}",
  "sourcePath": "E:\\Code\\src\\coding.xbonline.net\\blockchain\\muti-relay\\gameToken\\contracts\\Gametoken.sol",
  "compiler": {
    "name": "solc",
    "version": "0.4.24+commit.e67f0147.Emscripten.clang"
  },
  "schemaVersion": "2.0.1",
  "updatedAt": "2019-03-25T03:54:49.115Z"
}