{
  "contractName": "CroomManager",
  "abi": [
    {
      "constant": true,
      "inputs": [],
      "name": "notaryManage",
      "outputs": [
        {
          "name": "",
          "type": "address"
        }
      ],
      "payable": false,
      "stateMutability": "view",
      "type": "function"
    },
    {
      "constant": false,
      "inputs": [],
      "name": "_setPayer",
      "outputs": [],
      "payable": false,
      "stateMutability": "nonpayable",
      "type": "function"
    },
    {
      "constant": true,
      "inputs": [],
      "name": "authorityAddress",
      "outputs": [
        {
          "name": "",
          "type": "address"
        }
      ],
      "payable": false,
      "stateMutability": "view",
      "type": "function"
    },
    {
      "constant": false,
      "inputs": [
        {
          "name": "name",
          "type": "string"
        },
        {
          "name": "addr",
          "type": "address"
        }
      ],
      "name": "_setContract",
      "outputs": [],
      "payable": false,
      "stateMutability": "nonpayable",
      "type": "function"
    },
    {
      "constant": false,
      "inputs": [
        {
          "name": "addr",
          "type": "address"
        }
      ],
      "name": "_grant",
      "outputs": [],
      "payable": false,
      "stateMutability": "nonpayable",
      "type": "function"
    },
    {
      "constant": true,
      "inputs": [],
      "name": "luaAddress",
      "outputs": [
        {
          "name": "",
          "type": "address"
        }
      ],
      "payable": false,
      "stateMutability": "view",
      "type": "function"
    },
    {
      "constant": true,
      "inputs": [],
      "name": "interManage",
      "outputs": [
        {
          "name": "",
          "type": "address"
        }
      ],
      "payable": false,
      "stateMutability": "view",
      "type": "function"
    },
    {
      "constant": true,
      "inputs": [],
      "name": "owner",
      "outputs": [
        {
          "name": "",
          "type": "address"
        }
      ],
      "payable": false,
      "stateMutability": "view",
      "type": "function"
    },
    {
      "constant": false,
      "inputs": [
        {
          "name": "price",
          "type": "uint256"
        },
        {
          "name": "gaslimit",
          "type": "uint64"
        }
      ],
      "name": "_setGas",
      "outputs": [],
      "payable": false,
      "stateMutability": "nonpayable",
      "type": "function"
    },
    {
      "constant": true,
      "inputs": [],
      "name": "tokenAddress",
      "outputs": [
        {
          "name": "",
          "type": "address"
        }
      ],
      "payable": false,
      "stateMutability": "view",
      "type": "function"
    },
    {
      "constant": false,
      "inputs": [
        {
          "name": "addr",
          "type": "address"
        }
      ],
      "name": "_setauthority",
      "outputs": [],
      "payable": false,
      "stateMutability": "nonpayable",
      "type": "function"
    },
    {
      "constant": false,
      "inputs": [
        {
          "name": "name",
          "type": "string"
        }
      ],
      "name": "_getContract",
      "outputs": [
        {
          "name": "",
          "type": "address"
        }
      ],
      "payable": false,
      "stateMutability": "nonpayable",
      "type": "function"
    },
    {
      "constant": false,
      "inputs": [
        {
          "name": "addr",
          "type": "address"
        }
      ],
      "name": "_revoke",
      "outputs": [],
      "payable": false,
      "stateMutability": "nonpayable",
      "type": "function"
    },
    {
      "inputs": [
        {
          "name": "_name",
          "type": "string"
        },
        {
          "name": "playerNum_",
          "type": "uint256"
        },
        {
          "name": "base_",
          "type": "uint256"
        },
        {
          "name": "needChips_",
          "type": "uint256"
        },
        {
          "name": "_multiple",
          "type": "uint256"
        },
        {
          "name": "tbInterNum_",
          "type": "uint256"
        }
      ],
      "payable": true,
      "stateMutability": "payable",
      "type": "constructor"
    },
    {
      "anonymous": false,
      "inputs": [
        {
          "indexed": false,
          "name": "playerAddr",
          "type": "address"
        },
        {
          "indexed": false,
          "name": "roomAddr",
          "type": "address"
        }
      ],
      "name": "JoinSittingQueen",
      "type": "event"
    },
    {
      "anonymous": false,
      "inputs": [
        {
          "indexed": false,
          "name": "roomAddr",
          "type": "address"
        },
        {
          "indexed": false,
          "name": "tableid",
          "type": "uint256"
        }
      ],
      "name": "AllotTable",
      "type": "event"
    },
    {
      "anonymous": false,
      "inputs": [
        {
          "indexed": false,
          "name": "roomAddr",
          "type": "address"
        },
        {
          "indexed": false,
          "name": "tbid",
          "type": "uint256"
        },
        {
          "indexed": false,
          "name": "playerAddr",
          "type": "address"
        },
        {
          "indexed": false,
          "name": "pos",
          "type": "uint256"
        }
      ],
      "name": "LeaveTable",
      "type": "event"
    },
    {
      "anonymous": false,
      "inputs": [
        {
          "indexed": false,
          "name": "roomAddr",
          "type": "address"
        },
        {
          "indexed": false,
          "name": "tbid",
          "type": "uint256"
        },
        {
          "indexed": false,
          "name": "playerAddr",
          "type": "address"
        },
        {
          "indexed": false,
          "name": "pos",
          "type": "uint256"
        },
        {
          "indexed": false,
          "name": "hand",
          "type": "uint256"
        }
      ],
      "name": "Start",
      "type": "event"
    },
    {
      "anonymous": false,
      "inputs": [
        {
          "indexed": false,
          "name": "roomAddr",
          "type": "address"
        },
        {
          "indexed": false,
          "name": "tbid",
          "type": "uint256"
        },
        {
          "indexed": false,
          "name": "hand",
          "type": "uint256"
        }
      ],
      "name": "GameStart",
      "type": "event"
    },
    {
      "anonymous": false,
      "inputs": [
        {
          "indexed": false,
          "name": "roomAddr",
          "type": "address"
        },
        {
          "indexed": false,
          "name": "tbid",
          "type": "uint256"
        },
        {
          "indexed": false,
          "name": "playerAddr",
          "type": "address"
        },
        {
          "indexed": false,
          "name": "pos",
          "type": "uint256"
        },
        {
          "indexed": false,
          "name": "hand",
          "type": "uint256"
        }
      ],
      "name": "Discard",
      "type": "event"
    },
    {
      "anonymous": false,
      "inputs": [
        {
          "indexed": false,
          "name": "nrAddr",
          "type": "address"
        },
        {
          "indexed": false,
          "name": "datalength",
          "type": "uint256"
        },
        {
          "indexed": false,
          "name": "data",
          "type": "bytes"
        }
      ],
      "name": "SubmmitSettleData",
      "type": "event"
    },
    {
      "anonymous": false,
      "inputs": [
        {
          "indexed": false,
          "name": "roomAddr",
          "type": "address"
        },
        {
          "indexed": false,
          "name": "tableid",
          "type": "uint256"
        },
        {
          "indexed": false,
          "name": "datasrc",
          "type": "uint256"
        },
        {
          "indexed": false,
          "name": "errcode",
          "type": "uint256"
        }
      ],
      "name": "SettleError",
      "type": "event"
    },
    {
      "anonymous": false,
      "inputs": [
        {
          "indexed": false,
          "name": "hand",
          "type": "uint256"
        },
        {
          "indexed": false,
          "name": "playingNum",
          "type": "uint256"
        },
        {
          "indexed": false,
          "name": "tableid",
          "type": "uint256"
        }
      ],
      "name": "Settle",
      "type": "event"
    },
    {
      "anonymous": false,
      "inputs": [
        {
          "indexed": false,
          "name": "tableid",
          "type": "uint256"
        },
        {
          "indexed": false,
          "name": "hand",
          "type": "uint256"
        }
      ],
      "name": "FinishNotary",
      "type": "event"
    },
    {
      "anonymous": false,
      "inputs": [
        {
          "indexed": false,
          "name": "tableid",
          "type": "uint256"
        },
        {
          "indexed": false,
          "name": "hand",
          "type": "uint256"
        }
      ],
      "name": "ReShaff",
      "type": "event"
    },
    {
      "constant": false,
      "inputs": [
        {
          "name": "addr",
          "type": "address"
        }
      ],
      "name": "setluaAddress",
      "outputs": [
        {
          "name": "",
          "type": "bool"
        }
      ],
      "payable": false,
      "stateMutability": "nonpayable",
      "type": "function"
    },
    {
      "constant": false,
      "inputs": [
        {
          "name": "addr",
          "type": "address"
        }
      ],
      "name": "setauthority",
      "outputs": [],
      "payable": false,
      "stateMutability": "nonpayable",
      "type": "function"
    },
    {
      "constant": false,
      "inputs": [
        {
          "name": "addr",
          "type": "address"
        }
      ],
      "name": "setTokenAddr",
      "outputs": [],
      "payable": false,
      "stateMutability": "nonpayable",
      "type": "function"
    },
    {
      "constant": false,
      "inputs": [
        {
          "name": "addr",
          "type": "address"
        }
      ],
      "name": "setInterAddr",
      "outputs": [],
      "payable": false,
      "stateMutability": "nonpayable",
      "type": "function"
    },
    {
      "constant": false,
      "inputs": [
        {
          "name": "addr",
          "type": "address"
        }
      ],
      "name": "setNotaryAddr",
      "outputs": [],
      "payable": false,
      "stateMutability": "nonpayable",
      "type": "function"
    },
    {
      "constant": false,
      "inputs": [
        {
          "name": "value",
          "type": "uint256"
        }
      ],
      "name": "addChips",
      "outputs": [
        {
          "name": "",
          "type": "bool"
        }
      ],
      "payable": false,
      "stateMutability": "nonpayable",
      "type": "function"
    },
    {
      "constant": true,
      "inputs": [],
      "name": "getRoomInfo",
      "outputs": [
        {
          "name": "",
          "type": "uint256"
        },
        {
          "name": "",
          "type": "uint256"
        },
        {
          "name": "",
          "type": "uint256"
        },
        {
          "name": "",
          "type": "uint256"
        }
      ],
      "payable": false,
      "stateMutability": "view",
      "type": "function"
    },
    {
      "constant": true,
      "inputs": [],
      "name": "getSittingQueen",
      "outputs": [
        {
          "name": "",
          "type": "address[]"
        }
      ],
      "payable": false,
      "stateMutability": "view",
      "type": "function"
    },
    {
      "constant": true,
      "inputs": [
        {
          "name": "tableid",
          "type": "uint256"
        }
      ],
      "name": "getTableInfo",
      "outputs": [
        {
          "name": "",
          "type": "uint256"
        },
        {
          "name": "",
          "type": "uint256"
        },
        {
          "name": "",
          "type": "uint256"
        }
      ],
      "payable": false,
      "stateMutability": "view",
      "type": "function"
    },
    {
      "constant": true,
      "inputs": [
        {
          "name": "tableid",
          "type": "uint256"
        }
      ],
      "name": "getTablePlayers",
      "outputs": [
        {
          "name": "",
          "type": "address[]"
        }
      ],
      "payable": false,
      "stateMutability": "view",
      "type": "function"
    },
    {
      "constant": true,
      "inputs": [
        {
          "name": "tableid",
          "type": "uint256"
        }
      ],
      "name": "getTablePlayingPlayers",
      "outputs": [
        {
          "name": "number",
          "type": "uint256"
        },
        {
          "name": "pls",
          "type": "address[]"
        }
      ],
      "payable": false,
      "stateMutability": "view",
      "type": "function"
    },
    {
      "constant": true,
      "inputs": [
        {
          "name": "playerAddr",
          "type": "address"
        }
      ],
      "name": "getPlayerInfo",
      "outputs": [
        {
          "name": "",
          "type": "address"
        },
        {
          "name": "",
          "type": "uint256"
        },
        {
          "name": "",
          "type": "uint256"
        },
        {
          "name": "",
          "type": "uint256"
        },
        {
          "name": "",
          "type": "uint256"
        }
      ],
      "payable": false,
      "stateMutability": "view",
      "type": "function"
    },
    {
      "constant": true,
      "inputs": [
        {
          "name": "tableid",
          "type": "uint256"
        },
        {
          "name": "pos",
          "type": "uint256"
        }
      ],
      "name": "getTableSeatInfo",
      "outputs": [
        {
          "name": "",
          "type": "address"
        },
        {
          "name": "",
          "type": "address"
        },
        {
          "name": "",
          "type": "uint256"
        },
        {
          "name": "",
          "type": "uint256"
        },
        {
          "name": "",
          "type": "uint256"
        },
        {
          "name": "",
          "type": "uint256"
        }
      ],
      "payable": false,
      "stateMutability": "view",
      "type": "function"
    },
    {
      "constant": false,
      "inputs": [],
      "name": "joinTable",
      "outputs": [
        {
          "name": "",
          "type": "bool"
        }
      ],
      "payable": false,
      "stateMutability": "nonpayable",
      "type": "function"
    },
    {
      "constant": false,
      "inputs": [],
      "name": "reJoinTable",
      "outputs": [
        {
          "name": "",
          "type": "bool"
        }
      ],
      "payable": false,
      "stateMutability": "nonpayable",
      "type": "function"
    },
    {
      "constant": false,
      "inputs": [],
      "name": "leaveTable",
      "outputs": [
        {
          "name": "",
          "type": "bool"
        }
      ],
      "payable": false,
      "stateMutability": "nonpayable",
      "type": "function"
    },
    {
      "constant": false,
      "inputs": [
        {
          "name": "tableid",
          "type": "uint256"
        },
        {
          "name": "hand",
          "type": "uint256"
        }
      ],
      "name": "start",
      "outputs": [
        {
          "name": "",
          "type": "bool"
        }
      ],
      "payable": false,
      "stateMutability": "nonpayable",
      "type": "function"
    },
    {
      "constant": false,
      "inputs": [
        {
          "name": "hand",
          "type": "uint256"
        }
      ],
      "name": "reshaff",
      "outputs": [
        {
          "name": "ret",
          "type": "bool"
        }
      ],
      "payable": false,
      "stateMutability": "nonpayable",
      "type": "function"
    },
    {
      "constant": false,
      "inputs": [
        {
          "name": "data",
          "type": "bytes"
        }
      ],
      "name": "playerSettle",
      "outputs": [
        {
          "name": "",
          "type": "bool"
        }
      ],
      "payable": false,
      "stateMutability": "nonpayable",
      "type": "function"
    },
    {
      "constant": false,
      "inputs": [
        {
          "name": "data",
          "type": "bytes"
        }
      ],
      "name": "submitNotary",
      "outputs": [
        {
          "name": "",
          "type": "bool"
        }
      ],
      "payable": false,
      "stateMutability": "nonpayable",
      "type": "function"
    },
    {
      "constant": true,
      "inputs": [
        {
          "name": "tableid",
          "type": "uint256"
        }
      ],
      "name": "getSubNotorys",
      "outputs": [
        {
          "name": "addrs",
          "type": "address[]"
        }
      ],
      "payable": false,
      "stateMutability": "view",
      "type": "function"
    },
    {
      "constant": false,
      "inputs": [
        {
          "name": "tableid",
          "type": "uint256"
        }
      ],
      "name": "resetNotoryInfo",
      "outputs": [],
      "payable": false,
      "stateMutability": "nonpayable",
      "type": "function"
    },
    {
      "constant": false,
      "inputs": [
        {
          "name": "number",
          "type": "uint256"
        }
      ],
      "name": "applyNotarize",
      "outputs": [
        {
          "name": "",
          "type": "bool"
        }
      ],
      "payable": false,
      "stateMutability": "nonpayable",
      "type": "function"
    },
    {
      "constant": false,
      "inputs": [
        {
          "name": "tableid",
          "type": "uint256"
        }
      ],
      "name": "finishNotarize",
      "outputs": [
        {
          "name": "",
          "type": "bool"
        }
      ],
      "payable": false,
      "stateMutability": "nonpayable",
      "type": "function"
    }
  ],
  "bytecode": "0x6080604052604051620051d9380380620051d983398101604090815281516020830151918301516060840151608085015160a086015160008054600160a060020a031990811673100000000000000000000000000000000000000317825560028054821673100000000000000000000000000000000000000117905560038054909116331790556004879055600585905560078490556006839055600882905560115593909501949192909190620000c18630640100000000620000cd810204565b505050505050620001c1565b60008054604080517fa815ff15000000000000000000000000000000000000000000000000000000008152600160a060020a0385811660248301526004820192835286516044830152865193169363a815ff1593879387939092839260649092019160208701918190849084905b83811015620001555781810151838201526020016200013b565b50505050905090810190601f168015620001835780820380516001836020036101000a031916815260200191505b509350505050600060405180830381600087803b158015620001a457600080fd5b505af1158015620001b9573d6000803e3d6000fd5b505050505050565b61500880620001d16000396000f3006080604052600436106101cc5763ffffffff7c01000000000000000000000000000000000000000000000000000000006000350416631981c25c81146101d15780631b4d7e37146101eb5780631f0d57d7146102145780632b8dfaea146102355780632ebd1e281461026657806339031bd4146102875780633c695d4e1461029c5780634816c735146102b15780634ce401ac146102c6578063571a5c071461032a57806359328401146103425780635d8aa11c146103985780636ab2c201146103b957806372935ac1146103da5780637a54ea8b146103ef5780638da5cb5b146104045780638f0162e2146104195780638fb4b5731461048157806390dee8dc1461049c57806397b25f4b146104d25780639d76ea58146104f75780639e834d401461050c578063a88baa631461052d578063b01b04bb14610545578063b37e48e31461055d578063b8924f4f146105b6578063ba406757146105d7578063ba9c061a146105ef578063bf250b9614610607578063cc678ec314610642578063d24088cf14610663578063e11a84cd14610684578063e51f0e2f146106f7578063e8cb2fcf1461070c578063eee9b8de14610765578063ef7b29e1146107bf578063f1caa0b314610818575b600080fd5b3480156101dd57600080fd5b506101e960043561082d565b005b3480156101f757600080fd5b50610200610851565b604080519115158252519081900360200190f35b34801561022057600080fd5b506101e9600160a060020a0360043516610b0e565b34801561024157600080fd5b5061024a610b44565b60408051600160a060020a039092168252519081900360200190f35b34801561027257600080fd5b506101e9600160a060020a0360043516610b53565b34801561029357600080fd5b506101e9610b89565b3480156102a857600080fd5b5061024a610c0f565b3480156102bd57600080fd5b50610200610c1e565b3480156102d257600080fd5b506040805160206004803580820135601f81018490048402850184019095528484526101e994369492936024939284019190819084018382808284375094975050509235600160a060020a03169350610fe892505050565b34801561033657600080fd5b506102006004356110d7565b34801561034e57600080fd5b50610363600160a060020a03600435166111e6565b60408051600160a060020a03909616865260208601949094528484019290925260608401526080830152519081900360a00190f35b3480156103a457600080fd5b506101e9600160a060020a03600435166112a8565b3480156103c557600080fd5b506101e9600160a060020a036004351661132a565b3480156103e657600080fd5b5061024a611360565b3480156103fb57600080fd5b5061024a61136f565b34801561041057600080fd5b5061024a61137e565b34801561042557600080fd5b5061043160043561138d565b60408051602080825283518183015283519192839290830191858101910280838360005b8381101561046d578181015183820152602001610455565b505050509050019250505060405180910390f35b34801561048d57600080fd5b50610200600435602435611456565b3480156104a857600080fd5b506104b4600435611964565b60408051938452602084019290925282820152519081900360600190f35b3480156104de57600080fd5b506101e960043567ffffffffffffffff602435166119a1565b34801561050357600080fd5b5061024a611a17565b34801561051857600080fd5b506101e9600160a060020a0360043516611a26565b34801561053957600080fd5b50610431600435611aa2565b34801561055157600080fd5b50610200600435611b11565b34801561056957600080fd5b506040805160206004803580820135601f810184900484028501840190955284845261024a943694929360249392840191908190840183828082843750949750611c7e9650505050505050565b3480156105c257600080fd5b506101e9600160a060020a0360043516611d75565b3480156105e357600080fd5b50610200600435611ddf565b3480156105fb57600080fd5b50610200600435611e7b565b34801561061357600080fd5b5061061c61205e565b604080519485526020850193909352838301919091526060830152519081900360800190f35b34801561064e57600080fd5b50610200600160a060020a0360043516612070565b34801561066f57600080fd5b506101e9600160a060020a03600435166120ac565b34801561069057600080fd5b5061069c600435612113565b6040518083815260200180602001828103825283818151815260200191508051906020019060200280838360005b838110156106e25781810151838201526020016106ca565b50505050905001935050505060405180910390f35b34801561070357600080fd5b5061020061220a565b34801561071857600080fd5b506040805160206004803580820135601f810184900484028501840190955284845261020094369492936024939284019190819084018382808284375094975061237e9650505050505050565b34801561077157600080fd5b50610780600435602435612a08565b60408051600160a060020a039788168152959096166020860152848601939093526060840191909152608083015260a082015290519081900360c00190f35b3480156107cb57600080fd5b506040805160206004803580820135601f8101849004840285018401909552848452610200943694929360249392840191908190840183828082843750949750612b649650505050505050565b34801561082457600080fd5b50610431612ded565b600b54600160a060020a0316331461084457600080fd5b61084d81612e50565b5050565b600080600061085e614e07565b336000818152600e602052604090206003015490935060ff16600681111561088257fe5b156108d7576040805160e560020a62461bcd02815260206004820152600f60248201527fe794a8e688b7e5b7b2e58aa0e585a50000000000000000000000000000000000604482015290519081900360640190fd5b6009546007546040805160e160020a637aa9bf6f028152600160a060020a03878116600483015230602483015260448201939093529051919092169350839163f5537ede9160648083019260209291908290030181600087803b15801561093d57600080fd5b505af1158015610951573d6000803e3d6000fd5b505050506040513d602081101561096757600080fd5b505115156001146109c2576040805160e560020a62461bcd02815260206004820152600c60248201527fe4bd99e9a29de4b88de8b6b30000000000000000000000000000000000000000604482015290519081900360640190fd5b506040805160a0810182526000808252602080830182815260075484860190815260026060860181815260808701869052600160a060020a038a168652600e909452959093208451815590516001808301919091559251948101949094555160038401805493948594909360ff1990911690836006811115610a4057fe5b021790555060809190910151600390910180549115156101000261ff0019909216919091179055601080546001810182556000919091527f1b6847dc741a1b0cd08d278845f9d819d87b734759afb55fe2de5cb82a9ae672018054600160a060020a038516600160a060020a031990911681179091556040805191825230602083015280517f1eeb02a7fc2ba7024d6624e6ec374513eeaac13a21f8632428885258683f9a489281900390910190a160045460105410610b0457610b02612f46565b505b6001935050505090565b600354600160a060020a03163314610b2257fe5b600a8054600160a060020a031916600160a060020a0392909216919091179055565b600b54600160a060020a031681565b600354600160a060020a03163314610b6757fe5b60098054600160a060020a031916600160a060020a0392909216919091179055565b600160009054906101000a9004600160a060020a0316600160a060020a0316636db05a776040518163ffffffff167c0100000000000000000000000000000000000000000000000000000000028152600401600060405180830381600087803b158015610bf557600080fd5b505af1158015610c09573d6000803e3d6000fd5b50505050565b600c54600160a060020a031681565b600954336000818152600e6020908152604080832060020154815160e160020a637aa9bf6f02815230600482015260248101959095526044850152519193849384938493849384938493600160a060020a039092169263f5537ede9260648084019382900301818787803b158015610c9557600080fd5b505af1158015610ca9573d6000803e3d6000fd5b505050506040513d6020811015610cbf57600080fd5b5050336000818152600e6020908152604080832080546001820180546003840180548886559288905560029094019690965561ffff19811690925582513081529384018190528383019590955260608301849052905193995091975060ff90911695507f20602d636098992e99e2b58b65245703e423d694004f31bb44f25b36be3f8da7919081900360800190a1836006811115610d5957fe5b60021415610e2a57600092505b601054831015610e21576010805433919085908110610d8157fe5b600091825260209091200154600160a060020a03161415610e1657601080546000198101908110610dae57fe5b60009182526020909120015460108054600160a060020a039092169185908110610dd457fe5b60009182526020909120018054600160a060020a031916600160a060020a03929092169190911790556010805490610e10906000198301614e42565b50610e21565b600190920191610d66565b60019650610fdf565b600091505b600454821015610f8a576000868152600d60205260409020600301805483908110610e5657fe5b600091825260209091200154600160a060020a03169050338114610f4857600954600160a060020a038281166000818152600e6020908152604080832060020154815160e160020a637aa9bf6f0281523060048201526024810195909552604485015251939094169363f5537ede93606480850194929391928390030190829087803b158015610ee557600080fd5b505af1158015610ef9573d6000803e3d6000fd5b505050506040513d6020811015610f0f57600080fd5b5050600160a060020a0381166000908152600e60205260408120818155600181018290556002810191909155600301805461ffff191690555b6000868152600d60205260409020600301805483908110610f6557fe5b60009182526020909120018054600160a060020a031916905560019190910190610e2f565b6000868152600d60205260408120610fa59060030182614e42565b506000868152600d602052604081208181556001810182905560028101805460ff1916905590610fd86003830182614e66565b5050600196505b50505050505090565b60008054604080517fa815ff15000000000000000000000000000000000000000000000000000000008152600160a060020a0385811660248301526004820192835286516044830152865193169363a815ff1593879387939092839260649092019160208701918190849084905b8381101561106e578181015183820152602001611056565b50505050905090810190601f16801561109b5780820380516001836020036101000a031916815260200191505b509350505050600060405180830381600087803b1580156110bb57600080fd5b505af11580156110cf573d6000803e3d6000fd5b505050505050565b60008080336000908152600e602052604090206003015460ff1660068111156110fc57fe5b141561110b57600091506111e0565b506009546040805160e160020a637aa9bf6f028152336004820152306024820152604481018590529051600160a060020a0390921691829163f5537ede9160648083019260209291908290030181600087803b15801561116a57600080fd5b505af115801561117e573d6000803e3d6000fd5b505050506040513d602081101561119457600080fd5b505115156111a557600091506111e0565b336000908152600e60205260409020600201546111c8908463ffffffff61344216565b336000908152600e6020526040902060020155600191505b50919050565b60008060008060006111f6614e07565b600160a060020a0387166000908152600e6020908152604091829020825160a081018452815481526001820154928101929092526002810154928201929092526003820154909190606083019060ff16600681111561125157fe5b600681111561125c57fe5b815260039190910154610100900460ff161515602091820152815190820151604083015160608401519394508a93600681111561129557fe5b939b929a50909850965090945092505050565b600154604080517f70284d19000000000000000000000000000000000000000000000000000000008152600160a060020a038481166004830152915191909216916370284d1991602480830192600092919082900301818387803b15801561130f57600080fd5b505af1158015611323573d6000803e3d6000fd5b5050505050565b600354600160a060020a0316331461133e57fe5b600b8054600160a060020a031916600160a060020a0392909216919091179055565b601254600160a060020a031681565b600a54600160a060020a031681565b600354600160a060020a031681565b6000818152600f602090815260408083205481518181528184028101909301909152606092919080156113ca578160200160208202803883390190505b506000848152600f602052604090205490925090505b60008111156111e0576000838152600f602052604090208054600019830190811061140757fe5b60009182526020909120600290910201548251600160a060020a03909116908390600019840190811061143657fe5b600160a060020a03909216602092830290910190910152600019016113e0565b600080611461614e07565b336000818152600e60209081526040808320815160a08101835281548152600182015493810193909352600281015491830191909152600381015493955091928392839291606083019060ff1660068111156114b957fe5b60068111156114c457fe5b815260039190910154610100900460ff16151560209091015280519094508814611538576040805160e560020a62461bcd02815260206004820152600e60248201527fe99499e8afaf7461626c65206964000000000000000000000000000000000000604482015290519081900360640190fd5b60038460600151600681111561154a57fe5b1461159f576040805160e560020a62461bcd02815260206004820152601560248201527fe794a8e688b7e99499e8afafe78ab6e68081e7a0810000000000000000000000604482015290519081900360640190fd5b83516000908152600d60205260409020600101548714611609576040805160e560020a62461bcd02815260206004820152600f60248201527fe5b180e695b0e4b88de58cb9e9858d0000000000000000000000000000000000604482015290519081900360640190fd5b83516000908152600d602052604081206002015460ff16600181111561162b57fe5b14611680576040805160e560020a62461bcd02815260206004820152600f60248201527f74616c626520e69caae5bc80e5a78b0000000000000000000000000000000000604482015290519081900360640190fd5b600160a060020a038086166000908152600e6020526040902060020154600954600654600554929650921693500283101561177b576006546005546040805160e160020a637aa9bf6f028152600160a060020a038981166004830152306024830152929093028690036044840152519084169163f5537ede9160648083019260209291908290030181600087803b15801561171a57600080fd5b505af115801561172e573d6000803e3d6000fd5b505050506040513d602081101561174457600080fd5b5051151560011461175457600080fd5b600654600554600160a060020a0387166000908152600e6020526040902091026002909101555b600160a060020a0385166000818152600e6020908152604091829020600301805460ff1916600417905586518782015183513081529283019190915281830193909352606081019290925260808201899052517f706496349245055c7f87d2b47c86d5dc33521d97308a0cb0adfe24326b513a6b9160a0908290030190a15060005b600454811015611877576000888152600d602052604081206003018054600e9291908490811061182957fe5b6000918252602080832090910154600160a060020a0316835282019290925260400190206003015460ff16600681111561185f57fe5b60041461186f5760019550611959565b6001016117fd565b5060005b6004548110156118f2576000888152600d602052604081206003018054600592600e929091859081106118aa57fe5b6000918252602080832090910154600160a060020a031683528201929092526040019020600301805460ff191660018360068111156118e557fe5b021790555060010161187b565b6000888152600d602090815260409182902060028101805460ff19166001908117909155015482513081529182018b90528183015290517f53d09e2ef092f25eeaad3091ba1f12f2c4bdbc16e38605e39929e44b89819b5c916060908290030190a1600195505b505050505092915050565b6000818152600d6020526040812080546001808301546002909301548493849392909160ff169081111561199457fe5b9250925092509193909250565b600154604080517f6510e2960000000000000000000000000000000000000000000000000000000081526004810185905267ffffffffffffffff841660248201529051600160a060020a0390921691636510e2969160448082019260009290919082900301818387803b1580156110bb57600080fd5b600954600160a060020a031681565b60018054600160a060020a031916600160a060020a03838116918217909255600254604080517f56598f560000000000000000000000000000000000000000000000000000000081526004810193909352519216916356598f569160248082019260009290919082900301818387803b15801561130f57600080fd5b6000818152600d6020908152604091829020600301805483518184028101840190945280845260609392830182828015611b0557602002820191906000526020600020905b8154600160a060020a03168152600190910190602001808311611ae7575b50505050509050919050565b336000908152600e6020526040812060038101805461ff00191661010017905554815b6000828152600d6020526040902060030154811015611bb3576000828152600d602052604081206003018054600e92919084908110611b6f57fe5b6000918252602080832090910154600160a060020a0316835282019290925260400190206003015460ff610100909104161515611bab57611c77565b600101611b34565b5060005b6000828152600d6020526040902060030154811015611c37576000828152600d602052604081206003018054600e91839185908110611bf257fe5b6000918252602080832090910154600160a060020a03168352820192909252604001902060030180549115156101000261ff0019909216919091179055600101611bb7565b604080518381526020810186905281517f9c840ffaaa891389356c802109e1819503a39a134abe3f0360ad6066f0c5c9cb929181900390910190a1600192505b5050919050565b600080546040517f693ec85e000000000000000000000000000000000000000000000000000000008152602060048201818152855160248401528551600160a060020a039094169363693ec85e9387938392604490920191908501908083838b5b83811015611cf7578181015183820152602001611cdf565b50505050905090810190601f168015611d245780820380516001836020036101000a031916815260200191505b5092505050602060405180830381600087803b158015611d4357600080fd5b505af1158015611d57573d6000803e3d6000fd5b505050506040513d6020811015611d6d57600080fd5b509092915050565b600354600160a060020a03163314611d8957fe5b600c8054600160a060020a031916600160a060020a038316179055611dad81611a26565b611dbf64174876e800629896806119a1565b600354611dd490600160a060020a03166112a8565b611ddc610b89565b50565b600080821515611df257600091506111e0565b50600b54604080517fba406757000000000000000000000000000000000000000000000000000000008152600481018590529051600160a060020a0390921691829163ba40675791602480830192600092919082900301818387803b158015611e5a57600080fd5b505af1158015611e6e573d6000803e3d6000fd5b5060019695505050505050565b336000908152600e6020526040812054818111611ee2576040805160e560020a62461bcd02815260206004820152600f60248201527f7461626c65206e6f742065786973740000000000000000000000000000000000604482015290519081900360640190fd5b336000908152600e602052604090206003015460ff166006811115611f0357fe5b600514611f5a576040805160e560020a62461bcd02815260206004820152601160248201527f7461626c65206e6f7420706c6179696e67000000000000000000000000000000604482015290519081900360640190fd5b600b54604080517f8428ba2000000000000000000000000000000000000000000000000000000000815260048101849052336024820152604481018690529051600160a060020a0390921691638428ba209160648082019260009290919082900301818387803b158015611fcd57600080fd5b505af1158015611fe1573d6000803e3d6000fd5b505050506040513d6000823e601f3d908101601f19168201604052602081101561200a57600080fd5b81019080805164010000000081111561202257600080fd5b8201602081018481111561203557600080fd5b815164010000000081118282018710171561204f57600080fd5b50600198975050505050505050565b60045460055460075460065490919293565b600354600090600160a060020a0316331461208757fe5b5060128054600160a060020a038316600160a060020a03199091161790556001919050565b600154604080517f74a8f103000000000000000000000000000000000000000000000000000000008152600160a060020a038481166004830152915191909216916374a8f10391602480830192600092919082900301818387803b15801561130f57600080fd5b60006060600080600454604051908082528060200260200182016040528015612146578160200160208202803883390190505b506000868152600d602052604081206003015490955090935090505b6000811115612203576000858152600d602052604090206003018054600019830190811061218c57fe5b6000918252602080832090910154600160a060020a0316808352600e90915260409091206003015490925060ff1660068111156121c557fe5b600514156121fa578183858151811015156121dc57fe5b600160a060020a039092166020928302909101909101526001909301925b60001901612162565b5050915091565b336000818152600e60205260408120549091908280806000848152600d602052604090206002015460ff16600181111561224057fe5b14612295576040805160e560020a62461bcd02815260206004820152601460248201527f7461626c65e69caae5bc80e5a78be6b8b8e6888f000000000000000000000000604482015290519081900360640190fd5b600091505b600454821015612323576000838152600d602052604090206003018054839081106122c157fe5b600091825260209091200154600160a060020a031690506122e18161345a565b6000838152600d602052604090206003018054839081106122fe57fe5b60009182526020909120018054600160a060020a03191690556001919091019061229a565b6000838152600d6020526040812061233e9060030182614e42565b506000838152600d602052604081208181556001810182905560028101805460ff19169055906123716003830182614e66565b5050600194505050505090565b600080600061238b614e84565b6060600060606000807fa651fc3f99536764f894ad7835680d0d0b14cfb48cef00febb23866397eb00d9338b518c6040518084600160a060020a0316600160a060020a0316815260200183815260200180602001828103825283818151815260200191508051906020019080838360005b838110156124145781810151838201526020016123fc565b50505050905090810190601f1680156124415780820380516001836020036101000a031916815260200191505b5094505050505060405180910390a1896040518082805190602001908083835b602083106124805780518252601f199092019160209182019101612461565b6001836020036101000a038019825116818451168082178552505050505050905001915050604051809103902097503396506124bb8a6136ff565b95506124c686613747565b151561251c576040805160e560020a62461bcd02815260206004820152600c60248201527f726c702064617461206572720000000000000000000000000000000000000000604482015290519081900360640190fd5b61252586613771565b8051909550600414612581576040805160e560020a62461bcd02815260206004820152601560248201527f726c702064617461206c656e677468206572726f720000000000000000000000604482015290519081900360640190fd5b6125a285600081518110151561259357fe5b90602001906020020151613826565b600160a060020a03163014612601576040805160e560020a62461bcd02815260206004820152600d60248201527f61646472657373206572726f7200000000000000000000000000000000000000604482015290519081900360640190fd5b61262285600181518110151561261357fe5b90602001906020020151613b14565b6000818152600d602052604090206001015486519195509061264b908790600290811061261357fe5b146126a0576040805160e560020a62461bcd02815260206004820152601260248201527f637572726e65742048616e64206572726f720000000000000000000000000000604482015290519081900360640190fd5b600b54604080517f5b2be44f000000000000000000000000000000000000000000000000000000008152306004820152602481018790529051600160a060020a0390921691635b2be44f9160448082019260009290919082900301818387803b15801561270c57600080fd5b505af1158015612720573d6000803e3d6000fd5b505050506040513d6000823e601f3d908101601f19168201604052602081101561274957600080fd5b81019080805164010000000081111561276157600080fd5b8201602081018481111561277457600080fd5b815185602082028301116401000000008211171561279157600080fd5b5050805190965060001092506127f4915050576040805160e560020a62461bcd02815260206004820152600d60248201527f6e6f7461727973206572726f7200000000000000000000000000000000000000604482015290519081900360640190fd5b5060009050805b825182101561284857828281518110151561281257fe5b90602001906020020151600160a060020a031687600160a060020a0316141561283d57506001612848565b6001909101906127fb565b80151561289f576040805160e560020a62461bcd02815260206004820152600c60248201527f6e6f74617279206572726f720000000000000000000000000000000000000000604482015290519081900360640190fd5b600091505b6000848152600f602052604090205482101561297d576000848152600f602052604090208054600160a060020a0389169190849081106128e057fe5b6000918252602090912060029091020154600160a060020a03161415612972576000848152600f6020526040902080548390811061291a57fe5b90600052602060002090600202016001016000905587600f60008681526020019081526020016000208381548110151561295057fe5b90600052602060002090600202016001018160001916905550600198506129fb565b6001909101906128a4565b6000848152600f602081815260408084208151808301909252600160a060020a038c811683528284018e8152825460018082018555848952868920955160029092029095018054600160a060020a0319169190931617825551920191909155928790525254835114156129f6576129f4848b613b6c565b505b600198505b5050505050505050919050565b600080600080600080600080612a1c614e07565b60008b8152600d60205260409020600301548a93508310612a4f5730985060009750879650869550859450849350612b57565b60008b8152600d60205260409020600301805484908110612a6c57fe5b600091825260209091200154600160a060020a03169150811515612aa25730985060009750879650869550859450849350612b57565b600160a060020a0382166000908152600e6020908152604091829020825160a081018452815481526001820154928101929092526002810154928201929092526003820154909190606083019060ff166006811115612afd57fe5b6006811115612b0857fe5b81526020016003820160019054906101000a900460ff1615151515815250509050308282600001518360200151846040015185606001516006811115612b4a57fe5b9850985098509850985098505b5050509295509295509295565b336000908152600e60209081526040808320548352600d8252808320600301805482518185028101850190935280835284938493606093859385938493929190830182828015612bdd57602002820191906000526020600020905b8154600160a060020a03168152600190910190602001808311612bbf575b50505050509350600095505b8351861015612c5257600e60008588815181101515612c0457fe5b6020908102909101810151600160a060020a031682528101919091526040016000206003015460ff166006811115612c3857fe5b60051415612c47576001909401935b600190950194612be9565b87516041860293508310612cb0576040805160e560020a62461bcd02815260206004820152601160248201527f64617461206c656e677468206572726f72000000000000000000000000000000604482015290519081900360640190fd5b828851036040519080825280601f01601f191660200182016040528015612ce1578160200160208202803883390190505b509150826040519080825280601f01601f191660200182016040528015612d12578160200160208202803883390190505b5090508295505b8751861015612d76578786815181101515612d3057fe5b90602001015160f860020a900460f860020a0282848803815181101515612d5357fe5b906020010190600160f860020a031916908160001a905350600190950194612d19565b600095505b82861015612dd5578786815181101515612d9157fe5b90602001015160f860020a900460f860020a028187815181101515612db257fe5b906020010190600160f860020a031916908160001a905350600190950194612d7b565b612de160008284613ec0565b98975050505050505050565b60606010805480602002602001604051908101604052809291908181526020018280548015612e4557602002820191906000526020600020905b8154600160a060020a03168152600190910190602001808311612e27575b505050505090505b90565b6000818152600f60205260408120545b6000811115612f24576000838152600f6020526040902080546000198301908110612e8757fe5b6000918252602080832060029092029091018054600160a060020a0319169055848252600f90526040902080546000198301908110612ec257fe5b906000526020600020906002020160010160009055600f600084815260200190815260200160002060018203815481101515612efa57fe5b6000918252602082206002909102018054600160a060020a03191681556001015560001901612e60565b6000838152600f60205260408120612f3c9082614e9b565b5060019392505050565b6000806000806000806000806060612f5c614ec7565b6010546000995095503394505b858910156130a75760024442876040518084815260200183815260200182815260200193505050506020604051808303816000865af1158015612fb0573d6000803e3d6000fd5b5050506040513d6020811015612fc557600080fd5b505194508585811515612fd457fe5b069750601089815481101515612fe657fe5b60009182526020909120015460108054600160a060020a039092169850908990811061300e57fe5b60009182526020909120015460108054600160a060020a03909216918b90811061303457fe5b9060005260206000200160006101000a815481600160a060020a030219169083600160a060020a031602179055508660108981548110151561307257fe5b60009182526020909120018054600160a060020a031916600160a060020a039290921691909117905560019890980197612f69565b600093506130b3614594565b92506004546040519080825280602002602001820160405280156130e1578160200160208202803883390190505b509150600098505b858910156133a057601080548a9081106130ff57fe5b600091825260209091200154600160a060020a031696506002600160a060020a0388166000908152600e602052604090206003015460ff16600681111561314257fe5b1461314c57613395565b86828581518110151561315b57fe5b600160a060020a039283166020918202929092018101919091529088166000908152600e9091526040902083815560018082018690556003918201805460ff1916909217909155600454940193841015806131b857508589600101145b1561339557506040805160808101825283815260016020808301828152600084860181815260608601889052888252600d90935294909420835181559351848301555160028401805493948594909360ff1990911690838181111561321957fe5b021790555060608201518051613239916003840191602090910190614eed565b5050600a54600854604080517fe63b09f400000000000000000000000000000000000000000000000000000000815260048101889052336024820152604481019290925251600160a060020a03909216925063e63b09f491606480830192600092919082900301818387803b1580156132b157600080fd5b505af11580156132c5573d6000803e3d6000fd5b505050506040513d6000823e601f3d908101601f1916820160405260208110156132ee57600080fd5b81019080805164010000000081111561330657600080fd5b8201602081018481111561331957600080fd5b815164010000000081118282018710171561333357600080fd5b50600098505050505060018a01871115905061335457613351614594565b92505b600097505b600454881015613395576000828981518110151561337357fe5b600160a060020a03909216602092830290910190910152600190970196613359565b6001909801976130e9565b604080513081526020810185905281517fdec8bb6e7694b4fa89fc5e09a5660432f68c5808632d4a5b89c7aa66a312c245929181900390910190a18598505b600089111561341f57601080546000198b019081106133fa57fe5b60009182526020909120018054600160a060020a0319169055600019909801976133df565b60108054879003906134319082614e42565b506001995050505050505050505090565b6000828201613453848210156145a2565b9392505050565b600160a060020a0381166000908152600e6020526040812060030154819060ff16600681111561348657fe5b600314806134bd5750600160a060020a0383166000908152600e602052604090206003015460ff1660068111156134b957fe5b6004145b15156134c857600080fd5b5050600160a060020a038082166000908152600e602052604090206002015460095460075491921690821015613593576007546040805160e160020a637aa9bf6f028152600160a060020a03868116600483015230602483015292859003604482015290519183169163f5537ede916064808201926020929091908290030181600087803b15801561355957600080fd5b505af115801561356d573d6000803e3d6000fd5b505050506040513d602081101561358357600080fd5b5051151560011461359357600080fd5b600754821115613637576007546040805160e160020a637aa9bf6f028152306004820152600160a060020a038681166024830152928503604482015290519183169163f5537ede916064808201926020929091908290030181600087803b1580156135fd57600080fd5b505af1158015613611573d6000803e3d6000fd5b505050506040513d602081101561362757600080fd5b5051151560011461363757600080fd5b600754600160a060020a0384166000818152600e60209081526040808320600280820196909655838155600301805460ff19169095179094556010805460018101825592527f1b6847dc741a1b0cd08d278845f9d819d87b734759afb55fe2de5cb82a9ae6729091018054600160a060020a031916831790558251918252309082015281517f1eeb02a7fc2ba7024d6624e6ec374513eeaac13a21f8632428885258683f9a48929181900390910190a1600454601054106136fa57610c09612f46565b505050565b613707614e84565b8151600081151561372d5760408051808201909152600080825260208201529250611c77565b506040805180820190915260209384018152928301525090565b60008082602001516000141561376057600091506111e0565b5050515160c060009190911a101590565b6060600061377d614f52565b600061378885613747565b151561379357600080fd5b61379c856145ae565b9250826040519080825280602002602001820160405280156137d857816020015b6137c5614e84565b8152602001906001900390816137bd5790505b5093506137e48561461a565b91505b6137f082614653565b1561381e576137fe82614672565b848281518110151561380c57fe5b602090810290910101526001016137e7565b505050919050565b60006060806000806000613839876146b4565b51601514156138525761384b87614708565b9550613b0a565b61385b87614754565b94508493506000925060009150602884510390505b8351811015613b06578351600092507f3000000000000000000000000000000000000000000000000000000000000000908590839081106138ad57fe5b90602001015160f860020a900460f860020a02600160f860020a03191610158015613923575083517f39000000000000000000000000000000000000000000000000000000000000009085908390811061390357fe5b90602001015160f860020a900460f860020a02600160f860020a03191611155b1561394e57835160309085908390811061393957fe5b016020015160f860020a908190048102040391505b83517f61000000000000000000000000000000000000000000000000000000000000009085908390811061397e57fe5b90602001015160f860020a900460f860020a02600160f860020a031916101580156139f4575083517f6600000000000000000000000000000000000000000000000000000000000000908590839081106139d457fe5b90602001015160f860020a900460f860020a02600160f860020a03191611155b15613a22578351606190859083908110613a0a57fe5b016020015160f860020a9081900481020403600a0191505b83517f410000000000000000000000000000000000000000000000000000000000000090859083908110613a5257fe5b90602001015160f860020a900460f860020a02600160f860020a03191610158015613ac8575083517f460000000000000000000000000000000000000000000000000000000000000090859083908110613aa857fe5b90602001015160f860020a900460f860020a02600160f860020a03191611155b15613af6578351604190859083908110613ade57fe5b016020015160f860020a9081900481020403600a0191505b6010909202811791600101613870565b8295505b5050505050919050565b6000806000613b22846147c0565b1515613b2d57600080fd5b613b36846147e9565b915091506020811115613b4857600080fd5b801515613b585760009250611c77565b806020036101000a82510492505050919050565b600b54604080517f5b2be44f000000000000000000000000000000000000000000000000000000008152306004820152602481018590529051600092606092849283928392600160a060020a0390911691635b2be44f91604480820192869290919082900301818387803b158015613be357600080fd5b505af1158015613bf7573d6000803e3d6000fd5b505050506040513d6000823e601f3d908101601f191682016040526020811015613c2057600080fd5b810190808051640100000000811115613c3857600080fd5b82016020810184811115613c4b57600080fd5b8151856020820283011164010000000082111715613c6857600080fd5b505080519097506000109250613ccb915050576040805160e560020a62461bcd02815260206004820152601060248201527f6e6f74617279206e6f7420657869737400000000000000000000000000000000604482015290519081900360640190fd5b6000878152600f602052604081205493508311613d32576040805160e560020a62461bcd02815260206004820152600f60248201527f6e6f74617279206e6f7420666f6e640000000000000000000000000000000000604482015290519081900360640190fd5b6000878152600f6020526040812080549091908110613d4d57fe5b9060005260206000209060020201600101549050600191505b82821015613e4c576000878152600f60205260409020805482919084908110613d8b57fe5b600091825260209091206001600290920201015414613e4157600b54604080517f47038556000000000000000000000000000000000000000000000000000000008152600481018a90529051600160a060020a03909216916347038556916024808201926020929091908290030181600087803b158015613e0b57600080fd5b505af1158015613e1f573d6000803e3d6000fd5b505050506040513d6020811015613e3557600080fd5b5060019550613eb69050565b600190910190613d66565b604080516000815260208101909152613e689060019088613ec0565b506000878152600d60209081526040918290206001015482518a81529182015281517f429060710cb71553272a42815a8dee5378b82e06053b9bf812ab6f1c989e7bca929181900390910190a15b5050505092915050565b6000613eca614e84565b6060600080606080600080600060606000613ee48d6136ff565b9a50613eef8b613747565b1515613f45576040805160e560020a62461bcd02815260206004820152600e60248201527f726c702064617461206572726f72000000000000000000000000000000000000604482015290519081900360640190fd5b613f4e8b613771565b8051909a50600414613faa576040805160e560020a62461bcd02815260206004820152601560248201527f726c702064617461206c656e677468206572726f720000000000000000000000604482015290519081900360640190fd5b613fbc8a600081518110151561259357fe5b600160a060020a0316301461401b576040805160e560020a62461bcd02815260206004820152601b60248201527f67616d6520636f6e74726163742061646472657373206572726f720000000000604482015290519081900360640190fd5b61402d8a600181518110151561261357fe5b6000818152600d60205260409020600101548b51919a5090614056908c90600290811061261357fe5b146140ab576040805160e560020a62461bcd02815260206004820152601060248201527f7461626c652068616e64206572726f7200000000000000000000000000000000604482015290519081900360640190fd5b8e1515614172578c6040518082805190602001908083835b602083106140e25780518252601f1990920191602091820191016140c3565b6001836020036101000a0380198251168184511680821785525050505050509050019150506040518091039020975061411c8e898b614866565b1515614172576040805160e560020a62461bcd02815260206004820152600f60248201527f706c6179207369676e206572726f720000000000000000000000000000000000604482015290519081900360640190fd5b6141938a600381518110151561418457fe5b90602001906020020151613747565b15156141e9576040805160e560020a62461bcd02815260206004820152601460248201527f726c70206461746120696e707574206572726f72000000000000000000000000604482015290519081900360640190fd5b61420a8a60038151811015156141fb57fe5b90602001906020020151613771565b60008a8152600d60209081526040918290206003018054835181840281018401909452808452939a5091929083018282801561426f57602002820191906000526020600020905b8154600160a060020a03168152600190910190602001808311614251575b50505050509550600094505b86518510156144b057614295878681518110151561418457fe5b15156142eb576040805160e560020a62461bcd02815260206004820152600f60248201527f6974656d2064617461206572726f720000000000000000000000000000000000604482015290519081900360640190fd5b6142fc87868151811015156141fb57fe5b8051909250600314614358576040805160e560020a62461bcd02815260206004820152601160248201527f6974656d206c656e677468206572726f72000000000000000000000000000000604482015290519081900360640190fd5b8561436b83600081518110151561261357fe5b8151811061437557fe5b90602001906020020151905061439382600181518110151561261357fe5b60011415614422576143d86143b083600281518110151561261357fe5b600160a060020a0383166000908152600e60205260409020600201549063ffffffff61344216565b600160a060020a0382166000908152600e60205260409020600290810191909155825161441b9161440e91859190811061261357fe5b859063ffffffff61344216565b93506144a5565b61445f61443783600281518110151561261357fe5b600160a060020a0383166000908152600e60205260409020600201549063ffffffff614ba416565b600160a060020a0382166000908152600e6020526040902060029081019190915582516144a29161449591859190811061261357fe5b849063ffffffff61344216565b92505b60019094019361427b565b838314614507576040805160e560020a62461bcd02815260206004820152600a60248201527f61646420213d2073756200000000000000000000000000000000000000000000604482015290519081900360640190fd5b6000898152600d6020908152604091829020600101546004548351918252918101919091528082018b905290517f5b9d5e9dd07a521e988b5e8aeb356a989978e8292ff49d0bc881a8f89fca548f9181900360600190a161456789614bb8565b50505060009687525050600d60205250506040909220600190810180548201905598975050505050505050565b601180546001019081905590565b801515611ddc57600080fd5b6000806000806000806145c087613747565b15156145cf5760009550613b0a565b8651805160001a955093506145e387614cba565b840192506001876020015185010391505b8183116146105761460483614d3a565b909201916001016145f4565b9695505050505050565b614622614f52565b600061462d83613747565b151561463857600080fd5b61464183614cba565b83519383529092016020820152919050565b600061465d614e84565b50508051602080820151915192015191011190565b61467a614e84565b60008061468684614653565b156101cc578360200151915061469b82614d3a565b8284526020808501829052838201908601529050611c77565b60208101516060908015156146c8576111e0565b806040519080825280601f01601f1916602001820160405280156146f6578160200160208202803883390190505b5091506111e083600001518383614dc7565b6000806000614716846147c0565b151561472157600080fd5b61472a846147e9565b90925090506014811461473c57600080fd5b50516c01000000000000000000000000900492915050565b60606000806060614764856147c0565b151561476f57600080fd5b614778856147e9565b92509250816040519080825280601f01601f1916602001820160405280156147aa578160200160208202803883390190505b5090506147b8838284614dc7565b949350505050565b6000808260200151600014156147d957600091506111e0565b5050515160c060009190911a1090565b60008060008060006147fa866147c0565b151561480557600080fd5b8551805160001a935091506080831015614825578194506001935061485e565b60b8831015614843576001866020015103935081600101945061485e565b60b78303905080600187602001510303935080820160010194505b505050915091565b600060606000806060600080600080600080600d60008d81526020019081526020016000206003018054806020026020016040519081016040528092919081815260200182805480156148e257602002820191906000526020600020905b8154600160a060020a031681526001909101906020018083116148c4575b505050505099508951604051908082528060200260200182016040528015614914578160200160208202803883390190505b509650600098505b895189101561494a576000878a81518110151561493557fe5b6020908102909101015260019098019761491c565b60009550600098505b8951891015614a0157898981518110151561496a57fe5b60209081029091010151600160a060020a03161515614988576149f6565b600e60008b8b81518110151561499a57fe5b6020908102909101810151600160a060020a031682528101919091526040016000206003015460ff1660068111156149ce57fe5b600514156149f65786516001968701969088908b9081106149eb57fe5b602090810290910101525b600190980197614953565b8d516041870295508514614a185760009a50614b93565b600098505b85891015614b4c5760418981028f0160208101516040820151919092015195509093509150601b60ff85161015614a5557601b840193505b60018d858585604051600081526020016040526040518085600019166000191681526020018460ff1660ff1681526020018360001916600019168152602001826000191660001916815260200194505050505060206040516020810390808403906000865af1158015614acc573d6000803e3d6000fd5b505050602060405103519050600097505b8951881015614b415780600160a060020a03168a89815181101515614afe57fe5b90602001906020020151600160a060020a03161415614b365760008789815181101515614b2757fe5b60209081029091010152614b41565b600190970196614add565b600190980197614a1d565b600098505b8651891015614b8e578689815181101515614b6857fe5b9060200190602002015160011415614b835760009a50614b93565b600190980197614b51565b60019a505b505050505050505050509392505050565b6000614bb2838311156145a2565b50900390565b6000818152600d6020908152604080832060030180548251818502810185019093528083526060938593929190830182828015614c1e57602002820191906000526020600020905b8154600160a060020a03168152600190910190602001808311614c00575b50505050509150600090505b8151811015614c8d576003600e60008484815181101515614c4757fe5b6020908102909101810151600160a060020a03168252810191909152604001600020600301805460ff19166001836006811115614c8057fe5b0217905550600101614c2a565b6000848152600d60205260409020600201805460ff19169055614caf84612e50565b506001949350505050565b6000806000836020015160001415614cd55760009250611c77565b50508151805160001a906080821015614cf15760009250611c77565b60b8821080614d0c575060c08210158015614d0c575060f882105b15614d1a5760019250611c77565b60c0821015614d2f5760b51982019250611c77565b5060f5190192915050565b8051600090811a6080811015614d5357600191506111e0565b60b8811015614d6857607e19810191506111e0565b60c0811015614d9157600183015160b76020839003016101000a9004810160b5190191506111e0565b60f8811015614da65760be19810191506111e0565b6001929092015160f76020849003016101000a900490910160f51901919050565b60006020601f83010484602085015b828414614df457602084028281015190820152600190930192614dd6565b6000865160200187015250505050505050565b60a06040519081016040528060008152602001600081526020016000815260200160006006811115614e3557fe5b8152600060209091015290565b8154818355818111156136fa576000838152602090206136fa918101908301614f73565b5080546000825590600052602060002090810190611ddc9190614f73565b604080518082019091526000808252602082015290565b8154818355818111156136fa576002028160020283600052602060002091820191016136fa9190614f8d565b604080516080810182526000808252602082018190529181019190915260608082015290565b828054828255906000526020600020908101928215614f42579160200282015b82811115614f425782518254600160a060020a031916600160a060020a03909116178255602090920191600190910190614f0d565b50614f4e929150614fb8565b5090565b606060405190810160405280614f66614e84565b8152602001600081525090565b612e4d91905b80821115614f4e5760008155600101614f79565b612e4d91905b80821115614f4e578054600160a060020a031916815560006001820155600201614f93565b612e4d91905b80821115614f4e578054600160a060020a0319168155600101614fbe5600a165627a7a72305820a1b5315dec91bccd3899d994b44adae08725a69d504b24feb8787e636a92c7ec0029",
  "source": "pragma solidity ^0.4.20;\r\n\r\nimport './LibContract.sol';\r\nimport './TokenAbi.sol';\r\nimport './InterAbi.sol';\r\nimport './NotaryAbi.sol';\r\nimport './SafeMath.sol';\r\nimport './DataTime.sol';\r\nimport './RLP.sol';\r\n\r\ncontract CroomManager  is LibContract{\r\n    using SafeMath for uint;\r\n    using RLP for bytes;\r\n    using RLP for RLP.RLPItem;\r\n    using RLP for RLP.Iterator;\r\n\r\n    event JoinSittingQueen(address playerAddr, address roomAddr);\r\n    event AllotTable(address roomAddr,uint tableid);\r\n    event LeaveTable(address roomAddr, uint tbid, address playerAddr, uint pos);\r\n    event Start(address roomAddr, uint tbid, address playerAddr, uint pos, uint hand);\r\n    event GameStart(address roomAddr, uint tbid, uint hand);\r\n    event Discard(address roomAddr, uint tbid, address playerAddr, uint pos, uint hand);\r\n    event SubmmitSettleData(address nrAddr, uint datalength, bytes data);\r\n    event SettleError(address roomAddr, uint tableid, uint datasrc, uint errcode);\r\n    event Settle( uint hand,uint playingNum,uint tableid);\r\n    event FinishNotary(uint tableid,uint hand);\r\n    event ReShaff(uint tableid,uint hand);\r\n    // \r\n    enum PlayerStatus {\r\n        NOTJION,    // \r\n        NOTSEATED,  // \r\n        SITTING,    // table\r\n        SEATED,     // table\r\n        READY,      // \r\n        PLAYING,    // \r\n        DISCARD     // \r\n    }\r\n\r\n    enum TalbeStatus {NOTSTARTED, STARTED}      // tableNOTSTARTED:; STARTED:\r\n\r\n    enum ErrorCode_Settle {\r\n        DATASTRUCT, \r\n        ADDR_DISMATCH, \r\n        HAND_DISMATCH, \r\n        ITEMDATA_STRUCT, \r\n        NOT_APP_NORTARY, \r\n        NORTARY_NOTIN_LIST, \r\n        RE_SUBMIT, \r\n        DATA_INCONSISTENCY,\r\n        RE_NOTARIZE,\r\n        RE_NOTARIZE_ERR\r\n    }\r\n    enum Data_Src {PLAYER, NORTARY}\r\n\r\n    struct Table {\r\n        uint        tbid;          //\r\n        uint      currentHand;    // \r\n        TalbeStatus currentStatus;  // table\r\n        address[]   players;        // table\r\n    }\r\n\r\n    struct PlayerInfo {\r\n        uint    tbid;          // table, + 100020181015201810151000Table\r\n        uint    seatNum;        // \r\n        uint    amount;         // \r\n        PlayerStatus status;    // \r\n        bool    reshaff;        //\r\n    }\r\n\r\n    struct NotaryInfo {\r\n        address nrAddr;\r\n        bytes32   allocate;\r\n    }\r\n\r\n    address public owner;\r\n\r\n\r\n    \r\n    uint    playerNum;      // \r\n    uint    base;           // \r\n\tuint\tmultiple;\t\t// \r\n    uint    needChips;      //  \r\n    uint    tbInterNum;     //  table  Inter \r\n\r\n\r\n    address public tokenAddress;        // token\r\n    address public interManage;         // Inter\r\n    address public notaryManage;        // \r\n    address public authorityAddress;    //\r\n    //address roomFunAddress;           // roomroom\r\n\r\n    mapping (uint => Table)             Tables;     // table--table\r\n    mapping (address => PlayerInfo)     Players;    // --\r\n    mapping (uint => NotaryInfo[])      Norarys;    // table -- \r\n\r\n    address[] joinings;     // Table,1:Table; 2:TableTable;\r\n    \r\n    uint currMaxTbNum;      // \r\n    address public luaAddress; //lua\r\n\r\n    constructor(string _name,uint playerNum_, uint base_, uint needChips_, uint _multiple, uint tbInterNum_) payable public {\r\n\r\n        owner     = msg.sender;\r\n        playerNum = playerNum_;\r\n        base      = base_;\r\n        needChips = needChips_;\r\n\t\tmultiple  = _multiple;\r\n        tbInterNum = tbInterNum_;\r\n\r\n        currMaxTbNum = 0;\r\n        _setContract(_name,this); //\r\n    }\r\n\r\n    // \r\n    modifier onlyOwner {\r\n        assert(msg.sender == owner);\r\n        _;\r\n    }\r\n    function setluaAddress(address addr) public onlyOwner returns(bool){\r\n        luaAddress = addr;\r\n        return true;\r\n    }\r\n    //\r\n    function setauthority(address addr) public onlyOwner {\r\n        authorityAddress = addr;\r\n        _setauthority(addr);\r\n        _setGas(100000000000,10000000);\r\n        _grant(owner);\r\n        _setPayer();\r\n    }\r\n    function setTokenAddr(address addr)  public onlyOwner {\r\n        tokenAddress = addr;\r\n    }\r\n    function setInterAddr(address addr) public onlyOwner{\r\n        interManage = addr;\r\n    }\r\n\r\n    function setNotaryAddr(address addr) public onlyOwner{\r\n        notaryManage = addr;\r\n    }\r\n\r\n    // function setRoomFunAddr(address addr) public onlyOwner{\r\n    //     roomFunAddress = addr;\r\n    // }\r\n    /**\r\n     * @dev \r\n     */\r\n    function addChips(uint value) public returns(bool) {\r\n        if(Players[msg.sender].status == PlayerStatus.NOTJION) {\r\n            return false;\r\n        }\r\n        TokenAbi token = TokenAbi(tokenAddress);\r\n        if(!token.transferToken(msg.sender, address(this), value)) {\r\n            return false;\r\n        }\r\n        Players[msg.sender].amount=Players[msg.sender].amount.add(value);\r\n        return true;\r\n    }\r\n\r\n    /**\r\n     * @dev \r\n     */\r\n    function getRoomInfo() public view returns(uint,uint, uint,uint) {\r\n        return (playerNum, base, needChips,multiple);\r\n    }\r\n\r\n    /**\r\n     * @dev \r\n     */\r\n    function getSittingQueen() public view returns (address[]) {\r\n        return joinings;\r\n    }\r\n\r\n    /**\r\n     * @dev Table\r\n     * @param tableid TableID\r\n     */\r\n    function getTableInfo(uint tableid) public view returns(uint, uint, uint) {\r\n        return (Tables[tableid].tbid, Tables[tableid].currentHand, uint(Tables[tableid].currentStatus));\r\n    }\r\n\r\n    /**\r\n     * @dev Table\r\n     * @param tableid TableID\r\n     */\r\n    function getTablePlayers(uint tableid) public view returns(address[]) {\r\n        return Tables[tableid].players;\r\n    }\r\n\r\n    /**\r\n     * @dev Table\r\n     * @param tableid TableID\r\n     */\r\n    function getTablePlayingPlayers(uint tableid) public view returns(uint number, address[] pls) {\r\n        pls = new address[](playerNum);\r\n        number = 0;\r\n        address tmpAddr;\r\n        for(uint i = Tables[tableid].players.length; i > 0 ; i--) {\r\n            tmpAddr = Tables[tableid].players[i - 1];\r\n            if(PlayerStatus.PLAYING == Players[tmpAddr].status) {\r\n                pls[number] = tmpAddr;\r\n                number++;\r\n            }\r\n        }\r\n    }\r\n\r\n    /**\r\n     * @dev \r\n     */\r\n    function getPlayerInfo(address playerAddr) public view returns(address, uint, uint, uint, uint) {\r\n        PlayerInfo memory pInfo = Players[playerAddr];\r\n        return (playerAddr, pInfo.tbid, pInfo.seatNum, pInfo.amount, uint(pInfo.status));\r\n    }\r\n\r\n    // /**\r\n    //  * @dev \r\n    //  */\r\n    // function isTablePlayingPlayer(uint tableid, address playerAddr) public view returns(bool) {\r\n    //     return tableid == Players[playerAddr].tbid \r\n    //         && PlayerStatus.PLAYING == Players[playerAddr].status;\r\n    // }\r\n\r\n    /**\r\n     * @dev table\r\n     * @param tableid   TableID\r\n     * @param pos       \r\n     */\r\n    function getTableSeatInfo(uint tableid, uint pos) public view returns (address, address, uint, uint, uint, uint) {\r\n        uint upos = uint(pos);\r\n        if(upos >= Tables[tableid].players.length) {\r\n            return (address(this), address(0), 0, 0, 0, 0);\r\n        }\r\n        address playerAddr = Tables[tableid].players[upos];\r\n        if(address(0) == playerAddr) {\r\n            return (address(this), address(0), 0, 0, 0, 0);\r\n        }\r\n        PlayerInfo memory pInfo = Players[playerAddr];\r\n        return (address(this), playerAddr, pInfo.tbid, pInfo.seatNum, pInfo.amount, uint(pInfo.status));\r\n    }\r\n\r\n    // /**\r\n    //  * @dev table getTableInfo\r\n    //  * @param tableid   TableID\r\n    //  */\r\n    // function getTableCurrentStatus(uint tableid) public view returns(uint) {\r\n    //     return uint(Tables[tableid].currentStatus);\r\n    // }\r\n\r\n    // /**\r\n    //  * @dev Table\r\n    //  * @param tableid TableID\r\n    //  */\r\n    // function getTableCurrentHand(uint tableid) public view returns(address, uint, uint) {\r\n    //     return (address(this), tableid, Tables[tableid].currentHand);\r\n    // }\r\n\r\n    // RoomRoomTable\r\n    function joinTable() public returns(bool){\r\n        address playerAddr = msg.sender;\r\n        require(PlayerStatus.NOTJION == Players[playerAddr].status,\"\");\r\n\r\n        //\r\n        TokenAbi token = TokenAbi(tokenAddress);\r\n        require(true == token.transferToken(playerAddr, address(this), needChips),\"\");\r\n\r\n        PlayerInfo memory info = PlayerInfo(0, 0, needChips, PlayerStatus.SITTING,false);\r\n        Players[playerAddr] = info;\r\n\r\n        joinings.push(playerAddr);\r\n\r\n        emit JoinSittingQueen(playerAddr, address(this));\r\n\r\n        if(joinings.length >= playerNum) {\r\n            allotTable();\r\n        }\r\n        return true;\r\n\r\n    }\r\n\r\n    /**\r\n     * @dev TableTable\r\n     */\r\n    function allotTable() internal returns (bool) {\r\n        uint i;\r\n        uint j;\r\n\r\n        address tmpAddr;\r\n        uint joiningLen = joinings.length;\r\n        uint seed = uint(msg.sender);\r\n        for(i = 0; i < joiningLen; i++) {\r\n            seed = uint(sha256(block.difficulty, now, seed));\r\n            j = seed % joiningLen;\r\n\r\n            tmpAddr = joinings[i];\r\n            joinings[i] = joinings[j];\r\n            joinings[j] = tmpAddr;\r\n        }\r\n\r\n        uint currNum = 0;\r\n        uint currTableNum = getTableNum();\r\n        address[] memory players = new address[](playerNum);\r\n        for(i = 0; i < joiningLen; i++) {\r\n            tmpAddr = joinings[i];\r\n            if(Players[tmpAddr].status != PlayerStatus.SITTING) {\r\n                continue;\r\n            }\r\n\r\n            players[currNum] = tmpAddr;\r\n\r\n            Players[tmpAddr].tbid = currTableNum;\r\n            Players[tmpAddr].seatNum = currNum;\r\n            Players[tmpAddr].status = PlayerStatus.SEATED;\r\n            currNum++;\r\n\r\n            if(currNum >= playerNum || (i + 1) == joiningLen) {\r\n                Table memory tb = Table(currTableNum, 1, TalbeStatus.NOTSTARTED, players);\r\n                Tables[currTableNum] = tb;\r\n                InterAbi(interManage).select(currTableNum, msg.sender, tbInterNum);\r\n                currNum = 0;\r\n                if((i + 1) < joiningLen) {\r\n                    currTableNum = getTableNum();\r\n                }\r\n                for(j = 0; j < playerNum; j++) {\r\n                    players[j] = address(0);\r\n                }\r\n                // players = new address[](playerNum);\r\n                \r\n            }\r\n        }\r\n        emit AllotTable(this,currTableNum);\r\n\r\n        for(i = joiningLen; i > 0; i--) {\r\n            delete joinings[i - 1];\r\n        }\r\n        joinings.length = joinings.length-joiningLen;\r\n        return true;\r\n    }\r\n\r\n    /**\r\n     * @dev Table\r\n     */\r\n    function getTableNum() internal returns (uint) {\r\n        currMaxTbNum++;\r\n        return currMaxTbNum;\r\n    }\r\n\r\n    function reJoinTable() public returns(bool) {\r\n        address playerAddr = msg.sender;\r\n\r\n        uint tableid = Players[msg.sender].tbid;\r\n        require(Tables[tableid].currentStatus == TalbeStatus.NOTSTARTED,\"table\");     // Table\r\n\r\n        for(uint i = 0; i < playerNum; i++) {\r\n            address tmpPlayer = Tables[tableid].players[i];\r\n            doReJoinTable(tmpPlayer);\r\n            \r\n            delete Tables[tableid].players[i];\r\n        }\r\n\r\n        Tables[tableid].players.length = 0;\r\n        delete Tables[tableid];\r\n        return true;\r\n    }\r\n\r\n    // Table\r\n    function doReJoinTable(address playerAddr) private {\r\n        require(PlayerStatus.SEATED == Players[playerAddr].status || PlayerStatus.READY == Players[playerAddr].status);\r\n\r\n        // \r\n        uint amount = Players[playerAddr].amount;\r\n        TokenAbi token = TokenAbi(tokenAddress);\r\n        if(amount < needChips) {\r\n            require(true == token.transferToken(playerAddr, address(this), needChips - amount));\r\n        }\r\n        if(amount > needChips) {\r\n            require(true == token.transferToken(address(this), playerAddr, amount - needChips));\r\n        }\r\n\r\n        Players[playerAddr].amount = needChips;\r\n\r\n        Players[playerAddr].tbid = 0;\r\n        Players[playerAddr].status = PlayerStatus.SITTING;\r\n\r\n        joinings.push(playerAddr);\r\n\r\n        emit JoinSittingQueen(playerAddr, address(this));\r\n\r\n        if(joinings.length >= playerNum) {\r\n            allotTable();\r\n        }\r\n    }\r\n\r\n    // Table\r\n    function leaveTable() public returns(bool) {\r\n        // Table\r\n        //require(!(PlayerStatus.PLAYING == Players[msg.sender].status || PlayerStatus.DISCARD == Players[msg.sender].status),\"playing,leave false\");\r\n\r\n        // \r\n        TokenAbi(tokenAddress).transferToken(address(this), msg.sender, Players[msg.sender].amount);\r\n\r\n        uint tableid = Players[msg.sender].tbid;\r\n        uint pos = Players[msg.sender].seatNum;\r\n        PlayerStatus status = Players[msg.sender].status;\r\n        delete Players[msg.sender];\r\n        emit LeaveTable(address(this), tableid, msg.sender, pos);\r\n\r\n        //  Table \r\n        if(PlayerStatus.SITTING == status) {\r\n            for(uint256 j = 0;j < joinings.length; j++){\r\n                if(joinings[j] == msg.sender){\r\n                    joinings[j] = joinings[joinings.length -1];\r\n                    joinings.length--;\r\n                    break;\r\n                }\r\n            }\r\n            \r\n            return true;\r\n        }\r\n\r\n        for(uint i = 0; i < playerNum; i++) {\r\n            address tmpPlayer = Tables[tableid].players[i];\r\n            if(msg.sender != tmpPlayer) {\r\n                //doReJoinTable(tmpPlayer);\r\n                TokenAbi(tokenAddress).transferToken(address(this),tmpPlayer, Players[tmpPlayer].amount);\r\n                delete Players[tmpPlayer];\r\n            }\r\n            \r\n            delete Tables[tableid].players[i];\r\n        }\r\n\r\n        Tables[tableid].players.length = 0;\r\n        delete Tables[tableid];\r\n        return true;\r\n    }\r\n\r\n    /**\r\n     * @dev \r\n     * @param hand \r\n     */\r\n    function start(uint tableid, uint hand) public returns(bool){\r\n        address playerAddr = msg.sender;\r\n        PlayerInfo memory pInfo = Players[playerAddr];\r\n\r\n        require(tableid == pInfo.tbid, \"table id\");\r\n        require(pInfo.status == PlayerStatus.SEATED, \"\");\r\n        \r\n        \r\n        require(Tables[pInfo.tbid].currentHand == hand, \"\");\r\n        require(Tables[pInfo.tbid].currentStatus == TalbeStatus.NOTSTARTED, \"talbe \");     // Table\r\n\t\t\r\n\t\tuint amount = Players[playerAddr].amount;\r\n        TokenAbi token = TokenAbi(tokenAddress);\r\n\t\t\r\n        if(amount < base * multiple) {\r\n            require(true == token.transferToken(playerAddr, address(this), base*multiple - amount));\r\n\t\t\tPlayers[playerAddr].amount = base * multiple;\r\n        }\r\n\r\n        Players[playerAddr].status = PlayerStatus.READY;\r\n        emit Start(address(this), pInfo.tbid, playerAddr, pInfo.seatNum, hand);\r\n\r\n        for(uint i = 0; i < playerNum; i++) {\r\n            if(PlayerStatus.READY != Players[Tables[tableid].players[i]].status) {\r\n                return true;\r\n            }\r\n        }\r\n        for(i = 0; i < playerNum; i++) {\r\n            Players[Tables[tableid].players[i]].status = PlayerStatus.PLAYING;\r\n        }\r\n        Tables[tableid].currentStatus = TalbeStatus.STARTED;\r\n\t\temit GameStart(address(this), tableid, Tables[tableid].currentHand);\r\n        return true;\r\n    }\r\n\r\n    /**\r\n     * @dev \r\n     * @param sigs      \r\n     * @param msg       \r\n     * @param tableid   TableID\r\n     */\r\n    function verifySigs(bytes sigs, bytes32 msg, uint tableid) internal returns(bool) {\r\n        address[] memory players = Tables[tableid].players;\r\n\r\n        uint i;\r\n        uint j;\r\n\r\n        uint[] memory mark = new uint[](players.length);\r\n        for(i = 0; i < players.length; i++) {\r\n            mark[i] = 0;\r\n        }\r\n\r\n        uint playingNum = 0;\r\n        for(i = 0; i < players.length; i++) {\r\n            if(address(0) == players[i]) {\r\n                continue;\r\n            }\r\n\r\n            if (PlayerStatus.PLAYING == Players[players[i]].status) {\r\n                playingNum++;\r\n                mark[i] = 1;\r\n            }\r\n        }\r\n\r\n        uint sigLen = 65 * playingNum;\r\n        if (sigs.length != sigLen){\r\n            return false;\r\n        }\r\n\r\n        uint8 v;\r\n        bytes32 r;\r\n        bytes32 s;\r\n        for (i = 0; i < playingNum; i++) {\r\n            assembly {\r\n                r := mload(add(sigs, add(32, mul(i, 65))))\r\n                s := mload(add(sigs, add(64, mul(i, 65))))\r\n                v := mload(add(sigs, add(65, mul(i, 65))))\r\n            }\r\n\r\n            if (v < 27) {\r\n                v += 27;\r\n            }\r\n\r\n            address addr = ecrecover(msg, v, r, s);\r\n            // emit SettlePlayer(addr, currentHand);\r\n            for (j = 0; j < players.length; j++) {\r\n                if (players[j] == addr) {\r\n                    mark[j] = 0;\r\n                    break;\r\n                }\r\n            }\r\n        }\r\n\r\n        for(i = 0; i < mark.length; i++) {\r\n            if(1 == mark[i]) {\r\n                return false;\r\n            }\r\n        }\r\n        return true;\r\n    }\r\n\r\n    function resetNotray(uint tableid) internal returns(bool) {\r\n        for(uint i = Norarys[tableid].length; i > 0; i--) {\r\n            delete Norarys[tableid][i - 1].nrAddr;\r\n            delete Norarys[tableid][i - 1].allocate;\r\n\r\n            delete Norarys[tableid][i - 1];\r\n        }\r\n\r\n        Norarys[tableid].length = 0;\r\n        return true;\r\n    }\r\n\r\n    //table\r\n    function reset(uint tableid) internal returns(bool){\r\n        address[] memory players = Tables[tableid].players;\r\n        uint i;\r\n        for(i = 0; i < players.length; i++) {\r\n            Players[players[i]].status = PlayerStatus.SEATED;\r\n        }\r\n\r\n        Tables[tableid].currentStatus = TalbeStatus.NOTSTARTED;\r\n        resetNotray(tableid);\r\n        return true;\r\n    }\r\n    function reshaff(uint hand) public returns(bool ret){\r\n        Players[msg.sender].reshaff = true;\r\n        uint tableid = Players[msg.sender].tbid;\r\n        for(uint i=0;i<Tables[tableid].players.length; i++){\r\n            if(Players[  Tables[tableid].players[i] ].reshaff == false){\r\n                return ret;\r\n            }\r\n        }\r\n        for(i=0;i<Tables[tableid].players.length; i++){\r\n            Players[ Tables[tableid].players[i] ].reshaff = false; \r\n        }\r\n        emit ReShaff(tableid,hand);\r\n        return true;\r\n    }\r\n    /**\r\n     * @dev \r\n     * @param sigs  \r\n     * @param data  \r\n     */\r\n    function settle(uint src, bytes sigs, bytes data) internal returns(bool) {\r\n        RLP.RLPItem memory bal = data.toRLPItem();\r\n        require(bal.isList(),\"rlp data error\");\r\n        RLP.RLPItem[] memory settledata = bal.toList();\r\n        require(settledata.length == 4,\"rlp data length error\");\r\n\r\n        require(address(this) == rlpToAddress(settledata[0]),\"game contract address error\");\r\n\r\n        uint tableid = settledata[1].toUint();\r\n        require(uint(settledata[2].toUint()) == Tables[tableid].currentHand,\"table hand error\");\r\n\r\n        if(uint(Data_Src.PLAYER) == src) {\r\n            // \r\n            bytes32 msg = keccak256(data);\r\n\t\t    require(verifySigs(sigs, msg, tableid),\"play sign error\");\r\n        }\r\n        \r\n        if(uint(Data_Src.NORTARY) == src) {\r\n            // uint tableid = 20181001;\r\n            // Inter(interManage).reApplyForInters(tableid);\r\n        }\r\n\r\n        require(settledata[3].isList(),\"rlp data input error\");\r\n\r\n\r\n        RLP.RLPItem[] memory itemDatas = settledata[3].toList();\r\n\r\n        address[] memory players = Tables[tableid].players;\r\n\r\n        // \r\n        uint i;\r\n        uint add;\r\n        uint sub;\r\n        for(i = 0; i < itemDatas.length; i++) {\r\n            require(itemDatas[i].isList(),\"item data error\");\r\n            RLP.RLPItem[] memory item = itemDatas[i].toList();\r\n            require(item.length == 3,\"item length error\");\r\n\r\n            address playerAddr = players[item[0].toUint()];\r\n            \r\n            if(1 == item[1].toUint()) {\r\n                Players[playerAddr].amount = Players[playerAddr].amount.add(item[2].toUint());\r\n                add = add.add(item[2].toUint());\r\n            } else {\r\n                Players[playerAddr].amount = Players[playerAddr].amount.sub(item[2].toUint());\r\n                sub = sub.add(item[2].toUint());\r\n            }\r\n        }\r\n        require(add == sub,\"add != sub\");\r\n        emit Settle(Tables[tableid].currentHand,playerNum,tableid);\r\n        reset(tableid);\r\n        //Notary(notaryManage).reNotarize(tableid);\r\n        Tables[tableid].currentHand++;\r\n        return true;\r\n    }\r\n\r\n    /**\r\n     * @dev \r\n\r\n     * @param data  \r\n     */\r\n    function playerSettle(bytes data) public returns(bool){\r\n        uint i;\r\n        uint playingNum = 0;\r\n        address[] memory players =  Tables[Players[msg.sender].tbid].players;\r\n        for(i = 0; i < players.length; i++) {\r\n            if (PlayerStatus.PLAYING == Players[players[i]].status) {\r\n                playingNum++;             \r\n            }\r\n        }\r\n        uint sigLen = 65 * playingNum;\r\n        require(data.length > sigLen,\"data length error\");\r\n    \r\n        bytes memory balData = new bytes(data.length - sigLen);\r\n        bytes memory sigs = new bytes( sigLen);\r\n        for(i = sigLen; i < data.length; i++) {\r\n            balData[i - sigLen] = data[i];\r\n        }\r\n        for(i = 0; i < sigLen; i++) {\r\n            sigs[i] = data[i];\r\n        }\r\n        return settle(uint(Data_Src.PLAYER), sigs, balData);\r\n    }\r\n\r\n    /**\r\n     * @dev \r\n     * @param data \r\n     */\r\n    function submitNotary(bytes data) public returns(bool){\r\n        emit SubmmitSettleData(msg.sender, data.length, data);\r\n        var dhash = keccak256(data);\r\n        address nrAddr = msg.sender;\r\n        // uint tableid = 20181001;\r\n\r\n        RLP.RLPItem memory bal = data.toRLPItem();\r\n        require(bal.isList(),\"rlp data err\");\r\n        RLP.RLPItem[] memory settledata = bal.toList();\r\n\r\n        require(settledata.length == 4,\"rlp data length error\");\r\n\r\n        require(address(this) == rlpToAddress(settledata[0]),\"address error\");\r\n  \r\n\r\n        uint tableid = settledata[1].toUint();\r\n        require(uint(settledata[2].toUint()) == Tables[tableid].currentHand,\"currnet Hand error\"); \r\n\r\n        address[] memory notarys = NotaryAbi(notaryManage).getNotaryList(address(this), tableid);\r\n        require (notarys.length > 0,\"notarys error\");\r\n\r\n        uint i;\r\n        bool flg = false;\r\n        for(i = 0; i < notarys.length; i++) {\r\n            // \r\n            if(nrAddr == notarys[i]) {\r\n                flg = true;\r\n                break;\r\n            }\r\n        }\r\n\r\n        require(flg,\"notary error\");\r\n\r\n        for(i = 0; i < Norarys[tableid].length; i++) {\r\n            if(Norarys[tableid][i].nrAddr == nrAddr) {\r\n                // \r\n                delete Norarys[tableid][i].allocate;\r\n                Norarys[tableid][i].allocate = dhash;\r\n                return true;\r\n            }\r\n        }\r\n\r\n        Norarys[tableid].push(NotaryInfo(nrAddr, dhash));\r\n        if(notarys.length == Norarys[tableid].length) {\r\n            doNotarize(tableid,data);\r\n        }\r\n        return true;\r\n    }\r\n\r\n    function doNotarize(uint tableid,bytes data) internal returns(bool) {\r\n        address[] memory notarys = NotaryAbi(notaryManage).getNotaryList(address(this), tableid);\r\n \trequire(notarys.length > 0,\"notary not exist\");\r\n\r\n        uint lenNrInfo = Norarys[tableid].length;\r\n        require(lenNrInfo>0,\"notary not fond\");\r\n\r\n        uint i;\r\n        bytes32  firstNrInfo = Norarys[tableid][0].allocate;\r\n        for(i = 1; i < lenNrInfo; i++) {\r\n            if(Norarys[tableid][i].allocate != firstNrInfo) {\r\n                // \r\n                //emit SettleError(address(this), tableid, uint(Data_Src.NORTARY), uint(ErrorCode_Settle.DATA_INCONSISTENCY));\r\n                NotaryAbi(notaryManage).reNotarize(tableid);\r\n                return true;\r\n            }\r\n        }\r\n\r\n        settle(uint(Data_Src.NORTARY), new bytes(0), data);\r\n        emit FinishNotary(tableid,Tables[tableid].currentHand);\r\n    }\r\n\r\n    /**\r\n     * @dev bytes\r\n     */\r\n    // function compare(bytes one, bytes other) internal returns (int) {\r\n    //     if(one.length != other.length) {\r\n    //         return 1;\r\n    //     }\r\n\r\n    //     for(uint i = 0; i < one.length; i++) {\r\n    //         if(one[i] != other[i]) {\r\n    //             return 1;\r\n    //         }\r\n    //     }\r\n\r\n    //     return 0;\r\n    // }\r\n\r\n    /**\r\n     * @dev \r\n     * @param tableid table\r\n     */\r\n    function getSubNotorys(uint tableid) public view returns(address[] addrs) {\r\n        addrs = new address[](Norarys[tableid].length);\r\n        for(uint i = Norarys[tableid].length; i > 0; i--) {\r\n            addrs[i - 1] = Norarys[tableid][i - 1].nrAddr;\r\n        }\r\n    }\r\n\r\n    function resetNotoryInfo(uint tableid) public {\r\n        require(msg.sender == notaryManage);\r\n        resetNotray(tableid);\r\n    }\r\n    function rlpToAddress(RLP.RLPItem item) internal returns(address addr){\r\n\r\n        if (item.toBytes().length==21) {\r\n            addr = item.toAddress();\r\n            return addr;\r\n        } \r\n        \r\n        string memory strAddr = item.toAscii();\r\n        bytes memory bAddr = bytes(strAddr);\r\n\r\n        uint iAdd = 0;\r\n        uint tmp = 0;\r\n        for(uint i = bAddr.length-40; i < bAddr.length; i++) {\r\n            tmp = 0;\r\n            if (bAddr[i] >= byte('0') && bAddr[i] <= byte('9')) {\r\n                tmp = uint(bAddr[i]) - uint(byte('0'));\r\n            }\r\n\r\n            if (bAddr[i] >= byte('a') && bAddr[i] <= byte('f')) {\r\n                tmp = 10 + uint(bAddr[i]) - uint(byte('a'));\r\n            }\r\n\r\n            if (bAddr[i] >= byte('A') && bAddr[i] <= byte('F')) {\r\n                tmp = 10 + uint(bAddr[i]) - uint(byte('A'));\r\n            }\r\n\r\n            iAdd = iAdd << 4 | tmp;\r\n        }\r\n\r\n        return address(iAdd);\r\n    }\r\n    \r\n    function applyNotarize(uint number) public returns(bool) {\r\n        uint tableid = Players[msg.sender].tbid;\r\n        require(tableid > 0,\"table not exist\");\r\n\r\n\r\n        require(PlayerStatus.PLAYING == Players[msg.sender].status,\"table not playing\");   // \r\n\r\n        NotaryAbi(notaryManage).applyNotorys(tableid, msg.sender, number);\r\n        return true;\r\n    }\r\n \r\n    /**\r\n     * @dev table\r\n     */\r\n    function finishNotarize(uint tableid) public returns(bool) {\r\n\r\n        if(tableid == 0){return false;}\r\n\r\n        NotaryAbi nr = NotaryAbi(notaryManage);\r\n        nr.finishNotarize(tableid);\r\n\r\n        return true;\r\n    }\r\n}",
  "sourcePath": "E:\\Code\\src\\coding.xbonline.net\\blockchain\\gameContract\\contracts\\CroomManager.sol",
  "compiler": {
    "name": "solc",
    "version": "0.4.24+commit.e67f0147.Emscripten.clang"
  },
  "schemaVersion": "2.0.1",
  "updatedAt": "2019-04-29T03:57:14.438Z"
}