{
  "contractName": "LibContract",
  "abi": [
    {
      "inputs": [],
      "payable": false,
      "stateMutability": "nonpayable",
      "type": "constructor"
    },
    {
      "constant": false,
      "inputs": [
        {
          "name": "addr",
          "type": "address"
        }
      ],
      "name": "_setauthority",
      "outputs": [],
      "payable": false,
      "stateMutability": "nonpayable",
      "type": "function"
    },
    {
      "constant": false,
      "inputs": [
        {
          "name": "name",
          "type": "string"
        },
        {
          "name": "addr",
          "type": "address"
        }
      ],
      "name": "_setContract",
      "outputs": [],
      "payable": false,
      "stateMutability": "nonpayable",
      "type": "function"
    },
    {
      "constant": false,
      "inputs": [
        {
          "name": "name",
          "type": "string"
        }
      ],
      "name": "_getContract",
      "outputs": [
        {
          "name": "",
          "type": "address"
        }
      ],
      "payable": false,
      "stateMutability": "nonpayable",
      "type": "function"
    },
    {
      "constant": false,
      "inputs": [],
      "name": "_setPayer",
      "outputs": [],
      "payable": false,
      "stateMutability": "nonpayable",
      "type": "function"
    },
    {
      "constant": false,
      "inputs": [
        {
          "name": "price",
          "type": "uint256"
        },
        {
          "name": "gaslimit",
          "type": "uint64"
        }
      ],
      "name": "_setGas",
      "outputs": [],
      "payable": false,
      "stateMutability": "nonpayable",
      "type": "function"
    },
    {
      "constant": false,
      "inputs": [
        {
          "name": "addr",
          "type": "address"
        }
      ],
      "name": "_grant",
      "outputs": [],
      "payable": false,
      "stateMutability": "nonpayable",
      "type": "function"
    },
    {
      "constant": false,
      "inputs": [
        {
          "name": "addr",
          "type": "address"
        }
      ],
      "name": "_revoke",
      "outputs": [],
      "payable": false,
      "stateMutability": "nonpayable",
      "type": "function"
    }
  ],
  "bytecode": "0x608060405234801561001057600080fd5b5060008054600160a060020a0319908116731000000000000000000000000000000000000003179091556002805490911673100000000000000000000000000000000000000117905561067f806100686000396000f3006080604052600436106100825763ffffffff7c010000000000000000000000000000000000000000000000000000000060003504166339031bd481146100875780634ce401ac1461009e5780635d8aa11c1461010257806397b25f4b146101235780639e834d4014610148578063b37e48e314610169578063d24088cf146101de575b600080fd5b34801561009357600080fd5b5061009c6101ff565b005b3480156100aa57600080fd5b506040805160206004803580820135601f810184900484028501840190955284845261009c94369492936024939284019190819084018382808284375094975050509235600160a060020a0316935061028592505050565b34801561010e57600080fd5b5061009c600160a060020a0360043516610374565b34801561012f57600080fd5b5061009c60043567ffffffffffffffff602435166103f6565b34801561015457600080fd5b5061009c600160a060020a036004351661046c565b34801561017557600080fd5b506040805160206004803580820135601f81018490048402850184019095528484526101c29436949293602493928401919081908401838280828437509497506104f59650505050505050565b60408051600160a060020a039092168252519081900360200190f35b3480156101ea57600080fd5b5061009c600160a060020a03600435166105ec565b600160009054906101000a9004600160a060020a0316600160a060020a0316636db05a776040518163ffffffff167c0100000000000000000000000000000000000000000000000000000000028152600401600060405180830381600087803b15801561026b57600080fd5b505af115801561027f573d6000803e3d6000fd5b50505050565b60008054604080517fa815ff15000000000000000000000000000000000000000000000000000000008152600160a060020a0385811660248301526004820192835286516044830152865193169363a815ff1593879387939092839260649092019160208701918190849084905b8381101561030b5781810151838201526020016102f3565b50505050905090810190601f1680156103385780820380516001836020036101000a031916815260200191505b509350505050600060405180830381600087803b15801561035857600080fd5b505af115801561036c573d6000803e3d6000fd5b505050505050565b600154604080517f70284d19000000000000000000000000000000000000000000000000000000008152600160a060020a038481166004830152915191909216916370284d1991602480830192600092919082900301818387803b1580156103db57600080fd5b505af11580156103ef573d6000803e3d6000fd5b5050505050565b600154604080517f6510e2960000000000000000000000000000000000000000000000000000000081526004810185905267ffffffffffffffff841660248201529051600160a060020a0390921691636510e2969160448082019260009290919082900301818387803b15801561035857600080fd5b6001805473ffffffffffffffffffffffffffffffffffffffff1916600160a060020a03838116918217909255600254604080517f56598f560000000000000000000000000000000000000000000000000000000081526004810193909352519216916356598f569160248082019260009290919082900301818387803b1580156103db57600080fd5b600080546040517f693ec85e000000000000000000000000000000000000000000000000000000008152602060048201818152855160248401528551600160a060020a039094169363693ec85e9387938392604490920191908501908083838b5b8381101561056e578181015183820152602001610556565b50505050905090810190601f16801561059b5780820380516001836020036101000a031916815260200191505b5092505050602060405180830381600087803b1580156105ba57600080fd5b505af11580156105ce573d6000803e3d6000fd5b505050506040513d60208110156105e457600080fd5b509092915050565b600154604080517f74a8f103000000000000000000000000000000000000000000000000000000008152600160a060020a038481166004830152915191909216916374a8f10391602480830192600092919082900301818387803b1580156103db57600080fd00a165627a7a72305820ba231a58a52c04d68a035e61200823f2ab2341167742e30ce935f31384e383b90029",
  "source": "pragma solidity ^0.4.24;\r\n\r\ncontract register{\r\n    //注册合约\r\n    function set(string _name ,address _contract)public ;\r\n    //获取合约\r\n    function get(string _name)public view returns (address);\r\n\r\n}\r\ncontract SysAuthority{\r\n    //合约设置自己付费\r\n    function setPayer() public;\r\n\r\n    //设置合约gasPrice,gasLimit;\r\n    function setGas(uint256 price, uint64 gaslimit) public;\r\n\r\n    //设置合约白名单用户\r\n    function grant(address addr)public;\r\n\r\n    //移除用户地址白名单\r\n    function revoke(address addr) public;\r\n\r\n\r\n}\r\n\r\ncontract AuthIndex{\r\n    //设置合约的权限控制合约地址\r\n    function setAuthContractAddr(address add) public;\r\n    //获取合约的权限控制合约地址\r\n    function getAuthContractAddr(address add) public view returns(address); \r\n}\r\n\r\n\r\ncontract LibContract {\r\n    register rm;\r\n    SysAuthority auth;\r\n    AuthIndex aindex;\r\n    function LibContract(){\r\n        rm = register(0x1000000000000000000000000000000000000003);\r\n\t    aindex = AuthIndex(0x1000000000000000000000000000000000000001);\r\n    }\r\n\r\n    function _setauthority(address addr)public{\r\n        auth = SysAuthority(addr);\r\n        aindex.setAuthContractAddr(addr);\r\n    }\r\n\r\n    function _setContract(string name ,address addr){\r\n        rm.set(name,addr);\r\n    }\r\n    function _getContract(string name) returns(address){\r\n        rm.get(name);\r\n    }\r\n\r\n    //合约设置自己付费\r\n    function _setPayer() public{\r\n        auth.setPayer();\r\n    }\r\n       \r\n    //设置合约gasPrice,gasLimit;\r\n    function _setGas(uint256 price, uint64 gaslimit) public{\r\n        auth.setGas(price,gaslimit);\r\n    }\r\n\r\n\r\n    //设置合约白名单用户\r\n    function _grant(address addr)public{\r\n        auth.grant(addr);\r\n    }\r\n\r\n    //移除用户地址白名单\r\n    function _revoke(address addr) public{\r\n        auth.revoke(addr);\r\n    }\r\n\r\n}",
  "sourcePath": "E:\\Code\\src\\coding.xbonline.net\\blockchain\\gameContract\\contracts\\LibContract.sol",
  "compiler": {
    "name": "solc",
    "version": "0.4.24+commit.e67f0147.Emscripten.clang"
  },
  "schemaVersion": "2.0.1",
  "updatedAt": "2019-04-29T03:56:40.460Z"
}