{
  "contractName": "StringLib",
  "abi": [
    {
      "constant": true,
      "inputs": [
        {
          "name": "_a",
          "type": "string"
        },
        {
          "name": "_b",
          "type": "string"
        }
      ],
      "name": "concat",
      "outputs": [
        {
          "name": "",
          "type": "string"
        }
      ],
      "payable": false,
      "stateMutability": "view",
      "type": "function"
    },
    {
      "constant": true,
      "inputs": [
        {
          "name": "_a",
          "type": "string"
        },
        {
          "name": "_b",
          "type": "string"
        }
      ],
      "name": "concatenate",
      "outputs": [
        {
          "name": "",
          "type": "string"
        }
      ],
      "payable": false,
      "stateMutability": "view",
      "type": "function"
    },
    {
      "constant": true,
      "inputs": [
        {
          "name": "_a",
          "type": "string"
        },
        {
          "name": "_b",
          "type": "string"
        }
      ],
      "name": "compare",
      "outputs": [
        {
          "name": "",
          "type": "int256"
        }
      ],
      "payable": false,
      "stateMutability": "view",
      "type": "function"
    },
    {
      "constant": true,
      "inputs": [
        {
          "name": "_a",
          "type": "string"
        },
        {
          "name": "_b",
          "type": "string"
        }
      ],
      "name": "equal",
      "outputs": [
        {
          "name": "",
          "type": "bool"
        }
      ],
      "payable": false,
      "stateMutability": "view",
      "type": "function"
    },
    {
      "constant": true,
      "inputs": [
        {
          "name": "self",
          "type": "string"
        },
        {
          "name": "from",
          "type": "uint256"
        },
        {
          "name": "to",
          "type": "uint256"
        }
      ],
      "name": "substring",
      "outputs": [
        {
          "name": "",
          "type": "string"
        }
      ],
      "payable": false,
      "stateMutability": "view",
      "type": "function"
    },
    {
      "constant": true,
      "inputs": [
        {
          "name": "self",
          "type": "string"
        },
        {
          "name": "_search",
          "type": "string"
        }
      ],
      "name": "startWith",
      "outputs": [
        {
          "name": "",
          "type": "bool"
        }
      ],
      "payable": false,
      "stateMutability": "view",
      "type": "function"
    },
    {
      "constant": false,
      "inputs": [
        {
          "name": "x",
          "type": "address"
        }
      ],
      "name": "addrToString",
      "outputs": [
        {
          "name": "",
          "type": "string"
        }
      ],
      "payable": false,
      "stateMutability": "nonpayable",
      "type": "function"
    },
    {
      "constant": true,
      "inputs": [],
      "name": "testStringBuffer",
      "outputs": [
        {
          "name": "",
          "type": "string"
        }
      ],
      "payable": false,
      "stateMutability": "view",
      "type": "function"
    },
    {
      "constant": true,
      "inputs": [],
      "name": "testConcat",
      "outputs": [
        {
          "name": "",
          "type": "string"
        }
      ],
      "payable": false,
      "stateMutability": "view",
      "type": "function"
    }
  ],
  "bytecode": "0x610b36610030600b82828239805160001a6073146000811461002057610022565bfe5b5030600052607381538281f30073000000000000000000000000000000000000000030146080604052600436106100af5763ffffffff7c01000000000000000000000000000000000000000000000000000000006000350416631dcd9b5581146100b457806321b55c421461017e578063266001d3146101865780633a96fdd71461021057806346bdca9a146102ac578063687cb7391461034a57806389c19ddb14610186578063b7d534a1146103d4578063d49a24bf14610402575b600080fd5b6040805160206004803580820135601f810184900484028501840190955284845261010994369492936024939284019190819084018382808284375094975050843595505050602090920135915061040a9050565b6040805160208082528351818301528351919283929083019185019080838360005b8381101561014357818101518382015260200161012b565b50505050905090810190601f1680156101705780820380516001836020036101000a031916815260200191505b509250505060405180910390f35b61010961041f565b6040805160206004803580820135601f810184900484028501840190955284845261010994369492936024939284019190819084018382808284375050604080516020601f89358b018035918201839004830284018301909452808352979a99988101979196509182019450925082915084018382808284375094975061047c9650505050505050565b6040805160206004803580820135601f810184900484028501840190955284845261029a94369492936024939284019190819084018382808284375050604080516020601f89358b018035918201839004830284018301909452808352979a99988101979196509182019450925082915084018382808284375094975061048f9650505050505050565b60408051918252519081900360200190f35b6040805160206004803580820135601f810184900484028501840190955284845261033694369492936024939284019190819084018382808284375050604080516020601f89358b018035918201839004830284018301909452808352979a99988101979196509182019450925082915084018382808284375094975061049b9650505050505050565b604080519115158252519081900360200190f35b6040805160206004803580820135601f810184900484028501840190955284845261033694369492936024939284019190819084018382808284375050604080516020601f89358b018035918201839004830284018301909452808352979a9998810197919650918201945092508291508401838280828437509497506104a79650505050505050565b8180156103e057600080fd5b5061010973ffffffffffffffffffffffffffffffffffffffff600435166104b3565b61010961054f565b60606104178484846105f3565b949350505050565b60408051808201909152600681527f68656c6c6f2c0000000000000000000000000000000000000000000000000000602082015260609060005b60c88110156104765761046c828361047c565b9150600101610459565b50919050565b6060610488838361060a565b9392505050565b60006104888383610718565b60006104888383610847565b6000610488838361085b565b60408051601480825281830190925260609182916000916020820161028080388339019050509150600090505b6014811015610548578060130360080260020a8473ffffffffffffffffffffffffffffffffffffffff1681151561051357fe5b0460f860020a02828281518110151561052857fe5b906020010190600160f860020a031916908160001a9053506001016104e0565b5092915050565b6060610559610ae8565b6060600060606040519081016040528060008152602001600081526020016000815250925061058a8361271061094e565b505060408051808201909152600681527f68656c6c6f2c00000000000000000000000000000000000000000000000000006020820152905060005b6101908110156105e2576105d98383610971565b506001016105c5565b6105eb836109ab565b935050505090565b6060836106018185856109fe565b95945050505050565b60608060608060008087945086935083518551016040519080825280601f01601f19166020018201604052801561064b578160200160208202803883390190505b509250600091505b84518210156106ae57848281518110151561066a57fe5b90602001015160f860020a900460f860020a02838381518110151561068b57fe5b906020010190600160f860020a031916908160001a905350600190910190610653565b5060005b835181101561070c5783818151811015156106c957fe5b90602001015160f860020a900460f860020a02838284018151811015156106ec57fe5b906020010190600160f860020a031916908160001a9053506001016106b2565b50909695505050505050565b815181516000918491849190849082111561073257825191505b5060005b8181101561081157828181518110151561074c57fe5b90602001015160f860020a900460f860020a02600160f860020a031916848281518110151561077757fe5b90602001015160f860020a900460f860020a02600160f860020a03191610156107a457600019945061083d565b82818151811015156107b257fe5b90602001015160f860020a900460f860020a02600160f860020a03191684828151811015156107dd57fe5b90602001015160f860020a900460f860020a02600160f860020a0319161115610809576001945061083d565b600101610736565b82518451101561082557600019945061083d565b825184511115610838576001945061083d565b600094505b5050505092915050565b60006108538383610718565b159392505050565b815181516000918491849160609111156108785760009350610945565b610885866000845161040a565b9050846040518082805190602001908083835b602083106108b75780518252601f199092019160209182019101610898565b51815160209384036101000a6000190180199092169116179052604051919093018190038120865190955086945090928392508401908083835b602083106109105780518252601f1990920191602091820191016108f1565b6001836020036101000a0380198251168184511680821785525050505050509050019150506040518091039020600019161493505b50505092915050565b610956610ae8565b50604080518281018252602084015290825260009082015290565b610979610ae8565b81516040840151602085810151908501929161099791018383610aa4565b604085018051919091019052509192915050565b606080600083604001516040519080825280601f01601f1916602001820160405280156109e2578160200160208202803883390190505b5091506020820190506105488185602001518660400151610aa4565b60606000606060008585039250826040519080825280601f01601f191660200182016040528015610a39578160200160208202803883390190505b509150600090505b82811015610a9a5786868201815181101515610a5957fe5b90602001015160f860020a900460f860020a028282815181101515610a7a57fe5b906020010190600160f860020a031916908160001a905350600101610a41565b5095945050505050565b60005b60208210610ac9578251845260209384019390920191601f1990910190610aa7565b50905182516020929092036101000a6000190180199091169116179052565b60606040519081016040528060008152602001600081526020016000815250905600a165627a7a72305820a5b595d02dbe2ab120e10185831b0853ced4b6101f46077b97051cae5d38b37a0029",
  "source": "library StringLib{\r\n\r\n    function _concatenate(string _a,string _b) constant internal returns (string ){\r\n        bytes memory a = bytes(_a);\r\n        bytes memory b = bytes(_b);\r\n        bytes memory c = new bytes(a.length+b.length);\r\n        uint i;\r\n        for(i=0;i<a.length;i++){\r\n          c[i] = a[i];\r\n        }\r\n        for(uint j=0;j<b.length;j++){\r\n          c[i+j] = b[j];\r\n        }\r\n        return string(c);\r\n    }\r\n\r\n    function _concat(string _a,string _b) constant internal returns (string ){\r\n        return _concatenate(_a,_b);\r\n    }\r\n\r\n    function concat(string _a,string _b) constant returns (string ){\r\n        return _concatenate(_a,_b);\r\n    }\r\n\r\n\r\n    function concatenate(string _a,string _b) constant public returns (string ){\r\n        return _concatenate(_a,_b);\r\n    }\r\n\r\n    function _compare(string _a, string _b) constant internal returns (int) {\r\n        bytes memory a = bytes(_a);\r\n        bytes memory b = bytes(_b);\r\n        uint minLength = a.length;\r\n        if (b.length < minLength) minLength = b.length;\r\n        //@todo unroll the loop into increments of 32 and do full 32 byte comparisons\r\n        for (uint i = 0; i < minLength; i ++)\r\n            if (a[i] < b[i])\r\n                return -1;\r\n            else if (a[i] > b[i])\r\n                return 1;\r\n        if (a.length < b.length)\r\n            return -1;\r\n        else if (a.length > b.length)\r\n            return 1;\r\n        else\r\n            return 0;\r\n    }\r\n\r\n\r\n    function compare(string _a, string _b) constant returns (int) {\r\n        return _compare(_a,_b);\r\n    }\r\n\r\n    function _equal(string _a,string _b) constant internal returns (bool){\r\n        return _compare(_a, _b) == 0;\r\n    }\r\n\r\n    function equal(string _a,string _b) constant returns (bool){\r\n        return _equal(_a, _b);\r\n    }\r\n\r\n\r\n    function substring(string self,uint from,uint to) constant returns(string){\r\n        return _substring(self,from,to);\r\n    }\r\n\r\n    function _substring(string self,uint from,uint to) constant internal returns(string){\r\n        bytes memory data = bytes(self);\r\n        return _substring(data,from,to);\r\n    }\r\n\r\n    function _substring(bytes self,uint from,uint to) constant internal returns(string){\r\n        uint  size = to - from;\r\n        bytes memory sub_str = new bytes(size);\r\n        for(uint i=0;i<size;i++){\r\n            sub_str[i] = self[i+from];\r\n        }\r\n        return string(sub_str);\r\n    }\r\n\r\n    function _startWith(string self,string _search) constant internal returns(bool){\r\n        bytes memory data = bytes(self);\r\n        bytes memory search_data = bytes(_search);\r\n        if(search_data.length>data.length){\r\n            return false;\r\n        }\r\n        string memory sub_data = substring(self,0,search_data.length);\r\n        return sha3(sub_data) == sha3(_search);\r\n    }\r\n\r\n    function startWith(string self,string _search) constant returns(bool){\r\n       return _startWith(self,_search);\r\n    }\r\n    \r\n    function memcpy(uint dest, uint src, uint len) private {\r\n        // Copy word-length chunks while possible\r\n        for(; len >= 32; len -= 32) {\r\n            assembly {\r\n                mstore(dest, mload(src))\r\n            }\r\n            dest += 32;\r\n            src += 32;\r\n        }\r\n\r\n        // Copy remaining bytes\r\n        uint mask = 256 ** (32 - len) - 1;\r\n        assembly {\r\n            let srcpart := and(mload(src), not(mask))\r\n            let destpart := and(mload(dest), mask)\r\n            mstore(dest, or(destpart, srcpart))\r\n        }\r\n    }\r\n\r\n    struct StringBuffer{\r\n        uint _buffLen;\r\n        uint _ptr;\r\n        uint _len;\r\n    }\r\n\r\n    function _malloc(StringBuffer self,uint _buffLen) constant internal returns(StringBuffer){\r\n        uint _ptr;\r\n        assembly{\r\n            _ptr:= mload(0x40)\r\n            mstore(0x40,add(_ptr,_buffLen))\r\n        }\r\n        self._ptr = _ptr;\r\n        self._buffLen = _buffLen;\r\n        self._len = 0;\r\n        return self;\r\n    }\r\n\r\n    function _append(StringBuffer self,string _data) constant internal returns(StringBuffer){\r\n        uint data_ptr;\r\n        assembly {\r\n            data_ptr := add(_data, 0x20)\r\n        }\r\n        uint data_len = bytes(_data).length;\r\n        memcpy(self._ptr+self._len,data_ptr,data_len);\r\n        self._len += data_len;\r\n        return self;\r\n    }\r\n\r\n    function _toString(StringBuffer self) constant internal returns(string){\r\n        var ret = new string(self._len);\r\n        uint retptr;\r\n        assembly { retptr := add(ret, 32) }\r\n        memcpy(retptr, self._ptr, self._len);\r\n        return ret;\r\n    }\r\n\r\n    function addrToString(address x) returns (string) {\r\n        bytes memory b = new bytes(20);\r\n        for (uint i = 0; i < 20; i++)\r\n            b[i] = byte(uint8(uint(x) / (2**(8*(19 - i)))));\r\n        return string(b);\r\n    }\r\n\r\n    function testStringBuffer() constant returns(string ){\r\n        var buffer = StringBuffer(0,0,0);\r\n        _malloc(buffer,10000);\r\n        string memory s = \"hello,\";\r\n        for(uint i=0;i<400;i++){\r\n            _append(buffer,s);\r\n        }\r\n        return _toString(buffer);\r\n    }\r\n\r\n    function testConcat() constant returns(string){\r\n        string memory s = \"hello,\";\r\n        for(uint i=0;i<200;i++){\r\n            s = _concat(s,s);\r\n        }\r\n        return s;\r\n    }\r\n\r\n}",
  "sourcePath": "E:\\Code\\src\\coding.xbonline.net\\blockchain\\gameContract\\contracts\\StringLib.sol",
  "compiler": {
    "name": "solc",
    "version": "0.4.24+commit.e67f0147.Emscripten.clang"
  },
  "schemaVersion": "2.0.1",
  "updatedAt": "2019-03-26T07:00:49.231Z"
}