{
  "contractName": "Table",
  "abi": [
    {
      "constant": true,
      "inputs": [],
      "name": "active",
      "outputs": [
        {
          "name": "",
          "type": "bool"
        }
      ],
      "payable": false,
      "stateMutability": "view",
      "type": "function"
    },
    {
      "constant": true,
      "inputs": [
        {
          "name": "",
          "type": "uint256"
        }
      ],
      "name": "seats",
      "outputs": [
        {
          "name": "senderAddr",
          "type": "address"
        },
        {
          "name": "amount",
          "type": "uint256"
        },
        {
          "name": "signerAddr",
          "type": "address"
        },
        {
          "name": "exitHand",
          "type": "uint256"
        }
      ],
      "payable": false,
      "stateMutability": "view",
      "type": "function"
    },
    {
      "constant": true,
      "inputs": [],
      "name": "lastNettingRequestTime",
      "outputs": [
        {
          "name": "",
          "type": "uint256"
        }
      ],
      "payable": false,
      "stateMutability": "view",
      "type": "function"
    },
    {
      "constant": true,
      "inputs": [],
      "name": "lastHandNetted",
      "outputs": [
        {
          "name": "",
          "type": "uint32"
        }
      ],
      "payable": false,
      "stateMutability": "view",
      "type": "function"
    },
    {
      "constant": true,
      "inputs": [],
      "name": "tokenAddr",
      "outputs": [
        {
          "name": "",
          "type": "address"
        }
      ],
      "payable": false,
      "stateMutability": "view",
      "type": "function"
    },
    {
      "constant": true,
      "inputs": [],
      "name": "oracle",
      "outputs": [
        {
          "name": "",
          "type": "address"
        }
      ],
      "payable": false,
      "stateMutability": "view",
      "type": "function"
    },
    {
      "constant": true,
      "inputs": [
        {
          "name": "",
          "type": "uint256"
        }
      ],
      "name": "hands",
      "outputs": [
        {
          "name": "claimCount",
          "type": "uint256"
        }
      ],
      "payable": false,
      "stateMutability": "view",
      "type": "function"
    },
    {
      "constant": true,
      "inputs": [
        {
          "name": "",
          "type": "uint256"
        }
      ],
      "name": "blindStructure",
      "outputs": [
        {
          "name": "",
          "type": "uint16"
        }
      ],
      "payable": false,
      "stateMutability": "view",
      "type": "function"
    },
    {
      "constant": true,
      "inputs": [],
      "name": "lastNettingRequestHandId",
      "outputs": [
        {
          "name": "",
          "type": "uint32"
        }
      ],
      "payable": false,
      "stateMutability": "view",
      "type": "function"
    },
    {
      "constant": true,
      "inputs": [],
      "name": "blindLevelDuration",
      "outputs": [
        {
          "name": "",
          "type": "uint256"
        }
      ],
      "payable": false,
      "stateMutability": "view",
      "type": "function"
    },
    {
      "inputs": [
        {
          "name": "_token",
          "type": "address"
        },
        {
          "name": "_oracle",
          "type": "address"
        },
        {
          "name": "_seats",
          "type": "uint256"
        },
        {
          "name": "_disputeTime",
          "type": "uint256"
        },
        {
          "name": "_blindStructure",
          "type": "uint16[]"
        },
        {
          "name": "_blindLevelDuration",
          "type": "uint256"
        }
      ],
      "payable": false,
      "stateMutability": "nonpayable",
      "type": "constructor"
    },
    {
      "anonymous": false,
      "inputs": [
        {
          "indexed": true,
          "name": "addr",
          "type": "address"
        },
        {
          "indexed": false,
          "name": "amount",
          "type": "uint256"
        }
      ],
      "name": "Join",
      "type": "event"
    },
    {
      "anonymous": false,
      "inputs": [
        {
          "indexed": false,
          "name": "hand",
          "type": "uint256"
        }
      ],
      "name": "NettingRequest",
      "type": "event"
    },
    {
      "anonymous": false,
      "inputs": [
        {
          "indexed": false,
          "name": "hand",
          "type": "uint256"
        }
      ],
      "name": "Netted",
      "type": "event"
    },
    {
      "anonymous": false,
      "inputs": [
        {
          "indexed": false,
          "name": "addr",
          "type": "address"
        }
      ],
      "name": "Leave",
      "type": "event"
    },
    {
      "constant": true,
      "inputs": [
        {
          "name": "secsFromStart",
          "type": "uint256"
        }
      ],
      "name": "blindLevel",
      "outputs": [
        {
          "name": "",
          "type": "uint256"
        }
      ],
      "payable": false,
      "stateMutability": "view",
      "type": "function"
    },
    {
      "constant": true,
      "inputs": [
        {
          "name": "secsFromStart",
          "type": "uint256"
        }
      ],
      "name": "smallBlind",
      "outputs": [
        {
          "name": "",
          "type": "uint256"
        }
      ],
      "payable": false,
      "stateMutability": "view",
      "type": "function"
    },
    {
      "constant": true,
      "inputs": [],
      "name": "getLineup",
      "outputs": [
        {
          "name": "",
          "type": "uint256"
        },
        {
          "name": "addresses",
          "type": "address[]"
        },
        {
          "name": "amounts",
          "type": "uint256[]"
        },
        {
          "name": "exitHands",
          "type": "uint256[]"
        }
      ],
      "payable": false,
      "stateMutability": "view",
      "type": "function"
    },
    {
      "constant": true,
      "inputs": [],
      "name": "getOracleAddress",
      "outputs": [
        {
          "name": "",
          "type": "address"
        }
      ],
      "payable": false,
      "stateMutability": "view",
      "type": "function"
    },
    {
      "constant": true,
      "inputs": [],
      "name": "getTokenAddress",
      "outputs": [
        {
          "name": "",
          "type": "address"
        }
      ],
      "payable": false,
      "stateMutability": "view",
      "type": "function"
    },
    {
      "constant": true,
      "inputs": [],
      "name": "getLastPos",
      "outputs": [
        {
          "name": "",
          "type": "uint256"
        }
      ],
      "payable": false,
      "stateMutability": "view",
      "type": "function"
    },
    {
      "constant": true,
      "inputs": [],
      "name": "getlastSignerAddr",
      "outputs": [
        {
          "name": "",
          "type": "address"
        }
      ],
      "payable": false,
      "stateMutability": "view",
      "type": "function"
    },
    {
      "constant": true,
      "inputs": [],
      "name": "getLastFrom",
      "outputs": [
        {
          "name": "",
          "type": "address"
        }
      ],
      "payable": false,
      "stateMutability": "view",
      "type": "function"
    },
    {
      "constant": true,
      "inputs": [],
      "name": "getLastI",
      "outputs": [
        {
          "name": "",
          "type": "uint256"
        }
      ],
      "payable": false,
      "stateMutability": "view",
      "type": "function"
    },
    {
      "constant": true,
      "inputs": [],
      "name": "getSeatlength",
      "outputs": [
        {
          "name": "",
          "type": "uint256"
        }
      ],
      "payable": false,
      "stateMutability": "view",
      "type": "function"
    },
    {
      "constant": true,
      "inputs": [
        {
          "name": "pos",
          "type": "uint256"
        }
      ],
      "name": "getSeatSenderAddr",
      "outputs": [
        {
          "name": "",
          "type": "address"
        }
      ],
      "payable": false,
      "stateMutability": "view",
      "type": "function"
    },
    {
      "constant": true,
      "inputs": [
        {
          "name": "pos",
          "type": "uint256"
        }
      ],
      "name": "getSeatAccount",
      "outputs": [
        {
          "name": "",
          "type": "uint256"
        }
      ],
      "payable": false,
      "stateMutability": "view",
      "type": "function"
    },
    {
      "constant": true,
      "inputs": [
        {
          "name": "pos",
          "type": "uint256"
        }
      ],
      "name": "getSeatSignerAddr",
      "outputs": [
        {
          "name": "",
          "type": "address"
        }
      ],
      "payable": false,
      "stateMutability": "view",
      "type": "function"
    },
    {
      "constant": true,
      "inputs": [
        {
          "name": "pos",
          "type": "uint256"
        }
      ],
      "name": "getSeatExitHand",
      "outputs": [
        {
          "name": "",
          "type": "uint256"
        }
      ],
      "payable": false,
      "stateMutability": "view",
      "type": "function"
    },
    {
      "constant": true,
      "inputs": [],
      "name": "getHandsNetted",
      "outputs": [
        {
          "name": "",
          "type": "uint8"
        }
      ],
      "payable": false,
      "stateMutability": "view",
      "type": "function"
    },
    {
      "constant": true,
      "inputs": [],
      "name": "getLastHandNetted",
      "outputs": [
        {
          "name": "",
          "type": "uint32"
        }
      ],
      "payable": false,
      "stateMutability": "view",
      "type": "function"
    },
    {
      "constant": true,
      "inputs": [],
      "name": "getNowTime",
      "outputs": [
        {
          "name": "",
          "type": "uint256"
        }
      ],
      "payable": false,
      "stateMutability": "view",
      "type": "function"
    },
    {
      "constant": true,
      "inputs": [],
      "name": "getLastNettingRequestTime",
      "outputs": [
        {
          "name": "",
          "type": "uint256"
        }
      ],
      "payable": false,
      "stateMutability": "view",
      "type": "function"
    },
    {
      "constant": true,
      "inputs": [],
      "name": "getDisputeTime",
      "outputs": [
        {
          "name": "",
          "type": "uint256"
        }
      ],
      "payable": false,
      "stateMutability": "view",
      "type": "function"
    },
    {
      "constant": true,
      "inputs": [],
      "name": "getLNPTDT",
      "outputs": [
        {
          "name": "",
          "type": "uint256"
        }
      ],
      "payable": false,
      "stateMutability": "view",
      "type": "function"
    },
    {
      "constant": true,
      "inputs": [],
      "name": "getNetStauts",
      "outputs": [
        {
          "name": "",
          "type": "uint256"
        }
      ],
      "payable": false,
      "stateMutability": "view",
      "type": "function"
    },
    {
      "constant": true,
      "inputs": [
        {
          "name": "_handId",
          "type": "uint256"
        },
        {
          "name": "_addr",
          "type": "address"
        }
      ],
      "name": "getIn",
      "outputs": [
        {
          "name": "",
          "type": "uint256"
        }
      ],
      "payable": false,
      "stateMutability": "view",
      "type": "function"
    },
    {
      "constant": true,
      "inputs": [
        {
          "name": "_handId",
          "type": "uint256"
        },
        {
          "name": "_addr",
          "type": "address"
        }
      ],
      "name": "getOut",
      "outputs": [
        {
          "name": "",
          "type": "uint256"
        },
        {
          "name": "",
          "type": "uint256"
        }
      ],
      "payable": false,
      "stateMutability": "view",
      "type": "function"
    },
    {
      "constant": true,
      "inputs": [
        {
          "name": "_addr",
          "type": "address"
        }
      ],
      "name": "inLineup",
      "outputs": [
        {
          "name": "",
          "type": "bool"
        }
      ],
      "payable": false,
      "stateMutability": "view",
      "type": "function"
    },
    {
      "constant": false,
      "inputs": [
        {
          "name": "_toggleReceipt",
          "type": "bytes"
        }
      ],
      "name": "toggleActive",
      "outputs": [],
      "payable": false,
      "stateMutability": "nonpayable",
      "type": "function"
    },
    {
      "constant": false,
      "inputs": [
        {
          "name": "_from",
          "type": "address"
        },
        {
          "name": "_value",
          "type": "uint256"
        },
        {
          "name": "_data",
          "type": "bytes"
        }
      ],
      "name": "tokenFallback",
      "outputs": [],
      "payable": false,
      "stateMutability": "nonpayable",
      "type": "function"
    },
    {
      "constant": false,
      "inputs": [
        {
          "name": "_r",
          "type": "bytes32"
        },
        {
          "name": "_s",
          "type": "bytes32"
        },
        {
          "name": "_pl",
          "type": "bytes32"
        }
      ],
      "name": "leave",
      "outputs": [],
      "payable": false,
      "stateMutability": "nonpayable",
      "type": "function"
    },
    {
      "constant": false,
      "inputs": [
        {
          "name": "_sigs",
          "type": "bytes"
        },
        {
          "name": "_newBal1",
          "type": "bytes32"
        },
        {
          "name": "_newBal2",
          "type": "bytes32"
        }
      ],
      "name": "settle",
      "outputs": [],
      "payable": false,
      "stateMutability": "nonpayable",
      "type": "function"
    },
    {
      "constant": false,
      "inputs": [
        {
          "name": "_data",
          "type": "bytes32[]"
        }
      ],
      "name": "submit",
      "outputs": [
        {
          "name": "writeCount",
          "type": "uint256"
        }
      ],
      "payable": false,
      "stateMutability": "nonpayable",
      "type": "function"
    },
    {
      "constant": false,
      "inputs": [],
      "name": "net",
      "outputs": [],
      "payable": false,
      "stateMutability": "nonpayable",
      "type": "function"
    }
  ],
  "bytecode": "0x6080604052633b9aca006004556005805461140061ff001960ff19928316600117161790915560146007556008805490911690553480156200004057600080fd5b506040516200250b3803806200250b8339810160409081528151602080840151928401516060850151608086015160a087015160038054600160a060020a03808916600160a060020a03199283161790925560028054928a1692909116919091179055600181905596018051949692949193909291620000c791600091908501906200010e565b5083620000d6600a82620001be565b5050600b805467ffffffff000000001963ffffffff19909116600117166401000000001790555042600c55600d55506200025a915050565b82805482825590600052602060002090600f01601090048101928215620001ac5791602002820160005b838211156200017a57835183826101000a81548161ffff021916908361ffff160217905550926020019260020160208160010104928301926001030262000138565b8015620001aa5782816101000a81549061ffff02191690556002016020816001010492830192600103026200017a565b505b50620001ba929150620001f2565b5090565b815481835581811115620001ed57600402816004028360005260206000209182019101620001ed919062000217565b505050565b6200021491905b80821115620001ba57805461ffff19168155600101620001f9565b90565b6200021491905b80821115620001ba578054600160a060020a0319908116825560006001830181905560028301805490921690915560038201556004016200021e565b6122a1806200026a6000396000f3006080604052600436106101d45763ffffffff60e060020a60003504166302fb0c5e81146101d9578063082c67881461020257806310fe9ae81461022c57806312301da01461025d57806326babc761461029a5780633b33c702146102af5780633b6e2e8a146102fc5780633fd06b73146103575780633fe368211461037857806344429bbd14610396578063451688d6146103ab5780634ecc286b146103d957806354733d28146103ee5780635fbe4d1d14610450578063617edee8146104655780636bfc662b1461047a5780636de69a9314610492578063750fdbe9146104a75780637dc0d1d0146104bf5780637e8ff036146104d4578063808494dc146105295780638e6afff9146105415780639b819d3814610559578063a25c250f1461056e578063a29f086614610592578063ada3a28d146105c1578063b18b78dd146106bb578063b75e3d00146106d0578063c0ee0b8a146106e5578063c2fff4a51461074e578063c4b8d0e914610763578063cc743c6914610778578063cd140b631461078d578063d6bfe211146107a2578063d768a3af146107ba578063ec0b3c1c146107cf578063ed9de0a5146107fa578063f32a754a1461080f578063f3b720c714610827578063f7a5381e1461083c575b600080fd5b3480156101e557600080fd5b506101ee610851565b604080519115158252519081900360200190f35b34801561020e57600080fd5b5061021a60043561085a565b60408051918252519081900360200190f35b34801561023857600080fd5b50610241610884565b60408051600160a060020a039092168252519081900360200190f35b34801561026957600080fd5b50610281600435600160a060020a0360243516610894565b6040805192835260208301919091528051918290030190f35b3480156102a657600080fd5b5061021a6108fa565b3480156102bb57600080fd5b506102c7600435610908565b60408051600160a060020a03958616815260208101949094529190931682820152606082019290925290519081900360800190f35b34801561030857600080fd5b506040805160206004803580820135601f810184900484028501840190955284845261035594369492936024939284019190819084018382808284375094975061094e9650505050505050565b005b34801561036357600080fd5b506101ee600160a060020a0360043516610a60565b34801561038457600080fd5b50610355600435602435604435610b20565b3480156103a257600080fd5b5061021a610e49565b3480156103b757600080fd5b506103c0610e4f565b6040805163ffffffff9092168252519081900360200190f35b3480156103e557600080fd5b5061021a610e5b565b3480156103fa57600080fd5b506040805160206004803580820135601f8101849004840285018401909552848452610355943694929360249392840191908190840183828082843750949750508435955050506020909201359150610e619050565b34801561045c57600080fd5b506102416110fe565b34801561047157600080fd5b506103c061110d565b34801561048657600080fd5b50610241600435611119565b34801561049e57600080fd5b5061021a61114d565b3480156104b357600080fd5b5061021a600435611153565b3480156104cb57600080fd5b5061024161119f565b3480156104e057600080fd5b506040805160206004803580820135838102808601850190965280855261021a953695939460249493850192918291850190849080828437509497506111ae9650505050505050565b34801561053557600080fd5b5061021a6004356116ae565b34801561054d57600080fd5b5061021a600435611704565b34801561056557600080fd5b5061021a61172b565b34801561057a57600080fd5b5061021a600435600160a060020a036024351661172f565b34801561059e57600080fd5b506105aa60043561176d565b6040805161ffff9092168252519081900360200190f35b3480156105cd57600080fd5b506105d66117a3565b60405180858152602001806020018060200180602001848103845287818151815260200191508051906020019060200280838360005b8381101561062457818101518382015260200161060c565b50505050905001848103835286818151815260200191508051906020019060200280838360005b8381101561066357818101518382015260200161064b565b50505050905001848103825285818151815260200191508051906020019060200280838360005b838110156106a257818101518382015260200161068a565b5050505090500197505050505050505060405180910390f35b3480156106c757600080fd5b50610241611928565b3480156106dc57600080fd5b506103c0611937565b3480156106f157600080fd5b50604080516020600460443581810135601f8101849004840285018401909552848452610355948235600160a060020a031694602480359536959460649492019190819084018382808284375094975061194b9650505050505050565b34801561075a57600080fd5b50610355611c9a565b34801561076f57600080fd5b5061021a611e3c565b34801561078457600080fd5b5061021a611e46565b34801561079957600080fd5b5061021a611e4c565b3480156107ae57600080fd5b50610241600435611e52565b3480156107c657600080fd5b50610241611e83565b3480156107db57600080fd5b506107e4611e98565b6040805160ff9092168252519081900360200190f35b34801561080657600080fd5b50610241611ea1565b34801561081b57600080fd5b5061021a600435611eb0565b34801561083357600080fd5b5061021a611eda565b34801561084857600080fd5b5061021a611ee0565b60055460ff1681565b6000600a8281548110151561086b57fe5b9060005260206000209060040201600101549050919050565b600354600160a060020a03165b90565b6000806009848154811015156108a657fe5b60009182526020808320600160a060020a03871684526002600390930201919091019052604090205460098054869081106108dd57fe5b906000526020600020906003020160010154915091509250929050565b600554610100900460ff1690565b600a80548290811061091657fe5b60009182526020909120600490910201805460018201546002830154600390930154600160a060020a03928316945090929091169084565b60048101516018820151603883015160588401516059850151600160a060020a038416301461097957fe5b600b5463ffffffff86811691161461098d57fe5b6002546040805160e060020a63ffffffff89160281526c01000000000000000000000000600160a060020a038881169190910260048301528251918290036018018220600080845260208085018087529290925260ff87168486015260608401899052608084018890529351919094169360019360a0808501949293601f1981019381900390910191865af1158015610a2a573d6000803e3d6000fd5b50505060206040510351600160a060020a0316141515610a4657fe5b50506005805460ff19811660ff9091161517905550505050565b6000805b600a54811015610af65782600160a060020a0316600a82815481101515610a8757fe5b6000918252602090912060026004909202010154600160a060020a03161480610ae0575082600160a060020a0316600a82815481101515610ac457fe5b6000918252602090912060049091020154600160a060020a0316145b15610aee5760019150610b1a565b600101610a64565b600254600160a060020a0384811691161415610b155760019150610b1a565b600091505b50919050565b602535602c356030356044356000803066ffffffffffffff90811690861614610b4557fe5b600260009054906101000a9004600160a060020a0316600160a060020a031660016000878787604051808560ff1660ff167f01000000000000000000000000000000000000000000000000000000000000000281526001018466ffffffffffffff1666ffffffffffffff167901000000000000000000000000000000000000000000000000000281526007018363ffffffff1663ffffffff1660e060020a02815260040182600160a060020a0316600160a060020a03166c010000000000000000000000000281526014019450505050506040518091039020888c8c604051600081526020016040526040518085600019166000191681526020018460ff1660ff1681526020018360001916600019168152602001826000191660001916815260200194505050505060206040516020810390808403906000865af1158015610c92573d6000803e3d6000fd5b50505060206040510351600160a060020a0316141515610cae57fe5b5050600a5460005b600a54811015610d435782600160a060020a0316600a82815481101515610cd957fe5b6000918252602090912060026004909202010154600160a060020a03161480610d32575082600160a060020a0316600a82815481101515610d1657fe5b6000918252602090912060049091020154600160a060020a0316145b15610d3b578091505b600101610cb6565b600a548210610d4e57fe5b600a805483908110610d5c57fe5b9060005260206000209060040201600301546000141515610d7957fe5b8363ffffffff16600a83815481101515610d8f57fe5b6000918252602090912060036004909202010155600b5463ffffffff80861691161015610e3457600b5463ffffffff808616640100000000909204161015610e2f576040805163ffffffff8616815290517f7739370fdb694cb6917f60cb2e6185f5e35355a35638ede47165466b1b4d0d009181900360200190a1600b805467ffffffff00000000191664010000000063ffffffff87160217905542600c555b610e3e565b610e3e6000611f00565b505050505050505050565b600c5481565b600b5463ffffffff1681565b600a5490565b6008805460ff19167d010000000000000000000000000000000000000000000000000000000000840460ff8116918217909255600090819081908190819081908110610ea957fe5b600b5460e060020a8a0460ff908116911614610ec157fe5b7e01000000000000000000000000000000000000000000000000000000000000890460ff908116309190911614610ef457fe5b600095505b895160419004861015610fb757600160418781028c018281015160218201519190920151604080518e815260208082018f90528251918290038301822060008084528383018086529190915260ff87168385015260608301869052608083018590529251959b50939950919750610fa4949360a08084019493601f19830193908390039091019190865af1158015610f95573d6000803e3d6000fd5b50505060206040510351610a60565b1515610fac57fe5b600190950194610ef9565b60009150600095505b600a548610156110935750600e600686020135600581900b158061100d5750600a805487908110610fed57fe5b6000918252602090912060026004909202010154600160a060020a031615155b151561101557fe5b8060050b60045402600a8781548110151561102c57fe5b90600052602060002090600402016001015401600a8781548110151561104e57fe5b6000918252602090912060016004909202010155600a80548790811061107057fe5b906000526020600020906004020160010154820191508580600101965050610fc0565b600b805463ffffffff19811660ff8a1663ffffffff928316018216179182905560408051929091168252517f5ed9f7668c42f758fd8cdf5d9ebe6bf7f5640e167201fae83667e2a82c7f1852916020908290030190a16110f282611f00565b50505050505050505050565b600354600160a060020a031681565b600b5463ffffffff1690565b6000600a8281548110151561112a57fe5b6000918252602090912060049091020160020154600160a060020a031692915050565b600d5490565b60008061115f836116ae565b8154811061116957fe5b90600052602060002090601091828204019190066002029054906101000a900461ffff1661ffff1664e8d4a51000029050919050565b600254600160a060020a031681565b60008080808080808080805b8a5160038a01116116a057602060038a01026005810135985060088101359750600c8101359650600d810135955060258101359450503062ffffff168762ffffff1614151561120557fe5b600b5460095464010000000090910463ffffffff161061124357600b54600163ffffffff64010000000090920482160116611241600982612223565b505b8460ff16601514156114f45760016000858d8c60030181518110151561126557fe5b6020908102909101810151604080517f010000000000000000000000000000000000000000000000000000000000000060ff90961695909502855260ff199093166001850152908301528051918290030190208c518a908e908d9081106112c857fe5b906020019060200201518e8d6001018151811015156112e357fe5b60209081029091018101516040805160008082528185018084529790975260ff9095168582015260608501939093526080840152905160a0808401949293601f19830193908390039091019190865af1158015611344573d6000803e3d6000fd5b5050604051601f190151600254909350600160a060020a0380851691161490508015611377575060095463ffffffff8716105b151561137f57fe5b6009805460038b016020029950600e8a0135965063ffffffff88169081106113a357fe5b9060005260206000209060030201600101548560ff1611806113ea57506009805463ffffffff88169081106113d457fe5b9060005260206000209060030201600101546000145b156114e9578460ff1660098763ffffffff1681548110151561140857fe5b906000526020600020906003020160010181905550600096505b60078762ffffff1610156114e9576007870288016010810135955060160135925065ffffffffffff83161515611457576114e9565b6004546114729065ffffffffffff851663ffffffff6121c416565b6009805463ffffffff891690811061148657fe5b90600052602060002090600302016002016000600a8860ff168154811015156114ab57fe5b6000918252602080832060026004909302019190910154600160a060020a031683528201929092526040019020556001998a01999690960195611422565b88600401985061169b565b604080516000815260ff19861660018281019190915291519081900360200190208c518a908e908d90811061152557fe5b906020019060200201518e8d60010181518110151561154057fe5b60209081029091018101516040805160008082528185018084529790975260ff9095168582015260608501939093526080840152905160a0808401949293601f19830193908390039091019190865af11580156115a1573d6000803e3d6000fd5b5050506020604051035191506115b682610a60565b15156115be57fe5b600b5463ffffffff80881691161080156115df575060095463ffffffff8716105b15156115e757fe5b60045460038a0160200260130135935061160f9065ffffffffffff851663ffffffff6121c416565b905060098663ffffffff1681548110151561162657fe5b60009182526020808320600160a060020a0386168452600390920290910190526040902054811115611694578060098763ffffffff1681548110151561166857fe5b60009182526020808320600160a060020a03871684526003909202909101905260409020556001909901985b8860030198505b6111ba565b505050505050505050919050565b600080548190600114806116c25750600154155b156116d05760009150610b1a565b600154838115156116dd57fe5b6000549190049150600019018111156116fe57600054600019019150610b1a565b92915050565b600980548290811061171257fe5b6000918252602090912060016003909202010154905081565b4290565b600060098381548110151561174057fe5b60009182526020808320600160a060020a0386168452600390920290910190526040902054905092915050565b600080548290811061177b57fe5b9060005260206000209060109182820401919006600202915054906101000a900461ffff1681565b600060608060606000600a805490506040519080825280602002602001820160405280156117db578160200160208202803883390190505b50600a54604080518281526020808402820101909152919550801561180a578160200160208202803883390190505b50600a546040805182815260208084028201019091529194508015611839578160200160208202803883390190505b509150600090505b600a5481101561191657600a80548290811061185957fe5b60009182526020909120600260049092020101548451600160a060020a039091169085908390811061188757fe5b600160a060020a03909216602092830290910190910152600a8054829081106118ac57fe5b90600052602060002090600402016001015483828151811015156118cc57fe5b60209081029091010152600a8054829081106118e457fe5b906000526020600020906004020160030154828281518110151561190457fe5b60209081029091010152600101611841565b600b5463ffffffff1694505090919293565b600254600160a060020a031690565b600b54640100000000900463ffffffff1681565b6003546000908190819081908190600160a060020a0316331461196a57fe5b6119746000611153565b945086856028021115801561198d575084610190028711155b151561199557fe5b600186015160158701516005805461ff00191661010060ff8516021775ffffffffffffffffffffffffffffffffffffffff0000191662010000600160a060020a03808516918202929092179092556006805473ffffffffffffffffffffffffffffffffffffffff1916918d1691909117905591955093501515611a1457fe5b5060009050805b600a54811015611a7c5787600160a060020a0316600a82815481101515611a3e57fe5b6000918252602090912060049091020154600160a060020a03161415611a7457600781905560ff84168114611a6f57fe5b600191505b600101611a1b565b8115611b2357611a948561019063ffffffff6121c416565b600a805460ff8716908110611aa557fe5b906000526020600020906004020160010154880111151515611ac357fe5b600a805460ff8616908110611ad457fe5b9060005260206000209060040201600301546000141515611af157fe5b86600a8560ff16815481101515611b0457fe5b6000918252602090912060016004909202010180549091019055611c51565b600a5460ff8516101580611b5a57506000600a8560ff16815481101515611b4657fe5b906000526020600020906004020160010154115b80611b8e5750600a805460ff8616908110611b7157fe5b6000918252602090912060049091020154600160a060020a031615155b15611b9857600080fd5b87600a8560ff16815481101515611bab57fe5b906000526020600020906004020160000160006101000a815481600160a060020a030219169083600160a060020a0316021790555086600a8560ff16815481101515611bf357fe5b90600052602060002090600402016001018190555082600a8560ff16815481101515611c1b57fe5b906000526020600020906004020160020160006101000a815481600160a060020a030219169083600160a060020a031602179055505b604080518881529051600160a060020a038a16917fb4e09949657f21548b58afe74e7b86cd2295da5ff1598ae1e5faecb1cf19ca95919081900360200190a25050505050505050565b600080600080600d54600c54014210151515611cb257fe5b60009350600092505b600a54831015611dd757600a805484908110611cd357fe5b60009182526020909120600b54600490920201925063ffffffff9081166001011690505b600b54640100000000900463ffffffff168111611db457611da5600982815481101515611d2057fe5b600091825260208083206002870154600160a060020a0316845260039092029091019052604090205460098054611d99919085908110611d5c57fe5b60009182526020808320600289810154600160a060020a03168552600390930201919091019052604090205460018601549063ffffffff6121ef16565b9063ffffffff61220016565b60018084019190915501611cf7565b6001820154611dca90859063ffffffff6121ef16565b9350600190920191611cbb565b600b805463ffffffff19811663ffffffff6401000000009092048216179182905560408051929091168252517f5ed9f7668c42f758fd8cdf5d9ebe6bf7f5640e167201fae83667e2a82c7f18529181900360200190a1611e3684611f00565b50505050565b600d54600c540190565b60075490565b60015481565b6000600a82815481101515611e6357fe5b6000918252602090912060049091020154600160a060020a031692915050565b600554620100009004600160a060020a031690565b60085460ff1690565b600654600160a060020a031690565b6000600a82815481101515611ec157fe5b9060005260206000209060040201600301549050919050565b600c5490565b600d54600c54600091014210611ef857506001610891565b506000610891565b600354600160a060020a0316600080808085111561203957604080517f70a082310000000000000000000000000000000000000000000000000000000081523060048201529051600160a060020a038616916370a082319160248083019260209291908290030181600087803b158015611f7957600080fd5b505af1158015611f8d573d6000803e3d6000fd5b505050506040513d6020811015611fa357600080fd5b5051600254909350600160a060020a038086169163a9059cbb9116611fce868963ffffffff61220016565b6040518363ffffffff1660e060020a0281526004018083600160a060020a0316600160a060020a0316815260200182815260200192505050600060405180830381600087803b15801561202057600080fd5b505af1158015612034573d6000803e3d6000fd5b505050505b600091505b600a548210156121bd57600a80548390811061205657fe5b906000526020600020906004020190506000816003015411801561208657506003810154600b5463ffffffff1610155b156121b2576000816001015411156121235780546001820154604080517fa9059cbb000000000000000000000000000000000000000000000000000000008152600160a060020a0393841660048201526024810192909252519186169163a9059cbb9160448082019260009290919082900301818387803b15801561210a57600080fd5b505af115801561211e573d6000803e3d6000fd5b505050505b805460408051600160a060020a039092168252517fdf56ba6c527d293b0abd197c8da0b55f4818fcdc13eaa77cc3068779b3a8740d9181900360200190a1600a80548390811061216f57fe5b600091825260208220600490910201805473ffffffffffffffffffffffffffffffffffffffff199081168255600182018390556002820180549091169055600301555b60019091019061203e565b5050505050565b60008282026121e88415806121e357508385838115156121e057fe5b04145b612214565b9392505050565b60008282016121e884821015612214565b600061220e83831115612214565b50900390565b80151561222057600080fd5b50565b81548183558181111561224f5760030281600302836000526020600020918201910161224f9190612254565b505050565b61089191905b80821115612271576000600182015560030161225a565b50905600a165627a7a72305820d66ac3a5890c971542f01731fd3e97154fa7fd19f9b710bd0ad10515f626d6cc0029",
  "source": "pragma solidity ^0.4.11;\r\n\r\nimport './ERC20Abi.sol';\r\nimport './SafeMath.sol';\r\n\r\ncontract Table {\r\n  using SafeMath for uint;\r\n\r\n  event Join(address indexed addr, uint256 amount);\r\n  event NettingRequest(uint256 hand);\r\n  event Netted(uint256 hand);\r\n  event Leave(address addr);\r\n\r\n  uint16[] public blindStructure;\r\n  uint256 public blindLevelDuration;\r\n\r\n  address public oracle;\r\n  address public tokenAddr;\r\n  uint256 jozDecimals = 1000000000;\r\n\r\n  bool public active = true;\r\n\r\n  struct Hand {\r\n    //in\r\n    mapping (address => uint256) ins;\r\n    //out\r\n    uint256 claimCount;\r\n    mapping (address => uint256) outs;\r\n  }\r\n\r\n  struct Seat {\r\n    address senderAddr;\r\n    uint256 amount;\r\n    address signerAddr;\r\n    uint256 exitHand;\r\n  }\r\n\r\n  uint8 lastPos = 20;\r\n  address lastSignerAddr;\r\n  address lastFrom;\r\n  uint256 lasti = 20;\r\n  //uint8 handsNetted = 0;\r\n  uint8 hsNetted = 0;\r\n\r\n  Hand[] public hands;\r\n  Seat[] public seats;\r\n\r\n  uint32 public lastHandNetted;\r\n\r\n  uint32 public lastNettingRequestHandId;\r\n  uint256 public lastNettingRequestTime;\r\n  uint256 disputeTime;\r\n\r\n  function Table(address _token, address _oracle, uint256 _seats, uint256 _disputeTime, uint16[] _blindStructure, uint256 _blindLevelDuration) {\r\n    tokenAddr = _token;\r\n    oracle = _oracle;\r\n    blindLevelDuration = _blindLevelDuration;\r\n    blindStructure = _blindStructure; // blinds in ntz\r\n    seats.length = _seats;\r\n    lastHandNetted = 1;\r\n    lastNettingRequestHandId = 1;\r\n    lastNettingRequestTime = now;\r\n    disputeTime = _disputeTime;\r\n  }\r\n\r\n  function blindLevel(uint256 secsFromStart) constant returns (uint) {\r\n    if (blindStructure.length == 1 || blindLevelDuration == 0) {\r\n      return 0;\r\n    }\r\n\r\n    uint level = secsFromStart / blindLevelDuration;\r\n    if (level > blindStructure.length - 1) {\r\n      return blindStructure.length - 1;\r\n    }\r\n\r\n    return level;\r\n  }\r\n\r\n  function smallBlind(uint256 secsFromStart) constant returns (uint256) {\r\n    return uint256(blindStructure[blindLevel(secsFromStart)]) * 1000000000000; // get current blind and convert it to babz\r\n  }\r\n\r\n  function getLineup() constant returns (uint256, address[] addresses, uint256[] amounts, uint256[] exitHands) {\r\n    addresses = new address[](seats.length);\r\n    amounts = new uint256[](seats.length);\r\n    exitHands = new uint256[](seats.length);\r\n    for (uint256 i = 0; i < seats.length; i++) {\r\n        addresses[i] = seats[i].signerAddr;\r\n        amounts[i] = seats[i].amount;\r\n        exitHands[i] = seats[i].exitHand;\r\n    }\r\n    return (lastHandNetted, addresses, amounts, exitHands);\r\n  }\r\n\r\n  function getOracleAddress() constant returns(address) {\r\n    return oracle;\r\n  }\r\n\r\n  function getTokenAddress() constant returns(address) {\r\n    return tokenAddr;\r\n  }\r\n  \r\n  function getLastPos() constant returns(uint) {\r\n    return lastPos;\r\n  }\r\n  function getlastSignerAddr() constant returns(address) {\r\n    return lastSignerAddr;\r\n  }\r\n  function getLastFrom () constant returns(address) {\r\n    return lastFrom;\r\n  }\r\n  function getLastI () constant returns(uint256) {\r\n    return lasti;\r\n  }\r\n  \r\n  function getSeatlength () constant returns(uint256)  {\r\n    return seats.length;\r\n  }\r\n  function getSeatSenderAddr(uint256 pos) constant returns(address) {\r\n    return seats[pos].senderAddr;\r\n  }\r\n  function getSeatAccount(uint256 pos) constant returns(uint256) {\r\n    return seats[pos].amount;\r\n  }\r\n  function getSeatSignerAddr(uint256 pos) constant returns(address) {\r\n    return seats[pos].signerAddr;\r\n  }\r\n  function getSeatExitHand(uint256 pos) constant returns(uint256) {\r\n    return seats[pos].exitHand;\r\n  }\r\n\r\n  function getHandsNetted() constant returns(uint8) {\r\n    return hsNetted;\r\n  }\r\n  function getLastHandNetted() constant returns(uint32) {\r\n    return lastHandNetted;\r\n  }\r\n\r\n  function getNowTime() constant returns(uint256) {\r\n    return now;\r\n  }\r\n  function getLastNettingRequestTime() constant returns(uint256) {\r\n    return lastNettingRequestTime;\r\n  }\r\n  function getDisputeTime() constant returns(uint256) {\r\n    return disputeTime;\r\n  }\r\n  function getLNPTDT() constant returns(uint256) {\r\n    return lastNettingRequestTime + disputeTime;\r\n  }\r\n  function getNetStauts() constant returns(uint256) {\r\n    if(now >= lastNettingRequestTime + disputeTime) \r\n    {\r\n      return 1;\r\n    }\r\n    else\r\n    {\r\n      return 0;\r\n    }\r\n  }\r\n  \r\n\r\n\r\n  function getIn(uint256 _handId, address _addr) constant returns (uint256) {\r\n    return hands[_handId].ins[_addr];\r\n  }\r\n\r\n  function getOut(uint256 _handId, address _addr) constant returns (uint256, uint) {\r\n    return (hands[_handId].outs[_addr], hands[_handId].claimCount);\r\n  }\r\n\r\n  function inLineup(address _addr) constant returns (bool) {\r\n    for (uint256 i = 0; i < seats.length; i++) {\r\n      if (seats[i].signerAddr == _addr || seats[i].senderAddr == _addr) {\r\n        return true;\r\n      }\r\n    }\r\n    if (_addr == oracle) {\r\n      return true;\r\n    }\r\n    return false;\r\n  }\r\n\r\n  function toggleActive(bytes _toggleReceipt) {\r\n    uint32 handId;\r\n    address dest;\r\n    bytes32 r;\r\n    bytes32 s;\r\n    uint8 v;\r\n\r\n    assembly {\r\n      handId := mload(add(_toggleReceipt, 4))\r\n      dest := mload(add(_toggleReceipt, 24))\r\n      r := mload(add(_toggleReceipt, 56))\r\n      s := mload(add(_toggleReceipt, 88))\r\n      v := mload(add(_toggleReceipt, 89))\r\n    }\r\n    assert(dest == address(this));\r\n    assert(lastHandNetted == handId);\r\n    assert(ecrecover(sha3(handId, dest), v, r, s) == oracle);\r\n\r\n    active = !active;\r\n  }\r\n\r\n  // Join\r\n  function tokenFallback(address _from, uint256 _value, bytes _data) {\r\n    assert(msg.sender == tokenAddr);\r\n    // check the dough\r\n    uint256 sb = smallBlind(0);\r\n    assert(40 * sb <= _value && _value <= 400 * sb);\r\n\r\n    uint8 pos;\r\n    address signerAddr;\r\n    assembly {\r\n      pos := mload(add(_data, 1))\r\n      signerAddr := mload(add(_data, 21))\r\n    }\r\n\r\n    lastPos = pos;\r\n    lastSignerAddr = signerAddr;\r\n    lastFrom = _from;\r\n\r\n    assert(signerAddr != 0x0);\r\n\r\n    bool rebuy = false;\r\n    // avoid player joining multiple times\r\n    for (uint256 i = 0; i < seats.length; i++ ) {\r\n      if (seats[i].senderAddr == _from) {\r\n         lasti = i;\r\n        assert(pos == i);\r\n        rebuy = true;\r\n      }\r\n    }\r\n\r\n    if (rebuy) {\r\n      // check the dough\r\n      assert(_value + seats[pos].amount <= sb.mul(400));\r\n      // check exit hand\r\n      assert(seats[pos].exitHand == 0);\r\n      seats[pos].amount += _value;\r\n    } else {\r\n      if (pos >= seats.length || seats[pos].amount > 0 || seats[pos].senderAddr != 0) {\r\n        throw;\r\n      }\r\n      //seat player\r\n      seats[pos].senderAddr = _from;\r\n      seats[pos].amount = _value;\r\n      seats[pos].signerAddr = signerAddr;\r\n    }\r\n    Join(_from, _value);\r\n  }\r\n\r\n  function leave(bytes32 _r, bytes32 _s, bytes32 _pl) {\r\n    uint8 v;\r\n    uint56 dest;\r\n    uint32 handId;\r\n    address signer;\r\n\r\n    assembly {\r\n      v := calldataload(37)\r\n      dest := calldataload(44)\r\n      handId := calldataload(48)\r\n      signer := calldataload(68)\r\n    }\r\n    assert(dest == uint56(address(this)));\r\n\r\n    assert(ecrecover(sha3(uint8(0), dest, handId, signer), v, _r, _s) == oracle);\r\n\r\n    uint256 pos = seats.length;\r\n    for (uint256 i = 0; i < seats.length; i++) {\r\n      if (seats[i].signerAddr == signer || seats[i].senderAddr == signer) {\r\n        pos = i;\r\n      }\r\n    }\r\n    assert(pos < seats.length);\r\n    assert(seats[pos].exitHand == 0);\r\n    seats[pos].exitHand = handId;\r\n    // create new netting request\r\n    if (lastHandNetted < handId) {\r\n      if (lastNettingRequestHandId < handId) {\r\n        NettingRequest(handId);\r\n        lastNettingRequestHandId = handId;\r\n        lastNettingRequestTime = now;\r\n      }\r\n    } else {\r\n      _payout(0);\r\n    }\r\n  }\r\n\r\n  // This function is called if all players agree to settle without dispute.\r\n  // A list of changes to all balances is signed by all active players and submited.\r\n  function settle(bytes _sigs, bytes32 _newBal1, bytes32 _newBal2) {\r\n    // TODO: keeping track of who has signed,\r\n    uint8 handsNetted = uint8(_newBal1 >> 232);\r\n    hsNetted = handsNetted;\r\n    assert(handsNetted > 0);\r\n\r\n    // handId byte\r\n    assert(uint8(_newBal1 >> 224) == uint8(lastHandNetted));\r\n    assert(uint8(_newBal1 >> 240) == uint8(address(this)));\r\n\r\n    for (uint256 i = 0; i < _sigs.length / 65; i++) {\r\n      uint8 v;\r\n      bytes32 r;\r\n      bytes32 s;\r\n      assembly {\r\n        v := mload(add(_sigs, add(1, mul(i, 65))))\r\n        r := mload(add(_sigs, add(33, mul(i, 65))))\r\n        s := mload(add(_sigs, add(65, mul(i, 65))))\r\n      }\r\n      assert(inLineup(ecrecover(sha3(_newBal1, _newBal2), v, r, s)));\r\n    }\r\n\r\n    uint256 sumOfSeatBalances = 0;\r\n    for (i = 0; i < seats.length; i++) {\r\n      int48 diff;\r\n      assembly {\r\n        diff := calldataload(add(14, mul(i, 6)))\r\n      }\r\n      assert(diff == 0 || seats[i].signerAddr != 0x0);\r\n      seats[i].amount = uint256(int256(seats[i].amount) + (int256(jozDecimals) * diff));\r\n      sumOfSeatBalances += seats[i].amount;\r\n    }\r\n\r\n    lastHandNetted += handsNetted;\r\n    Netted(lastHandNetted);\r\n    _payout(sumOfSeatBalances);\r\n  }\r\n\r\n  function submit(bytes32[] _data) returns (uint writeCount) {\r\n    uint256 next = 0;\r\n    writeCount = 0;\r\n\r\n    while (next + 3 <= _data.length) {\r\n      uint8 v;\r\n      uint24 dest;\r\n      uint32 handId;\r\n      uint8 t;        // type of receipt\r\n      bytes31 rest;\r\n      uint48 amount;\r\n      address signer;\r\n      assembly {\r\n        let f := mul(add(next, 3), 32)\r\n        v := calldataload(add(f, 5))\r\n        dest := calldataload(add(f, 8))\r\n        handId := calldataload(add(f, 12))\r\n        t := calldataload(add(f, 13))\r\n        rest := calldataload(add(f, 37))\r\n      }\r\n      assert(dest == uint24(address(this)));\r\n      if (hands.length <= lastNettingRequestHandId) {\r\n        hands.length = lastNettingRequestHandId + 1;\r\n      }\r\n      // the receipt is a distribution\r\n      if (t == 21) {\r\n        signer = ecrecover(sha3(uint8(0), rest, _data[next+3]), v, _data[next], _data[next+1]);\r\n        assert(signer == oracle && handId < hands.length);\r\n        assembly {\r\n          v := mul(add(next, 3), 32)\r\n          t := calldataload(add(v, 14))\r\n        }\r\n        if (t > hands[handId].claimCount || hands[handId].claimCount == 0) {\r\n          hands[handId].claimCount = t;\r\n          for (dest = 0; dest < 7; dest++) {\r\n            assembly {\r\n              t := calldataload(add(v, add(mul(dest, 7), 16)))\r\n              amount := calldataload(add(v, add(mul(dest, 7), 22)))\r\n            }\r\n            if (amount == 0) {\r\n                break;\r\n            }\r\n            hands[handId].outs[seats[t].signerAddr] = jozDecimals.mul(amount);\r\n            writeCount++;\r\n          }\r\n        }\r\n        next = next + 4;\r\n      // the receipt is a bet/check/fold\r\n      } else {\r\n        signer = ecrecover(sha3(uint8(0), rest), v, _data[next], _data[next+1]);\r\n        assert(inLineup(signer));\r\n        assert(lastHandNetted < handId && handId < hands.length);\r\n        assembly {\r\n          amount := calldataload(add(mul(add(next, 3), 32), 19))\r\n        }\r\n        uint256 value = jozDecimals.mul(amount);\r\n        if (value > hands[handId].ins[signer]) {\r\n          hands[handId].ins[signer] = value;\r\n          writeCount++;\r\n        }\r\n        next = next + 3;\r\n      }\r\n    }\r\n  }\r\n\r\n\r\n  function net() {\r\n    assert(now >= lastNettingRequestTime + disputeTime);\r\n    uint256 sumOfSeatBalances = 0;\r\n    for (uint256 j = 0; j < seats.length; j++) {\r\n      Seat storage seat = seats[j];\r\n      for (uint256 i = lastHandNetted + 1; i <= lastNettingRequestHandId; i++ ) {\r\n        seat.amount = seat.amount.add(hands[i].outs[seat.signerAddr]).sub(hands[i].ins[seat.signerAddr]);\r\n\r\n      }\r\n      sumOfSeatBalances = sumOfSeatBalances.add(seat.amount);\r\n    }\r\n    lastHandNetted = lastNettingRequestHandId;\r\n    Netted(lastHandNetted);\r\n    _payout(sumOfSeatBalances);\r\n  }\r\n\r\n  function _payout(uint256 _sumOfSeatBalances) internal {\r\n    var token = ERC20Abi(tokenAddr);\r\n    if (_sumOfSeatBalances > 0) {\r\n      uint256 totalBal = token.balanceOf(address(this));\r\n      token.transfer(oracle, totalBal.sub(_sumOfSeatBalances));\r\n    }\r\n\r\n    for (uint256 i = 0; i < seats.length; i++) {\r\n      Seat storage seat = seats[i];\r\n      if (seat.exitHand > 0 && lastHandNetted >= seat.exitHand) {\r\n        if (seat.amount > 0) {\r\n          token.transfer(seat.senderAddr, seat.amount);\r\n        }\r\n        Leave(seat.senderAddr);\r\n        delete seats[i];\r\n      }\r\n    }\r\n  }\r\n\r\n}\r\n",
  "sourcePath": "E:\\Code\\src\\coding.xbonline.net\\blockchain\\gameContract\\contracts\\Table.sol",
  "compiler": {
    "name": "solc",
    "version": "0.4.24+commit.e67f0147.Emscripten.clang"
  },
  "schemaVersion": "2.0.1",
  "updatedAt": "2019-03-26T07:00:49.246Z"
}