{
  "contractName": "TableFunc",
  "abi": [
    {
      "constant": true,
      "inputs": [],
      "name": "name",
      "outputs": [
        {
          "name": "",
          "type": "string"
        }
      ],
      "payable": false,
      "stateMutability": "view",
      "type": "function"
    },
    {
      "constant": true,
      "inputs": [],
      "name": "notaryManage",
      "outputs": [
        {
          "name": "",
          "type": "address"
        }
      ],
      "payable": false,
      "stateMutability": "view",
      "type": "function"
    },
    {
      "constant": false,
      "inputs": [],
      "name": "_setPayer",
      "outputs": [],
      "payable": false,
      "stateMutability": "nonpayable",
      "type": "function"
    },
    {
      "constant": true,
      "inputs": [],
      "name": "authorityAddress",
      "outputs": [
        {
          "name": "",
          "type": "address"
        }
      ],
      "payable": false,
      "stateMutability": "view",
      "type": "function"
    },
    {
      "constant": false,
      "inputs": [
        {
          "name": "name",
          "type": "string"
        },
        {
          "name": "addr",
          "type": "address"
        }
      ],
      "name": "_setContract",
      "outputs": [],
      "payable": false,
      "stateMutability": "nonpayable",
      "type": "function"
    },
    {
      "constant": false,
      "inputs": [
        {
          "name": "addr",
          "type": "address"
        }
      ],
      "name": "_grant",
      "outputs": [],
      "payable": false,
      "stateMutability": "nonpayable",
      "type": "function"
    },
    {
      "constant": true,
      "inputs": [
        {
          "name": "",
          "type": "address"
        }
      ],
      "name": "myTable",
      "outputs": [
        {
          "name": "",
          "type": "uint256"
        }
      ],
      "payable": false,
      "stateMutability": "view",
      "type": "function"
    },
    {
      "constant": true,
      "inputs": [],
      "name": "tableFunAddress",
      "outputs": [
        {
          "name": "",
          "type": "address"
        }
      ],
      "payable": false,
      "stateMutability": "view",
      "type": "function"
    },
    {
      "constant": true,
      "inputs": [],
      "name": "interManage",
      "outputs": [
        {
          "name": "",
          "type": "address"
        }
      ],
      "payable": false,
      "stateMutability": "view",
      "type": "function"
    },
    {
      "constant": true,
      "inputs": [],
      "name": "owner",
      "outputs": [
        {
          "name": "",
          "type": "address"
        }
      ],
      "payable": false,
      "stateMutability": "view",
      "type": "function"
    },
    {
      "constant": false,
      "inputs": [
        {
          "name": "price",
          "type": "uint256"
        },
        {
          "name": "gaslimit",
          "type": "uint64"
        }
      ],
      "name": "_setGas",
      "outputs": [],
      "payable": false,
      "stateMutability": "nonpayable",
      "type": "function"
    },
    {
      "constant": true,
      "inputs": [],
      "name": "tokenAddress",
      "outputs": [
        {
          "name": "",
          "type": "address"
        }
      ],
      "payable": false,
      "stateMutability": "view",
      "type": "function"
    },
    {
      "constant": false,
      "inputs": [
        {
          "name": "addr",
          "type": "address"
        }
      ],
      "name": "_setauthority",
      "outputs": [],
      "payable": false,
      "stateMutability": "nonpayable",
      "type": "function"
    },
    {
      "constant": false,
      "inputs": [
        {
          "name": "name",
          "type": "string"
        }
      ],
      "name": "_getContract",
      "outputs": [
        {
          "name": "",
          "type": "address"
        }
      ],
      "payable": false,
      "stateMutability": "nonpayable",
      "type": "function"
    },
    {
      "constant": true,
      "inputs": [
        {
          "name": "",
          "type": "uint256"
        }
      ],
      "name": "tableList",
      "outputs": [
        {
          "name": "",
          "type": "uint256"
        }
      ],
      "payable": false,
      "stateMutability": "view",
      "type": "function"
    },
    {
      "constant": true,
      "inputs": [],
      "name": "tableNonce",
      "outputs": [
        {
          "name": "",
          "type": "uint256"
        }
      ],
      "payable": false,
      "stateMutability": "view",
      "type": "function"
    },
    {
      "constant": false,
      "inputs": [
        {
          "name": "addr",
          "type": "address"
        }
      ],
      "name": "_revoke",
      "outputs": [],
      "payable": false,
      "stateMutability": "nonpayable",
      "type": "function"
    },
    {
      "inputs": [],
      "payable": true,
      "stateMutability": "payable",
      "type": "constructor"
    },
    {
      "anonymous": false,
      "inputs": [
        {
          "indexed": false,
          "name": "creator",
          "type": "address"
        },
        {
          "indexed": false,
          "name": "tableid",
          "type": "uint256"
        },
        {
          "indexed": false,
          "name": "minimum",
          "type": "uint256"
        },
        {
          "indexed": false,
          "name": "maximum",
          "type": "uint256"
        },
        {
          "indexed": false,
          "name": "needChips",
          "type": "uint256"
        },
        {
          "indexed": false,
          "name": "smallBlind",
          "type": "uint256"
        }
      ],
      "name": "CreateTable",
      "type": "event"
    },
    {
      "anonymous": false,
      "inputs": [
        {
          "indexed": false,
          "name": "creator",
          "type": "address"
        },
        {
          "indexed": false,
          "name": "tableid",
          "type": "uint256"
        }
      ],
      "name": "DestroyTable",
      "type": "event"
    },
    {
      "anonymous": false,
      "inputs": [
        {
          "indexed": false,
          "name": "tableid",
          "type": "uint256"
        },
        {
          "indexed": false,
          "name": "number",
          "type": "uint256"
        }
      ],
      "name": "SelectInter",
      "type": "event"
    },
    {
      "anonymous": false,
      "inputs": [
        {
          "indexed": false,
          "name": "tableid",
          "type": "uint256"
        },
        {
          "indexed": false,
          "name": "addr",
          "type": "address"
        },
        {
          "indexed": false,
          "name": "pos",
          "type": "uint256"
        },
        {
          "indexed": false,
          "name": "amount",
          "type": "uint256"
        }
      ],
      "name": "Join",
      "type": "event"
    },
    {
      "anonymous": false,
      "inputs": [
        {
          "indexed": false,
          "name": "tableid",
          "type": "uint256"
        },
        {
          "indexed": false,
          "name": "addr",
          "type": "address"
        },
        {
          "indexed": false,
          "name": "pos",
          "type": "uint256"
        }
      ],
      "name": "Start",
      "type": "event"
    },
    {
      "anonymous": false,
      "inputs": [
        {
          "indexed": false,
          "name": "tableid",
          "type": "uint256"
        },
        {
          "indexed": false,
          "name": "addr",
          "type": "address"
        },
        {
          "indexed": false,
          "name": "pos",
          "type": "uint256"
        }
      ],
      "name": "SelectStarter",
      "type": "event"
    },
    {
      "anonymous": false,
      "inputs": [
        {
          "indexed": false,
          "name": "tableid",
          "type": "uint256"
        },
        {
          "indexed": false,
          "name": "addr",
          "type": "address"
        },
        {
          "indexed": false,
          "name": "pos",
          "type": "uint256"
        }
      ],
      "name": "Discard",
      "type": "event"
    },
    {
      "anonymous": false,
      "inputs": [
        {
          "indexed": false,
          "name": "tableid",
          "type": "uint256"
        },
        {
          "indexed": false,
          "name": "addr",
          "type": "address"
        },
        {
          "indexed": false,
          "name": "pos",
          "type": "uint256"
        }
      ],
      "name": "Leave",
      "type": "event"
    },
    {
      "anonymous": false,
      "inputs": [
        {
          "indexed": false,
          "name": "tableid",
          "type": "uint256"
        },
        {
          "indexed": false,
          "name": "player",
          "type": "address"
        },
        {
          "indexed": false,
          "name": "pos",
          "type": "uint256"
        },
        {
          "indexed": false,
          "name": "hand",
          "type": "uint256"
        }
      ],
      "name": "StartGame",
      "type": "event"
    },
    {
      "anonymous": false,
      "inputs": [
        {
          "indexed": false,
          "name": "hand",
          "type": "uint256"
        },
        {
          "indexed": false,
          "name": "playingNum",
          "type": "uint256"
        },
        {
          "indexed": false,
          "name": "tableid",
          "type": "uint256"
        }
      ],
      "name": "Settle",
      "type": "event"
    },
    {
      "anonymous": false,
      "inputs": [
        {
          "indexed": false,
          "name": "tableid",
          "type": "uint256"
        },
        {
          "indexed": false,
          "name": "player",
          "type": "address"
        },
        {
          "indexed": false,
          "name": "pos",
          "type": "uint256"
        },
        {
          "indexed": false,
          "name": "hand",
          "type": "uint256"
        },
        {
          "indexed": false,
          "name": "flag",
          "type": "uint256"
        },
        {
          "indexed": false,
          "name": "amount",
          "type": "uint256"
        }
      ],
      "name": "SettleItemData",
      "type": "event"
    },
    {
      "anonymous": false,
      "inputs": [
        {
          "indexed": false,
          "name": "tableid",
          "type": "uint256"
        },
        {
          "indexed": false,
          "name": "player",
          "type": "address"
        },
        {
          "indexed": false,
          "name": "pos",
          "type": "uint256"
        },
        {
          "indexed": false,
          "name": "hand",
          "type": "uint256"
        }
      ],
      "name": "SettlePlayerAbsent",
      "type": "event"
    },
    {
      "anonymous": false,
      "inputs": [
        {
          "indexed": false,
          "name": "player",
          "type": "address"
        },
        {
          "indexed": false,
          "name": "hand",
          "type": "uint256"
        }
      ],
      "name": "SettlePlayer",
      "type": "event"
    },
    {
      "anonymous": false,
      "inputs": [
        {
          "indexed": false,
          "name": "tableid",
          "type": "uint256"
        },
        {
          "indexed": false,
          "name": "submitter",
          "type": "address"
        },
        {
          "indexed": false,
          "name": "datalength",
          "type": "uint256"
        },
        {
          "indexed": false,
          "name": "data",
          "type": "bytes"
        }
      ],
      "name": "SettleData",
      "type": "event"
    },
    {
      "anonymous": false,
      "inputs": [
        {
          "indexed": false,
          "name": "addr",
          "type": "address"
        },
        {
          "indexed": false,
          "name": "datasrc",
          "type": "uint256"
        },
        {
          "indexed": false,
          "name": "errcode",
          "type": "uint256"
        }
      ],
      "name": "SettleError",
      "type": "event"
    },
    {
      "anonymous": false,
      "inputs": [
        {
          "indexed": false,
          "name": "tableid",
          "type": "uint256"
        },
        {
          "indexed": false,
          "name": "hand",
          "type": "uint256"
        }
      ],
      "name": "FinishNotary",
      "type": "event"
    },
    {
      "constant": false,
      "inputs": [
        {
          "name": "hand",
          "type": "uint32"
        }
      ],
      "name": "startGame",
      "outputs": [
        {
          "name": "",
          "type": "string"
        }
      ],
      "payable": false,
      "stateMutability": "nonpayable",
      "type": "function"
    },
    {
      "constant": false,
      "inputs": [
        {
          "name": "tableid",
          "type": "uint256"
        },
        {
          "name": "from",
          "type": "address"
        },
        {
          "name": "value",
          "type": "uint256"
        }
      ],
      "name": "join",
      "outputs": [
        {
          "name": "",
          "type": "string"
        }
      ],
      "payable": false,
      "stateMutability": "nonpayable",
      "type": "function"
    },
    {
      "constant": false,
      "inputs": [
        {
          "name": "hand",
          "type": "uint256"
        }
      ],
      "name": "start",
      "outputs": [
        {
          "name": "",
          "type": "string"
        }
      ],
      "payable": false,
      "stateMutability": "nonpayable",
      "type": "function"
    },
    {
      "constant": false,
      "inputs": [
        {
          "name": "hand",
          "type": "uint256"
        }
      ],
      "name": "discard",
      "outputs": [],
      "payable": false,
      "stateMutability": "nonpayable",
      "type": "function"
    },
    {
      "constant": false,
      "inputs": [
        {
          "name": "data",
          "type": "bytes"
        }
      ],
      "name": "discard2",
      "outputs": [],
      "payable": false,
      "stateMutability": "nonpayable",
      "type": "function"
    },
    {
      "constant": false,
      "inputs": [],
      "name": "leave",
      "outputs": [
        {
          "name": "",
          "type": "string"
        }
      ],
      "payable": false,
      "stateMutability": "nonpayable",
      "type": "function"
    }
  ],
  "bytecode": "0x6001600a5560008054600160a060020a0319908116731000000000000000000000000000000000000003179091556002805490911673100000000000000000000000000000000000000117905560c0604052600f60808190527f7461626c654d616e61676546756e63000000000000000000000000000000000060a09081526200008d9160039190620001e3565b5060048054600160a060020a0319163317905560408051808201909152600f81527f7461626c654d616e61676546756e6300000000000000000000000000000000006020820152620000e99030640100000000620000ef810204565b62000288565b60008054604080517fa815ff15000000000000000000000000000000000000000000000000000000008152600160a060020a0385811660248301526004820192835286516044830152865193169363a815ff1593879387939092839260649092019160208701918190849084905b83811015620001775781810151838201526020016200015d565b50505050905090810190601f168015620001a55780820380516001836020036101000a031916815260200191505b509350505050600060405180830381600087803b158015620001c657600080fd5b505af1158015620001db573d6000803e3d6000fd5b505050505050565b828054600181600116156101000203166002900490600052602060002090601f016020900481019282601f106200022657805160ff191683800117855562000256565b8280016001018555821562000256579182015b828111156200025657825182559160200191906001019062000239565b506200026492915062000268565b5090565b6200028591905b808211156200026457600081556001016200026f565b90565b61296b80620002986000396000f3006080604052600436106101195763ffffffff60e060020a60003504166306fdde03811461011e57806326d3da79146101a85780632b8dfaea1461020357806339031bd4146102345780633c695d4e146102495780634ce401ac1461025e5780635d8aa11c146102c257806371fe9d24146102e35780637613c1d214610316578063787ae6d41461033d5780637a54ea8b146103525780637e8f2b0c1461036757806389f453391461037f5780638da5cb5b1461039d57806395805dad146103b257806397b25f4b146103ca5780639d76ea58146103ef5780639e834d4014610404578063b37e48e314610425578063ce8b4afc1461047e578063d1323d7c14610496578063d24088cf146104ab578063d66d9e19146104cc575b600080fd5b34801561012a57600080fd5b506101336104e1565b6040805160208082528351818301528351919283929083019185019080838360005b8381101561016d578181015183820152602001610155565b50505050905090810190601f16801561019a5780820380516001836020036101000a031916815260200191505b509250505060405180910390f35b3480156101b457600080fd5b506040805160206004803580820135601f810184900484028501840190955284845261020194369492936024939284019190819084018382808284375094975061056f9650505050505050565b005b34801561020f57600080fd5b506102186109a3565b60408051600160a060020a039092168252519081900360200190f35b34801561024057600080fd5b506102016109b2565b34801561025557600080fd5b50610218610a1f565b34801561026a57600080fd5b506040805160206004803580820135601f810184900484028501840190955284845261020194369492936024939284019190819084018382808284375094975050509235600160a060020a03169350610a2e92505050565b3480156102ce57600080fd5b50610201600160a060020a0360043516610b1d565b3480156102ef57600080fd5b50610304600160a060020a0360043516610b9f565b60408051918252519081900360200190f35b34801561032257600080fd5b50610133600435600160a060020a0360243516604435610bb1565b34801561034957600080fd5b50610218610f49565b34801561035e57600080fd5b50610218610f58565b34801561037357600080fd5b50610201600435610f67565b34801561038b57600080fd5b5061013363ffffffff600435166110e6565b3480156103a957600080fd5b50610218611432565b3480156103be57600080fd5b50610133600435611441565b3480156103d657600080fd5b5061020160043567ffffffffffffffff60243516611694565b3480156103fb57600080fd5b5061021861170a565b34801561041057600080fd5b50610201600160a060020a0360043516611719565b34801561043157600080fd5b506040805160206004803580820135601f81018490048402850184019095528484526102189436949293602493928401919081908401838280828437509497506117a29650505050505050565b34801561048a57600080fd5b50610304600435611899565b3480156104a257600080fd5b506103046118b8565b3480156104b757600080fd5b50610201600160a060020a03600435166118be565b3480156104d857600080fd5b50610133611925565b6003805460408051602060026001851615610100026000190190941693909304601f810184900484028201840190925281815292918301828280156105675780601f1061053c57610100808354040283529160200191610567565b820191906000526020600020905b81548152906001019060200180831161054a57829003601f168201915b505050505081565b6000806060600061057e6128a5565b326000908152600d60205260408120548751909650604195506060919081908190819081908a106105ae57600080fd5b898c51036040519080825280601f01601f1916602001820160405280156105df578160200160208202803883390190505b5098508997505b8b51881015610643578b888151811015156105fd57fe5b90602001015160f860020a900460f860020a02898b8a0381518110151561062057fe5b906020010190600160f860020a031916908160001a9053506001909701966105e6565b61064c89611c87565b965061065787611cda565b151561066257600080fd5b61066b87611d0c565b805190965060041461067c57600080fd5b61069d86600181518110151561068e57fe5b90602001906020020151611dc1565b60008c8152600c602052604090206008018054919650945085106106c057600080fd5b30600160a060020a03166106eb8760028151811015156106dc57fe5b90602001906020020151611e19565b600160a060020a0316146106fe57600080fd5b60008b8152600c60205260409020600601548651610723908890600390811061068e57fe5b63ffffffff161461073357600080fd5b505050602089015160408a015160418b01519190601b60ff8416101561075a57601b830192505b838581548110151561076857fe5b600091825260209182902001546040518b51600160a060020a03909216926001928d92918291908401908083835b602083106107b55780518252601f199092019160209182019101610796565b51815160209384036101000a60001901801990921691161790526040805192909401829003822060008084528383018087529190915260ff8c1683860152606083018b9052608083018a9052935160a08084019750919550601f1981019492819003909101925090865af1158015610831573d6000803e3d6000fd5b50505060206040510351600160a060020a031614151561085057600080fd5b838581548110151561085e57fe5b60009182526020909120015460a060020a900460ff16600381111561087f57fe5b6003141561092d576002848681548110151561089757fe5b6000918252602090912001805460a060020a60ff02191660a060020a8360038111156108bf57fe5b02179055507f6eabb348ad372fe535298244c7d03bdb4ddfe69524d86c465e82aa146128186b8b85878154811015156108f457fe5b6000918252602091829020015460408051938452600160a060020a039091169183019190915260ff881682820152519081900360600190a15b7f6eabb348ad372fe535298244c7d03bdb4ddfe69524d86c465e82aa146128186b8b858781548110151561095d57fe5b6000918252602091829020015460408051938452600160a060020a039091169183019190915260ff881682820152519081900360600190a1505050505050505050505050565b600854600160a060020a031681565b600160009054906101000a9004600160a060020a0316600160a060020a0316636db05a776040518163ffffffff1660e060020a028152600401600060405180830381600087803b158015610a0557600080fd5b505af1158015610a19573d6000803e3d6000fd5b50505050565b600554600160a060020a031681565b60008054604080517fa815ff15000000000000000000000000000000000000000000000000000000008152600160a060020a0385811660248301526004820192835286516044830152865193169363a815ff1593879387939092839260649092019160208701918190849084905b83811015610ab4578181015183820152602001610a9c565b50505050905090810190601f168015610ae15780820380516001836020036101000a031916815260200191505b509350505050600060405180830381600087803b158015610b0157600080fd5b505af1158015610b15573d6000803e3d6000fd5b505050505050565b600154604080517f70284d19000000000000000000000000000000000000000000000000000000008152600160a060020a038481166004830152915191909216916370284d1991602480830192600092919082900301818387803b158015610b8457600080fd5b505af1158015610b98573d6000803e3d6000fd5b5050505050565b600d6020526000908152604090205481565b600160a060020a0382166000908152600b6020526040812054606091908190819081908190610be6908863ffffffff61210716565b600160a060020a038981166000908152600b6020526040902091909155600654163314610c485760408051808201909152601681527f73656e64657220213d20746f6b656e416464726573730000000000000000000060208201529550610f3d565b600160a060020a0388166000908152600d602052604090205415610ca15760408051808201909152601281527fe78ea9e5aeb6e5b7b2e59ca8e6a18ce5ad90000000000000000000000000000060208201529550610f3d565b6000898152600c60205260409020541515610cf15760408051808201909152600f81527fe6a18ce5ad90e4b88de5ad98e59ca8000000000000000000000000000000000060208201529550610f3d565b5050506000868152600c60205260408120600801805490935090915080825b8454811015610d51578454600090869083908110610d2a57fe5b600091825260209091200154600160a060020a03161415610d49578091505b600101610d10565b6000898152600c60205260409020600401548210610da45760408051808201909152600f81527fe6a18ce5ad90e5b7b2e6bba1e59198000000000000000000000000000000000060208201529550610f3d565b831515610eb0576000898152600c6020908152604080832060020154600160a060020a038c168452600b909252909120541015610e165760408051808201909152601181527f62616c616e63653c6e656564436869707300000000000000000000000000000060208201529550610f3d565b82821415610e2f578454610e2d86600183016128bc565b505b878583815481101515610e3e57fe5b60009182526020822001805473ffffffffffffffffffffffffffffffffffffffff1916600160a060020a0393909316929092179091558554869084908110610e8257fe5b6000918252602090912001805460a060020a60ff02191660a060020a836003811115610eaa57fe5b02179055505b600160a060020a0388166000818152600b60209081526040918290205482518d8152918201939093528082018590526060810192909252517fb52f7d019575ca7e8f1c4f4230a62faa06222575adaae1c8ab6238dd85abe2e69181900360800190a1600160a060020a0388166000908152600d602090815260408083208c90558051918201905290815295505b50505050509392505050565b600954600160a060020a031681565b600754600160a060020a031681565b326000908152600d6020908152604080832054808452600c909252822060060154909190819081908514610f9a57600080fd5b60016000858152600c602052604090206007015460ff166001811115610fbc57fe5b14610fc657600080fd5b5050506000818152600c602052604081206008019033905b8254811015610b985781600160a060020a03168382815481101515610fff57fe5b600091825260209091200154600160a060020a031614156110de57828181548110151561102857fe5b60009182526020909120015460a060020a900460ff16600381111561104957fe5b600314156110d9576002838281548110151561106157fe5b6000918252602090912001805460a060020a60ff02191660a060020a83600381111561108957fe5b021790555060408051858152600160a060020a038416602082015260ff83168183015290517f6eabb348ad372fe535298244c7d03bdb4ddfe69524d86c465e82aa146128186b9181900360600190a15b610b98565b600101610fde565b336000908152600d6020908152604080832054808452600c90925282206006015460609290819081908190819063ffffffff89161461115a5760408051808201909152601081527f63757272656e7448616e64213d616e640000000000000000000000000000000060208201529650611427565b6000868152600c602052604081206007015460ff16600181111561117a57fe5b146111ba5760408051808201909152601981527f63757272656e74537461747573213d4e4f54535441525445440000000000000060208201529650611427565b6000868152600c6020526040902060090154339550600160a060020a031685146112195760408051808201909152600f81527f6e6f74207374617274506c61796572000000000000000000000000000000000060208201529650611427565b5050506000838152600c602052604081206008018054909250815b83548310156112b4576001848481548110151561124d57fe5b60009182526020909120015460a060020a900460ff16600381111561126e57fe5b14156112a957838381548110151561128257fe5b600091825260209091200154600160a060020a03868116911614156112a5578291505b6001015b600190920191611234565b6000868152600c60205260409020600301548110156113085760408051808201909152601281527f72656164796e756d203c206d696e696d756d000000000000000000000000000060208201529650611427565b6000868152600c60205260408120600701805460ff1916600117905592505b83548310156113b0576001848481548110151561134057fe5b60009182526020909120015460a060020a900460ff16600381111561136157fe5b14156113a5576003848481548110151561137757fe5b6000918252602090912001805460a060020a60ff02191660a060020a83600381111561139f57fe5b02179055505b600190920191611327565b6000868152600c6020908152604091829020600601548251898152600160a060020a0389169281019290925260ff851682840152606082015290517f0b0441941542dfd5ec7788eb2f39b3db09215eec2dbc18495b41dfadc1cec1cf9181900360800190a160408051602081019091526000815296505b505050505050919050565b600454600160a060020a031681565b326000908152600d6020908152604080832054808452600c909252822060060154606092908190819086146114ab5760408051808201909152601381527f63757272656e7448616e6420213d2068616e64000000000000000000000000006020820152945061168b565b6000848152600c602052604081206007015460ff1660018111156114cb57fe5b1461150b5760408051808201909152600f81527fe6a18ce5ad90e5b7b2e5bc80e5a78b00000000000000000000000000000000006020820152945061168b565b5050506000818152600c6020526040812060080190335b82548210156116805780600160a060020a0316838381548110151561154357fe5b600091825260209091200154600160a060020a03161415611675576000848152600c60205260408120600501548454600290910291600b9186908690811061158757fe5b6000918252602080832090910154600160a060020a0316835282019290925260400190205410156115ed5760408051808201909152601281527fe78ea9e5aeb6e7adb9e7a081e4b88de5a49f00000000000000000000000000006020820152945061168b565b600183838154811015156115fd57fe5b6000918252602090912001805460a060020a60ff02191660a060020a83600381111561162557fe5b021790555060408051858152600160a060020a038316602082015260ff84168183015290517fde4164eea942dd001cdc898565cb8b2d25861c322c3c1e695630687d11036f159181900360600190a15b600190910190611522565b61168861211f565b94505b50505050919050565b600154604080517f6510e2960000000000000000000000000000000000000000000000000000000081526004810185905267ffffffffffffffff841660248201529051600160a060020a0390921691636510e2969160448082019260009290919082900301818387803b158015610b0157600080fd5b600654600160a060020a031681565b6001805473ffffffffffffffffffffffffffffffffffffffff1916600160a060020a03838116918217909255600254604080517f56598f560000000000000000000000000000000000000000000000000000000081526004810193909352519216916356598f569160248082019260009290919082900301818387803b158015610b8457600080fd5b600080546040517f693ec85e000000000000000000000000000000000000000000000000000000008152602060048201818152855160248401528551600160a060020a039094169363693ec85e9387938392604490920191908501908083838b5b8381101561181b578181015183820152602001611803565b50505050905090810190601f1680156118485780820380516001836020036101000a031916815260200191505b5092505050602060405180830381600087803b15801561186757600080fd5b505af115801561187b573d6000803e3d6000fd5b505050506040513d602081101561189157600080fd5b509092915050565b600e8054829081106118a757fe5b600091825260209091200154905081565b600a5481565b600154604080517f74a8f103000000000000000000000000000000000000000000000000000000008152600160a060020a038481166004830152915191909216916374a8f10391602480830192600092919082900301818387803b158015610b8457600080fd5b336000818152600d6020908152604080832054808452600c909252822060609392600890910190805b8254821015611c545784600160a060020a0316838381548110151561196f57fe5b600091825260209091200154600160a060020a03161415611c4957828281548110151561199857fe5b60009182526020909120015460a060020a900460ff1660038111156119b957fe5b600214156119fc5760408051808201909152600981527fe5b7b2e5bc83e7898c000000000000000000000000000000000000000000000060208201529550611c7f565b8282815481101515611a0a57fe5b60009182526020909120015460a060020a900460ff166003811115611a2b57fe5b60031415611a6e5760408051808201909152601c81527fe6ada3e59ca8e6b8b8e6888fe4b8ad2ce697a0e6b395e7a6bbe5bc800000000060208201529550611c7f565b506006548254600160a060020a0390911690819063a9059cbb90859085908110611a9457fe5b60009182526020822001548654600160a060020a0390911691600b91889088908110611abc57fe5b6000918252602080832090910154600160a060020a039081168452908301939093526040918201812054825160e060020a63ffffffff881602815294909316600485015260248401929092525160448084019382900301818387803b158015611b2457600080fd5b505af1158015611b38573d6000803e3d6000fd5b50505050600b60008484815481101515611b4e57fe5b6000918252602080832090910154600160a060020a03908116845283820194909452604092830182209190915581518781529288169083015260ff841682820152517f75cd3de90897f0cf79288829aee15498f4200042cd444b6f68332a31199a89a29181900360600190a160008383815481101515611bca57fe5b60009182526020822001805473ffffffffffffffffffffffffffffffffffffffff1916600160a060020a0393909316929092179091558354849084908110611c0e57fe5b6000918252602090912001805460a060020a60ff02191660a060020a836003811115611c3657fe5b0217905550611c4361211f565b50611c54565b60019091019061194e565b600160a060020a0385166000908152600d602090815260408083208390558051918201905290815295505b505050505090565b611c8f6128a5565b81516000811515611cb55760408051808201909152600080825260208201529250611cd3565b60208401905060408051908101604052808281526020018381525092505b5050919050565b600080826020015160001415611cf35760009150611d06565b8260000151905060c0815160001a101591505b50919050565b60606000611d186128e5565b6000611d2385611cda565b1515611d2e57600080fd5b611d3785612491565b925082604051908082528060200260200182016040528015611d7357816020015b611d606128a5565b815260200190600190039081611d585790505b509350611d7f856124fd565b91505b611d8b82612536565b15611db957611d9982612555565b8482815181101515611da757fe5b60209081029091010152600101611d82565b505050919050565b6000806000611dcf84612597565b1515611dda57600080fd5b611de3846125c0565b915091506020811115611df557600080fd5b801515611e055760009250611cd3565b806020036101000a82510492505050919050565b60006060806000806000611e2c8761263d565b5160151415611e4557611e3e87612691565b95506120fd565b611e4e876126dd565b94508493506000925060009150602884510390505b83518110156120f9578351600092507f300000000000000000000000000000000000000000000000000000000000000090859083908110611ea057fe5b90602001015160f860020a900460f860020a02600160f860020a03191610158015611f16575083517f390000000000000000000000000000000000000000000000000000000000000090859083908110611ef657fe5b90602001015160f860020a900460f860020a02600160f860020a03191611155b15611f41578351603090859083908110611f2c57fe5b016020015160f860020a908190048102040391505b83517f610000000000000000000000000000000000000000000000000000000000000090859083908110611f7157fe5b90602001015160f860020a900460f860020a02600160f860020a03191610158015611fe7575083517f660000000000000000000000000000000000000000000000000000000000000090859083908110611fc757fe5b90602001015160f860020a900460f860020a02600160f860020a03191611155b15612015578351606190859083908110611ffd57fe5b016020015160f860020a9081900481020403600a0191505b83517f41000000000000000000000000000000000000000000000000000000000000009085908390811061204557fe5b90602001015160f860020a900460f860020a02600160f860020a031916101580156120bb575083517f46000000000000000000000000000000000000000000000000000000000000009085908390811061209b57fe5b90602001015160f860020a900460f860020a02600160f860020a03191611155b156120e95783516041908590839081106120d157fe5b016020015160f860020a9081900481020403600a0191505b6010909202811791600101611e63565b8295505b5050505050919050565b600082820161211884821015612749565b9392505050565b326000908152600d6020908152604080832054808452600c9092528220606092906008018180805b83548110156121c757835460009085908390811061216157fe5b600091825260209091200154600160a060020a03161415612181576121bf565b838181548110151561218f57fe5b60009182526020909120015460a060020a900460ff1660038111156121b057fe5b600114156121bf576001909401935b600101612147565b6000868152600c602052604090206003015463ffffffff861610156122b4576000868152600c6020526040902060090154600160a060020a031615612279576000868152600c60209081526040808320600901805473ffffffffffffffffffffffffffffffffffffffff19169055865481518a81529283019390935260ff9092168183015290517f2b4dcc001c663fa58087374cbfc96e25669ebbb1eaad0047f2d659ec76f8ccf79181900360600190a15b60408051808201909152601081527f72656164796e756d3c6d696e696e756d0000000000000000000000000000000060208201529650612488565b6000868152600c6020526040902060090154600160a060020a03161561230f5760408051808201909152601181527f7374617274506c6179657220657869737400000000000000000000000000000060208201529650612488565b604080514481524260208083019190915282519182900383019091206000898152600c909252919020600301549093508381151561234957fe5b069150600090505b835481101561247657838181548110151561236857fe5b600091825260209091200154600160a060020a031615156123885761246e565b838181548110151561239657fe5b60009182526020909120015460a060020a900460ff1660038111156123b757fe5b6001146123c35761246e565b8115156124665783818154811015156123d857fe5b6000918252602080832090910154888352600c8252604092839020600901805473ffffffffffffffffffffffffffffffffffffffff1916600160a060020a03928316179081905583518a815291169181019190915260ff83168183015290517f2b4dcc001c663fa58087374cbfc96e25669ebbb1eaad0047f2d659ec76f8ccf79181900360600190a1612476565b600019909101905b600101612351565b60408051602081019091526000815296505b50505050505090565b6000806000806000806124a387611cda565b15156124b257600095506120fd565b8651805160001a955093506124c687612758565b840192506001876020015185010391505b8183116124f3576124e7836127d8565b909201916001016124d7565b9695505050505050565b6125056128e5565b600061251083611cda565b151561251b57600080fd5b61252483612758565b83519383529092016020820152919050565b60006125406128a5565b50508051602080820151915192015191011190565b61255d6128a5565b60008061256984612536565b15610119578360200151915061257e826127d8565b8284526020808501829052838201908601529050611cd3565b6000808260200151600014156125b05760009150611d06565b5050515160c060009190911a1090565b60008060008060006125d186612597565b15156125dc57600080fd5b8551805160001a9350915060808310156125fc5781945060019350612635565b60b883101561261a5760018660200151039350816001019450612635565b60b78303905080600187602001510303935080820160010194505b505050915091565b602081015160609080151561265157611d06565b806040519080825280601f01601f19166020018201604052801561267f578160200160208202803883390190505b509150611d0683600001518383612865565b600080600061269f84612597565b15156126aa57600080fd5b6126b3846125c0565b9092509050601481146126c557600080fd5b50516c01000000000000000000000000900492915050565b606060008060606126ed85612597565b15156126f857600080fd5b612701856125c0565b92509250816040519080825280601f01601f191660200182016040528015612733578160200160208202803883390190505b509050612741838284612865565b949350505050565b80151561275557600080fd5b50565b60008060008360200151600014156127735760009250611cd3565b50508151805160001a90608082101561278f5760009250611cd3565b60b88210806127aa575060c082101580156127aa575060f882105b156127b85760019250611cd3565b60c08210156127cd5760b51982019250611cd3565b5060f5190192915050565b8051600090811a60808110156127f15760019150611d06565b60b881101561280657607e1981019150611d06565b60c081101561282f57600183015160b76020839003016101000a9004810160b519019150611d06565b60f88110156128445760be1981019150611d06565b6001929092015160f76020849003016101000a900490910160f51901919050565b60006020601f83010484602085015b82841461289257602084028281015190820152600190930192612874565b6000865160200187015250505050505050565b604080518082019091526000808252602082015290565b8154818355818111156128e0576000838152602090206128e0918101908301612906565b505050565b6060604051908101604052806128f96128a5565b8152602001600081525090565b61293c91905b8082111561293857805474ffffffffffffffffffffffffffffffffffffffffff1916815560010161290c565b5090565b905600a165627a7a7230582069241875d0acc3db5e5d5c62e8041c9bf88e0544378d1a2849bbe6c6b72d7bc70029",
  "source": "pragma solidity ^0.4.20;\r\n\r\nimport './LibContract.sol';\r\nimport './SafeMath.sol';\r\nimport './NotaryAbi.sol';\r\n\r\nimport './TokenAbi.sol';\r\n\r\nimport './RLP.sol';\r\nimport './RLPEncode.sol';\r\nimport './Strings.sol';\r\n\r\ncontract TableFunc is LibContract{\r\n    using SafeMath for uint256;\r\n    using Strings for *;\r\n    using RLP for bytes;\r\n    using RLP for RLP.RLPItem;\r\n    using RLP for RLP.Iterator;\r\n    string  public name;                    //\r\n    address public owner;          \r\n    address public authorityAddress;        //\r\n    address public tokenAddress;             //\r\n    address public interManage;             //\r\n    address public notaryManage;            //\r\n    address public tableFunAddress;         //table \r\n    uint256 public tableNonce=1;            //tableid\r\n    mapping(address => uint256) balances;   //\r\n    enum PlayStatus {WAITING, READY, DISCARD, PLAYING}\r\n    enum TableStatus {NOTSTARTED, STARTED}      // tableNOTSTARTED:STARTED:\r\n\r\n    enum ErrorCode_Settle {\r\n        DATASTRUCT, \r\n        ADDR_DISMATCH, \r\n        HAND_DISMATCH, \r\n        ITEMDATA_STRUCT, \r\n        NOT_APP_NORTARY, \r\n        NORTARY_NOTIN_LIST, \r\n        RE_SUBMIT, \r\n        DATA_INCONSISTENCY,\r\n        RE_NOTARIZE,\r\n        RE_NOTARIZE_ERR\r\n    }\r\n    enum Data_Src {PLAYER, NORTARY}\r\n\r\n    struct Seat {\r\n        address playerAddr;\r\n        PlayStatus status;\r\n    }\r\n    struct NotaryInfo{\r\n        address notary;\r\n        bytes   allocate;\r\n    }\r\n    struct table {\r\n        uint256 tableid;            //\r\n        // address interAddress;       //\r\n        // address notaryAddress;      //\r\n        address creator;            //\r\n        uint256 needChips;          //\r\n        uint256 minimum;            //\r\n        uint256 maximum;            //\r\n        uint256 smallBlind;         //\r\n        uint256 currentHand;        // ,+1 ,1\r\n        TableStatus currentStatus;  //table  \r\n        Seat[]  seats;              //\r\n        address startPlayer;        //startGame \r\n        uint256 index;              //tableList\r\n        NotaryInfo[] notaryInfos;   //\r\n    }\r\n\r\n\r\n    mapping(uint256 => table) tables; //table\r\n    mapping (address => uint256) public myTable;  //=>table.tableid\r\n\r\n    uint256[] public tableList;              //tableid\r\n\r\n    bytes4 constant ID_STARTGAME    = bytes4(keccak256(\"startGame(uint32)\"));\r\n    bytes4 constant ID_JOIN         = bytes4(keccak256(\"join(uint256,address,uint256)\"));\r\n    bytes4 constant ID_START        = bytes4(keccak256(\"start(uint256)\"));\r\n    bytes4 constant ID_DISCARD      = bytes4(keccak256(\"discard(uint256)\"));\r\n    bytes4 constant ID_DISCARD2     = bytes4(keccak256(\"discard2(bytes)\"));\r\n    bytes4 constant ID_LEAVE        = bytes4(keccak256(\"leave()\"));\r\n    bytes4 constant ID_SETTLE       = bytes4(keccak256(\"settle(bytes)\"));\r\n    bytes4 constant ID_SUBMITNOTARY = bytes4(keccak256(\"submitNotary(bytes)\"));\r\n\r\n    event CreateTable(address creator, uint256 tableid,  uint256 minimum, uint256 maximum, uint256 needChips, uint256 smallBlind);\r\n    event DestroyTable(address creator, uint256 tableid);\r\n    event SelectInter(uint256 tableid, uint256 number);\r\n    event Join(uint256 tableid,address addr, uint256 pos, uint256 amount);\r\n    event Start(uint256 tableid,address addr, uint256 pos);\r\n    event SelectStarter(uint256 tableid,address addr, uint256 pos);\r\n    event Discard(uint256 tableid,address addr, uint256 pos);\r\n    event Leave(uint256 tableid,address addr, uint256 pos);\r\n    event StartGame(uint256 tableid,address player, uint256 pos, uint256 hand);\r\n    event Settle( uint256 hand,uint256 playingNum,uint256 tableid);\r\n    event SettleItemData(uint256 tableid,address player, uint256 pos, uint256 hand, uint256 flag, uint256 amount);\r\n    event SettlePlayerAbsent(uint256 tableid,address player, uint256 pos, uint256 hand);\r\n    event SettlePlayer(address player, uint256 hand);\r\n    event SettleData(uint256 tableid,address submitter, uint datalength, bytes data);\r\n    event SettleError(address addr, uint256 datasrc, uint256 errcode);\r\n    event FinishNotary(uint256 tableid,uint256 hand);\r\n    address constant EMPTYADDR = 0x0000000000000000000000000000000000000000;\r\n\r\n\r\n    constructor()payable public {\r\n        name = \"tableManageFunc\";\r\n        owner = msg.sender;\r\n        _setContract(\"tableManageFunc\",this); //\r\n\r\n    }\r\n\r\n    // \r\n    modifier onlyOwner {\r\n        assert(msg.sender == owner);\r\n        _;\r\n    }\r\n    function startGame(uint32 hand) public returns(string){\r\n        uint256 tableid = myTable[msg.sender];\r\n        \r\n       // require(tables[tableid].currentHand == hand);\r\n        if(tables[tableid].currentHand != hand){\r\n            return \"currentHand!=and\";\r\n        }\r\n        //require(tables[tableid].currentStatus == TableStatus.NOTSTARTED);\r\n        if(tables[tableid].currentStatus != TableStatus.NOTSTARTED){\r\n            return \"currentStatus!=NOTSTARTED\";\r\n        }\r\n        address player = msg.sender;\r\n        if(player != tables[tableid].startPlayer){\r\n            return \"not startPlayer\";\r\n        }\r\n\r\n        Seat[] storage seats=tables[tableid].seats;\r\n        uint256 i;\r\n        uint startpos = seats.length;\r\n        uint readynum = 0;\r\n        \r\n\r\n        for (i = 0; i < seats.length; i++) {\r\n            if (seats[i].status == PlayStatus.READY) {\r\n                if(player == seats[i].playerAddr) {\r\n                    startpos = i;\r\n                }\r\n                readynum++;\r\n            }\r\n        }\r\n        if(readynum < tables[tableid].minimum){\r\n            return \"readynum < minimum\";\r\n        }\r\n\r\n\r\n        tables[tableid].currentStatus = TableStatus.STARTED;\r\n        for (i = 0; i < seats.length; i++) {\r\n            if (seats[i].status == PlayStatus.READY) {\r\n                seats[i].status = PlayStatus.PLAYING;\r\n            }\r\n        }\r\n        \r\n        emit StartGame(tableid,player, uint8(startpos), tables[tableid].currentHand);\r\n        return \"\";\r\n    }\r\n    function join(uint256 tableid,address from, uint256 value) public returns(string) {\r\n        balances[from] = balances[from].add(value);\r\n        if(msg.sender != tokenAddress){\r\n            return \"sender != tokenAddress\";\r\n        }\r\n        //creater,user,\r\n        if(myTable[from] != 0 ){\r\n            return \"\";\r\n        }\r\n        if(tables[tableid].tableid ==0){\r\n            return \"\";\r\n        }\r\n        // if(tables[tableid].seats.length>=tables[tableid].maximum){\r\n        //     return \"\";\r\n        // }\r\n        Seat[] storage seats = tables[tableid].seats;\r\n        \r\n        bool rebuy = false;\r\n        uint biggerPos = seats.length;\r\n        uint emptyPos = biggerPos;\r\n        for (uint256 i = 0; i < seats.length; i++) {\r\n            if(seats[i].playerAddr == EMPTYADDR)\r\n            {\r\n                emptyPos = i;\r\n            }\r\n        }\r\n        if(emptyPos >=tables[tableid].maximum){\r\n            return \"\";\r\n        }\r\n        if(!rebuy) {\r\n            if( balances[from] < tables[tableid].needChips){\r\n                return \"balance<needChips\";\r\n            }\r\n            if(emptyPos == biggerPos){\r\n                seats.length++;\r\n            } \r\n    \r\n            seats[emptyPos].playerAddr = from;\r\n            //balances[from] = balances[from].add(value);\r\n            seats[emptyPos].status = PlayStatus.WAITING;\r\n           \r\n           \r\n        }\r\n        emit Join(tableid,from, emptyPos, balances[from]);\r\n        myTable[from] = tableid;\r\n        return \"\";\r\n    }\r\n    /**\r\n     * @dev \r\n     * @param hand \r\n     */\r\n    function start(uint256 hand) public returns(string){\r\n        // table\r\n        // \r\n        uint256 tableid=myTable[tx.origin];\r\n\r\n        if(tables[tableid].currentHand != hand){\r\n            return \"currentHand != hand\";\r\n        }\r\n        if(tables[tableid].currentStatus != TableStatus.NOTSTARTED){\r\n            return \"\";\r\n        }\r\n\r\n        Seat[] storage seats = tables[tableid].seats;\r\n        uint i;\r\n\r\n        address player = msg.sender;\r\n        for (i = 0; i < seats.length; i++) {\r\n            if (seats[i].playerAddr == player) {\r\n                if(balances[seats[i].playerAddr] < 2 * tables[tableid].smallBlind){\r\n                    return \"\";\r\n                }  // \r\n                seats[i].status = PlayStatus.READY;\r\n\r\n                emit Start(tableid,player, uint8(i));\r\n            }\r\n        }\r\n\r\n        // // startstart minimum,\r\n        // if(readynum != minimum) {\r\n        //     return;\r\n        // }\r\n\r\n        return selectStartPlayer();\r\n        \r\n    }\r\n        /**\r\n     * @dev \r\n     * @param hand \r\n     */\r\n    function discard(uint256 hand) public {\r\n        uint256 tableid = myTable[tx.origin];\r\n\r\n        require(tables[tableid].currentHand == hand);\r\n        require(tables[tableid].currentStatus == TableStatus.STARTED);\r\n\r\n        Seat[] storage seats = tables[tableid].seats;\r\n        address player = msg.sender;\r\n        for (uint256 i = 0; i < seats.length; i++) {\r\n            if (seats[i].playerAddr == player) {\r\n                if(PlayStatus.PLAYING == seats[i].status) {\r\n                    seats[i].status = PlayStatus.DISCARD;\r\n                    emit Discard(tableid,player, uint8(i));\r\n                }\r\n                \r\n                break;\r\n            }\r\n        }\r\n    }\r\n\r\n    /**\r\n     * @dev \r\n     * @param data ()\r\n     */\r\n    function discard2(bytes data) public {\r\n        // emit SettleData(msg.sender, data.length, data);\r\n        uint256 tableid = myTable[tx.origin];\r\n        uint sigLen = 65;\r\n\r\n        require(data.length > sigLen);\r\n\r\n        bytes memory msgData = new bytes(data.length - sigLen);\r\n\r\n        for(uint i = sigLen; i < data.length; i++) {\r\n            msgData[i - sigLen] = data[i];\r\n        }\r\n\r\n        RLP.RLPItem memory msg = msgData.toRLPItem();\r\n        require(msg.isList());\r\n        RLP.RLPItem[] memory msgItems = msg.toList();\r\n        require(4 == msgItems.length);\r\n\r\n        uint pos = msgItems[1].toUint();\r\n        Seat[] storage seats = tables[tableid].seats;\r\n\r\n        require(pos < seats.length);\r\n        require(rlpToAddress(msgItems[2]) == address(this));\r\n        require(uint32(msgItems[3].toUint()) == tables[tableid].currentHand);\r\n\r\n        uint8 v;\r\n        bytes32 r;\r\n        bytes32 s;\r\n\r\n        assembly {\r\n            r := mload(add(data, 32))\r\n            s := mload(add(data, 64))\r\n            v := mload(add(data, 65))\r\n        }\r\n\r\n        if (v < 27) {\r\n            v += 27;\r\n        }\r\n\r\n        require(ecrecover(keccak256(msgData), v, r, s) == seats[pos].playerAddr);\r\n\r\n        if(PlayStatus.PLAYING == seats[pos].status) {\r\n            seats[pos].status = PlayStatus.DISCARD;\r\n            emit Discard(tableid,seats[pos].playerAddr, uint8(pos));\r\n        }\r\n\r\n        emit Discard(tableid,seats[pos].playerAddr, uint8(pos));\r\n        // emit Discard(seats[pos].playerAddr, uint8(33));\r\n    }\r\n    /**\r\n     * @dev table\r\n     */\r\n    function leave() public returns(string){\r\n        // table\r\n        address player = msg.sender;\r\n        uint256 tableid = myTable[player];\r\n        Seat[] storage seats = tables[tableid].seats;\r\n\r\n        for (uint256 i = 0; i < seats.length; i++) {\r\n            if (seats[i].playerAddr == player) {\r\n                if(PlayStatus.DISCARD == seats[i].status){return \"\";}\r\n                if(PlayStatus.PLAYING == seats[i].status){return \",\";}\r\n\r\n                //\r\n                TokenAbi token = TokenAbi(tokenAddress);\r\n                \r\n                token.transfer(seats[i].playerAddr, balances[seats[i].playerAddr]);\r\n                delete balances[seats[i].playerAddr];\r\n\r\n                emit Leave(tableid,player, uint8(i));\r\n                \r\n                seats[i].playerAddr = EMPTYADDR;\r\n                seats[i].status = PlayStatus.WAITING;\r\n\r\n                selectStartPlayer();\r\n\r\n                break;\r\n            }\r\n        }\r\n        delete myTable[player];\r\n        return \"\";\r\n    }\r\n    /**\r\n     * @dev \r\n     * @param data ()\r\n     * @param src  0:; 1:\r\n     */\r\n    function allocate(bytes data, uint256 src) internal returns(string ret){\r\n        uint256 tableid = myTable[msg.sender];\r\n        //return \"allocate start\";\r\n        RLP.RLPItem memory bal = data.toRLPItem();\r\n        // require(bal.isList());\r\n        if(!bal.isList()) {\r\n            //emit SettleError(msg.sender, src, uint256(ErrorCode_Settle.DATASTRUCT));\r\n            return \"1\";\r\n        }\r\n        RLP.RLPItem[] memory settledata = bal.toList();\r\n\r\n        if(settledata.length != 3) {\r\n            //emit SettleError(msg.sender, src, uint256(ErrorCode_Settle.DATASTRUCT));\r\n             return \"2\";\r\n        }\r\n\r\n        if(address(this) != rlpToAddress(settledata[0])) {\r\n            //emit SettleError(msg.sender, src, uint256(ErrorCode_Settle.ADDR_DISMATCH));\r\n            return \"3\";\r\n        }\r\n\r\n        if(uint32(settledata[1].toUint()) != tables[tableid].currentHand) {\r\n            //emit SettleError(msg.sender, src, uint256(ErrorCode_Settle.HAND_DISMATCH));\r\n             return \"4\";\r\n        }\r\n\r\n        if(!settledata[2].isList()) {\r\n           // emit SettleError(msg.sender, src, uint8(ErrorCode_Settle.DATASTRUCT));\r\n            return \"5\";\r\n        }\r\n        //return \"end\";\r\n        // require(settledata[2].isList(), \"settlement data struct error\");\r\n        RLP.RLPItem[] memory itemDatas = settledata[2].toList();\r\n\r\n        uint i;\r\n        for(i = 0; i < itemDatas.length; i++) {\r\n            // require(itemDatas[i].isList());\r\n            if(!settledata[2].isList()) {\r\n                //emit SettleError(msg.sender, src, uint8(ErrorCode_Settle.ITEMDATA_STRUCT));\r\n                return \"6\";\r\n            }\r\n\r\n            RLP.RLPItem[] memory item = itemDatas[i].toList();\r\n            // require(3 == item.length);\r\n            if(item.length != 3) {\r\n                //emit SettleError(msg.sender, src, uint8(ErrorCode_Settle.ITEMDATA_STRUCT));\r\n                return \"7\";\r\n            }\r\n           \r\n            // uint8 pos = uint8(item[0].toUint());\r\n            // uint32 flag = uint32(item[1].toUint());\r\n            // uint  won = item[2].toUint();\r\n            // emit GameSettleDataItem(settledata[2].toBytes(), itemDatas[i].toBytes(), uint32(won));\r\n            Seat[] storage seats = tables[tableid].seats;\r\n            if(1 == item[1].toUint()) {\r\n                balances[seats[item[0].toUint()].playerAddr] = balances[seats[item[0].toUint()].playerAddr].add(item[2].toUint());\r\n            }\r\n            else {\r\n                balances[seats[item[0].toUint()].playerAddr] = balances[seats[item[0].toUint()].playerAddr].sub(item[2].toUint());\r\n            }\r\n\r\n            emit SettleItemData(tableid,seats[item[0].toUint()].playerAddr, uint256(item[0].toUint()), tables[tableid].currentHand, uint256(item[1].toUint()), uint256(item[2].toUint()));\r\n        }\r\n\r\n        return \"\";\r\n    }\r\n    function rlpToAddress(RLP.RLPItem item) internal returns(address addr){\r\n\r\n        if (item.toBytes().length==21) {\r\n            addr = item.toAddress();\r\n            return addr;\r\n        } \r\n        \r\n        string memory strAddr = item.toAscii();\r\n        bytes memory bAddr = bytes(strAddr);\r\n\r\n        uint iAdd = 0;\r\n        uint tmp = 0;\r\n        for(uint i = bAddr.length-40; i < bAddr.length; i++) {\r\n            tmp = 0;\r\n            if (bAddr[i] >= byte('0') && bAddr[i] <= byte('9')) {\r\n                tmp = uint(bAddr[i]) - uint(byte('0'));\r\n            }\r\n\r\n            if (bAddr[i] >= byte('a') && bAddr[i] <= byte('f')) {\r\n                tmp = 10 + uint(bAddr[i]) - uint(byte('a'));\r\n            }\r\n\r\n            if (bAddr[i] >= byte('A') && bAddr[i] <= byte('F')) {\r\n                tmp = 10 + uint(bAddr[i]) - uint(byte('A'));\r\n            }\r\n\r\n            iAdd = iAdd << 4 | tmp;\r\n        }\r\n\r\n        return address(iAdd);\r\n    }\r\n    function selectStartPlayer() internal returns(string){\r\n        uint256 tableid = myTable[tx.origin];\r\n        uint32 readynum = 0;\r\n        Seat[] storage seats = tables[tableid].seats;\r\n\r\n        //tables[tableid].startPlayer;\r\n        for (i = 0; i < seats.length; i++) {\r\n            if (seats[i].playerAddr == EMPTYADDR) {\r\n                continue;\r\n            }\r\n\r\n            if(PlayStatus.READY == seats[i].status) {\r\n                readynum++;\r\n            }\r\n        }\r\n\r\n        if(readynum < tables[tableid].minimum) {\r\n            if(tables[tableid].startPlayer != EMPTYADDR) {\r\n                tables[tableid].startPlayer = EMPTYADDR;\r\n                emit SelectStarter(tableid,tables[tableid].startPlayer, uint8(seats.length));\r\n            }\r\n            \r\n            return \"readynum<mininum\";\r\n        }\r\n\r\n        if(tables[tableid].startPlayer != EMPTYADDR) {\r\n            return  \"startPlayer exist\";\r\n        }\r\n\r\n        //READY\r\n        uint rand = uint(keccak256(block.difficulty, now));\r\n        uint select = rand % tables[tableid].minimum;\r\n\r\n        for (uint i = 0; i < seats.length; i++) {\r\n            if(EMPTYADDR == seats[i].playerAddr) {\r\n                continue;\r\n            }\r\n            if(PlayStatus.READY != seats[i].status) {\r\n                continue;\r\n            }\r\n\r\n            if(0 == select) {\r\n                tables[tableid].startPlayer = seats[i].playerAddr;\r\n                emit SelectStarter(tableid,tables[tableid].startPlayer, uint8(i));\r\n                //return \"startPlayer\";\r\n                break;\r\n            }\r\n            select--;\r\n            \r\n        }\r\n        return \"\";\r\n    }\r\n}\r\n",
  "sourcePath": "E:\\Code\\src\\coding.xbonline.net\\blockchain\\gameContract\\contracts\\TableFunc.sol",
  "compiler": {
    "name": "solc",
    "version": "0.4.24+commit.e67f0147.Emscripten.clang"
  },
  "schemaVersion": "2.0.1",
  "updatedAt": "2019-03-26T07:00:49.253Z"
}